{
	"contracts/Invest.sol": {
		"Invest": {
			"abi": [
				{
					"inputs": [],
					"stateMutability": "nonpayable",
					"type": "constructor"
				},
				{
					"inputs": [
						{
							"internalType": "address",
							"name": "spender",
							"type": "address"
						},
						{
							"internalType": "uint256",
							"name": "allowance",
							"type": "uint256"
						},
						{
							"internalType": "uint256",
							"name": "needed",
							"type": "uint256"
						}
					],
					"name": "ERC20InsufficientAllowance",
					"type": "error"
				},
				{
					"inputs": [
						{
							"internalType": "address",
							"name": "sender",
							"type": "address"
						},
						{
							"internalType": "uint256",
							"name": "balance",
							"type": "uint256"
						},
						{
							"internalType": "uint256",
							"name": "needed",
							"type": "uint256"
						}
					],
					"name": "ERC20InsufficientBalance",
					"type": "error"
				},
				{
					"inputs": [
						{
							"internalType": "address",
							"name": "approver",
							"type": "address"
						}
					],
					"name": "ERC20InvalidApprover",
					"type": "error"
				},
				{
					"inputs": [
						{
							"internalType": "address",
							"name": "receiver",
							"type": "address"
						}
					],
					"name": "ERC20InvalidReceiver",
					"type": "error"
				},
				{
					"inputs": [
						{
							"internalType": "address",
							"name": "sender",
							"type": "address"
						}
					],
					"name": "ERC20InvalidSender",
					"type": "error"
				},
				{
					"inputs": [
						{
							"internalType": "address",
							"name": "spender",
							"type": "address"
						}
					],
					"name": "ERC20InvalidSpender",
					"type": "error"
				},
				{
					"anonymous": false,
					"inputs": [
						{
							"indexed": true,
							"internalType": "address",
							"name": "owner",
							"type": "address"
						},
						{
							"indexed": true,
							"internalType": "address",
							"name": "spender",
							"type": "address"
						},
						{
							"indexed": false,
							"internalType": "uint256",
							"name": "value",
							"type": "uint256"
						}
					],
					"name": "Approval",
					"type": "event"
				},
				{
					"anonymous": false,
					"inputs": [
						{
							"indexed": true,
							"internalType": "address",
							"name": "from",
							"type": "address"
						},
						{
							"indexed": true,
							"internalType": "address",
							"name": "to",
							"type": "address"
						},
						{
							"indexed": false,
							"internalType": "uint256",
							"name": "value",
							"type": "uint256"
						}
					],
					"name": "Transfer",
					"type": "event"
				},
				{
					"inputs": [
						{
							"internalType": "address",
							"name": "account",
							"type": "address"
						},
						{
							"internalType": "uint256",
							"name": "value",
							"type": "uint256"
						}
					],
					"name": "_mint",
					"outputs": [],
					"stateMutability": "nonpayable",
					"type": "function"
				},
				{
					"inputs": [],
					"name": "admin",
					"outputs": [
						{
							"internalType": "address",
							"name": "",
							"type": "address"
						}
					],
					"stateMutability": "view",
					"type": "function"
				},
				{
					"inputs": [
						{
							"internalType": "address",
							"name": "owner",
							"type": "address"
						},
						{
							"internalType": "address",
							"name": "spender",
							"type": "address"
						}
					],
					"name": "allowance",
					"outputs": [
						{
							"internalType": "uint256",
							"name": "",
							"type": "uint256"
						}
					],
					"stateMutability": "view",
					"type": "function"
				},
				{
					"inputs": [
						{
							"internalType": "address",
							"name": "spender",
							"type": "address"
						},
						{
							"internalType": "uint256",
							"name": "value",
							"type": "uint256"
						}
					],
					"name": "approve",
					"outputs": [
						{
							"internalType": "bool",
							"name": "",
							"type": "bool"
						}
					],
					"stateMutability": "nonpayable",
					"type": "function"
				},
				{
					"inputs": [
						{
							"internalType": "address",
							"name": "account",
							"type": "address"
						}
					],
					"name": "balanceOf",
					"outputs": [
						{
							"internalType": "uint256",
							"name": "",
							"type": "uint256"
						}
					],
					"stateMutability": "view",
					"type": "function"
				},
				{
					"inputs": [
						{
							"internalType": "address",
							"name": "wallet",
							"type": "address"
						}
					],
					"name": "balanceOfWallet",
					"outputs": [
						{
							"internalType": "uint256",
							"name": "",
							"type": "uint256"
						}
					],
					"stateMutability": "view",
					"type": "function"
				},
				{
					"inputs": [
						{
							"internalType": "uint256",
							"name": "_projectId",
							"type": "uint256"
						}
					],
					"name": "closeProject",
					"outputs": [],
					"stateMutability": "nonpayable",
					"type": "function"
				},
				{
					"inputs": [
						{
							"internalType": "uint256",
							"name": "_goal",
							"type": "uint256"
						},
						{
							"internalType": "uint256",
							"name": "_interest",
							"type": "uint256"
						}
					],
					"name": "createProject",
					"outputs": [
						{
							"internalType": "uint256",
							"name": "",
							"type": "uint256"
						}
					],
					"stateMutability": "nonpayable",
					"type": "function"
				},
				{
					"inputs": [],
					"name": "decimals",
					"outputs": [
						{
							"internalType": "uint8",
							"name": "",
							"type": "uint8"
						}
					],
					"stateMutability": "pure",
					"type": "function"
				},
				{
					"inputs": [
						{
							"internalType": "address",
							"name": "_user",
							"type": "address"
						},
						{
							"internalType": "uint256",
							"name": "_amount",
							"type": "uint256"
						}
					],
					"name": "giveTokens",
					"outputs": [],
					"stateMutability": "nonpayable",
					"type": "function"
				},
				{
					"inputs": [
						{
							"internalType": "uint256",
							"name": "_projectId",
							"type": "uint256"
						},
						{
							"internalType": "uint256",
							"name": "_amount",
							"type": "uint256"
						}
					],
					"name": "investInProject",
					"outputs": [],
					"stateMutability": "nonpayable",
					"type": "function"
				},
				{
					"inputs": [
						{
							"internalType": "uint256",
							"name": "_projectId",
							"type": "uint256"
						},
						{
							"internalType": "uint256",
							"name": "_amount",
							"type": "uint256"
						}
					],
					"name": "issueTokens",
					"outputs": [],
					"stateMutability": "nonpayable",
					"type": "function"
				},
				{
					"inputs": [],
					"name": "name",
					"outputs": [
						{
							"internalType": "string",
							"name": "",
							"type": "string"
						}
					],
					"stateMutability": "view",
					"type": "function"
				},
				{
					"inputs": [
						{
							"internalType": "uint256",
							"name": "_projectId",
							"type": "uint256"
						},
						{
							"internalType": "uint256",
							"name": "_amount",
							"type": "uint256"
						}
					],
					"name": "payInvestors",
					"outputs": [],
					"stateMutability": "nonpayable",
					"type": "function"
				},
				{
					"inputs": [],
					"name": "projectCount",
					"outputs": [
						{
							"internalType": "uint256",
							"name": "",
							"type": "uint256"
						}
					],
					"stateMutability": "view",
					"type": "function"
				},
				{
					"inputs": [
						{
							"internalType": "uint256",
							"name": "",
							"type": "uint256"
						}
					],
					"name": "projects",
					"outputs": [
						{
							"internalType": "uint256",
							"name": "balance",
							"type": "uint256"
						},
						{
							"internalType": "uint256",
							"name": "capital",
							"type": "uint256"
						},
						{
							"internalType": "uint256",
							"name": "goal",
							"type": "uint256"
						},
						{
							"internalType": "uint256",
							"name": "interest",
							"type": "uint256"
						},
						{
							"internalType": "address",
							"name": "author",
							"type": "address"
						},
						{
							"internalType": "uint256",
							"name": "investorsCount",
							"type": "uint256"
						},
						{
							"internalType": "enum Invest.Status",
							"name": "status",
							"type": "uint8"
						}
					],
					"stateMutability": "view",
					"type": "function"
				},
				{
					"inputs": [
						{
							"internalType": "uint256",
							"name": "",
							"type": "uint256"
						},
						{
							"internalType": "address",
							"name": "",
							"type": "address"
						}
					],
					"name": "projectsInvestments",
					"outputs": [
						{
							"internalType": "uint256",
							"name": "",
							"type": "uint256"
						}
					],
					"stateMutability": "view",
					"type": "function"
				},
				{
					"inputs": [],
					"name": "registerUser",
					"outputs": [],
					"stateMutability": "nonpayable",
					"type": "function"
				},
				{
					"inputs": [],
					"name": "symbol",
					"outputs": [
						{
							"internalType": "string",
							"name": "",
							"type": "string"
						}
					],
					"stateMutability": "view",
					"type": "function"
				},
				{
					"inputs": [
						{
							"internalType": "address",
							"name": "_user",
							"type": "address"
						},
						{
							"internalType": "uint256",
							"name": "_amount",
							"type": "uint256"
						}
					],
					"name": "takeTokens",
					"outputs": [],
					"stateMutability": "nonpayable",
					"type": "function"
				},
				{
					"inputs": [],
					"name": "totalSupply",
					"outputs": [
						{
							"internalType": "uint256",
							"name": "",
							"type": "uint256"
						}
					],
					"stateMutability": "view",
					"type": "function"
				},
				{
					"inputs": [
						{
							"internalType": "address",
							"name": "to",
							"type": "address"
						},
						{
							"internalType": "uint256",
							"name": "value",
							"type": "uint256"
						}
					],
					"name": "transfer",
					"outputs": [
						{
							"internalType": "bool",
							"name": "",
							"type": "bool"
						}
					],
					"stateMutability": "nonpayable",
					"type": "function"
				},
				{
					"inputs": [
						{
							"internalType": "address",
							"name": "from",
							"type": "address"
						},
						{
							"internalType": "address",
							"name": "to",
							"type": "address"
						},
						{
							"internalType": "uint256",
							"name": "value",
							"type": "uint256"
						}
					],
					"name": "transferFrom",
					"outputs": [
						{
							"internalType": "bool",
							"name": "",
							"type": "bool"
						}
					],
					"stateMutability": "nonpayable",
					"type": "function"
				},
				{
					"inputs": [
						{
							"internalType": "address",
							"name": "",
							"type": "address"
						}
					],
					"name": "users",
					"outputs": [
						{
							"internalType": "uint256",
							"name": "balance",
							"type": "uint256"
						}
					],
					"stateMutability": "view",
					"type": "function"
				}
			],
			"devdoc": {
				"errors": {
					"ERC20InsufficientAllowance(address,uint256,uint256)": [
						{
							"details": "Indicates a failure with the `spender`’s `allowance`. Used in transfers.",
							"params": {
								"allowance": "Amount of tokens a `spender` is allowed to operate with.",
								"needed": "Minimum amount required to perform a transfer.",
								"spender": "Address that may be allowed to operate on tokens without being their owner."
							}
						}
					],
					"ERC20InsufficientBalance(address,uint256,uint256)": [
						{
							"details": "Indicates an error related to the current `balance` of a `sender`. Used in transfers.",
							"params": {
								"balance": "Current balance for the interacting account.",
								"needed": "Minimum amount required to perform a transfer.",
								"sender": "Address whose tokens are being transferred."
							}
						}
					],
					"ERC20InvalidApprover(address)": [
						{
							"details": "Indicates a failure with the `approver` of a token to be approved. Used in approvals.",
							"params": {
								"approver": "Address initiating an approval operation."
							}
						}
					],
					"ERC20InvalidReceiver(address)": [
						{
							"details": "Indicates a failure with the token `receiver`. Used in transfers.",
							"params": {
								"receiver": "Address to which tokens are being transferred."
							}
						}
					],
					"ERC20InvalidSender(address)": [
						{
							"details": "Indicates a failure with the token `sender`. Used in transfers.",
							"params": {
								"sender": "Address whose tokens are being transferred."
							}
						}
					],
					"ERC20InvalidSpender(address)": [
						{
							"details": "Indicates a failure with the `spender` to be approved. Used in approvals.",
							"params": {
								"spender": "Address that may be allowed to operate on tokens without being their owner."
							}
						}
					]
				},
				"events": {
					"Approval(address,address,uint256)": {
						"details": "Emitted when the allowance of a `spender` for an `owner` is set by a call to {approve}. `value` is the new allowance."
					},
					"Transfer(address,address,uint256)": {
						"details": "Emitted when `value` tokens are moved from one account (`from`) to another (`to`). Note that `value` may be zero."
					}
				},
				"kind": "dev",
				"methods": {
					"_mint(address,uint256)": {
						"details": "Creates a `value` amount of tokens and assigns them to `account`, by transferring it from address(0). Relies on the `_update` mechanism Emits a {Transfer} event with `from` set to the zero address. NOTE: This function is not virtual, {_update} should be overridden instead."
					},
					"allowance(address,address)": {
						"details": "See {IERC20-allowance}."
					},
					"approve(address,uint256)": {
						"details": "See {IERC20-approve}. NOTE: If `value` is the maximum `uint256`, the allowance is not updated on `transferFrom`. This is semantically equivalent to an infinite approval. Requirements: - `spender` cannot be the zero address."
					},
					"balanceOf(address)": {
						"details": "See {IERC20-balanceOf}."
					},
					"decimals()": {
						"details": "Returns the number of decimals used to get its user representation. For example, if `decimals` equals `2`, a balance of `505` tokens should be displayed to a user as `5.05` (`505 / 10 ** 2`). Tokens usually opt for a value of 18, imitating the relationship between Ether and Wei. This is the default value returned by this function, unless it's overridden. NOTE: This information is only used for _display_ purposes: it in no way affects any of the arithmetic of the contract, including {IERC20-balanceOf} and {IERC20-transfer}."
					},
					"name()": {
						"details": "Returns the name of the token."
					},
					"symbol()": {
						"details": "Returns the symbol of the token, usually a shorter version of the name."
					},
					"totalSupply()": {
						"details": "See {IERC20-totalSupply}."
					},
					"transfer(address,uint256)": {
						"details": "See {IERC20-transfer}. Requirements: - `to` cannot be the zero address. - the caller must have a balance of at least `value`."
					},
					"transferFrom(address,address,uint256)": {
						"details": "See {IERC20-transferFrom}. Skips emitting an {Approval} event indicating an allowance update. This is not required by the ERC. See {xref-ERC20-_approve-address-address-uint256-bool-}[_approve]. NOTE: Does not update the allowance if the current allowance is the maximum `uint256`. Requirements: - `from` and `to` cannot be the zero address. - `from` must have a balance of at least `value`. - the caller must have allowance for ``from``'s tokens of at least `value`."
					}
				},
				"version": 1
			},
			"evm": {
				"assembly": "    /* \"contracts/Invest.sol\":103:6295  contract Invest is ERC20(\"SOIN\", \"N$\") {... */\n  mstore(0x40, 0x80)\n    /* \"contracts/Invest.sol\":678:679  0 */\n  0x00\n    /* \"contracts/Invest.sol\":648:679  uint256 public projectCount = 0 */\n  0x07\n  sstore\n    /* \"contracts/Invest.sol\":1115:1207  constructor() {... */\n  callvalue\n  dup1\n  iszero\n  tag_1\n  jumpi\n  revert(0x00, 0x00)\ntag_1:\n  pop\n    /* \"contracts/ERC20.sol\":2099:2215  constructor(string memory name_, string memory symbol_) {... */\n  mload(0x40)\n  dup1\n  0x40\n  add\n  0x40\n  mstore\n  dup1\n  0x04\n  dup2\n  mstore\n  0x20\n  add\n  0x534f494e00000000000000000000000000000000000000000000000000000000\n  dup2\n  mstore\n  pop\n  mload(0x40)\n  dup1\n  0x40\n  add\n  0x40\n  mstore\n  dup1\n  0x02\n  dup2\n  mstore\n  0x20\n  add\n  0x4e24000000000000000000000000000000000000000000000000000000000000\n  dup2\n  mstore\n  pop\n    /* \"contracts/ERC20.sol\":2174:2179  name_ */\n  dup2\n    /* \"contracts/ERC20.sol\":2166:2171  _name */\n  0x03\n    /* \"contracts/ERC20.sol\":2166:2179  _name = name_ */\n  swap1\n  dup2\n  tag_5\n  swap2\n  swap1\n  tag_6\n  jump\t// in\ntag_5:\n  pop\n    /* \"contracts/ERC20.sol\":2200:2207  symbol_ */\n  dup1\n    /* \"contracts/ERC20.sol\":2190:2197  _symbol */\n  0x04\n    /* \"contracts/ERC20.sol\":2190:2207  _symbol = symbol_ */\n  swap1\n  dup2\n  tag_7\n  swap2\n  swap1\n  tag_6\n  jump\t// in\ntag_7:\n  pop\n    /* \"contracts/ERC20.sol\":2099:2215  constructor(string memory name_, string memory symbol_) {... */\n  pop\n  pop\n    /* \"contracts/Invest.sol\":1148:1158  msg.sender */\n  caller\n    /* \"contracts/Invest.sol\":1140:1145  admin */\n  0x0b\n  0x00\n    /* \"contracts/Invest.sol\":1140:1158  admin = msg.sender */\n  0x0100\n  exp\n  dup2\n  sload\n  dup2\n  0xffffffffffffffffffffffffffffffffffffffff\n  mul\n  not\n  and\n  swap1\n  dup4\n  0xffffffffffffffffffffffffffffffffffffffff\n  and\n  mul\n  or\n  swap1\n  sstore\n  pop\n    /* \"contracts/Invest.sol\":1171:1199  _mint(admin, 50000 * 10**18) */\n  tag_9\n    /* \"contracts/Invest.sol\":1177:1182  admin */\n  0x0b\n  0x00\n  swap1\n  sload\n  swap1\n  0x0100\n  exp\n  swap1\n  div\n  0xffffffffffffffffffffffffffffffffffffffff\n  and\n    /* \"contracts/Invest.sol\":1184:1198  50000 * 10**18 */\n  0x0a968163f0a57b400000\n    /* \"contracts/Invest.sol\":1171:1176  _mint */\n  shl(0x20, tag_10)\n    /* \"contracts/Invest.sol\":1171:1199  _mint(admin, 50000 * 10**18) */\n  0x20\n  shr\n  jump\t// in\ntag_9:\n    /* \"contracts/Invest.sol\":103:6295  contract Invest is ERC20(\"SOIN\", \"N$\") {... */\n  jump(tag_11)\n    /* \"contracts/ERC20.sol\":8132:8343  function _mint(address account, uint256 value) public {... */\ntag_10:\n    /* \"contracts/ERC20.sol\":8220:8221  0 */\n  0x00\n    /* \"contracts/ERC20.sol\":8201:8222  account == address(0) */\n  0xffffffffffffffffffffffffffffffffffffffff\n  and\n    /* \"contracts/ERC20.sol\":8201:8208  account */\n  dup3\n    /* \"contracts/ERC20.sol\":8201:8222  account == address(0) */\n  0xffffffffffffffffffffffffffffffffffffffff\n  and\n  sub\n    /* \"contracts/ERC20.sol\":8197:8290  if (account == address(0)) {... */\n  tag_13\n  jumpi\n    /* \"contracts/ERC20.sol\":8275:8276  0 */\n  0x00\n    /* \"contracts/ERC20.sol\":8246:8278  ERC20InvalidReceiver(address(0)) */\n  mload(0x40)\n  0xec442f0500000000000000000000000000000000000000000000000000000000\n  dup2\n  mstore\n  0x04\n  add\n  tag_14\n  swap2\n  swap1\n  tag_15\n  jump\t// in\ntag_14:\n  mload(0x40)\n  dup1\n  swap2\n  sub\n  swap1\n  revert\n    /* \"contracts/ERC20.sol\":8197:8290  if (account == address(0)) {... */\ntag_13:\n    /* \"contracts/ERC20.sol\":8300:8335  _update(address(0), account, value) */\n  tag_16\n    /* \"contracts/ERC20.sol\":8316:8317  0 */\n  0x00\n    /* \"contracts/ERC20.sol\":8320:8327  account */\n  dup4\n    /* \"contracts/ERC20.sol\":8329:8334  value */\n  dup4\n    /* \"contracts/ERC20.sol\":8300:8307  _update */\n  shl(0x20, tag_17)\n    /* \"contracts/ERC20.sol\":8300:8335  _update(address(0), account, value) */\n  0x20\n  shr\n  jump\t// in\ntag_16:\n    /* \"contracts/ERC20.sol\":8132:8343  function _mint(address account, uint256 value) public {... */\n  pop\n  pop\n  jump\t// out\n    /* \"contracts/ERC20.sol\":6644:7779  function _update(address from, address to, uint256 value) internal virtual {... */\ntag_17:\n    /* \"contracts/ERC20.sol\":6750:6751  0 */\n  0x00\n    /* \"contracts/ERC20.sol\":6734:6752  from == address(0) */\n  0xffffffffffffffffffffffffffffffffffffffff\n  and\n    /* \"contracts/ERC20.sol\":6734:6738  from */\n  dup4\n    /* \"contracts/ERC20.sol\":6734:6752  from == address(0) */\n  0xffffffffffffffffffffffffffffffffffffffff\n  and\n  sub\n    /* \"contracts/ERC20.sol\":6730:7282  if (from == address(0)) {... */\n  tag_19\n  jumpi\n    /* \"contracts/ERC20.sol\":6888:6893  value */\n  dup1\n    /* \"contracts/ERC20.sol\":6872:6884  _totalSupply */\n  0x02\n  0x00\n    /* \"contracts/ERC20.sol\":6872:6893  _totalSupply += value */\n  dup3\n  dup3\n  sload\n  tag_20\n  swap2\n  swap1\n  tag_21\n  jump\t// in\ntag_20:\n  swap3\n  pop\n  pop\n  dup2\n  swap1\n  sstore\n  pop\n    /* \"contracts/ERC20.sol\":6730:7282  if (from == address(0)) {... */\n  jump(tag_22)\ntag_19:\n    /* \"contracts/ERC20.sol\":6926:6945  uint256 fromBalance */\n  0x00\n    /* \"contracts/ERC20.sol\":6948:6957  _balances */\n  0x00\n    /* \"contracts/ERC20.sol\":6948:6963  _balances[from] */\n  0x00\n    /* \"contracts/ERC20.sol\":6958:6962  from */\n  dup6\n    /* \"contracts/ERC20.sol\":6948:6963  _balances[from] */\n  0xffffffffffffffffffffffffffffffffffffffff\n  and\n  0xffffffffffffffffffffffffffffffffffffffff\n  and\n  dup2\n  mstore\n  0x20\n  add\n  swap1\n  dup2\n  mstore\n  0x20\n  add\n  0x00\n  keccak256\n  sload\n    /* \"contracts/ERC20.sol\":6926:6963  uint256 fromBalance = _balances[from] */\n  swap1\n  pop\n    /* \"contracts/ERC20.sol\":6996:7001  value */\n  dup2\n    /* \"contracts/ERC20.sol\":6982:6993  fromBalance */\n  dup2\n    /* \"contracts/ERC20.sol\":6982:7001  fromBalance < value */\n  lt\n    /* \"contracts/ERC20.sol\":6978:7095  if (fromBalance < value) {... */\n  iszero\n  tag_23\n  jumpi\n    /* \"contracts/ERC20.sol\":7054:7058  from */\n  dup4\n    /* \"contracts/ERC20.sol\":7060:7071  fromBalance */\n  dup2\n    /* \"contracts/ERC20.sol\":7073:7078  value */\n  dup4\n    /* \"contracts/ERC20.sol\":7029:7079  ERC20InsufficientBalance(from, fromBalance, value) */\n  mload(0x40)\n  0xe450d38c00000000000000000000000000000000000000000000000000000000\n  dup2\n  mstore\n  0x04\n  add\n  tag_24\n  swap4\n  swap3\n  swap2\n  swap1\n  tag_25\n  jump\t// in\ntag_24:\n  mload(0x40)\n  dup1\n  swap2\n  sub\n  swap1\n  revert\n    /* \"contracts/ERC20.sol\":6978:7095  if (fromBalance < value) {... */\ntag_23:\n    /* \"contracts/ERC20.sol\":7250:7255  value */\n  dup2\n    /* \"contracts/ERC20.sol\":7236:7247  fromBalance */\n  dup2\n    /* \"contracts/ERC20.sol\":7236:7255  fromBalance - value */\n  sub\n    /* \"contracts/ERC20.sol\":7218:7227  _balances */\n  0x00\n    /* \"contracts/ERC20.sol\":7218:7233  _balances[from] */\n  0x00\n    /* \"contracts/ERC20.sol\":7228:7232  from */\n  dup7\n    /* \"contracts/ERC20.sol\":7218:7233  _balances[from] */\n  0xffffffffffffffffffffffffffffffffffffffff\n  and\n  0xffffffffffffffffffffffffffffffffffffffff\n  and\n  dup2\n  mstore\n  0x20\n  add\n  swap1\n  dup2\n  mstore\n  0x20\n  add\n  0x00\n  keccak256\n    /* \"contracts/ERC20.sol\":7218:7255  _balances[from] = fromBalance - value */\n  dup2\n  swap1\n  sstore\n  pop\n    /* \"contracts/ERC20.sol\":6911:7282  {... */\n  pop\n    /* \"contracts/ERC20.sol\":6730:7282  if (from == address(0)) {... */\ntag_22:\n    /* \"contracts/ERC20.sol\":7312:7313  0 */\n  0x00\n    /* \"contracts/ERC20.sol\":7298:7314  to == address(0) */\n  0xffffffffffffffffffffffffffffffffffffffff\n  and\n    /* \"contracts/ERC20.sol\":7298:7300  to */\n  dup3\n    /* \"contracts/ERC20.sol\":7298:7314  to == address(0) */\n  0xffffffffffffffffffffffffffffffffffffffff\n  and\n  sub\n    /* \"contracts/ERC20.sol\":7294:7729  if (to == address(0)) {... */\n  tag_26\n  jumpi\n    /* \"contracts/ERC20.sol\":7480:7485  value */\n  dup1\n    /* \"contracts/ERC20.sol\":7464:7476  _totalSupply */\n  0x02\n  0x00\n    /* \"contracts/ERC20.sol\":7464:7485  _totalSupply -= value */\n  dup3\n  dup3\n  sload\n  sub\n  swap3\n  pop\n  pop\n  dup2\n  swap1\n  sstore\n  pop\n    /* \"contracts/ERC20.sol\":7294:7729  if (to == address(0)) {... */\n  jump(tag_27)\ntag_26:\n    /* \"contracts/ERC20.sol\":7697:7702  value */\n  dup1\n    /* \"contracts/ERC20.sol\":7680:7689  _balances */\n  0x00\n    /* \"contracts/ERC20.sol\":7680:7693  _balances[to] */\n  0x00\n    /* \"contracts/ERC20.sol\":7690:7692  to */\n  dup5\n    /* \"contracts/ERC20.sol\":7680:7693  _balances[to] */\n  0xffffffffffffffffffffffffffffffffffffffff\n  and\n  0xffffffffffffffffffffffffffffffffffffffff\n  and\n  dup2\n  mstore\n  0x20\n  add\n  swap1\n  dup2\n  mstore\n  0x20\n  add\n  0x00\n  keccak256\n  0x00\n    /* \"contracts/ERC20.sol\":7680:7702  _balances[to] += value */\n  dup3\n  dup3\n  sload\n  add\n  swap3\n  pop\n  pop\n  dup2\n  swap1\n  sstore\n  pop\n    /* \"contracts/ERC20.sol\":7294:7729  if (to == address(0)) {... */\ntag_27:\n    /* \"contracts/ERC20.sol\":7761:7763  to */\n  dup2\n    /* \"contracts/ERC20.sol\":7746:7771  Transfer(from, to, value) */\n  0xffffffffffffffffffffffffffffffffffffffff\n  and\n    /* \"contracts/ERC20.sol\":7755:7759  from */\n  dup4\n    /* \"contracts/ERC20.sol\":7746:7771  Transfer(from, to, value) */\n  0xffffffffffffffffffffffffffffffffffffffff\n  and\n  0xddf252ad1be2c89b69c2b068fc378daa952ba7f163c4a11628f55a4df523b3ef\n    /* \"contracts/ERC20.sol\":7765:7770  value */\n  dup4\n    /* \"contracts/ERC20.sol\":7746:7771  Transfer(from, to, value) */\n  mload(0x40)\n  tag_28\n  swap2\n  swap1\n  tag_29\n  jump\t// in\ntag_28:\n  mload(0x40)\n  dup1\n  swap2\n  sub\n  swap1\n  log3\n    /* \"contracts/ERC20.sol\":6644:7779  function _update(address from, address to, uint256 value) internal virtual {... */\n  pop\n  pop\n  pop\n  jump\t// out\n    /* \"#utility.yul\":7:106   */\ntag_30:\n    /* \"#utility.yul\":59:65   */\n  0x00\n    /* \"#utility.yul\":93:98   */\n  dup2\n    /* \"#utility.yul\":87:99   */\n  mload\n    /* \"#utility.yul\":77:99   */\n  swap1\n  pop\n    /* \"#utility.yul\":7:106   */\n  swap2\n  swap1\n  pop\n  jump\t// out\n    /* \"#utility.yul\":112:292   */\ntag_31:\n    /* \"#utility.yul\":160:237   */\n  0x4e487b7100000000000000000000000000000000000000000000000000000000\n    /* \"#utility.yul\":157:158   */\n  0x00\n    /* \"#utility.yul\":150:238   */\n  mstore\n    /* \"#utility.yul\":257:261   */\n  0x41\n    /* \"#utility.yul\":254:255   */\n  0x04\n    /* \"#utility.yul\":247:262   */\n  mstore\n    /* \"#utility.yul\":281:285   */\n  0x24\n    /* \"#utility.yul\":278:279   */\n  0x00\n    /* \"#utility.yul\":271:286   */\n  revert\n    /* \"#utility.yul\":298:478   */\ntag_32:\n    /* \"#utility.yul\":346:423   */\n  0x4e487b7100000000000000000000000000000000000000000000000000000000\n    /* \"#utility.yul\":343:344   */\n  0x00\n    /* \"#utility.yul\":336:424   */\n  mstore\n    /* \"#utility.yul\":443:447   */\n  0x22\n    /* \"#utility.yul\":440:441   */\n  0x04\n    /* \"#utility.yul\":433:448   */\n  mstore\n    /* \"#utility.yul\":467:471   */\n  0x24\n    /* \"#utility.yul\":464:465   */\n  0x00\n    /* \"#utility.yul\":457:472   */\n  revert\n    /* \"#utility.yul\":484:804   */\ntag_33:\n    /* \"#utility.yul\":528:534   */\n  0x00\n    /* \"#utility.yul\":565:566   */\n  0x02\n    /* \"#utility.yul\":559:563   */\n  dup3\n    /* \"#utility.yul\":555:567   */\n  div\n    /* \"#utility.yul\":545:567   */\n  swap1\n  pop\n    /* \"#utility.yul\":612:613   */\n  0x01\n    /* \"#utility.yul\":606:610   */\n  dup3\n    /* \"#utility.yul\":602:614   */\n  and\n    /* \"#utility.yul\":633:651   */\n  dup1\n    /* \"#utility.yul\":623:704   */\n  tag_60\n  jumpi\n    /* \"#utility.yul\":689:693   */\n  0x7f\n    /* \"#utility.yul\":681:687   */\n  dup3\n    /* \"#utility.yul\":677:694   */\n  and\n    /* \"#utility.yul\":667:694   */\n  swap2\n  pop\n    /* \"#utility.yul\":623:704   */\ntag_60:\n    /* \"#utility.yul\":751:753   */\n  0x20\n    /* \"#utility.yul\":743:749   */\n  dup3\n    /* \"#utility.yul\":740:754   */\n  lt\n    /* \"#utility.yul\":720:738   */\n  dup2\n    /* \"#utility.yul\":717:755   */\n  sub\n    /* \"#utility.yul\":714:798   */\n  tag_61\n  jumpi\n    /* \"#utility.yul\":770:788   */\n  tag_62\n  tag_32\n  jump\t// in\ntag_62:\n    /* \"#utility.yul\":714:798   */\ntag_61:\n    /* \"#utility.yul\":535:804   */\n  pop\n    /* \"#utility.yul\":484:804   */\n  swap2\n  swap1\n  pop\n  jump\t// out\n    /* \"#utility.yul\":810:951   */\ntag_34:\n    /* \"#utility.yul\":859:863   */\n  0x00\n    /* \"#utility.yul\":882:885   */\n  dup2\n    /* \"#utility.yul\":874:885   */\n  swap1\n  pop\n    /* \"#utility.yul\":905:908   */\n  dup2\n    /* \"#utility.yul\":902:903   */\n  0x00\n    /* \"#utility.yul\":895:909   */\n  mstore\n    /* \"#utility.yul\":939:943   */\n  0x20\n    /* \"#utility.yul\":936:937   */\n  0x00\n    /* \"#utility.yul\":926:944   */\n  keccak256\n    /* \"#utility.yul\":918:944   */\n  swap1\n  pop\n    /* \"#utility.yul\":810:951   */\n  swap2\n  swap1\n  pop\n  jump\t// out\n    /* \"#utility.yul\":957:1050   */\ntag_35:\n    /* \"#utility.yul\":994:1000   */\n  0x00\n    /* \"#utility.yul\":1041:1043   */\n  0x20\n    /* \"#utility.yul\":1036:1038   */\n  0x1f\n    /* \"#utility.yul\":1029:1034   */\n  dup4\n    /* \"#utility.yul\":1025:1039   */\n  add\n    /* \"#utility.yul\":1021:1044   */\n  div\n    /* \"#utility.yul\":1011:1044   */\n  swap1\n  pop\n    /* \"#utility.yul\":957:1050   */\n  swap2\n  swap1\n  pop\n  jump\t// out\n    /* \"#utility.yul\":1056:1163   */\ntag_36:\n    /* \"#utility.yul\":1100:1108   */\n  0x00\n    /* \"#utility.yul\":1150:1155   */\n  dup3\n    /* \"#utility.yul\":1144:1148   */\n  dup3\n    /* \"#utility.yul\":1140:1156   */\n  shl\n    /* \"#utility.yul\":1119:1156   */\n  swap1\n  pop\n    /* \"#utility.yul\":1056:1163   */\n  swap3\n  swap2\n  pop\n  pop\n  jump\t// out\n    /* \"#utility.yul\":1169:1562   */\ntag_37:\n    /* \"#utility.yul\":1238:1244   */\n  0x00\n    /* \"#utility.yul\":1288:1289   */\n  0x08\n    /* \"#utility.yul\":1276:1286   */\n  dup4\n    /* \"#utility.yul\":1272:1290   */\n  mul\n    /* \"#utility.yul\":1311:1408   */\n  tag_67\n    /* \"#utility.yul\":1341:1407   */\n  0xffffffffffffffffffffffffffffffffffffffffffffffffffffffffffffffff\n    /* \"#utility.yul\":1330:1339   */\n  dup3\n    /* \"#utility.yul\":1311:1408   */\n  tag_36\n  jump\t// in\ntag_67:\n    /* \"#utility.yul\":1429:1468   */\n  tag_68\n    /* \"#utility.yul\":1459:1467   */\n  dup7\n    /* \"#utility.yul\":1448:1457   */\n  dup4\n    /* \"#utility.yul\":1429:1468   */\n  tag_36\n  jump\t// in\ntag_68:\n    /* \"#utility.yul\":1417:1468   */\n  swap6\n  pop\n    /* \"#utility.yul\":1501:1505   */\n  dup1\n    /* \"#utility.yul\":1497:1506   */\n  not\n    /* \"#utility.yul\":1490:1495   */\n  dup5\n    /* \"#utility.yul\":1486:1507   */\n  and\n    /* \"#utility.yul\":1477:1507   */\n  swap4\n  pop\n    /* \"#utility.yul\":1550:1554   */\n  dup1\n    /* \"#utility.yul\":1540:1548   */\n  dup7\n    /* \"#utility.yul\":1536:1555   */\n  and\n    /* \"#utility.yul\":1529:1534   */\n  dup5\n    /* \"#utility.yul\":1526:1556   */\n  or\n    /* \"#utility.yul\":1516:1556   */\n  swap3\n  pop\n    /* \"#utility.yul\":1245:1562   */\n  pop\n  pop\n    /* \"#utility.yul\":1169:1562   */\n  swap4\n  swap3\n  pop\n  pop\n  pop\n  jump\t// out\n    /* \"#utility.yul\":1568:1645   */\ntag_38:\n    /* \"#utility.yul\":1605:1612   */\n  0x00\n    /* \"#utility.yul\":1634:1639   */\n  dup2\n    /* \"#utility.yul\":1623:1639   */\n  swap1\n  pop\n    /* \"#utility.yul\":1568:1645   */\n  swap2\n  swap1\n  pop\n  jump\t// out\n    /* \"#utility.yul\":1651:1711   */\ntag_39:\n    /* \"#utility.yul\":1679:1682   */\n  0x00\n    /* \"#utility.yul\":1700:1705   */\n  dup2\n    /* \"#utility.yul\":1693:1705   */\n  swap1\n  pop\n    /* \"#utility.yul\":1651:1711   */\n  swap2\n  swap1\n  pop\n  jump\t// out\n    /* \"#utility.yul\":1717:1859   */\ntag_40:\n    /* \"#utility.yul\":1767:1776   */\n  0x00\n    /* \"#utility.yul\":1800:1853   */\n  tag_72\n    /* \"#utility.yul\":1818:1852   */\n  tag_73\n    /* \"#utility.yul\":1827:1851   */\n  tag_74\n    /* \"#utility.yul\":1845:1850   */\n  dup5\n    /* \"#utility.yul\":1827:1851   */\n  tag_38\n  jump\t// in\ntag_74:\n    /* \"#utility.yul\":1818:1852   */\n  tag_39\n  jump\t// in\ntag_73:\n    /* \"#utility.yul\":1800:1853   */\n  tag_38\n  jump\t// in\ntag_72:\n    /* \"#utility.yul\":1787:1853   */\n  swap1\n  pop\n    /* \"#utility.yul\":1717:1859   */\n  swap2\n  swap1\n  pop\n  jump\t// out\n    /* \"#utility.yul\":1865:1940   */\ntag_41:\n    /* \"#utility.yul\":1908:1911   */\n  0x00\n    /* \"#utility.yul\":1929:1934   */\n  dup2\n    /* \"#utility.yul\":1922:1934   */\n  swap1\n  pop\n    /* \"#utility.yul\":1865:1940   */\n  swap2\n  swap1\n  pop\n  jump\t// out\n    /* \"#utility.yul\":1946:2215   */\ntag_42:\n    /* \"#utility.yul\":2056:2095   */\n  tag_77\n    /* \"#utility.yul\":2087:2094   */\n  dup4\n    /* \"#utility.yul\":2056:2095   */\n  tag_40\n  jump\t// in\ntag_77:\n    /* \"#utility.yul\":2117:2208   */\n  tag_78\n    /* \"#utility.yul\":2166:2207   */\n  tag_79\n    /* \"#utility.yul\":2190:2206   */\n  dup3\n    /* \"#utility.yul\":2166:2207   */\n  tag_41\n  jump\t// in\ntag_79:\n    /* \"#utility.yul\":2158:2164   */\n  dup5\n    /* \"#utility.yul\":2151:2155   */\n  dup5\n    /* \"#utility.yul\":2145:2156   */\n  sload\n    /* \"#utility.yul\":2117:2208   */\n  tag_37\n  jump\t// in\ntag_78:\n    /* \"#utility.yul\":2111:2115   */\n  dup3\n    /* \"#utility.yul\":2104:2209   */\n  sstore\n    /* \"#utility.yul\":2022:2215   */\n  pop\n    /* \"#utility.yul\":1946:2215   */\n  pop\n  pop\n  pop\n  jump\t// out\n    /* \"#utility.yul\":2221:2294   */\ntag_43:\n    /* \"#utility.yul\":2266:2269   */\n  0x00\n    /* \"#utility.yul\":2287:2288   */\n  0x00\n    /* \"#utility.yul\":2280:2288   */\n  swap1\n  pop\n    /* \"#utility.yul\":2221:2294   */\n  swap1\n  jump\t// out\n    /* \"#utility.yul\":2300:2489   */\ntag_44:\n    /* \"#utility.yul\":2377:2409   */\n  tag_82\n  tag_43\n  jump\t// in\ntag_82:\n    /* \"#utility.yul\":2418:2483   */\n  tag_83\n    /* \"#utility.yul\":2476:2482   */\n  dup2\n    /* \"#utility.yul\":2468:2474   */\n  dup5\n    /* \"#utility.yul\":2462:2466   */\n  dup5\n    /* \"#utility.yul\":2418:2483   */\n  tag_42\n  jump\t// in\ntag_83:\n    /* \"#utility.yul\":2353:2489   */\n  pop\n    /* \"#utility.yul\":2300:2489   */\n  pop\n  pop\n  jump\t// out\n    /* \"#utility.yul\":2495:2681   */\ntag_45:\n    /* \"#utility.yul\":2555:2675   */\ntag_85:\n    /* \"#utility.yul\":2572:2575   */\n  dup2\n    /* \"#utility.yul\":2565:2570   */\n  dup2\n    /* \"#utility.yul\":2562:2576   */\n  lt\n    /* \"#utility.yul\":2555:2675   */\n  iszero\n  tag_87\n  jumpi\n    /* \"#utility.yul\":2626:2665   */\n  tag_88\n    /* \"#utility.yul\":2663:2664   */\n  0x00\n    /* \"#utility.yul\":2656:2661   */\n  dup3\n    /* \"#utility.yul\":2626:2665   */\n  tag_44\n  jump\t// in\ntag_88:\n    /* \"#utility.yul\":2599:2600   */\n  0x01\n    /* \"#utility.yul\":2592:2597   */\n  dup2\n    /* \"#utility.yul\":2588:2601   */\n  add\n    /* \"#utility.yul\":2579:2601   */\n  swap1\n  pop\n    /* \"#utility.yul\":2555:2675   */\n  jump(tag_85)\ntag_87:\n    /* \"#utility.yul\":2495:2681   */\n  pop\n  pop\n  jump\t// out\n    /* \"#utility.yul\":2687:3230   */\ntag_46:\n    /* \"#utility.yul\":2788:2790   */\n  0x1f\n    /* \"#utility.yul\":2783:2786   */\n  dup3\n    /* \"#utility.yul\":2780:2791   */\n  gt\n    /* \"#utility.yul\":2777:3223   */\n  iszero\n  tag_90\n  jumpi\n    /* \"#utility.yul\":2822:2860   */\n  tag_91\n    /* \"#utility.yul\":2854:2859   */\n  dup2\n    /* \"#utility.yul\":2822:2860   */\n  tag_34\n  jump\t// in\ntag_91:\n    /* \"#utility.yul\":2906:2935   */\n  tag_92\n    /* \"#utility.yul\":2924:2934   */\n  dup5\n    /* \"#utility.yul\":2906:2935   */\n  tag_35\n  jump\t// in\ntag_92:\n    /* \"#utility.yul\":2896:2904   */\n  dup2\n    /* \"#utility.yul\":2892:2936   */\n  add\n    /* \"#utility.yul\":3089:3091   */\n  0x20\n    /* \"#utility.yul\":3077:3087   */\n  dup6\n    /* \"#utility.yul\":3074:3092   */\n  lt\n    /* \"#utility.yul\":3071:3120   */\n  iszero\n  tag_93\n  jumpi\n    /* \"#utility.yul\":3110:3118   */\n  dup2\n    /* \"#utility.yul\":3095:3118   */\n  swap1\n  pop\n    /* \"#utility.yul\":3071:3120   */\ntag_93:\n    /* \"#utility.yul\":3133:3213   */\n  tag_94\n    /* \"#utility.yul\":3189:3211   */\n  tag_95\n    /* \"#utility.yul\":3207:3210   */\n  dup6\n    /* \"#utility.yul\":3189:3211   */\n  tag_35\n  jump\t// in\ntag_95:\n    /* \"#utility.yul\":3179:3187   */\n  dup4\n    /* \"#utility.yul\":3175:3212   */\n  add\n    /* \"#utility.yul\":3162:3173   */\n  dup3\n    /* \"#utility.yul\":3133:3213   */\n  tag_45\n  jump\t// in\ntag_94:\n    /* \"#utility.yul\":2792:3223   */\n  pop\n  pop\n    /* \"#utility.yul\":2777:3223   */\ntag_90:\n    /* \"#utility.yul\":2687:3230   */\n  pop\n  pop\n  pop\n  jump\t// out\n    /* \"#utility.yul\":3236:3353   */\ntag_47:\n    /* \"#utility.yul\":3290:3298   */\n  0x00\n    /* \"#utility.yul\":3340:3345   */\n  dup3\n    /* \"#utility.yul\":3334:3338   */\n  dup3\n    /* \"#utility.yul\":3330:3346   */\n  shr\n    /* \"#utility.yul\":3309:3346   */\n  swap1\n  pop\n    /* \"#utility.yul\":3236:3353   */\n  swap3\n  swap2\n  pop\n  pop\n  jump\t// out\n    /* \"#utility.yul\":3359:3528   */\ntag_48:\n    /* \"#utility.yul\":3403:3409   */\n  0x00\n    /* \"#utility.yul\":3436:3487   */\n  tag_98\n    /* \"#utility.yul\":3484:3485   */\n  0x00\n    /* \"#utility.yul\":3480:3486   */\n  not\n    /* \"#utility.yul\":3472:3477   */\n  dup5\n    /* \"#utility.yul\":3469:3470   */\n  0x08\n    /* \"#utility.yul\":3465:3478   */\n  mul\n    /* \"#utility.yul\":3436:3487   */\n  tag_47\n  jump\t// in\ntag_98:\n    /* \"#utility.yul\":3432:3488   */\n  not\n    /* \"#utility.yul\":3517:3521   */\n  dup1\n    /* \"#utility.yul\":3511:3515   */\n  dup4\n    /* \"#utility.yul\":3507:3522   */\n  and\n    /* \"#utility.yul\":3497:3522   */\n  swap2\n  pop\n    /* \"#utility.yul\":3410:3528   */\n  pop\n    /* \"#utility.yul\":3359:3528   */\n  swap3\n  swap2\n  pop\n  pop\n  jump\t// out\n    /* \"#utility.yul\":3533:3828   */\ntag_49:\n    /* \"#utility.yul\":3609:3613   */\n  0x00\n    /* \"#utility.yul\":3755:3784   */\n  tag_100\n    /* \"#utility.yul\":3780:3783   */\n  dup4\n    /* \"#utility.yul\":3774:3778   */\n  dup4\n    /* \"#utility.yul\":3755:3784   */\n  tag_48\n  jump\t// in\ntag_100:\n    /* \"#utility.yul\":3747:3784   */\n  swap2\n  pop\n    /* \"#utility.yul\":3817:3820   */\n  dup3\n    /* \"#utility.yul\":3814:3815   */\n  0x02\n    /* \"#utility.yul\":3810:3821   */\n  mul\n    /* \"#utility.yul\":3804:3808   */\n  dup3\n    /* \"#utility.yul\":3801:3822   */\n  or\n    /* \"#utility.yul\":3793:3822   */\n  swap1\n  pop\n    /* \"#utility.yul\":3533:3828   */\n  swap3\n  swap2\n  pop\n  pop\n  jump\t// out\n    /* \"#utility.yul\":3833:5228   */\ntag_6:\n    /* \"#utility.yul\":3950:3987   */\n  tag_102\n    /* \"#utility.yul\":3983:3986   */\n  dup3\n    /* \"#utility.yul\":3950:3987   */\n  tag_30\n  jump\t// in\ntag_102:\n    /* \"#utility.yul\":4052:4070   */\n  0xffffffffffffffff\n    /* \"#utility.yul\":4044:4050   */\n  dup2\n    /* \"#utility.yul\":4041:4071   */\n  gt\n    /* \"#utility.yul\":4038:4094   */\n  iszero\n  tag_103\n  jumpi\n    /* \"#utility.yul\":4074:4092   */\n  tag_104\n  tag_31\n  jump\t// in\ntag_104:\n    /* \"#utility.yul\":4038:4094   */\ntag_103:\n    /* \"#utility.yul\":4118:4156   */\n  tag_105\n    /* \"#utility.yul\":4150:4154   */\n  dup3\n    /* \"#utility.yul\":4144:4155   */\n  sload\n    /* \"#utility.yul\":4118:4156   */\n  tag_33\n  jump\t// in\ntag_105:\n    /* \"#utility.yul\":4203:4270   */\n  tag_106\n    /* \"#utility.yul\":4263:4269   */\n  dup3\n    /* \"#utility.yul\":4255:4261   */\n  dup3\n    /* \"#utility.yul\":4249:4253   */\n  dup6\n    /* \"#utility.yul\":4203:4270   */\n  tag_46\n  jump\t// in\ntag_106:\n    /* \"#utility.yul\":4297:4298   */\n  0x00\n    /* \"#utility.yul\":4321:4325   */\n  0x20\n    /* \"#utility.yul\":4308:4325   */\n  swap1\n  pop\n    /* \"#utility.yul\":4353:4355   */\n  0x1f\n    /* \"#utility.yul\":4345:4351   */\n  dup4\n    /* \"#utility.yul\":4342:4356   */\n  gt\n    /* \"#utility.yul\":4370:4371   */\n  0x01\n    /* \"#utility.yul\":4365:4983   */\n  dup2\n  eq\n  tag_108\n  jumpi\n    /* \"#utility.yul\":5027:5028   */\n  0x00\n    /* \"#utility.yul\":5044:5050   */\n  dup5\n    /* \"#utility.yul\":5041:5118   */\n  iszero\n  tag_109\n  jumpi\n    /* \"#utility.yul\":5093:5102   */\n  dup3\n    /* \"#utility.yul\":5088:5091   */\n  dup8\n    /* \"#utility.yul\":5084:5103   */\n  add\n    /* \"#utility.yul\":5078:5104   */\n  mload\n    /* \"#utility.yul\":5069:5104   */\n  swap1\n  pop\n    /* \"#utility.yul\":5041:5118   */\ntag_109:\n    /* \"#utility.yul\":5144:5211   */\n  tag_110\n    /* \"#utility.yul\":5204:5210   */\n  dup6\n    /* \"#utility.yul\":5197:5202   */\n  dup3\n    /* \"#utility.yul\":5144:5211   */\n  tag_49\n  jump\t// in\ntag_110:\n    /* \"#utility.yul\":5138:5142   */\n  dup7\n    /* \"#utility.yul\":5131:5212   */\n  sstore\n    /* \"#utility.yul\":5000:5222   */\n  pop\n    /* \"#utility.yul\":4335:5222   */\n  jump(tag_107)\n    /* \"#utility.yul\":4365:4983   */\ntag_108:\n    /* \"#utility.yul\":4417:4421   */\n  0x1f\n    /* \"#utility.yul\":4413:4422   */\n  not\n    /* \"#utility.yul\":4405:4411   */\n  dup5\n    /* \"#utility.yul\":4401:4423   */\n  and\n    /* \"#utility.yul\":4451:4488   */\n  tag_111\n    /* \"#utility.yul\":4483:4487   */\n  dup7\n    /* \"#utility.yul\":4451:4488   */\n  tag_34\n  jump\t// in\ntag_111:\n    /* \"#utility.yul\":4510:4511   */\n  0x00\n    /* \"#utility.yul\":4524:4732   */\ntag_112:\n    /* \"#utility.yul\":4538:4545   */\n  dup3\n    /* \"#utility.yul\":4535:4536   */\n  dup2\n    /* \"#utility.yul\":4532:4546   */\n  lt\n    /* \"#utility.yul\":4524:4732   */\n  iszero\n  tag_114\n  jumpi\n    /* \"#utility.yul\":4617:4626   */\n  dup5\n    /* \"#utility.yul\":4612:4615   */\n  dup10\n    /* \"#utility.yul\":4608:4627   */\n  add\n    /* \"#utility.yul\":4602:4628   */\n  mload\n    /* \"#utility.yul\":4594:4600   */\n  dup3\n    /* \"#utility.yul\":4587:4629   */\n  sstore\n    /* \"#utility.yul\":4668:4669   */\n  0x01\n    /* \"#utility.yul\":4660:4666   */\n  dup3\n    /* \"#utility.yul\":4656:4670   */\n  add\n    /* \"#utility.yul\":4646:4670   */\n  swap2\n  pop\n    /* \"#utility.yul\":4715:4717   */\n  0x20\n    /* \"#utility.yul\":4704:4713   */\n  dup6\n    /* \"#utility.yul\":4700:4718   */\n  add\n    /* \"#utility.yul\":4687:4718   */\n  swap5\n  pop\n    /* \"#utility.yul\":4561:4565   */\n  0x20\n    /* \"#utility.yul\":4558:4559   */\n  dup2\n    /* \"#utility.yul\":4554:4566   */\n  add\n    /* \"#utility.yul\":4549:4566   */\n  swap1\n  pop\n    /* \"#utility.yul\":4524:4732   */\n  jump(tag_112)\ntag_114:\n    /* \"#utility.yul\":4760:4766   */\n  dup7\n    /* \"#utility.yul\":4751:4758   */\n  dup4\n    /* \"#utility.yul\":4748:4767   */\n  lt\n    /* \"#utility.yul\":4745:4924   */\n  iszero\n  tag_115\n  jumpi\n    /* \"#utility.yul\":4818:4827   */\n  dup5\n    /* \"#utility.yul\":4813:4816   */\n  dup10\n    /* \"#utility.yul\":4809:4828   */\n  add\n    /* \"#utility.yul\":4803:4829   */\n  mload\n    /* \"#utility.yul\":4861:4909   */\n  tag_116\n    /* \"#utility.yul\":4903:4907   */\n  0x1f\n    /* \"#utility.yul\":4895:4901   */\n  dup10\n    /* \"#utility.yul\":4891:4908   */\n  and\n    /* \"#utility.yul\":4880:4889   */\n  dup3\n    /* \"#utility.yul\":4861:4909   */\n  tag_48\n  jump\t// in\ntag_116:\n    /* \"#utility.yul\":4853:4859   */\n  dup4\n    /* \"#utility.yul\":4846:4910   */\n  sstore\n    /* \"#utility.yul\":4768:4924   */\n  pop\n    /* \"#utility.yul\":4745:4924   */\ntag_115:\n    /* \"#utility.yul\":4970:4971   */\n  0x01\n    /* \"#utility.yul\":4966:4967   */\n  0x02\n    /* \"#utility.yul\":4958:4964   */\n  dup9\n    /* \"#utility.yul\":4954:4968   */\n  mul\n    /* \"#utility.yul\":4950:4972   */\n  add\n    /* \"#utility.yul\":4944:4948   */\n  dup9\n    /* \"#utility.yul\":4937:4973   */\n  sstore\n    /* \"#utility.yul\":4372:4983   */\n  pop\n  pop\n  pop\n    /* \"#utility.yul\":4335:5222   */\ntag_107:\n  pop\n    /* \"#utility.yul\":3925:5228   */\n  pop\n  pop\n  pop\n    /* \"#utility.yul\":3833:5228   */\n  pop\n  pop\n  jump\t// out\n    /* \"#utility.yul\":5234:5360   */\ntag_50:\n    /* \"#utility.yul\":5271:5278   */\n  0x00\n    /* \"#utility.yul\":5311:5353   */\n  0xffffffffffffffffffffffffffffffffffffffff\n    /* \"#utility.yul\":5304:5309   */\n  dup3\n    /* \"#utility.yul\":5300:5354   */\n  and\n    /* \"#utility.yul\":5289:5354   */\n  swap1\n  pop\n    /* \"#utility.yul\":5234:5360   */\n  swap2\n  swap1\n  pop\n  jump\t// out\n    /* \"#utility.yul\":5366:5462   */\ntag_51:\n    /* \"#utility.yul\":5403:5410   */\n  0x00\n    /* \"#utility.yul\":5432:5456   */\n  tag_119\n    /* \"#utility.yul\":5450:5455   */\n  dup3\n    /* \"#utility.yul\":5432:5456   */\n  tag_50\n  jump\t// in\ntag_119:\n    /* \"#utility.yul\":5421:5456   */\n  swap1\n  pop\n    /* \"#utility.yul\":5366:5462   */\n  swap2\n  swap1\n  pop\n  jump\t// out\n    /* \"#utility.yul\":5468:5586   */\ntag_52:\n    /* \"#utility.yul\":5555:5579   */\n  tag_121\n    /* \"#utility.yul\":5573:5578   */\n  dup2\n    /* \"#utility.yul\":5555:5579   */\n  tag_51\n  jump\t// in\ntag_121:\n    /* \"#utility.yul\":5550:5553   */\n  dup3\n    /* \"#utility.yul\":5543:5580   */\n  mstore\n    /* \"#utility.yul\":5468:5586   */\n  pop\n  pop\n  jump\t// out\n    /* \"#utility.yul\":5592:5814   */\ntag_15:\n    /* \"#utility.yul\":5685:5689   */\n  0x00\n    /* \"#utility.yul\":5723:5725   */\n  0x20\n    /* \"#utility.yul\":5712:5721   */\n  dup3\n    /* \"#utility.yul\":5708:5726   */\n  add\n    /* \"#utility.yul\":5700:5726   */\n  swap1\n  pop\n    /* \"#utility.yul\":5736:5807   */\n  tag_123\n    /* \"#utility.yul\":5804:5805   */\n  0x00\n    /* \"#utility.yul\":5793:5802   */\n  dup4\n    /* \"#utility.yul\":5789:5806   */\n  add\n    /* \"#utility.yul\":5780:5786   */\n  dup5\n    /* \"#utility.yul\":5736:5807   */\n  tag_52\n  jump\t// in\ntag_123:\n    /* \"#utility.yul\":5592:5814   */\n  swap3\n  swap2\n  pop\n  pop\n  jump\t// out\n    /* \"#utility.yul\":5820:6000   */\ntag_53:\n    /* \"#utility.yul\":5868:5945   */\n  0x4e487b7100000000000000000000000000000000000000000000000000000000\n    /* \"#utility.yul\":5865:5866   */\n  0x00\n    /* \"#utility.yul\":5858:5946   */\n  mstore\n    /* \"#utility.yul\":5965:5969   */\n  0x11\n    /* \"#utility.yul\":5962:5963   */\n  0x04\n    /* \"#utility.yul\":5955:5970   */\n  mstore\n    /* \"#utility.yul\":5989:5993   */\n  0x24\n    /* \"#utility.yul\":5986:5987   */\n  0x00\n    /* \"#utility.yul\":5979:5994   */\n  revert\n    /* \"#utility.yul\":6006:6197   */\ntag_21:\n    /* \"#utility.yul\":6046:6049   */\n  0x00\n    /* \"#utility.yul\":6065:6085   */\n  tag_126\n    /* \"#utility.yul\":6083:6084   */\n  dup3\n    /* \"#utility.yul\":6065:6085   */\n  tag_38\n  jump\t// in\ntag_126:\n    /* \"#utility.yul\":6060:6085   */\n  swap2\n  pop\n    /* \"#utility.yul\":6099:6119   */\n  tag_127\n    /* \"#utility.yul\":6117:6118   */\n  dup4\n    /* \"#utility.yul\":6099:6119   */\n  tag_38\n  jump\t// in\ntag_127:\n    /* \"#utility.yul\":6094:6119   */\n  swap3\n  pop\n    /* \"#utility.yul\":6142:6143   */\n  dup3\n    /* \"#utility.yul\":6139:6140   */\n  dup3\n    /* \"#utility.yul\":6135:6144   */\n  add\n    /* \"#utility.yul\":6128:6144   */\n  swap1\n  pop\n    /* \"#utility.yul\":6163:6166   */\n  dup1\n    /* \"#utility.yul\":6160:6161   */\n  dup3\n    /* \"#utility.yul\":6157:6167   */\n  gt\n    /* \"#utility.yul\":6154:6190   */\n  iszero\n  tag_128\n  jumpi\n    /* \"#utility.yul\":6170:6188   */\n  tag_129\n  tag_53\n  jump\t// in\ntag_129:\n    /* \"#utility.yul\":6154:6190   */\ntag_128:\n    /* \"#utility.yul\":6006:6197   */\n  swap3\n  swap2\n  pop\n  pop\n  jump\t// out\n    /* \"#utility.yul\":6203:6321   */\ntag_54:\n    /* \"#utility.yul\":6290:6314   */\n  tag_131\n    /* \"#utility.yul\":6308:6313   */\n  dup2\n    /* \"#utility.yul\":6290:6314   */\n  tag_38\n  jump\t// in\ntag_131:\n    /* \"#utility.yul\":6285:6288   */\n  dup3\n    /* \"#utility.yul\":6278:6315   */\n  mstore\n    /* \"#utility.yul\":6203:6321   */\n  pop\n  pop\n  jump\t// out\n    /* \"#utility.yul\":6327:6769   */\ntag_25:\n    /* \"#utility.yul\":6476:6480   */\n  0x00\n    /* \"#utility.yul\":6514:6516   */\n  0x60\n    /* \"#utility.yul\":6503:6512   */\n  dup3\n    /* \"#utility.yul\":6499:6517   */\n  add\n    /* \"#utility.yul\":6491:6517   */\n  swap1\n  pop\n    /* \"#utility.yul\":6527:6598   */\n  tag_133\n    /* \"#utility.yul\":6595:6596   */\n  0x00\n    /* \"#utility.yul\":6584:6593   */\n  dup4\n    /* \"#utility.yul\":6580:6597   */\n  add\n    /* \"#utility.yul\":6571:6577   */\n  dup7\n    /* \"#utility.yul\":6527:6598   */\n  tag_52\n  jump\t// in\ntag_133:\n    /* \"#utility.yul\":6608:6680   */\n  tag_134\n    /* \"#utility.yul\":6676:6678   */\n  0x20\n    /* \"#utility.yul\":6665:6674   */\n  dup4\n    /* \"#utility.yul\":6661:6679   */\n  add\n    /* \"#utility.yul\":6652:6658   */\n  dup6\n    /* \"#utility.yul\":6608:6680   */\n  tag_54\n  jump\t// in\ntag_134:\n    /* \"#utility.yul\":6690:6762   */\n  tag_135\n    /* \"#utility.yul\":6758:6760   */\n  0x40\n    /* \"#utility.yul\":6747:6756   */\n  dup4\n    /* \"#utility.yul\":6743:6761   */\n  add\n    /* \"#utility.yul\":6734:6740   */\n  dup5\n    /* \"#utility.yul\":6690:6762   */\n  tag_54\n  jump\t// in\ntag_135:\n    /* \"#utility.yul\":6327:6769   */\n  swap5\n  swap4\n  pop\n  pop\n  pop\n  pop\n  jump\t// out\n    /* \"#utility.yul\":6775:6997   */\ntag_29:\n    /* \"#utility.yul\":6868:6872   */\n  0x00\n    /* \"#utility.yul\":6906:6908   */\n  0x20\n    /* \"#utility.yul\":6895:6904   */\n  dup3\n    /* \"#utility.yul\":6891:6909   */\n  add\n    /* \"#utility.yul\":6883:6909   */\n  swap1\n  pop\n    /* \"#utility.yul\":6919:6990   */\n  tag_137\n    /* \"#utility.yul\":6987:6988   */\n  0x00\n    /* \"#utility.yul\":6976:6985   */\n  dup4\n    /* \"#utility.yul\":6972:6989   */\n  add\n    /* \"#utility.yul\":6963:6969   */\n  dup5\n    /* \"#utility.yul\":6919:6990   */\n  tag_54\n  jump\t// in\ntag_137:\n    /* \"#utility.yul\":6775:6997   */\n  swap3\n  swap2\n  pop\n  pop\n  jump\t// out\n    /* \"contracts/Invest.sol\":103:6295  contract Invest is ERC20(\"SOIN\", \"N$\") {... */\ntag_11:\n  dataSize(sub_0)\n  dup1\n  dataOffset(sub_0)\n  0x00\n  codecopy\n  0x00\n  return\nstop\n\nsub_0: assembly {\n        /* \"contracts/Invest.sol\":103:6295  contract Invest is ERC20(\"SOIN\", \"N$\") {... */\n      mstore(0x40, 0x80)\n      callvalue\n      dup1\n      iszero\n      tag_1\n      jumpi\n      revert(0x00, 0x00)\n    tag_1:\n      pop\n      jumpi(tag_2, lt(calldatasize, 0x04))\n      shr(0xe0, calldataload(0x00))\n      dup1\n      0x54e35ba2\n      gt\n      tag_27\n      jumpi\n      dup1\n      0xa87430ba\n      gt\n      tag_28\n      jumpi\n      dup1\n      0xa87430ba\n      eq\n      tag_21\n      jumpi\n      dup1\n      0xa9059cbb\n      eq\n      tag_22\n      jumpi\n      dup1\n      0xc2c6640b\n      eq\n      tag_23\n      jumpi\n      dup1\n      0xdd62ed3e\n      eq\n      tag_24\n      jumpi\n      dup1\n      0xe4ad9a18\n      eq\n      tag_25\n      jumpi\n      dup1\n      0xf851a440\n      eq\n      tag_26\n      jumpi\n      jump(tag_2)\n    tag_28:\n      dup1\n      0x54e35ba2\n      eq\n      tag_15\n      jumpi\n      dup1\n      0x68dc9528\n      eq\n      tag_16\n      jumpi\n      dup1\n      0x6f7330e1\n      eq\n      tag_17\n      jumpi\n      dup1\n      0x70a08231\n      eq\n      tag_18\n      jumpi\n      dup1\n      0x93dc12e6\n      eq\n      tag_19\n      jumpi\n      dup1\n      0x95d89b41\n      eq\n      tag_20\n      jumpi\n      jump(tag_2)\n    tag_27:\n      dup1\n      0x23b872dd\n      gt\n      tag_29\n      jumpi\n      dup1\n      0x23b872dd\n      eq\n      tag_9\n      jumpi\n      dup1\n      0x313ce567\n      eq\n      tag_10\n      jumpi\n      dup1\n      0x336f56dc\n      eq\n      tag_11\n      jumpi\n      dup1\n      0x36fbad26\n      eq\n      tag_12\n      jumpi\n      dup1\n      0x4d3820eb\n      eq\n      tag_13\n      jumpi\n      dup1\n      0x4e6ec247\n      eq\n      tag_14\n      jumpi\n      jump(tag_2)\n    tag_29:\n      dup1\n      0x02da667b\n      eq\n      tag_3\n      jumpi\n      dup1\n      0x06fdde03\n      eq\n      tag_4\n      jumpi\n      dup1\n      0x095ea7b3\n      eq\n      tag_5\n      jumpi\n      dup1\n      0x107046bd\n      eq\n      tag_6\n      jumpi\n      dup1\n      0x18160ddd\n      eq\n      tag_7\n      jumpi\n      dup1\n      0x23b86fbe\n      eq\n      tag_8\n      jumpi\n    tag_2:\n      revert(0x00, 0x00)\n        /* \"contracts/Invest.sol\":2115:2531  function createProject(uint256 _goal, uint256 _interest) onlyUser public returns(uint256) {... */\n    tag_3:\n      tag_30\n      0x04\n      dup1\n      calldatasize\n      sub\n      dup2\n      add\n      swap1\n      tag_31\n      swap2\n      swap1\n      tag_32\n      jump\t// in\n    tag_31:\n      tag_33\n      jump\t// in\n    tag_30:\n      mload(0x40)\n      tag_34\n      swap2\n      swap1\n      tag_35\n      jump\t// in\n    tag_34:\n      mload(0x40)\n      dup1\n      swap2\n      sub\n      swap1\n      return\n        /* \"contracts/ERC20.sol\":2285:2376  function name() public view virtual returns (string memory) {... */\n    tag_4:\n      tag_36\n      tag_37\n      jump\t// in\n    tag_36:\n      mload(0x40)\n      tag_38\n      swap2\n      swap1\n      tag_39\n      jump\t// in\n    tag_38:\n      mload(0x40)\n      dup1\n      swap2\n      sub\n      swap1\n      return\n        /* \"contracts/ERC20.sol\":4578:4768  function approve(address spender, uint256 value) public virtual returns (bool) {... */\n    tag_5:\n      tag_40\n      0x04\n      dup1\n      calldatasize\n      sub\n      dup2\n      add\n      swap1\n      tag_41\n      swap2\n      swap1\n      tag_42\n      jump\t// in\n    tag_41:\n      tag_43\n      jump\t// in\n    tag_40:\n      mload(0x40)\n      tag_44\n      swap2\n      swap1\n      tag_45\n      jump\t// in\n    tag_44:\n      mload(0x40)\n      dup1\n      swap2\n      sub\n      swap1\n      return\n        /* \"contracts/Invest.sol\":735:778  mapping(uint256 => Project) public projects */\n    tag_6:\n      tag_46\n      0x04\n      dup1\n      calldatasize\n      sub\n      dup2\n      add\n      swap1\n      tag_47\n      swap2\n      swap1\n      tag_48\n      jump\t// in\n    tag_47:\n      tag_49\n      jump\t// in\n    tag_46:\n      mload(0x40)\n      tag_50\n      swap8\n      swap7\n      swap6\n      swap5\n      swap4\n      swap3\n      swap2\n      swap1\n      tag_51\n      jump\t// in\n    tag_50:\n      mload(0x40)\n      dup1\n      swap2\n      sub\n      swap1\n      return\n        /* \"contracts/ERC20.sol\":3387:3486  function totalSupply() public view virtual returns (uint256) {... */\n    tag_7:\n      tag_52\n      tag_53\n      jump\t// in\n    tag_52:\n      mload(0x40)\n      tag_54\n      swap2\n      swap1\n      tag_35\n      jump\t// in\n    tag_54:\n      mload(0x40)\n      dup1\n      swap2\n      sub\n      swap1\n      return\n        /* \"contracts/Invest.sol\":1308:1422  function balanceOfWallet(address wallet) public view returns (uint256) {... */\n    tag_8:\n      tag_55\n      0x04\n      dup1\n      calldatasize\n      sub\n      dup2\n      add\n      swap1\n      tag_56\n      swap2\n      swap1\n      tag_57\n      jump\t// in\n    tag_56:\n      tag_58\n      jump\t// in\n    tag_55:\n      mload(0x40)\n      tag_59\n      swap2\n      swap1\n      tag_35\n      jump\t// in\n    tag_59:\n      mload(0x40)\n      dup1\n      swap2\n      sub\n      swap1\n      return\n        /* \"contracts/ERC20.sol\":5378:5627  function transferFrom(address from, address to, uint256 value) public virtual returns (bool) {... */\n    tag_9:\n      tag_60\n      0x04\n      dup1\n      calldatasize\n      sub\n      dup2\n      add\n      swap1\n      tag_61\n      swap2\n      swap1\n      tag_62\n      jump\t// in\n    tag_61:\n      tag_63\n      jump\t// in\n    tag_60:\n      mload(0x40)\n      tag_64\n      swap2\n      swap1\n      tag_45\n      jump\t// in\n    tag_64:\n      mload(0x40)\n      dup1\n      swap2\n      sub\n      swap1\n      return\n        /* \"contracts/Invest.sol\":1215:1300  function decimals() public pure override returns (uint8) {... */\n    tag_10:\n      tag_65\n      tag_66\n      jump\t// in\n    tag_65:\n      mload(0x40)\n      tag_67\n      swap2\n      swap1\n      tag_68\n      jump\t// in\n    tag_67:\n      mload(0x40)\n      dup1\n      swap2\n      sub\n      swap1\n      return\n        /* \"contracts/Invest.sol\":2539:3628  function investInProject(uint256 _projectId, uint256 _amount) onlyUser public {... */\n    tag_11:\n      tag_69\n      0x04\n      dup1\n      calldatasize\n      sub\n      dup2\n      add\n      swap1\n      tag_70\n      swap2\n      swap1\n      tag_32\n      jump\t// in\n    tag_70:\n      tag_71\n      jump\t// in\n    tag_69:\n      stop\n        /* \"contracts/Invest.sol\":648:679  uint256 public projectCount = 0 */\n    tag_12:\n      tag_72\n      tag_73\n      jump\t// in\n    tag_72:\n      mload(0x40)\n      tag_74\n      swap2\n      swap1\n      tag_35\n      jump\t// in\n    tag_74:\n      mload(0x40)\n      dup1\n      swap2\n      sub\n      swap1\n      return\n        /* \"contracts/Invest.sol\":1430:1632  function registerUser() onlyUser public {... */\n    tag_13:\n      tag_75\n      tag_76\n      jump\t// in\n    tag_75:\n      stop\n        /* \"contracts/ERC20.sol\":8132:8343  function _mint(address account, uint256 value) public {... */\n    tag_14:\n      tag_77\n      0x04\n      dup1\n      calldatasize\n      sub\n      dup2\n      add\n      swap1\n      tag_78\n      swap2\n      swap1\n      tag_42\n      jump\t// in\n    tag_78:\n      tag_79\n      jump\t// in\n    tag_77:\n      stop\n        /* \"contracts/Invest.sol\":3636:4149  function issueTokens(uint256 _projectId, uint256 _amount) onlyAdmin public {... */\n    tag_15:\n      tag_80\n      0x04\n      dup1\n      calldatasize\n      sub\n      dup2\n      add\n      swap1\n      tag_81\n      swap2\n      swap1\n      tag_32\n      jump\t// in\n    tag_81:\n      tag_82\n      jump\t// in\n    tag_80:\n      stop\n        /* \"contracts/Invest.sol\":1640:1864  function giveTokens(address _user, uint256 _amount) onlyAdmin public {... */\n    tag_16:\n      tag_83\n      0x04\n      dup1\n      calldatasize\n      sub\n      dup2\n      add\n      swap1\n      tag_84\n      swap2\n      swap1\n      tag_42\n      jump\t// in\n    tag_84:\n      tag_85\n      jump\t// in\n    tag_83:\n      stop\n        /* \"contracts/Invest.sol\":785:859  mapping(uint256 => mapping(address => uint256)) public projectsInvestments */\n    tag_17:\n      tag_86\n      0x04\n      dup1\n      calldatasize\n      sub\n      dup2\n      add\n      swap1\n      tag_87\n      swap2\n      swap1\n      tag_88\n      jump\t// in\n    tag_87:\n      tag_89\n      jump\t// in\n    tag_86:\n      mload(0x40)\n      tag_90\n      swap2\n      swap1\n      tag_35\n      jump\t// in\n    tag_90:\n      mload(0x40)\n      dup1\n      swap2\n      sub\n      swap1\n      return\n        /* \"contracts/ERC20.sol\":3549:3667  function balanceOf(address account) public view virtual returns (uint256) {... */\n    tag_18:\n      tag_91\n      0x04\n      dup1\n      calldatasize\n      sub\n      dup2\n      add\n      swap1\n      tag_92\n      swap2\n      swap1\n      tag_57\n      jump\t// in\n    tag_92:\n      tag_93\n      jump\t// in\n    tag_91:\n      mload(0x40)\n      tag_94\n      swap2\n      swap1\n      tag_35\n      jump\t// in\n    tag_94:\n      mload(0x40)\n      dup1\n      swap2\n      sub\n      swap1\n      return\n        /* \"contracts/Invest.sol\":5544:6292  function closeProject(uint256 _projectId) onlyAdmin public {... */\n    tag_19:\n      tag_95\n      0x04\n      dup1\n      calldatasize\n      sub\n      dup2\n      add\n      swap1\n      tag_96\n      swap2\n      swap1\n      tag_48\n      jump\t// in\n    tag_96:\n      tag_97\n      jump\t// in\n    tag_95:\n      stop\n        /* \"contracts/ERC20.sol\":2495:2590  function symbol() public view virtual returns (string memory) {... */\n    tag_20:\n      tag_98\n      tag_99\n      jump\t// in\n    tag_98:\n      mload(0x40)\n      tag_100\n      swap2\n      swap1\n      tag_39\n      jump\t// in\n    tag_100:\n      mload(0x40)\n      dup1\n      swap2\n      sub\n      swap1\n      return\n        /* \"contracts/Invest.sol\":602:639  mapping(address => User) public users */\n    tag_21:\n      tag_101\n      0x04\n      dup1\n      calldatasize\n      sub\n      dup2\n      add\n      swap1\n      tag_102\n      swap2\n      swap1\n      tag_57\n      jump\t// in\n    tag_102:\n      tag_103\n      jump\t// in\n    tag_101:\n      mload(0x40)\n      tag_104\n      swap2\n      swap1\n      tag_35\n      jump\t// in\n    tag_104:\n      mload(0x40)\n      dup1\n      swap2\n      sub\n      swap1\n      return\n        /* \"contracts/ERC20.sol\":3872:4054  function transfer(address to, uint256 value) public virtual returns (bool) {... */\n    tag_22:\n      tag_105\n      0x04\n      dup1\n      calldatasize\n      sub\n      dup2\n      add\n      swap1\n      tag_106\n      swap2\n      swap1\n      tag_42\n      jump\t// in\n    tag_106:\n      tag_107\n      jump\t// in\n    tag_105:\n      mload(0x40)\n      tag_108\n      swap2\n      swap1\n      tag_45\n      jump\t// in\n    tag_108:\n      mload(0x40)\n      dup1\n      swap2\n      sub\n      swap1\n      return\n        /* \"contracts/Invest.sol\":4157:5536  function payInvestors(uint256 _projectId, uint256 _amount) onlyUser public {... */\n    tag_23:\n      tag_109\n      0x04\n      dup1\n      calldatasize\n      sub\n      dup2\n      add\n      swap1\n      tag_110\n      swap2\n      swap1\n      tag_32\n      jump\t// in\n    tag_110:\n      tag_111\n      jump\t// in\n    tag_109:\n      stop\n        /* \"contracts/ERC20.sol\":4117:4259  function allowance(address owner, address spender) public view virtual returns (uint256) {... */\n    tag_24:\n      tag_112\n      0x04\n      dup1\n      calldatasize\n      sub\n      dup2\n      add\n      swap1\n      tag_113\n      swap2\n      swap1\n      tag_114\n      jump\t// in\n    tag_113:\n      tag_115\n      jump\t// in\n    tag_112:\n      mload(0x40)\n      tag_116\n      swap2\n      swap1\n      tag_35\n      jump\t// in\n    tag_116:\n      mload(0x40)\n      dup1\n      swap2\n      sub\n      swap1\n      return\n        /* \"contracts/Invest.sol\":1872:2107  function takeTokens(address _user, uint256 _amount) onlyAdmin public {... */\n    tag_25:\n      tag_117\n      0x04\n      dup1\n      calldatasize\n      sub\n      dup2\n      add\n      swap1\n      tag_118\n      swap2\n      swap1\n      tag_42\n      jump\t// in\n    tag_118:\n      tag_119\n      jump\t// in\n    tag_117:\n      stop\n        /* \"contracts/Invest.sol\":868:888  address public admin */\n    tag_26:\n      tag_120\n      tag_121\n      jump\t// in\n    tag_120:\n      mload(0x40)\n      tag_122\n      swap2\n      swap1\n      tag_123\n      jump\t// in\n    tag_122:\n      mload(0x40)\n      dup1\n      swap2\n      sub\n      swap1\n      return\n        /* \"contracts/Invest.sol\":2115:2531  function createProject(uint256 _goal, uint256 _interest) onlyUser public returns(uint256) {... */\n    tag_33:\n        /* \"contracts/Invest.sol\":2196:2203  uint256 */\n      0x00\n        /* \"contracts/Invest.sol\":1056:1061  admin */\n      0x0b\n      0x00\n      swap1\n      sload\n      swap1\n      0x0100\n      exp\n      swap1\n      div\n      0xffffffffffffffffffffffffffffffffffffffff\n      and\n        /* \"contracts/Invest.sol\":1042:1061  msg.sender != admin */\n      0xffffffffffffffffffffffffffffffffffffffff\n      and\n        /* \"contracts/Invest.sol\":1042:1052  msg.sender */\n      caller\n        /* \"contracts/Invest.sol\":1042:1061  msg.sender != admin */\n      0xffffffffffffffffffffffffffffffffffffffff\n      and\n      sub\n        /* \"contracts/Invest.sol\":1034:1087  require(msg.sender != admin, \"Admin can't be a user\") */\n      tag_125\n      jumpi\n      mload(0x40)\n      0x08c379a000000000000000000000000000000000000000000000000000000000\n      dup2\n      mstore\n      0x04\n      add\n      tag_126\n      swap1\n      tag_127\n      jump\t// in\n    tag_126:\n      mload(0x40)\n      dup1\n      swap2\n      sub\n      swap1\n      revert\n    tag_125:\n        /* \"contracts/Invest.sol\":2224:2235  isRegistred */\n      0x05\n        /* \"contracts/Invest.sol\":2224:2247  isRegistred[msg.sender] */\n      0x00\n        /* \"contracts/Invest.sol\":2236:2246  msg.sender */\n      caller\n        /* \"contracts/Invest.sol\":2224:2247  isRegistred[msg.sender] */\n      0xffffffffffffffffffffffffffffffffffffffff\n      and\n      0xffffffffffffffffffffffffffffffffffffffff\n      and\n      dup2\n      mstore\n      0x20\n      add\n      swap1\n      dup2\n      mstore\n      0x20\n      add\n      0x00\n      keccak256\n      0x00\n      swap1\n      sload\n      swap1\n      0x0100\n      exp\n      swap1\n      div\n      0xff\n      and\n        /* \"contracts/Invest.sol\":2216:2270  require(isRegistred[msg.sender], \"User not registred\") */\n      tag_129\n      jumpi\n      mload(0x40)\n      0x08c379a000000000000000000000000000000000000000000000000000000000\n      dup2\n      mstore\n      0x04\n      add\n      tag_130\n      swap1\n      tag_131\n      jump\t// in\n    tag_130:\n      mload(0x40)\n      dup1\n      swap2\n      sub\n      swap1\n      revert\n    tag_129:\n        /* \"contracts/Invest.sol\":2283:2300  uint256 projectId */\n      0x00\n        /* \"contracts/Invest.sol\":2303:2315  projectCount */\n      sload(0x07)\n        /* \"contracts/Invest.sol\":2283:2315  uint256 projectId = projectCount */\n      swap1\n      pop\n        /* \"contracts/Invest.sol\":2348:2431  Project(0, 0, _goal, _interest, msg.sender, 0, new address[](0), Status.Collecting) */\n      mload(0x40)\n      dup1\n      0x0100\n      add\n      0x40\n      mstore\n      dup1\n        /* \"contracts/Invest.sol\":2356:2357  0 */\n      0x00\n        /* \"contracts/Invest.sol\":2348:2431  Project(0, 0, _goal, _interest, msg.sender, 0, new address[](0), Status.Collecting) */\n      dup2\n      mstore\n      0x20\n      add\n        /* \"contracts/Invest.sol\":2359:2360  0 */\n      0x00\n        /* \"contracts/Invest.sol\":2348:2431  Project(0, 0, _goal, _interest, msg.sender, 0, new address[](0), Status.Collecting) */\n      dup2\n      mstore\n      0x20\n      add\n        /* \"contracts/Invest.sol\":2362:2367  _goal */\n      dup6\n        /* \"contracts/Invest.sol\":2348:2431  Project(0, 0, _goal, _interest, msg.sender, 0, new address[](0), Status.Collecting) */\n      dup2\n      mstore\n      0x20\n      add\n        /* \"contracts/Invest.sol\":2369:2378  _interest */\n      dup5\n        /* \"contracts/Invest.sol\":2348:2431  Project(0, 0, _goal, _interest, msg.sender, 0, new address[](0), Status.Collecting) */\n      dup2\n      mstore\n      0x20\n      add\n        /* \"contracts/Invest.sol\":2380:2390  msg.sender */\n      caller\n        /* \"contracts/Invest.sol\":2348:2431  Project(0, 0, _goal, _interest, msg.sender, 0, new address[](0), Status.Collecting) */\n      0xffffffffffffffffffffffffffffffffffffffff\n      and\n      dup2\n      mstore\n      0x20\n      add\n        /* \"contracts/Invest.sol\":2392:2393  0 */\n      0x00\n        /* \"contracts/Invest.sol\":2348:2431  Project(0, 0, _goal, _interest, msg.sender, 0, new address[](0), Status.Collecting) */\n      dup2\n      mstore\n      0x20\n      add\n        /* \"contracts/Invest.sol\":2409:2410  0 */\n      0x00\n        /* \"contracts/Invest.sol\":2395:2411  new address[](0) */\n      0xffffffffffffffff\n      dup2\n      gt\n      iszero\n      tag_132\n      jumpi\n      tag_133\n      tag_134\n      jump\t// in\n    tag_133:\n    tag_132:\n      mload(0x40)\n      swap1\n      dup1\n      dup3\n      mstore\n      dup1\n      0x20\n      mul\n      0x20\n      add\n      dup3\n      add\n      0x40\n      mstore\n      dup1\n      iszero\n      tag_135\n      jumpi\n      dup2\n      0x20\n      add\n      0x20\n      dup3\n      mul\n      dup1\n      calldatasize\n      dup4\n      calldatacopy\n      dup1\n      dup3\n      add\n      swap2\n      pop\n      pop\n      swap1\n      pop\n    tag_135:\n      pop\n        /* \"contracts/Invest.sol\":2348:2431  Project(0, 0, _goal, _interest, msg.sender, 0, new address[](0), Status.Collecting) */\n      dup2\n      mstore\n      0x20\n      add\n        /* \"contracts/Invest.sol\":2413:2430  Status.Collecting */\n      0x00\n        /* \"contracts/Invest.sol\":2348:2431  Project(0, 0, _goal, _interest, msg.sender, 0, new address[](0), Status.Collecting) */\n      0x03\n      dup2\n      gt\n      iszero\n      tag_136\n      jumpi\n      tag_137\n      tag_138\n      jump\t// in\n    tag_137:\n    tag_136:\n      dup2\n      mstore\n      pop\n        /* \"contracts/Invest.sol\":2326:2334  projects */\n      0x09\n        /* \"contracts/Invest.sol\":2326:2345  projects[projectId] */\n      0x00\n        /* \"contracts/Invest.sol\":2335:2344  projectId */\n      dup4\n        /* \"contracts/Invest.sol\":2326:2345  projects[projectId] */\n      dup2\n      mstore\n      0x20\n      add\n      swap1\n      dup2\n      mstore\n      0x20\n      add\n      0x00\n      keccak256\n        /* \"contracts/Invest.sol\":2326:2431  projects[projectId] = Project(0, 0, _goal, _interest, msg.sender, 0, new address[](0), Status.Collecting) */\n      0x00\n      dup3\n      add\n      mload\n      dup2\n      0x00\n      add\n      sstore\n      0x20\n      dup3\n      add\n      mload\n      dup2\n      0x01\n      add\n      sstore\n      0x40\n      dup3\n      add\n      mload\n      dup2\n      0x02\n      add\n      sstore\n      0x60\n      dup3\n      add\n      mload\n      dup2\n      0x03\n      add\n      sstore\n      0x80\n      dup3\n      add\n      mload\n      dup2\n      0x04\n      add\n      exp(0x0100, 0x00)\n      dup2\n      sload\n      dup2\n      0xffffffffffffffffffffffffffffffffffffffff\n      mul\n      not\n      and\n      swap1\n      dup4\n      0xffffffffffffffffffffffffffffffffffffffff\n      and\n      mul\n      or\n      swap1\n      sstore\n      pop\n      0xa0\n      dup3\n      add\n      mload\n      dup2\n      0x05\n      add\n      sstore\n      0xc0\n      dup3\n      add\n      mload\n      dup2\n      0x06\n      add\n      swap1\n      dup1\n      mload\n      swap1\n      0x20\n      add\n      swap1\n      tag_139\n      swap3\n      swap2\n      swap1\n      tag_140\n      jump\t// in\n    tag_139:\n      pop\n      0xe0\n      dup3\n      add\n      mload\n      dup2\n      0x07\n      add\n      exp(0x0100, 0x00)\n      dup2\n      sload\n      dup2\n      0xff\n      mul\n      not\n      and\n      swap1\n      dup4\n      0x03\n      dup2\n      gt\n      iszero\n      tag_141\n      jumpi\n      tag_142\n      tag_138\n      jump\t// in\n    tag_142:\n    tag_141:\n      mul\n      or\n      swap1\n      sstore\n      pop\n      swap1\n      pop\n      pop\n        /* \"contracts/Invest.sol\":2465:2469  true */\n      0x01\n        /* \"contracts/Invest.sol\":2442:2451  doesExist */\n      0x08\n        /* \"contracts/Invest.sol\":2442:2462  doesExist[projectId] */\n      0x00\n        /* \"contracts/Invest.sol\":2452:2461  projectId */\n      dup4\n        /* \"contracts/Invest.sol\":2442:2462  doesExist[projectId] */\n      dup2\n      mstore\n      0x20\n      add\n      swap1\n      dup2\n      mstore\n      0x20\n      add\n      0x00\n      keccak256\n      0x00\n        /* \"contracts/Invest.sol\":2442:2469  doesExist[projectId] = true */\n      0x0100\n      exp\n      dup2\n      sload\n      dup2\n      0xff\n      mul\n      not\n      and\n      swap1\n      dup4\n      iszero\n      iszero\n      mul\n      or\n      swap1\n      sstore\n      pop\n        /* \"contracts/Invest.sol\":2480:2492  projectCount */\n      0x07\n      0x00\n        /* \"contracts/Invest.sol\":2480:2494  projectCount++ */\n      dup2\n      sload\n      dup1\n      swap3\n      swap2\n      swap1\n      tag_143\n      swap1\n      tag_144\n      jump\t// in\n    tag_143:\n      swap2\n      swap1\n      pop\n      sstore\n      pop\n        /* \"contracts/Invest.sol\":2514:2523  projectId */\n      dup1\n        /* \"contracts/Invest.sol\":2507:2523  return projectId */\n      swap2\n      pop\n      pop\n        /* \"contracts/Invest.sol\":2115:2531  function createProject(uint256 _goal, uint256 _interest) onlyUser public returns(uint256) {... */\n      swap3\n      swap2\n      pop\n      pop\n      jump\t// out\n        /* \"contracts/ERC20.sol\":2285:2376  function name() public view virtual returns (string memory) {... */\n    tag_37:\n        /* \"contracts/ERC20.sol\":2330:2343  string memory */\n      0x60\n        /* \"contracts/ERC20.sol\":2363:2368  _name */\n      0x03\n        /* \"contracts/ERC20.sol\":2356:2368  return _name */\n      dup1\n      sload\n      tag_146\n      swap1\n      tag_147\n      jump\t// in\n    tag_146:\n      dup1\n      0x1f\n      add\n      0x20\n      dup1\n      swap2\n      div\n      mul\n      0x20\n      add\n      mload(0x40)\n      swap1\n      dup2\n      add\n      0x40\n      mstore\n      dup1\n      swap3\n      swap2\n      swap1\n      dup2\n      dup2\n      mstore\n      0x20\n      add\n      dup3\n      dup1\n      sload\n      tag_148\n      swap1\n      tag_147\n      jump\t// in\n    tag_148:\n      dup1\n      iszero\n      tag_149\n      jumpi\n      dup1\n      0x1f\n      lt\n      tag_150\n      jumpi\n      0x0100\n      dup1\n      dup4\n      sload\n      div\n      mul\n      dup4\n      mstore\n      swap2\n      0x20\n      add\n      swap2\n      jump(tag_149)\n    tag_150:\n      dup3\n      add\n      swap2\n      swap1\n      0x00\n      mstore\n      keccak256(0x00, 0x20)\n      swap1\n    tag_151:\n      dup2\n      sload\n      dup2\n      mstore\n      swap1\n      0x01\n      add\n      swap1\n      0x20\n      add\n      dup1\n      dup4\n      gt\n      tag_151\n      jumpi\n      dup3\n      swap1\n      sub\n      0x1f\n      and\n      dup3\n      add\n      swap2\n    tag_149:\n      pop\n      pop\n      pop\n      pop\n      pop\n      swap1\n      pop\n        /* \"contracts/ERC20.sol\":2285:2376  function name() public view virtual returns (string memory) {... */\n      swap1\n      jump\t// out\n        /* \"contracts/ERC20.sol\":4578:4768  function approve(address spender, uint256 value) public virtual returns (bool) {... */\n    tag_43:\n        /* \"contracts/ERC20.sol\":4651:4655  bool */\n      0x00\n        /* \"contracts/ERC20.sol\":4668:4681  address owner */\n      0x00\n        /* \"contracts/ERC20.sol\":4684:4696  _msgSender() */\n      tag_153\n        /* \"contracts/ERC20.sol\":4684:4694  _msgSender */\n      tag_154\n        /* \"contracts/ERC20.sol\":4684:4696  _msgSender() */\n      jump\t// in\n    tag_153:\n        /* \"contracts/ERC20.sol\":4668:4696  address owner = _msgSender() */\n      swap1\n      pop\n        /* \"contracts/ERC20.sol\":4707:4738  _approve(owner, spender, value) */\n      tag_155\n        /* \"contracts/ERC20.sol\":4716:4721  owner */\n      dup2\n        /* \"contracts/ERC20.sol\":4723:4730  spender */\n      dup6\n        /* \"contracts/ERC20.sol\":4732:4737  value */\n      dup6\n        /* \"contracts/ERC20.sol\":4707:4715  _approve */\n      tag_156\n        /* \"contracts/ERC20.sol\":4707:4738  _approve(owner, spender, value) */\n      jump\t// in\n    tag_155:\n        /* \"contracts/ERC20.sol\":4756:4760  true */\n      0x01\n        /* \"contracts/ERC20.sol\":4749:4760  return true */\n      swap2\n      pop\n      pop\n        /* \"contracts/ERC20.sol\":4578:4768  function approve(address spender, uint256 value) public virtual returns (bool) {... */\n      swap3\n      swap2\n      pop\n      pop\n      jump\t// out\n        /* \"contracts/Invest.sol\":735:778  mapping(uint256 => Project) public projects */\n    tag_49:\n      mstore(0x20, 0x09)\n      dup1\n      0x00\n      mstore\n      keccak256(0x00, 0x40)\n      0x00\n      swap2\n      pop\n      swap1\n      pop\n      dup1\n      0x00\n      add\n      sload\n      swap1\n      dup1\n      0x01\n      add\n      sload\n      swap1\n      dup1\n      0x02\n      add\n      sload\n      swap1\n      dup1\n      0x03\n      add\n      sload\n      swap1\n      dup1\n      0x04\n      add\n      0x00\n      swap1\n      sload\n      swap1\n      0x0100\n      exp\n      swap1\n      div\n      0xffffffffffffffffffffffffffffffffffffffff\n      and\n      swap1\n      dup1\n      0x05\n      add\n      sload\n      swap1\n      dup1\n      0x07\n      add\n      0x00\n      swap1\n      sload\n      swap1\n      0x0100\n      exp\n      swap1\n      div\n      0xff\n      and\n      swap1\n      pop\n      dup8\n      jump\t// out\n        /* \"contracts/ERC20.sol\":3387:3486  function totalSupply() public view virtual returns (uint256) {... */\n    tag_53:\n        /* \"contracts/ERC20.sol\":3439:3446  uint256 */\n      0x00\n        /* \"contracts/ERC20.sol\":3466:3478  _totalSupply */\n      sload(0x02)\n        /* \"contracts/ERC20.sol\":3459:3478  return _totalSupply */\n      swap1\n      pop\n        /* \"contracts/ERC20.sol\":3387:3486  function totalSupply() public view virtual returns (uint256) {... */\n      swap1\n      jump\t// out\n        /* \"contracts/Invest.sol\":1308:1422  function balanceOfWallet(address wallet) public view returns (uint256) {... */\n    tag_58:\n        /* \"contracts/Invest.sol\":1370:1377  uint256 */\n      0x00\n        /* \"contracts/Invest.sol\":1397:1414  balanceOf(wallet) */\n      tag_159\n        /* \"contracts/Invest.sol\":1407:1413  wallet */\n      dup3\n        /* \"contracts/Invest.sol\":1397:1406  balanceOf */\n      tag_93\n        /* \"contracts/Invest.sol\":1397:1414  balanceOf(wallet) */\n      jump\t// in\n    tag_159:\n        /* \"contracts/Invest.sol\":1390:1414  return balanceOf(wallet) */\n      swap1\n      pop\n        /* \"contracts/Invest.sol\":1308:1422  function balanceOfWallet(address wallet) public view returns (uint256) {... */\n      swap2\n      swap1\n      pop\n      jump\t// out\n        /* \"contracts/ERC20.sol\":5378:5627  function transferFrom(address from, address to, uint256 value) public virtual returns (bool) {... */\n    tag_63:\n        /* \"contracts/ERC20.sol\":5465:5469  bool */\n      0x00\n        /* \"contracts/ERC20.sol\":5482:5497  address spender */\n      0x00\n        /* \"contracts/ERC20.sol\":5500:5512  _msgSender() */\n      tag_161\n        /* \"contracts/ERC20.sol\":5500:5510  _msgSender */\n      tag_154\n        /* \"contracts/ERC20.sol\":5500:5512  _msgSender() */\n      jump\t// in\n    tag_161:\n        /* \"contracts/ERC20.sol\":5482:5512  address spender = _msgSender() */\n      swap1\n      pop\n        /* \"contracts/ERC20.sol\":5523:5560  _spendAllowance(from, spender, value) */\n      tag_162\n        /* \"contracts/ERC20.sol\":5539:5543  from */\n      dup6\n        /* \"contracts/ERC20.sol\":5545:5552  spender */\n      dup3\n        /* \"contracts/ERC20.sol\":5554:5559  value */\n      dup6\n        /* \"contracts/ERC20.sol\":5523:5538  _spendAllowance */\n      tag_163\n        /* \"contracts/ERC20.sol\":5523:5560  _spendAllowance(from, spender, value) */\n      jump\t// in\n    tag_162:\n        /* \"contracts/ERC20.sol\":5571:5597  _transfer(from, to, value) */\n      tag_164\n        /* \"contracts/ERC20.sol\":5581:5585  from */\n      dup6\n        /* \"contracts/ERC20.sol\":5587:5589  to */\n      dup6\n        /* \"contracts/ERC20.sol\":5591:5596  value */\n      dup6\n        /* \"contracts/ERC20.sol\":5571:5580  _transfer */\n      tag_165\n        /* \"contracts/ERC20.sol\":5571:5597  _transfer(from, to, value) */\n      jump\t// in\n    tag_164:\n        /* \"contracts/ERC20.sol\":5615:5619  true */\n      0x01\n        /* \"contracts/ERC20.sol\":5608:5619  return true */\n      swap2\n      pop\n      pop\n        /* \"contracts/ERC20.sol\":5378:5627  function transferFrom(address from, address to, uint256 value) public virtual returns (bool) {... */\n      swap4\n      swap3\n      pop\n      pop\n      pop\n      jump\t// out\n        /* \"contracts/Invest.sol\":1215:1300  function decimals() public pure override returns (uint8) {... */\n    tag_66:\n        /* \"contracts/Invest.sol\":1265:1270  uint8 */\n      0x00\n        /* \"contracts/Invest.sol\":1290:1292  18 */\n      0x12\n        /* \"contracts/Invest.sol\":1283:1292  return 18 */\n      swap1\n      pop\n        /* \"contracts/Invest.sol\":1215:1300  function decimals() public pure override returns (uint8) {... */\n      swap1\n      jump\t// out\n        /* \"contracts/Invest.sol\":2539:3628  function investInProject(uint256 _projectId, uint256 _amount) onlyUser public {... */\n    tag_71:\n        /* \"contracts/Invest.sol\":1056:1061  admin */\n      0x0b\n      0x00\n      swap1\n      sload\n      swap1\n      0x0100\n      exp\n      swap1\n      div\n      0xffffffffffffffffffffffffffffffffffffffff\n      and\n        /* \"contracts/Invest.sol\":1042:1061  msg.sender != admin */\n      0xffffffffffffffffffffffffffffffffffffffff\n      and\n        /* \"contracts/Invest.sol\":1042:1052  msg.sender */\n      caller\n        /* \"contracts/Invest.sol\":1042:1061  msg.sender != admin */\n      0xffffffffffffffffffffffffffffffffffffffff\n      and\n      sub\n        /* \"contracts/Invest.sol\":1034:1087  require(msg.sender != admin, \"Admin can't be a user\") */\n      tag_168\n      jumpi\n      mload(0x40)\n      0x08c379a000000000000000000000000000000000000000000000000000000000\n      dup2\n      mstore\n      0x04\n      add\n      tag_169\n      swap1\n      tag_127\n      jump\t// in\n    tag_169:\n      mload(0x40)\n      dup1\n      swap2\n      sub\n      swap1\n      revert\n    tag_168:\n        /* \"contracts/Invest.sol\":2636:2647  isRegistred */\n      0x05\n        /* \"contracts/Invest.sol\":2636:2659  isRegistred[msg.sender] */\n      0x00\n        /* \"contracts/Invest.sol\":2648:2658  msg.sender */\n      caller\n        /* \"contracts/Invest.sol\":2636:2659  isRegistred[msg.sender] */\n      0xffffffffffffffffffffffffffffffffffffffff\n      and\n      0xffffffffffffffffffffffffffffffffffffffff\n      and\n      dup2\n      mstore\n      0x20\n      add\n      swap1\n      dup2\n      mstore\n      0x20\n      add\n      0x00\n      keccak256\n      0x00\n      swap1\n      sload\n      swap1\n      0x0100\n      exp\n      swap1\n      div\n      0xff\n      and\n        /* \"contracts/Invest.sol\":2628:2682  require(isRegistred[msg.sender], \"User not registred\") */\n      tag_171\n      jumpi\n      mload(0x40)\n      0x08c379a000000000000000000000000000000000000000000000000000000000\n      dup2\n      mstore\n      0x04\n      add\n      tag_172\n      swap1\n      tag_131\n      jump\t// in\n    tag_172:\n      mload(0x40)\n      dup1\n      swap2\n      sub\n      swap1\n      revert\n    tag_171:\n        /* \"contracts/Invest.sol\":2730:2737  _amount */\n      dup1\n        /* \"contracts/Invest.sol\":2701:2706  users */\n      0x06\n        /* \"contracts/Invest.sol\":2701:2718  users[msg.sender] */\n      0x00\n        /* \"contracts/Invest.sol\":2707:2717  msg.sender */\n      caller\n        /* \"contracts/Invest.sol\":2701:2718  users[msg.sender] */\n      0xffffffffffffffffffffffffffffffffffffffff\n      and\n      0xffffffffffffffffffffffffffffffffffffffff\n      and\n      dup2\n      mstore\n      0x20\n      add\n      swap1\n      dup2\n      mstore\n      0x20\n      add\n      0x00\n      keccak256\n        /* \"contracts/Invest.sol\":2701:2726  users[msg.sender].balance */\n      0x00\n      add\n      sload\n        /* \"contracts/Invest.sol\":2701:2737  users[msg.sender].balance >= _amount */\n      lt\n      iszero\n        /* \"contracts/Invest.sol\":2693:2767  require(users[msg.sender].balance >= _amount, \"User's balance is too low\") */\n      tag_173\n      jumpi\n      mload(0x40)\n      0x08c379a000000000000000000000000000000000000000000000000000000000\n      dup2\n      mstore\n      0x04\n      add\n      tag_174\n      swap1\n      tag_175\n      jump\t// in\n    tag_174:\n      mload(0x40)\n      dup1\n      swap2\n      sub\n      swap1\n      revert\n    tag_173:\n        /* \"contracts/Invest.sol\":2786:2795  doesExist */\n      0x08\n        /* \"contracts/Invest.sol\":2786:2807  doesExist[_projectId] */\n      0x00\n        /* \"contracts/Invest.sol\":2796:2806  _projectId */\n      dup4\n        /* \"contracts/Invest.sol\":2786:2807  doesExist[_projectId] */\n      dup2\n      mstore\n      0x20\n      add\n      swap1\n      dup2\n      mstore\n      0x20\n      add\n      0x00\n      keccak256\n      0x00\n      swap1\n      sload\n      swap1\n      0x0100\n      exp\n      swap1\n      div\n      0xff\n      and\n        /* \"contracts/Invest.sol\":2778:2833  require(doesExist[_projectId], \"Project doesn't exist\") */\n      tag_176\n      jumpi\n      mload(0x40)\n      0x08c379a000000000000000000000000000000000000000000000000000000000\n      dup2\n      mstore\n      0x04\n      add\n      tag_177\n      swap1\n      tag_178\n      jump\t// in\n    tag_177:\n      mload(0x40)\n      dup1\n      swap2\n      sub\n      swap1\n      revert\n    tag_176:\n        /* \"contracts/Invest.sol\":2883:2900  Status.Collecting */\n      0x00\n        /* \"contracts/Invest.sol\":2852:2900  projects[_projectId].status == Status.Collecting */\n      0x03\n      dup2\n      gt\n      iszero\n      tag_179\n      jumpi\n      tag_180\n      tag_138\n      jump\t// in\n    tag_180:\n    tag_179:\n        /* \"contracts/Invest.sol\":2852:2860  projects */\n      0x09\n        /* \"contracts/Invest.sol\":2852:2872  projects[_projectId] */\n      0x00\n        /* \"contracts/Invest.sol\":2861:2871  _projectId */\n      dup5\n        /* \"contracts/Invest.sol\":2852:2872  projects[_projectId] */\n      dup2\n      mstore\n      0x20\n      add\n      swap1\n      dup2\n      mstore\n      0x20\n      add\n      0x00\n      keccak256\n        /* \"contracts/Invest.sol\":2852:2879  projects[_projectId].status */\n      0x07\n      add\n      0x00\n      swap1\n      sload\n      swap1\n      0x0100\n      exp\n      swap1\n      div\n      0xff\n      and\n        /* \"contracts/Invest.sol\":2852:2900  projects[_projectId].status == Status.Collecting */\n      0x03\n      dup2\n      gt\n      iszero\n      tag_181\n      jumpi\n      tag_182\n      tag_138\n      jump\t// in\n    tag_182:\n    tag_181:\n      eq\n        /* \"contracts/Invest.sol\":2844:2947  require(projects[_projectId].status == Status.Collecting, \"Project doesn't accept investments anymore\") */\n      tag_183\n      jumpi\n      mload(0x40)\n      0x08c379a000000000000000000000000000000000000000000000000000000000\n      dup2\n      mstore\n      0x04\n      add\n      tag_184\n      swap1\n      tag_185\n      jump\t// in\n    tag_184:\n      mload(0x40)\n      dup1\n      swap2\n      sub\n      swap1\n      revert\n    tag_183:\n        /* \"contracts/Invest.sol\":2997:3007  msg.sender */\n      caller\n        /* \"contracts/Invest.sol\":2966:3007  projects[_projectId].author != msg.sender */\n      0xffffffffffffffffffffffffffffffffffffffff\n      and\n        /* \"contracts/Invest.sol\":2966:2974  projects */\n      0x09\n        /* \"contracts/Invest.sol\":2966:2986  projects[_projectId] */\n      0x00\n        /* \"contracts/Invest.sol\":2975:2985  _projectId */\n      dup5\n        /* \"contracts/Invest.sol\":2966:2986  projects[_projectId] */\n      dup2\n      mstore\n      0x20\n      add\n      swap1\n      dup2\n      mstore\n      0x20\n      add\n      0x00\n      keccak256\n        /* \"contracts/Invest.sol\":2966:2993  projects[_projectId].author */\n      0x04\n      add\n      0x00\n      swap1\n      sload\n      swap1\n      0x0100\n      exp\n      swap1\n      div\n      0xffffffffffffffffffffffffffffffffffffffff\n      and\n        /* \"contracts/Invest.sol\":2966:3007  projects[_projectId].author != msg.sender */\n      0xffffffffffffffffffffffffffffffffffffffff\n      and\n      sub\n        /* \"contracts/Invest.sol\":2958:3039  require(projects[_projectId].author != msg.sender, \"Can't invest in own project\") */\n      tag_186\n      jumpi\n      mload(0x40)\n      0x08c379a000000000000000000000000000000000000000000000000000000000\n      dup2\n      mstore\n      0x04\n      add\n      tag_187\n      swap1\n      tag_188\n      jump\t// in\n    tag_187:\n      mload(0x40)\n      dup1\n      swap2\n      sub\n      swap1\n      revert\n    tag_186:\n        /* \"contracts/Invest.sol\":3052:3076  transfer(admin, _amount) */\n      tag_189\n        /* \"contracts/Invest.sol\":3061:3066  admin */\n      0x0b\n      0x00\n      swap1\n      sload\n      swap1\n      0x0100\n      exp\n      swap1\n      div\n      0xffffffffffffffffffffffffffffffffffffffff\n      and\n        /* \"contracts/Invest.sol\":3068:3075  _amount */\n      dup3\n        /* \"contracts/Invest.sol\":3052:3060  transfer */\n      tag_107\n        /* \"contracts/Invest.sol\":3052:3076  transfer(admin, _amount) */\n      jump\t// in\n    tag_189:\n      pop\n        /* \"contracts/Invest.sol\":3116:3123  _amount */\n      dup1\n        /* \"contracts/Invest.sol\":3087:3092  users */\n      0x06\n        /* \"contracts/Invest.sol\":3087:3104  users[msg.sender] */\n      0x00\n        /* \"contracts/Invest.sol\":3093:3103  msg.sender */\n      caller\n        /* \"contracts/Invest.sol\":3087:3104  users[msg.sender] */\n      0xffffffffffffffffffffffffffffffffffffffff\n      and\n      0xffffffffffffffffffffffffffffffffffffffff\n      and\n      dup2\n      mstore\n      0x20\n      add\n      swap1\n      dup2\n      mstore\n      0x20\n      add\n      0x00\n      keccak256\n        /* \"contracts/Invest.sol\":3087:3112  users[msg.sender].balance */\n      0x00\n      add\n      0x00\n        /* \"contracts/Invest.sol\":3087:3123  users[msg.sender].balance -= _amount */\n      dup3\n      dup3\n      sload\n      tag_190\n      swap2\n      swap1\n      tag_191\n      jump\t// in\n    tag_190:\n      swap3\n      pop\n      pop\n      dup2\n      swap1\n      sstore\n      pop\n        /* \"contracts/Invest.sol\":3187:3188  0 */\n      0x00\n        /* \"contracts/Invest.sol\":3140:3159  projectsInvestments */\n      0x0a\n        /* \"contracts/Invest.sol\":3140:3171  projectsInvestments[_projectId] */\n      0x00\n        /* \"contracts/Invest.sol\":3160:3170  _projectId */\n      dup5\n        /* \"contracts/Invest.sol\":3140:3171  projectsInvestments[_projectId] */\n      dup2\n      mstore\n      0x20\n      add\n      swap1\n      dup2\n      mstore\n      0x20\n      add\n      0x00\n      keccak256\n        /* \"contracts/Invest.sol\":3140:3183  projectsInvestments[_projectId][msg.sender] */\n      0x00\n        /* \"contracts/Invest.sol\":3172:3182  msg.sender */\n      caller\n        /* \"contracts/Invest.sol\":3140:3183  projectsInvestments[_projectId][msg.sender] */\n      0xffffffffffffffffffffffffffffffffffffffff\n      and\n      0xffffffffffffffffffffffffffffffffffffffff\n      and\n      dup2\n      mstore\n      0x20\n      add\n      swap1\n      dup2\n      mstore\n      0x20\n      add\n      0x00\n      keccak256\n      sload\n        /* \"contracts/Invest.sol\":3140:3188  projectsInvestments[_projectId][msg.sender] == 0 */\n      sub\n        /* \"contracts/Invest.sol\":3136:3319  if (projectsInvestments[_projectId][msg.sender] == 0) {... */\n      tag_192\n      jumpi\n        /* \"contracts/Invest.sol\":3205:3213  projects */\n      0x09\n        /* \"contracts/Invest.sol\":3205:3225  projects[_projectId] */\n      0x00\n        /* \"contracts/Invest.sol\":3214:3224  _projectId */\n      dup4\n        /* \"contracts/Invest.sol\":3205:3225  projects[_projectId] */\n      dup2\n      mstore\n      0x20\n      add\n      swap1\n      dup2\n      mstore\n      0x20\n      add\n      0x00\n      keccak256\n        /* \"contracts/Invest.sol\":3205:3235  projects[_projectId].investors */\n      0x06\n      add\n        /* \"contracts/Invest.sol\":3241:3251  msg.sender */\n      caller\n        /* \"contracts/Invest.sol\":3205:3252  projects[_projectId].investors.push(msg.sender) */\n      swap1\n      dup1\n      0x01\n      dup2\n      sload\n      add\n      dup1\n      dup3\n      sstore\n      dup1\n      swap2\n      pop\n      pop\n      0x01\n      swap1\n      sub\n      swap1\n      0x00\n      mstore\n      keccak256(0x00, 0x20)\n      add\n      0x00\n      swap1\n      swap2\n      swap1\n      swap2\n      swap1\n      swap2\n      0x0100\n      exp\n      dup2\n      sload\n      dup2\n      0xffffffffffffffffffffffffffffffffffffffff\n      mul\n      not\n      and\n      swap1\n      dup4\n      0xffffffffffffffffffffffffffffffffffffffff\n      and\n      mul\n      or\n      swap1\n      sstore\n      pop\n        /* \"contracts/Invest.sol\":3306:3307  1 */\n      0x01\n        /* \"contracts/Invest.sol\":3267:3275  projects */\n      0x09\n        /* \"contracts/Invest.sol\":3267:3287  projects[_projectId] */\n      0x00\n        /* \"contracts/Invest.sol\":3276:3286  _projectId */\n      dup5\n        /* \"contracts/Invest.sol\":3267:3287  projects[_projectId] */\n      dup2\n      mstore\n      0x20\n      add\n      swap1\n      dup2\n      mstore\n      0x20\n      add\n      0x00\n      keccak256\n        /* \"contracts/Invest.sol\":3267:3302  projects[_projectId].investorsCount */\n      0x05\n      add\n      0x00\n        /* \"contracts/Invest.sol\":3267:3307  projects[_projectId].investorsCount += 1 */\n      dup3\n      dup3\n      sload\n      tag_194\n      swap2\n      swap1\n      tag_195\n      jump\t// in\n    tag_194:\n      swap3\n      pop\n      pop\n      dup2\n      swap1\n      sstore\n      pop\n        /* \"contracts/Invest.sol\":3136:3319  if (projectsInvestments[_projectId][msg.sender] == 0) {... */\n    tag_192:\n        /* \"contracts/Invest.sol\":3403:3410  _amount */\n      dup1\n        /* \"contracts/Invest.sol\":3371:3379  projects */\n      0x09\n        /* \"contracts/Invest.sol\":3371:3391  projects[_projectId] */\n      0x00\n        /* \"contracts/Invest.sol\":3380:3390  _projectId */\n      dup5\n        /* \"contracts/Invest.sol\":3371:3391  projects[_projectId] */\n      dup2\n      mstore\n      0x20\n      add\n      swap1\n      dup2\n      mstore\n      0x20\n      add\n      0x00\n      keccak256\n        /* \"contracts/Invest.sol\":3371:3399  projects[_projectId].capital */\n      0x01\n      add\n      0x00\n        /* \"contracts/Invest.sol\":3371:3410  projects[_projectId].capital += _amount */\n      dup3\n      dup3\n      sload\n      tag_196\n      swap2\n      swap1\n      tag_195\n      jump\t// in\n    tag_196:\n      swap3\n      pop\n      pop\n      dup2\n      swap1\n      sstore\n        /* \"contracts/Invest.sol\":3340:3348  projects */\n      0x09\n        /* \"contracts/Invest.sol\":3340:3360  projects[_projectId] */\n      0x00\n        /* \"contracts/Invest.sol\":3349:3359  _projectId */\n      dup5\n        /* \"contracts/Invest.sol\":3340:3360  projects[_projectId] */\n      dup2\n      mstore\n      0x20\n      add\n      swap1\n      dup2\n      mstore\n      0x20\n      add\n      0x00\n      keccak256\n        /* \"contracts/Invest.sol\":3340:3368  projects[_projectId].balance */\n      0x00\n      add\n        /* \"contracts/Invest.sol\":3340:3410  projects[_projectId].balance = projects[_projectId].capital += _amount */\n      dup2\n      swap1\n      sstore\n      pop\n        /* \"contracts/Invest.sol\":3468:3475  _amount */\n      dup1\n        /* \"contracts/Invest.sol\":3421:3440  projectsInvestments */\n      0x0a\n        /* \"contracts/Invest.sol\":3421:3452  projectsInvestments[_projectId] */\n      0x00\n        /* \"contracts/Invest.sol\":3441:3451  _projectId */\n      dup5\n        /* \"contracts/Invest.sol\":3421:3452  projectsInvestments[_projectId] */\n      dup2\n      mstore\n      0x20\n      add\n      swap1\n      dup2\n      mstore\n      0x20\n      add\n      0x00\n      keccak256\n        /* \"contracts/Invest.sol\":3421:3464  projectsInvestments[_projectId][msg.sender] */\n      0x00\n        /* \"contracts/Invest.sol\":3453:3463  msg.sender */\n      caller\n        /* \"contracts/Invest.sol\":3421:3464  projectsInvestments[_projectId][msg.sender] */\n      0xffffffffffffffffffffffffffffffffffffffff\n      and\n      0xffffffffffffffffffffffffffffffffffffffff\n      and\n      dup2\n      mstore\n      0x20\n      add\n      swap1\n      dup2\n      mstore\n      0x20\n      add\n      0x00\n      keccak256\n      0x00\n        /* \"contracts/Invest.sol\":3421:3475  projectsInvestments[_projectId][msg.sender] += _amount */\n      dup3\n      dup3\n      sload\n      tag_197\n      swap2\n      swap1\n      tag_195\n      jump\t// in\n    tag_197:\n      swap3\n      pop\n      pop\n      dup2\n      swap1\n      sstore\n      pop\n        /* \"contracts/Invest.sol\":3524:3532  projects */\n      0x09\n        /* \"contracts/Invest.sol\":3524:3544  projects[_projectId] */\n      0x00\n        /* \"contracts/Invest.sol\":3533:3543  _projectId */\n      dup4\n        /* \"contracts/Invest.sol\":3524:3544  projects[_projectId] */\n      dup2\n      mstore\n      0x20\n      add\n      swap1\n      dup2\n      mstore\n      0x20\n      add\n      0x00\n      keccak256\n        /* \"contracts/Invest.sol\":3524:3549  projects[_projectId].goal */\n      0x02\n      add\n      sload\n        /* \"contracts/Invest.sol\":3492:3500  projects */\n      0x09\n        /* \"contracts/Invest.sol\":3492:3512  projects[_projectId] */\n      0x00\n        /* \"contracts/Invest.sol\":3501:3511  _projectId */\n      dup5\n        /* \"contracts/Invest.sol\":3492:3512  projects[_projectId] */\n      dup2\n      mstore\n      0x20\n      add\n      swap1\n      dup2\n      mstore\n      0x20\n      add\n      0x00\n      keccak256\n        /* \"contracts/Invest.sol\":3492:3520  projects[_projectId].balance */\n      0x00\n      add\n      sload\n        /* \"contracts/Invest.sol\":3492:3549  projects[_projectId].balance >= projects[_projectId].goal */\n      lt\n        /* \"contracts/Invest.sol\":3488:3621  if (projects[_projectId].balance >= projects[_projectId].goal) {... */\n      tag_198\n      jumpi\n        /* \"contracts/Invest.sol\":3596:3609  Status.Paying */\n      0x01\n        /* \"contracts/Invest.sol\":3566:3574  projects */\n      0x09\n        /* \"contracts/Invest.sol\":3566:3586  projects[_projectId] */\n      0x00\n        /* \"contracts/Invest.sol\":3575:3585  _projectId */\n      dup5\n        /* \"contracts/Invest.sol\":3566:3586  projects[_projectId] */\n      dup2\n      mstore\n      0x20\n      add\n      swap1\n      dup2\n      mstore\n      0x20\n      add\n      0x00\n      keccak256\n        /* \"contracts/Invest.sol\":3566:3593  projects[_projectId].status */\n      0x07\n      add\n      0x00\n        /* \"contracts/Invest.sol\":3566:3609  projects[_projectId].status = Status.Paying */\n      0x0100\n      exp\n      dup2\n      sload\n      dup2\n      0xff\n      mul\n      not\n      and\n      swap1\n      dup4\n      0x03\n      dup2\n      gt\n      iszero\n      tag_199\n      jumpi\n      tag_200\n      tag_138\n      jump\t// in\n    tag_200:\n    tag_199:\n      mul\n      or\n      swap1\n      sstore\n      pop\n        /* \"contracts/Invest.sol\":3488:3621  if (projects[_projectId].balance >= projects[_projectId].goal) {... */\n    tag_198:\n        /* \"contracts/Invest.sol\":2539:3628  function investInProject(uint256 _projectId, uint256 _amount) onlyUser public {... */\n      pop\n      pop\n      jump\t// out\n        /* \"contracts/Invest.sol\":648:679  uint256 public projectCount = 0 */\n    tag_73:\n      sload(0x07)\n      dup2\n      jump\t// out\n        /* \"contracts/Invest.sol\":1430:1632  function registerUser() onlyUser public {... */\n    tag_76:\n        /* \"contracts/Invest.sol\":1056:1061  admin */\n      0x0b\n      0x00\n      swap1\n      sload\n      swap1\n      0x0100\n      exp\n      swap1\n      div\n      0xffffffffffffffffffffffffffffffffffffffff\n      and\n        /* \"contracts/Invest.sol\":1042:1061  msg.sender != admin */\n      0xffffffffffffffffffffffffffffffffffffffff\n      and\n        /* \"contracts/Invest.sol\":1042:1052  msg.sender */\n      caller\n        /* \"contracts/Invest.sol\":1042:1061  msg.sender != admin */\n      0xffffffffffffffffffffffffffffffffffffffff\n      and\n      sub\n        /* \"contracts/Invest.sol\":1034:1087  require(msg.sender != admin, \"Admin can't be a user\") */\n      tag_202\n      jumpi\n      mload(0x40)\n      0x08c379a000000000000000000000000000000000000000000000000000000000\n      dup2\n      mstore\n      0x04\n      add\n      tag_203\n      swap1\n      tag_127\n      jump\t// in\n    tag_203:\n      mload(0x40)\n      dup1\n      swap2\n      sub\n      swap1\n      revert\n    tag_202:\n        /* \"contracts/Invest.sol\":1490:1501  isRegistred */\n      0x05\n        /* \"contracts/Invest.sol\":1490:1513  isRegistred[msg.sender] */\n      0x00\n        /* \"contracts/Invest.sol\":1502:1512  msg.sender */\n      caller\n        /* \"contracts/Invest.sol\":1490:1513  isRegistred[msg.sender] */\n      0xffffffffffffffffffffffffffffffffffffffff\n      and\n      0xffffffffffffffffffffffffffffffffffffffff\n      and\n      dup2\n      mstore\n      0x20\n      add\n      swap1\n      dup2\n      mstore\n      0x20\n      add\n      0x00\n      keccak256\n      0x00\n      swap1\n      sload\n      swap1\n      0x0100\n      exp\n      swap1\n      div\n      0xff\n      and\n        /* \"contracts/Invest.sol\":1489:1513  !isRegistred[msg.sender] */\n      iszero\n        /* \"contracts/Invest.sol\":1481:1535  require(!isRegistred[msg.sender], \"Already registred\") */\n      tag_205\n      jumpi\n      mload(0x40)\n      0x08c379a000000000000000000000000000000000000000000000000000000000\n      dup2\n      mstore\n      0x04\n      add\n      tag_206\n      swap1\n      tag_207\n      jump\t// in\n    tag_206:\n      mload(0x40)\n      dup1\n      swap2\n      sub\n      swap1\n      revert\n    tag_205:\n        /* \"contracts/Invest.sol\":1582:1586  true */\n      0x01\n        /* \"contracts/Invest.sol\":1556:1567  isRegistred */\n      0x05\n        /* \"contracts/Invest.sol\":1556:1579  isRegistred[msg.sender] */\n      0x00\n        /* \"contracts/Invest.sol\":1568:1578  msg.sender */\n      caller\n        /* \"contracts/Invest.sol\":1556:1579  isRegistred[msg.sender] */\n      0xffffffffffffffffffffffffffffffffffffffff\n      and\n      0xffffffffffffffffffffffffffffffffffffffff\n      and\n      dup2\n      mstore\n      0x20\n      add\n      swap1\n      dup2\n      mstore\n      0x20\n      add\n      0x00\n      keccak256\n      0x00\n        /* \"contracts/Invest.sol\":1556:1586  isRegistred[msg.sender] = true */\n      0x0100\n      exp\n      dup2\n      sload\n      dup2\n      0xff\n      mul\n      not\n      and\n      swap1\n      dup4\n      iszero\n      iszero\n      mul\n      or\n      swap1\n      sstore\n      pop\n        /* \"contracts/Invest.sol\":1617:1624  User(0) */\n      mload(0x40)\n      dup1\n      0x20\n      add\n      0x40\n      mstore\n      dup1\n        /* \"contracts/Invest.sol\":1622:1623  0 */\n      0x00\n        /* \"contracts/Invest.sol\":1617:1624  User(0) */\n      dup2\n      mstore\n      pop\n        /* \"contracts/Invest.sol\":1597:1602  users */\n      0x06\n        /* \"contracts/Invest.sol\":1597:1614  users[msg.sender] */\n      0x00\n        /* \"contracts/Invest.sol\":1603:1613  msg.sender */\n      caller\n        /* \"contracts/Invest.sol\":1597:1614  users[msg.sender] */\n      0xffffffffffffffffffffffffffffffffffffffff\n      and\n      0xffffffffffffffffffffffffffffffffffffffff\n      and\n      dup2\n      mstore\n      0x20\n      add\n      swap1\n      dup2\n      mstore\n      0x20\n      add\n      0x00\n      keccak256\n        /* \"contracts/Invest.sol\":1597:1624  users[msg.sender] = User(0) */\n      0x00\n      dup3\n      add\n      mload\n      dup2\n      0x00\n      add\n      sstore\n      swap1\n      pop\n      pop\n        /* \"contracts/Invest.sol\":1430:1632  function registerUser() onlyUser public {... */\n      jump\t// out\n        /* \"contracts/ERC20.sol\":8132:8343  function _mint(address account, uint256 value) public {... */\n    tag_79:\n        /* \"contracts/ERC20.sol\":8220:8221  0 */\n      0x00\n        /* \"contracts/ERC20.sol\":8201:8222  account == address(0) */\n      0xffffffffffffffffffffffffffffffffffffffff\n      and\n        /* \"contracts/ERC20.sol\":8201:8208  account */\n      dup3\n        /* \"contracts/ERC20.sol\":8201:8222  account == address(0) */\n      0xffffffffffffffffffffffffffffffffffffffff\n      and\n      sub\n        /* \"contracts/ERC20.sol\":8197:8290  if (account == address(0)) {... */\n      tag_209\n      jumpi\n        /* \"contracts/ERC20.sol\":8275:8276  0 */\n      0x00\n        /* \"contracts/ERC20.sol\":8246:8278  ERC20InvalidReceiver(address(0)) */\n      mload(0x40)\n      0xec442f0500000000000000000000000000000000000000000000000000000000\n      dup2\n      mstore\n      0x04\n      add\n      tag_210\n      swap2\n      swap1\n      tag_123\n      jump\t// in\n    tag_210:\n      mload(0x40)\n      dup1\n      swap2\n      sub\n      swap1\n      revert\n        /* \"contracts/ERC20.sol\":8197:8290  if (account == address(0)) {... */\n    tag_209:\n        /* \"contracts/ERC20.sol\":8300:8335  _update(address(0), account, value) */\n      tag_211\n        /* \"contracts/ERC20.sol\":8316:8317  0 */\n      0x00\n        /* \"contracts/ERC20.sol\":8320:8327  account */\n      dup4\n        /* \"contracts/ERC20.sol\":8329:8334  value */\n      dup4\n        /* \"contracts/ERC20.sol\":8300:8307  _update */\n      tag_212\n        /* \"contracts/ERC20.sol\":8300:8335  _update(address(0), account, value) */\n      jump\t// in\n    tag_211:\n        /* \"contracts/ERC20.sol\":8132:8343  function _mint(address account, uint256 value) public {... */\n      pop\n      pop\n      jump\t// out\n        /* \"contracts/Invest.sol\":3636:4149  function issueTokens(uint256 _projectId, uint256 _amount) onlyAdmin public {... */\n    tag_82:\n        /* \"contracts/Invest.sol\":951:956  admin */\n      0x0b\n      0x00\n      swap1\n      sload\n      swap1\n      0x0100\n      exp\n      swap1\n      div\n      0xffffffffffffffffffffffffffffffffffffffff\n      and\n        /* \"contracts/Invest.sol\":937:956  msg.sender == admin */\n      0xffffffffffffffffffffffffffffffffffffffff\n      and\n        /* \"contracts/Invest.sol\":937:947  msg.sender */\n      caller\n        /* \"contracts/Invest.sol\":937:956  msg.sender == admin */\n      0xffffffffffffffffffffffffffffffffffffffff\n      and\n      eq\n        /* \"contracts/Invest.sol\":929:975  require(msg.sender == admin, \"Only for admin\") */\n      tag_214\n      jumpi\n      mload(0x40)\n      0x08c379a000000000000000000000000000000000000000000000000000000000\n      dup2\n      mstore\n      0x04\n      add\n      tag_215\n      swap1\n      tag_216\n      jump\t// in\n    tag_215:\n      mload(0x40)\n      dup1\n      swap2\n      sub\n      swap1\n      revert\n    tag_214:\n        /* \"contracts/Invest.sol\":3730:3739  doesExist */\n      0x08\n        /* \"contracts/Invest.sol\":3730:3751  doesExist[_projectId] */\n      0x00\n        /* \"contracts/Invest.sol\":3740:3750  _projectId */\n      dup4\n        /* \"contracts/Invest.sol\":3730:3751  doesExist[_projectId] */\n      dup2\n      mstore\n      0x20\n      add\n      swap1\n      dup2\n      mstore\n      0x20\n      add\n      0x00\n      keccak256\n      0x00\n      swap1\n      sload\n      swap1\n      0x0100\n      exp\n      swap1\n      div\n      0xff\n      and\n        /* \"contracts/Invest.sol\":3722:3777  require(doesExist[_projectId], \"Project doesn't exist\") */\n      tag_218\n      jumpi\n      mload(0x40)\n      0x08c379a000000000000000000000000000000000000000000000000000000000\n      dup2\n      mstore\n      0x04\n      add\n      tag_219\n      swap1\n      tag_178\n      jump\t// in\n    tag_219:\n      mload(0x40)\n      dup1\n      swap2\n      sub\n      swap1\n      revert\n    tag_218:\n        /* \"contracts/Invest.sol\":3827:3840  Status.Paying */\n      0x01\n        /* \"contracts/Invest.sol\":3796:3840  projects[_projectId].status == Status.Paying */\n      0x03\n      dup2\n      gt\n      iszero\n      tag_220\n      jumpi\n      tag_221\n      tag_138\n      jump\t// in\n    tag_221:\n    tag_220:\n        /* \"contracts/Invest.sol\":3796:3804  projects */\n      0x09\n        /* \"contracts/Invest.sol\":3796:3816  projects[_projectId] */\n      0x00\n        /* \"contracts/Invest.sol\":3805:3815  _projectId */\n      dup5\n        /* \"contracts/Invest.sol\":3796:3816  projects[_projectId] */\n      dup2\n      mstore\n      0x20\n      add\n      swap1\n      dup2\n      mstore\n      0x20\n      add\n      0x00\n      keccak256\n        /* \"contracts/Invest.sol\":3796:3823  projects[_projectId].status */\n      0x07\n      add\n      0x00\n      swap1\n      sload\n      swap1\n      0x0100\n      exp\n      swap1\n      div\n      0xff\n      and\n        /* \"contracts/Invest.sol\":3796:3840  projects[_projectId].status == Status.Paying */\n      0x03\n      dup2\n      gt\n      iszero\n      tag_222\n      jumpi\n      tag_223\n      tag_138\n      jump\t// in\n    tag_223:\n    tag_222:\n      eq\n        /* \"contracts/Invest.sol\":3788:3877  require(projects[_projectId].status == Status.Paying, \"Project's goal isn't reached yet\") */\n      tag_224\n      jumpi\n      mload(0x40)\n      0x08c379a000000000000000000000000000000000000000000000000000000000\n      dup2\n      mstore\n      0x04\n      add\n      tag_225\n      swap1\n      tag_226\n      jump\t// in\n    tag_225:\n      mload(0x40)\n      dup1\n      swap2\n      sub\n      swap1\n      revert\n    tag_224:\n        /* \"contracts/Invest.sol\":3928:3935  _amount */\n      dup1\n        /* \"contracts/Invest.sol\":3896:3904  projects */\n      0x09\n        /* \"contracts/Invest.sol\":3896:3916  projects[_projectId] */\n      0x00\n        /* \"contracts/Invest.sol\":3905:3915  _projectId */\n      dup5\n        /* \"contracts/Invest.sol\":3896:3916  projects[_projectId] */\n      dup2\n      mstore\n      0x20\n      add\n      swap1\n      dup2\n      mstore\n      0x20\n      add\n      0x00\n      keccak256\n        /* \"contracts/Invest.sol\":3896:3924  projects[_projectId].balance */\n      0x00\n      add\n      sload\n        /* \"contracts/Invest.sol\":3896:3935  projects[_projectId].balance >= _amount */\n      lt\n      iszero\n        /* \"contracts/Invest.sol\":3888:3968  require(projects[_projectId].balance >= _amount, \"Project's balance is too low\") */\n      tag_227\n      jumpi\n      mload(0x40)\n      0x08c379a000000000000000000000000000000000000000000000000000000000\n      dup2\n      mstore\n      0x04\n      add\n      tag_228\n      swap1\n      tag_229\n      jump\t// in\n    tag_228:\n      mload(0x40)\n      dup1\n      swap2\n      sub\n      swap1\n      revert\n    tag_227:\n        /* \"contracts/Invest.sol\":3981:4027  transfer(projects[_projectId].author, _amount) */\n      tag_230\n        /* \"contracts/Invest.sol\":3990:3998  projects */\n      0x09\n        /* \"contracts/Invest.sol\":3990:4010  projects[_projectId] */\n      0x00\n        /* \"contracts/Invest.sol\":3999:4009  _projectId */\n      dup5\n        /* \"contracts/Invest.sol\":3990:4010  projects[_projectId] */\n      dup2\n      mstore\n      0x20\n      add\n      swap1\n      dup2\n      mstore\n      0x20\n      add\n      0x00\n      keccak256\n        /* \"contracts/Invest.sol\":3990:4017  projects[_projectId].author */\n      0x04\n      add\n      0x00\n      swap1\n      sload\n      swap1\n      0x0100\n      exp\n      swap1\n      div\n      0xffffffffffffffffffffffffffffffffffffffff\n      and\n        /* \"contracts/Invest.sol\":4019:4026  _amount */\n      dup3\n        /* \"contracts/Invest.sol\":3981:3989  transfer */\n      tag_107\n        /* \"contracts/Invest.sol\":3981:4027  transfer(projects[_projectId].author, _amount) */\n      jump\t// in\n    tag_230:\n      pop\n        /* \"contracts/Invest.sol\":4084:4091  _amount */\n      dup1\n        /* \"contracts/Invest.sol\":4038:4043  users */\n      0x06\n        /* \"contracts/Invest.sol\":4038:4072  users[projects[_projectId].author] */\n      0x00\n        /* \"contracts/Invest.sol\":4044:4052  projects */\n      0x09\n        /* \"contracts/Invest.sol\":4044:4064  projects[_projectId] */\n      0x00\n        /* \"contracts/Invest.sol\":4053:4063  _projectId */\n      dup7\n        /* \"contracts/Invest.sol\":4044:4064  projects[_projectId] */\n      dup2\n      mstore\n      0x20\n      add\n      swap1\n      dup2\n      mstore\n      0x20\n      add\n      0x00\n      keccak256\n        /* \"contracts/Invest.sol\":4044:4071  projects[_projectId].author */\n      0x04\n      add\n      0x00\n      swap1\n      sload\n      swap1\n      0x0100\n      exp\n      swap1\n      div\n      0xffffffffffffffffffffffffffffffffffffffff\n      and\n        /* \"contracts/Invest.sol\":4038:4072  users[projects[_projectId].author] */\n      0xffffffffffffffffffffffffffffffffffffffff\n      and\n      0xffffffffffffffffffffffffffffffffffffffff\n      and\n      dup2\n      mstore\n      0x20\n      add\n      swap1\n      dup2\n      mstore\n      0x20\n      add\n      0x00\n      keccak256\n        /* \"contracts/Invest.sol\":4038:4080  users[projects[_projectId].author].balance */\n      0x00\n      add\n      0x00\n        /* \"contracts/Invest.sol\":4038:4091  users[projects[_projectId].author].balance += _amount */\n      dup3\n      dup3\n      sload\n      tag_231\n      swap2\n      swap1\n      tag_195\n      jump\t// in\n    tag_231:\n      swap3\n      pop\n      pop\n      dup2\n      swap1\n      sstore\n      pop\n        /* \"contracts/Invest.sol\":4134:4141  _amount */\n      dup1\n        /* \"contracts/Invest.sol\":4102:4110  projects */\n      0x09\n        /* \"contracts/Invest.sol\":4102:4122  projects[_projectId] */\n      0x00\n        /* \"contracts/Invest.sol\":4111:4121  _projectId */\n      dup5\n        /* \"contracts/Invest.sol\":4102:4122  projects[_projectId] */\n      dup2\n      mstore\n      0x20\n      add\n      swap1\n      dup2\n      mstore\n      0x20\n      add\n      0x00\n      keccak256\n        /* \"contracts/Invest.sol\":4102:4130  projects[_projectId].balance */\n      0x00\n      add\n      0x00\n        /* \"contracts/Invest.sol\":4102:4141  projects[_projectId].balance -= _amount */\n      dup3\n      dup3\n      sload\n      tag_232\n      swap2\n      swap1\n      tag_191\n      jump\t// in\n    tag_232:\n      swap3\n      pop\n      pop\n      dup2\n      swap1\n      sstore\n      pop\n        /* \"contracts/Invest.sol\":3636:4149  function issueTokens(uint256 _projectId, uint256 _amount) onlyAdmin public {... */\n      pop\n      pop\n      jump\t// out\n        /* \"contracts/Invest.sol\":1640:1864  function giveTokens(address _user, uint256 _amount) onlyAdmin public {... */\n    tag_85:\n        /* \"contracts/Invest.sol\":951:956  admin */\n      0x0b\n      0x00\n      swap1\n      sload\n      swap1\n      0x0100\n      exp\n      swap1\n      div\n      0xffffffffffffffffffffffffffffffffffffffff\n      and\n        /* \"contracts/Invest.sol\":937:956  msg.sender == admin */\n      0xffffffffffffffffffffffffffffffffffffffff\n      and\n        /* \"contracts/Invest.sol\":937:947  msg.sender */\n      caller\n        /* \"contracts/Invest.sol\":937:956  msg.sender == admin */\n      0xffffffffffffffffffffffffffffffffffffffff\n      and\n      eq\n        /* \"contracts/Invest.sol\":929:975  require(msg.sender == admin, \"Only for admin\") */\n      tag_234\n      jumpi\n      mload(0x40)\n      0x08c379a000000000000000000000000000000000000000000000000000000000\n      dup2\n      mstore\n      0x04\n      add\n      tag_235\n      swap1\n      tag_216\n      jump\t// in\n    tag_235:\n      mload(0x40)\n      dup1\n      swap2\n      sub\n      swap1\n      revert\n    tag_234:\n        /* \"contracts/Invest.sol\":1728:1739  isRegistred */\n      0x05\n        /* \"contracts/Invest.sol\":1728:1746  isRegistred[_user] */\n      0x00\n        /* \"contracts/Invest.sol\":1740:1745  _user */\n      dup4\n        /* \"contracts/Invest.sol\":1728:1746  isRegistred[_user] */\n      0xffffffffffffffffffffffffffffffffffffffff\n      and\n      0xffffffffffffffffffffffffffffffffffffffff\n      and\n      dup2\n      mstore\n      0x20\n      add\n      swap1\n      dup2\n      mstore\n      0x20\n      add\n      0x00\n      keccak256\n      0x00\n      swap1\n      sload\n      swap1\n      0x0100\n      exp\n      swap1\n      div\n      0xff\n      and\n        /* \"contracts/Invest.sol\":1720:1769  require(isRegistred[_user], \"User not registred\") */\n      tag_237\n      jumpi\n      mload(0x40)\n      0x08c379a000000000000000000000000000000000000000000000000000000000\n      dup2\n      mstore\n      0x04\n      add\n      tag_238\n      swap1\n      tag_131\n      jump\t// in\n    tag_238:\n      mload(0x40)\n      dup1\n      swap2\n      sub\n      swap1\n      revert\n    tag_237:\n        /* \"contracts/Invest.sol\":1790:1814  transfer(_user, _amount) */\n      tag_239\n        /* \"contracts/Invest.sol\":1799:1804  _user */\n      dup3\n        /* \"contracts/Invest.sol\":1806:1813  _amount */\n      dup3\n        /* \"contracts/Invest.sol\":1790:1798  transfer */\n      tag_107\n        /* \"contracts/Invest.sol\":1790:1814  transfer(_user, _amount) */\n      jump\t// in\n    tag_239:\n      pop\n        /* \"contracts/Invest.sol\":1849:1856  _amount */\n      dup1\n        /* \"contracts/Invest.sol\":1825:1830  users */\n      0x06\n        /* \"contracts/Invest.sol\":1825:1837  users[_user] */\n      0x00\n        /* \"contracts/Invest.sol\":1831:1836  _user */\n      dup5\n        /* \"contracts/Invest.sol\":1825:1837  users[_user] */\n      0xffffffffffffffffffffffffffffffffffffffff\n      and\n      0xffffffffffffffffffffffffffffffffffffffff\n      and\n      dup2\n      mstore\n      0x20\n      add\n      swap1\n      dup2\n      mstore\n      0x20\n      add\n      0x00\n      keccak256\n        /* \"contracts/Invest.sol\":1825:1845  users[_user].balance */\n      0x00\n      add\n      0x00\n        /* \"contracts/Invest.sol\":1825:1856  users[_user].balance += _amount */\n      dup3\n      dup3\n      sload\n      tag_240\n      swap2\n      swap1\n      tag_195\n      jump\t// in\n    tag_240:\n      swap3\n      pop\n      pop\n      dup2\n      swap1\n      sstore\n      pop\n        /* \"contracts/Invest.sol\":1640:1864  function giveTokens(address _user, uint256 _amount) onlyAdmin public {... */\n      pop\n      pop\n      jump\t// out\n        /* \"contracts/Invest.sol\":785:859  mapping(uint256 => mapping(address => uint256)) public projectsInvestments */\n    tag_89:\n      mstore(0x20, 0x0a)\n      dup2\n      0x00\n      mstore\n      mstore(0x20, keccak256(0x00, 0x40))\n      dup1\n      0x00\n      mstore\n      keccak256(0x00, 0x40)\n      0x00\n      swap2\n      pop\n      swap2\n      pop\n      pop\n      sload\n      dup2\n      jump\t// out\n        /* \"contracts/ERC20.sol\":3549:3667  function balanceOf(address account) public view virtual returns (uint256) {... */\n    tag_93:\n        /* \"contracts/ERC20.sol\":3614:3621  uint256 */\n      0x00\n        /* \"contracts/ERC20.sol\":3641:3650  _balances */\n      0x00\n        /* \"contracts/ERC20.sol\":3641:3659  _balances[account] */\n      0x00\n        /* \"contracts/ERC20.sol\":3651:3658  account */\n      dup4\n        /* \"contracts/ERC20.sol\":3641:3659  _balances[account] */\n      0xffffffffffffffffffffffffffffffffffffffff\n      and\n      0xffffffffffffffffffffffffffffffffffffffff\n      and\n      dup2\n      mstore\n      0x20\n      add\n      swap1\n      dup2\n      mstore\n      0x20\n      add\n      0x00\n      keccak256\n      sload\n        /* \"contracts/ERC20.sol\":3634:3659  return _balances[account] */\n      swap1\n      pop\n        /* \"contracts/ERC20.sol\":3549:3667  function balanceOf(address account) public view virtual returns (uint256) {... */\n      swap2\n      swap1\n      pop\n      jump\t// out\n        /* \"contracts/Invest.sol\":5544:6292  function closeProject(uint256 _projectId) onlyAdmin public {... */\n    tag_97:\n        /* \"contracts/Invest.sol\":951:956  admin */\n      0x0b\n      0x00\n      swap1\n      sload\n      swap1\n      0x0100\n      exp\n      swap1\n      div\n      0xffffffffffffffffffffffffffffffffffffffff\n      and\n        /* \"contracts/Invest.sol\":937:956  msg.sender == admin */\n      0xffffffffffffffffffffffffffffffffffffffff\n      and\n        /* \"contracts/Invest.sol\":937:947  msg.sender */\n      caller\n        /* \"contracts/Invest.sol\":937:956  msg.sender == admin */\n      0xffffffffffffffffffffffffffffffffffffffff\n      and\n      eq\n        /* \"contracts/Invest.sol\":929:975  require(msg.sender == admin, \"Only for admin\") */\n      tag_243\n      jumpi\n      mload(0x40)\n      0x08c379a000000000000000000000000000000000000000000000000000000000\n      dup2\n      mstore\n      0x04\n      add\n      tag_244\n      swap1\n      tag_216\n      jump\t// in\n    tag_244:\n      mload(0x40)\n      dup1\n      swap2\n      sub\n      swap1\n      revert\n    tag_243:\n        /* \"contracts/Invest.sol\":5619:5628  uint256 i */\n      0x00\n        /* \"contracts/Invest.sol\":5631:5632  0 */\n      0x00\n        /* \"contracts/Invest.sol\":5619:5632  uint256 i = 0 */\n      swap1\n      pop\n        /* \"contracts/Invest.sol\":5614:6151  for (uint256 i = 0; i < projects[_projectId].investorsCount; i++) {... */\n    tag_246:\n        /* \"contracts/Invest.sol\":5638:5646  projects */\n      0x09\n        /* \"contracts/Invest.sol\":5638:5658  projects[_projectId] */\n      0x00\n        /* \"contracts/Invest.sol\":5647:5657  _projectId */\n      dup4\n        /* \"contracts/Invest.sol\":5638:5658  projects[_projectId] */\n      dup2\n      mstore\n      0x20\n      add\n      swap1\n      dup2\n      mstore\n      0x20\n      add\n      0x00\n      keccak256\n        /* \"contracts/Invest.sol\":5638:5673  projects[_projectId].investorsCount */\n      0x05\n      add\n      sload\n        /* \"contracts/Invest.sol\":5634:5635  i */\n      dup2\n        /* \"contracts/Invest.sol\":5634:5673  i < projects[_projectId].investorsCount */\n      lt\n        /* \"contracts/Invest.sol\":5614:6151  for (uint256 i = 0; i < projects[_projectId].investorsCount; i++) {... */\n      iszero\n      tag_247\n      jumpi\n        /* \"contracts/Invest.sol\":5695:5711  address investor */\n      0x00\n        /* \"contracts/Invest.sol\":5714:5722  projects */\n      0x09\n        /* \"contracts/Invest.sol\":5714:5734  projects[_projectId] */\n      0x00\n        /* \"contracts/Invest.sol\":5723:5733  _projectId */\n      dup5\n        /* \"contracts/Invest.sol\":5714:5734  projects[_projectId] */\n      dup2\n      mstore\n      0x20\n      add\n      swap1\n      dup2\n      mstore\n      0x20\n      add\n      0x00\n      keccak256\n        /* \"contracts/Invest.sol\":5714:5744  projects[_projectId].investors */\n      0x06\n      add\n        /* \"contracts/Invest.sol\":5745:5746  i */\n      dup3\n        /* \"contracts/Invest.sol\":5714:5747  projects[_projectId].investors[i] */\n      dup2\n      sload\n      dup2\n      lt\n      tag_249\n      jumpi\n      tag_250\n      tag_251\n      jump\t// in\n    tag_250:\n    tag_249:\n      swap1\n      0x00\n      mstore\n      keccak256(0x00, 0x20)\n      add\n      0x00\n      swap1\n      sload\n      swap1\n      0x0100\n      exp\n      swap1\n      div\n      0xffffffffffffffffffffffffffffffffffffffff\n      and\n        /* \"contracts/Invest.sol\":5695:5747  address investor = projects[_projectId].investors[i] */\n      swap1\n      pop\n        /* \"contracts/Invest.sol\":5762:5782  uint256 contribution */\n      0x00\n        /* \"contracts/Invest.sol\":5785:5804  projectsInvestments */\n      0x0a\n        /* \"contracts/Invest.sol\":5785:5816  projectsInvestments[_projectId] */\n      0x00\n        /* \"contracts/Invest.sol\":5805:5815  _projectId */\n      dup6\n        /* \"contracts/Invest.sol\":5785:5816  projectsInvestments[_projectId] */\n      dup2\n      mstore\n      0x20\n      add\n      swap1\n      dup2\n      mstore\n      0x20\n      add\n      0x00\n      keccak256\n        /* \"contracts/Invest.sol\":5785:5826  projectsInvestments[_projectId][investor] */\n      0x00\n        /* \"contracts/Invest.sol\":5817:5825  investor */\n      dup4\n        /* \"contracts/Invest.sol\":5785:5826  projectsInvestments[_projectId][investor] */\n      0xffffffffffffffffffffffffffffffffffffffff\n      and\n      0xffffffffffffffffffffffffffffffffffffffff\n      and\n      dup2\n      mstore\n      0x20\n      add\n      swap1\n      dup2\n      mstore\n      0x20\n      add\n      0x00\n      keccak256\n      sload\n        /* \"contracts/Invest.sol\":5762:5826  uint256 contribution = projectsInvestments[_projectId][investor] */\n      swap1\n      pop\n        /* \"contracts/Invest.sol\":5841:5856  uint256 capital */\n      0x00\n        /* \"contracts/Invest.sol\":5860:5868  projects */\n      0x09\n        /* \"contracts/Invest.sol\":5860:5880  projects[_projectId] */\n      0x00\n        /* \"contracts/Invest.sol\":5869:5879  _projectId */\n      dup7\n        /* \"contracts/Invest.sol\":5860:5880  projects[_projectId] */\n      dup2\n      mstore\n      0x20\n      add\n      swap1\n      dup2\n      mstore\n      0x20\n      add\n      0x00\n      keccak256\n        /* \"contracts/Invest.sol\":5860:5888  projects[_projectId].capital */\n      0x01\n      add\n      sload\n        /* \"contracts/Invest.sol\":5841:5888  uint256 capital =  projects[_projectId].capital */\n      swap1\n      pop\n        /* \"contracts/Invest.sol\":5905:5929  uint256 scaledProportion */\n      0x00\n        /* \"contracts/Invest.sol\":5956:5963  capital */\n      dup2\n        /* \"contracts/Invest.sol\":5948:5952  1e18 */\n      0x0de0b6b3a7640000\n        /* \"contracts/Invest.sol\":5933:5945  contribution */\n      dup5\n        /* \"contracts/Invest.sol\":5933:5952  contribution * 1e18 */\n      tag_253\n      swap2\n      swap1\n      tag_254\n      jump\t// in\n    tag_253:\n        /* \"contracts/Invest.sol\":5932:5963  (contribution * 1e18) / capital */\n      tag_255\n      swap2\n      swap1\n      tag_256\n      jump\t// in\n    tag_255:\n        /* \"contracts/Invest.sol\":5905:5963  uint256 scaledProportion = (contribution * 1e18) / capital */\n      swap1\n      pop\n        /* \"contracts/Invest.sol\":6012:6028  scaledProportion */\n      dup1\n        /* \"contracts/Invest.sol\":5980:5988  projects */\n      0x09\n        /* \"contracts/Invest.sol\":5980:6000  projects[_projectId] */\n      0x00\n        /* \"contracts/Invest.sol\":5989:5999  _projectId */\n      dup9\n        /* \"contracts/Invest.sol\":5980:6000  projects[_projectId] */\n      dup2\n      mstore\n      0x20\n      add\n      swap1\n      dup2\n      mstore\n      0x20\n      add\n      0x00\n      keccak256\n        /* \"contracts/Invest.sol\":5980:6008  projects[_projectId].balance */\n      0x00\n      add\n      0x00\n        /* \"contracts/Invest.sol\":5980:6028  projects[_projectId].balance -= scaledProportion */\n      dup3\n      dup3\n      sload\n      tag_257\n      swap2\n      swap1\n      tag_191\n      jump\t// in\n    tag_257:\n      swap3\n      pop\n      pop\n      dup2\n      swap1\n      sstore\n      pop\n        /* \"contracts/Invest.sol\":6072:6088  scaledProportion */\n      dup1\n        /* \"contracts/Invest.sol\":6045:6050  users */\n      0x06\n        /* \"contracts/Invest.sol\":6045:6060  users[investor] */\n      0x00\n        /* \"contracts/Invest.sol\":6051:6059  investor */\n      dup7\n        /* \"contracts/Invest.sol\":6045:6060  users[investor] */\n      0xffffffffffffffffffffffffffffffffffffffff\n      and\n      0xffffffffffffffffffffffffffffffffffffffff\n      and\n      dup2\n      mstore\n      0x20\n      add\n      swap1\n      dup2\n      mstore\n      0x20\n      add\n      0x00\n      keccak256\n        /* \"contracts/Invest.sol\":6045:6068  users[investor].balance */\n      0x00\n      add\n      0x00\n        /* \"contracts/Invest.sol\":6045:6088  users[investor].balance += scaledProportion */\n      dup3\n      dup3\n      sload\n      tag_258\n      swap2\n      swap1\n      tag_195\n      jump\t// in\n    tag_258:\n      swap3\n      pop\n      pop\n      dup2\n      swap1\n      sstore\n      pop\n        /* \"contracts/Invest.sol\":6103:6139  transfer(investor, scaledProportion) */\n      tag_259\n        /* \"contracts/Invest.sol\":6112:6120  investor */\n      dup5\n        /* \"contracts/Invest.sol\":6122:6138  scaledProportion */\n      dup3\n        /* \"contracts/Invest.sol\":6103:6111  transfer */\n      tag_107\n        /* \"contracts/Invest.sol\":6103:6139  transfer(investor, scaledProportion) */\n      jump\t// in\n    tag_259:\n      pop\n        /* \"contracts/Invest.sol\":5680:6151  {... */\n      pop\n      pop\n      pop\n      pop\n        /* \"contracts/Invest.sol\":5675:5678  i++ */\n      dup1\n      dup1\n      0x01\n      add\n      swap2\n      pop\n      pop\n        /* \"contracts/Invest.sol\":5614:6151  for (uint256 i = 0; i < projects[_projectId].investorsCount; i++) {... */\n      jump(tag_246)\n    tag_247:\n      pop\n        /* \"contracts/Invest.sol\":6163:6230  transfer(projects[_projectId].author, projects[_projectId].balance) */\n      tag_260\n        /* \"contracts/Invest.sol\":6172:6180  projects */\n      0x09\n        /* \"contracts/Invest.sol\":6172:6192  projects[_projectId] */\n      0x00\n        /* \"contracts/Invest.sol\":6181:6191  _projectId */\n      dup4\n        /* \"contracts/Invest.sol\":6172:6192  projects[_projectId] */\n      dup2\n      mstore\n      0x20\n      add\n      swap1\n      dup2\n      mstore\n      0x20\n      add\n      0x00\n      keccak256\n        /* \"contracts/Invest.sol\":6172:6199  projects[_projectId].author */\n      0x04\n      add\n      0x00\n      swap1\n      sload\n      swap1\n      0x0100\n      exp\n      swap1\n      div\n      0xffffffffffffffffffffffffffffffffffffffff\n      and\n        /* \"contracts/Invest.sol\":6201:6209  projects */\n      0x09\n        /* \"contracts/Invest.sol\":6201:6221  projects[_projectId] */\n      0x00\n        /* \"contracts/Invest.sol\":6210:6220  _projectId */\n      dup5\n        /* \"contracts/Invest.sol\":6201:6221  projects[_projectId] */\n      dup2\n      mstore\n      0x20\n      add\n      swap1\n      dup2\n      mstore\n      0x20\n      add\n      0x00\n      keccak256\n        /* \"contracts/Invest.sol\":6201:6229  projects[_projectId].balance */\n      0x00\n      add\n      sload\n        /* \"contracts/Invest.sol\":6163:6171  transfer */\n      tag_107\n        /* \"contracts/Invest.sol\":6163:6230  transfer(projects[_projectId].author, projects[_projectId].balance) */\n      jump\t// in\n    tag_260:\n      pop\n        /* \"contracts/Invest.sol\":6271:6284  Status.Closed */\n      0x03\n        /* \"contracts/Invest.sol\":6241:6249  projects */\n      0x09\n        /* \"contracts/Invest.sol\":6241:6261  projects[_projectId] */\n      0x00\n        /* \"contracts/Invest.sol\":6250:6260  _projectId */\n      dup4\n        /* \"contracts/Invest.sol\":6241:6261  projects[_projectId] */\n      dup2\n      mstore\n      0x20\n      add\n      swap1\n      dup2\n      mstore\n      0x20\n      add\n      0x00\n      keccak256\n        /* \"contracts/Invest.sol\":6241:6268  projects[_projectId].status */\n      0x07\n      add\n      0x00\n        /* \"contracts/Invest.sol\":6241:6284  projects[_projectId].status = Status.Closed */\n      0x0100\n      exp\n      dup2\n      sload\n      dup2\n      0xff\n      mul\n      not\n      and\n      swap1\n      dup4\n      0x03\n      dup2\n      gt\n      iszero\n      tag_261\n      jumpi\n      tag_262\n      tag_138\n      jump\t// in\n    tag_262:\n    tag_261:\n      mul\n      or\n      swap1\n      sstore\n      pop\n        /* \"contracts/Invest.sol\":5544:6292  function closeProject(uint256 _projectId) onlyAdmin public {... */\n      pop\n      jump\t// out\n        /* \"contracts/ERC20.sol\":2495:2590  function symbol() public view virtual returns (string memory) {... */\n    tag_99:\n        /* \"contracts/ERC20.sol\":2542:2555  string memory */\n      0x60\n        /* \"contracts/ERC20.sol\":2575:2582  _symbol */\n      0x04\n        /* \"contracts/ERC20.sol\":2568:2582  return _symbol */\n      dup1\n      sload\n      tag_264\n      swap1\n      tag_147\n      jump\t// in\n    tag_264:\n      dup1\n      0x1f\n      add\n      0x20\n      dup1\n      swap2\n      div\n      mul\n      0x20\n      add\n      mload(0x40)\n      swap1\n      dup2\n      add\n      0x40\n      mstore\n      dup1\n      swap3\n      swap2\n      swap1\n      dup2\n      dup2\n      mstore\n      0x20\n      add\n      dup3\n      dup1\n      sload\n      tag_265\n      swap1\n      tag_147\n      jump\t// in\n    tag_265:\n      dup1\n      iszero\n      tag_266\n      jumpi\n      dup1\n      0x1f\n      lt\n      tag_267\n      jumpi\n      0x0100\n      dup1\n      dup4\n      sload\n      div\n      mul\n      dup4\n      mstore\n      swap2\n      0x20\n      add\n      swap2\n      jump(tag_266)\n    tag_267:\n      dup3\n      add\n      swap2\n      swap1\n      0x00\n      mstore\n      keccak256(0x00, 0x20)\n      swap1\n    tag_268:\n      dup2\n      sload\n      dup2\n      mstore\n      swap1\n      0x01\n      add\n      swap1\n      0x20\n      add\n      dup1\n      dup4\n      gt\n      tag_268\n      jumpi\n      dup3\n      swap1\n      sub\n      0x1f\n      and\n      dup3\n      add\n      swap2\n    tag_266:\n      pop\n      pop\n      pop\n      pop\n      pop\n      swap1\n      pop\n        /* \"contracts/ERC20.sol\":2495:2590  function symbol() public view virtual returns (string memory) {... */\n      swap1\n      jump\t// out\n        /* \"contracts/Invest.sol\":602:639  mapping(address => User) public users */\n    tag_103:\n      mstore(0x20, 0x06)\n      dup1\n      0x00\n      mstore\n      keccak256(0x00, 0x40)\n      0x00\n      swap2\n      pop\n      swap1\n      pop\n      dup1\n      0x00\n      add\n      sload\n      swap1\n      pop\n      dup2\n      jump\t// out\n        /* \"contracts/ERC20.sol\":3872:4054  function transfer(address to, uint256 value) public virtual returns (bool) {... */\n    tag_107:\n        /* \"contracts/ERC20.sol\":3941:3945  bool */\n      0x00\n        /* \"contracts/ERC20.sol\":3958:3971  address owner */\n      0x00\n        /* \"contracts/ERC20.sol\":3974:3986  _msgSender() */\n      tag_270\n        /* \"contracts/ERC20.sol\":3974:3984  _msgSender */\n      tag_154\n        /* \"contracts/ERC20.sol\":3974:3986  _msgSender() */\n      jump\t// in\n    tag_270:\n        /* \"contracts/ERC20.sol\":3958:3986  address owner = _msgSender() */\n      swap1\n      pop\n        /* \"contracts/ERC20.sol\":3997:4024  _transfer(owner, to, value) */\n      tag_271\n        /* \"contracts/ERC20.sol\":4007:4012  owner */\n      dup2\n        /* \"contracts/ERC20.sol\":4014:4016  to */\n      dup6\n        /* \"contracts/ERC20.sol\":4018:4023  value */\n      dup6\n        /* \"contracts/ERC20.sol\":3997:4006  _transfer */\n      tag_165\n        /* \"contracts/ERC20.sol\":3997:4024  _transfer(owner, to, value) */\n      jump\t// in\n    tag_271:\n        /* \"contracts/ERC20.sol\":4042:4046  true */\n      0x01\n        /* \"contracts/ERC20.sol\":4035:4046  return true */\n      swap2\n      pop\n      pop\n        /* \"contracts/ERC20.sol\":3872:4054  function transfer(address to, uint256 value) public virtual returns (bool) {... */\n      swap3\n      swap2\n      pop\n      pop\n      jump\t// out\n        /* \"contracts/Invest.sol\":4157:5536  function payInvestors(uint256 _projectId, uint256 _amount) onlyUser public {... */\n    tag_111:\n        /* \"contracts/Invest.sol\":1056:1061  admin */\n      0x0b\n      0x00\n      swap1\n      sload\n      swap1\n      0x0100\n      exp\n      swap1\n      div\n      0xffffffffffffffffffffffffffffffffffffffff\n      and\n        /* \"contracts/Invest.sol\":1042:1061  msg.sender != admin */\n      0xffffffffffffffffffffffffffffffffffffffff\n      and\n        /* \"contracts/Invest.sol\":1042:1052  msg.sender */\n      caller\n        /* \"contracts/Invest.sol\":1042:1061  msg.sender != admin */\n      0xffffffffffffffffffffffffffffffffffffffff\n      and\n      sub\n        /* \"contracts/Invest.sol\":1034:1087  require(msg.sender != admin, \"Admin can't be a user\") */\n      tag_273\n      jumpi\n      mload(0x40)\n      0x08c379a000000000000000000000000000000000000000000000000000000000\n      dup2\n      mstore\n      0x04\n      add\n      tag_274\n      swap1\n      tag_127\n      jump\t// in\n    tag_274:\n      mload(0x40)\n      dup1\n      swap2\n      sub\n      swap1\n      revert\n    tag_273:\n        /* \"contracts/Invest.sol\":4251:4262  isRegistred */\n      0x05\n        /* \"contracts/Invest.sol\":4251:4274  isRegistred[msg.sender] */\n      0x00\n        /* \"contracts/Invest.sol\":4263:4273  msg.sender */\n      caller\n        /* \"contracts/Invest.sol\":4251:4274  isRegistred[msg.sender] */\n      0xffffffffffffffffffffffffffffffffffffffff\n      and\n      0xffffffffffffffffffffffffffffffffffffffff\n      and\n      dup2\n      mstore\n      0x20\n      add\n      swap1\n      dup2\n      mstore\n      0x20\n      add\n      0x00\n      keccak256\n      0x00\n      swap1\n      sload\n      swap1\n      0x0100\n      exp\n      swap1\n      div\n      0xff\n      and\n        /* \"contracts/Invest.sol\":4243:4297  require(isRegistred[msg.sender], \"User not registred\") */\n      tag_276\n      jumpi\n      mload(0x40)\n      0x08c379a000000000000000000000000000000000000000000000000000000000\n      dup2\n      mstore\n      0x04\n      add\n      tag_277\n      swap1\n      tag_131\n      jump\t// in\n    tag_277:\n      mload(0x40)\n      dup1\n      swap2\n      sub\n      swap1\n      revert\n    tag_276:\n        /* \"contracts/Invest.sol\":4345:4352  _amount */\n      dup1\n        /* \"contracts/Invest.sol\":4316:4321  users */\n      0x06\n        /* \"contracts/Invest.sol\":4316:4333  users[msg.sender] */\n      0x00\n        /* \"contracts/Invest.sol\":4322:4332  msg.sender */\n      caller\n        /* \"contracts/Invest.sol\":4316:4333  users[msg.sender] */\n      0xffffffffffffffffffffffffffffffffffffffff\n      and\n      0xffffffffffffffffffffffffffffffffffffffff\n      and\n      dup2\n      mstore\n      0x20\n      add\n      swap1\n      dup2\n      mstore\n      0x20\n      add\n      0x00\n      keccak256\n        /* \"contracts/Invest.sol\":4316:4341  users[msg.sender].balance */\n      0x00\n      add\n      sload\n        /* \"contracts/Invest.sol\":4316:4352  users[msg.sender].balance >= _amount */\n      lt\n      iszero\n        /* \"contracts/Invest.sol\":4308:4382  require(users[msg.sender].balance >= _amount, \"User's balance is too low\") */\n      tag_278\n      jumpi\n      mload(0x40)\n      0x08c379a000000000000000000000000000000000000000000000000000000000\n      dup2\n      mstore\n      0x04\n      add\n      tag_279\n      swap1\n      tag_175\n      jump\t// in\n    tag_279:\n      mload(0x40)\n      dup1\n      swap2\n      sub\n      swap1\n      revert\n    tag_278:\n        /* \"contracts/Invest.sol\":4401:4410  doesExist */\n      0x08\n        /* \"contracts/Invest.sol\":4401:4422  doesExist[_projectId] */\n      0x00\n        /* \"contracts/Invest.sol\":4411:4421  _projectId */\n      dup4\n        /* \"contracts/Invest.sol\":4401:4422  doesExist[_projectId] */\n      dup2\n      mstore\n      0x20\n      add\n      swap1\n      dup2\n      mstore\n      0x20\n      add\n      0x00\n      keccak256\n      0x00\n      swap1\n      sload\n      swap1\n      0x0100\n      exp\n      swap1\n      div\n      0xff\n      and\n        /* \"contracts/Invest.sol\":4393:4448  require(doesExist[_projectId], \"Project doesn't exist\") */\n      tag_280\n      jumpi\n      mload(0x40)\n      0x08c379a000000000000000000000000000000000000000000000000000000000\n      dup2\n      mstore\n      0x04\n      add\n      tag_281\n      swap1\n      tag_178\n      jump\t// in\n    tag_281:\n      mload(0x40)\n      dup1\n      swap2\n      sub\n      swap1\n      revert\n    tag_280:\n        /* \"contracts/Invest.sol\":4498:4511  Status.Paying */\n      0x01\n        /* \"contracts/Invest.sol\":4467:4511  projects[_projectId].status == Status.Paying */\n      0x03\n      dup2\n      gt\n      iszero\n      tag_282\n      jumpi\n      tag_283\n      tag_138\n      jump\t// in\n    tag_283:\n    tag_282:\n        /* \"contracts/Invest.sol\":4467:4475  projects */\n      0x09\n        /* \"contracts/Invest.sol\":4467:4487  projects[_projectId] */\n      0x00\n        /* \"contracts/Invest.sol\":4476:4486  _projectId */\n      dup5\n        /* \"contracts/Invest.sol\":4467:4487  projects[_projectId] */\n      dup2\n      mstore\n      0x20\n      add\n      swap1\n      dup2\n      mstore\n      0x20\n      add\n      0x00\n      keccak256\n        /* \"contracts/Invest.sol\":4467:4494  projects[_projectId].status */\n      0x07\n      add\n      0x00\n      swap1\n      sload\n      swap1\n      0x0100\n      exp\n      swap1\n      div\n      0xff\n      and\n        /* \"contracts/Invest.sol\":4467:4511  projects[_projectId].status == Status.Paying */\n      0x03\n      dup2\n      gt\n      iszero\n      tag_284\n      jumpi\n      tag_285\n      tag_138\n      jump\t// in\n    tag_285:\n    tag_284:\n      eq\n        /* \"contracts/Invest.sol\":4459:4543  require(projects[_projectId].status == Status.Paying, \"Project isn't Paying tokens\") */\n      tag_286\n      jumpi\n      mload(0x40)\n      0x08c379a000000000000000000000000000000000000000000000000000000000\n      dup2\n      mstore\n      0x04\n      add\n      tag_287\n      swap1\n      tag_288\n      jump\t// in\n    tag_287:\n      mload(0x40)\n      dup1\n      swap2\n      sub\n      swap1\n      revert\n    tag_286:\n        /* \"contracts/Invest.sol\":4561:4570  uint256 i */\n      0x00\n        /* \"contracts/Invest.sol\":4573:4574  0 */\n      0x00\n        /* \"contracts/Invest.sol\":4561:4574  uint256 i = 0 */\n      swap1\n      pop\n        /* \"contracts/Invest.sol\":4556:5529  for (uint256 i = 0; i < projects[_projectId].investorsCount; i++) {... */\n    tag_289:\n        /* \"contracts/Invest.sol\":4580:4588  projects */\n      0x09\n        /* \"contracts/Invest.sol\":4580:4600  projects[_projectId] */\n      0x00\n        /* \"contracts/Invest.sol\":4589:4599  _projectId */\n      dup5\n        /* \"contracts/Invest.sol\":4580:4600  projects[_projectId] */\n      dup2\n      mstore\n      0x20\n      add\n      swap1\n      dup2\n      mstore\n      0x20\n      add\n      0x00\n      keccak256\n        /* \"contracts/Invest.sol\":4580:4615  projects[_projectId].investorsCount */\n      0x05\n      add\n      sload\n        /* \"contracts/Invest.sol\":4576:4577  i */\n      dup2\n        /* \"contracts/Invest.sol\":4576:4615  i < projects[_projectId].investorsCount */\n      lt\n        /* \"contracts/Invest.sol\":4556:5529  for (uint256 i = 0; i < projects[_projectId].investorsCount; i++) {... */\n      iszero\n      tag_290\n      jumpi\n        /* \"contracts/Invest.sol\":4637:4653  address investor */\n      0x00\n        /* \"contracts/Invest.sol\":4656:4664  projects */\n      0x09\n        /* \"contracts/Invest.sol\":4656:4676  projects[_projectId] */\n      0x00\n        /* \"contracts/Invest.sol\":4665:4675  _projectId */\n      dup6\n        /* \"contracts/Invest.sol\":4656:4676  projects[_projectId] */\n      dup2\n      mstore\n      0x20\n      add\n      swap1\n      dup2\n      mstore\n      0x20\n      add\n      0x00\n      keccak256\n        /* \"contracts/Invest.sol\":4656:4686  projects[_projectId].investors */\n      0x06\n      add\n        /* \"contracts/Invest.sol\":4687:4688  i */\n      dup3\n        /* \"contracts/Invest.sol\":4656:4689  projects[_projectId].investors[i] */\n      dup2\n      sload\n      dup2\n      lt\n      tag_292\n      jumpi\n      tag_293\n      tag_251\n      jump\t// in\n    tag_293:\n    tag_292:\n      swap1\n      0x00\n      mstore\n      keccak256(0x00, 0x20)\n      add\n      0x00\n      swap1\n      sload\n      swap1\n      0x0100\n      exp\n      swap1\n      div\n      0xffffffffffffffffffffffffffffffffffffffff\n      and\n        /* \"contracts/Invest.sol\":4637:4689  address investor = projects[_projectId].investors[i] */\n      swap1\n      pop\n        /* \"contracts/Invest.sol\":4704:4724  uint256 contribution */\n      0x00\n        /* \"contracts/Invest.sol\":4727:4746  projectsInvestments */\n      0x0a\n        /* \"contracts/Invest.sol\":4727:4758  projectsInvestments[_projectId] */\n      0x00\n        /* \"contracts/Invest.sol\":4747:4757  _projectId */\n      dup7\n        /* \"contracts/Invest.sol\":4727:4758  projectsInvestments[_projectId] */\n      dup2\n      mstore\n      0x20\n      add\n      swap1\n      dup2\n      mstore\n      0x20\n      add\n      0x00\n      keccak256\n        /* \"contracts/Invest.sol\":4727:4768  projectsInvestments[_projectId][investor] */\n      0x00\n        /* \"contracts/Invest.sol\":4759:4767  investor */\n      dup4\n        /* \"contracts/Invest.sol\":4727:4768  projectsInvestments[_projectId][investor] */\n      0xffffffffffffffffffffffffffffffffffffffff\n      and\n      0xffffffffffffffffffffffffffffffffffffffff\n      and\n      dup2\n      mstore\n      0x20\n      add\n      swap1\n      dup2\n      mstore\n      0x20\n      add\n      0x00\n      keccak256\n      sload\n        /* \"contracts/Invest.sol\":4704:4768  uint256 contribution = projectsInvestments[_projectId][investor] */\n      swap1\n      pop\n        /* \"contracts/Invest.sol\":4783:4798  uint256 capital */\n      0x00\n        /* \"contracts/Invest.sol\":4802:4810  projects */\n      0x09\n        /* \"contracts/Invest.sol\":4802:4822  projects[_projectId] */\n      0x00\n        /* \"contracts/Invest.sol\":4811:4821  _projectId */\n      dup8\n        /* \"contracts/Invest.sol\":4802:4822  projects[_projectId] */\n      dup2\n      mstore\n      0x20\n      add\n      swap1\n      dup2\n      mstore\n      0x20\n      add\n      0x00\n      keccak256\n        /* \"contracts/Invest.sol\":4802:4830  projects[_projectId].capital */\n      0x01\n      add\n      sload\n        /* \"contracts/Invest.sol\":4783:4830  uint256 capital =  projects[_projectId].capital */\n      swap1\n      pop\n        /* \"contracts/Invest.sol\":4847:4871  uint256 scaledProportion */\n      0x00\n        /* \"contracts/Invest.sol\":4898:4905  capital */\n      dup2\n        /* \"contracts/Invest.sol\":4890:4894  1e18 */\n      0x0de0b6b3a7640000\n        /* \"contracts/Invest.sol\":4875:4887  contribution */\n      dup5\n        /* \"contracts/Invest.sol\":4875:4894  contribution * 1e18 */\n      tag_295\n      swap2\n      swap1\n      tag_254\n      jump\t// in\n    tag_295:\n        /* \"contracts/Invest.sol\":4874:4905  (contribution * 1e18) / capital */\n      tag_296\n      swap2\n      swap1\n      tag_256\n      jump\t// in\n    tag_296:\n        /* \"contracts/Invest.sol\":4847:4905  uint256 scaledProportion = (contribution * 1e18) / capital */\n      swap1\n      pop\n        /* \"contracts/Invest.sol\":4920:4943  uint256 baseIncomeShare */\n      0x00\n        /* \"contracts/Invest.sol\":4977:4981  1e18 */\n      0x0de0b6b3a7640000\n        /* \"contracts/Invest.sol\":4966:4973  _amount */\n      dup8\n        /* \"contracts/Invest.sol\":4947:4963  scaledProportion */\n      dup4\n        /* \"contracts/Invest.sol\":4947:4973  scaledProportion * _amount */\n      tag_297\n      swap2\n      swap1\n      tag_254\n      jump\t// in\n    tag_297:\n        /* \"contracts/Invest.sol\":4946:4981  (scaledProportion * _amount) / 1e18 */\n      tag_298\n      swap2\n      swap1\n      tag_256\n      jump\t// in\n    tag_298:\n        /* \"contracts/Invest.sol\":4920:4981  uint256 baseIncomeShare = (scaledProportion * _amount) / 1e18 */\n      swap1\n      pop\n        /* \"contracts/Invest.sol\":4996:5019  uint256 interestPayment */\n      0x00\n        /* \"contracts/Invest.sol\":5072:5075  100 */\n      0x64\n        /* \"contracts/Invest.sol\":5040:5048  projects */\n      0x09\n        /* \"contracts/Invest.sol\":5040:5060  projects[_projectId] */\n      0x00\n        /* \"contracts/Invest.sol\":5049:5059  _projectId */\n      dup12\n        /* \"contracts/Invest.sol\":5040:5060  projects[_projectId] */\n      dup2\n      mstore\n      0x20\n      add\n      swap1\n      dup2\n      mstore\n      0x20\n      add\n      0x00\n      keccak256\n        /* \"contracts/Invest.sol\":5040:5069  projects[_projectId].interest */\n      0x03\n      add\n      sload\n        /* \"contracts/Invest.sol\":5022:5037  baseIncomeShare */\n      dup4\n        /* \"contracts/Invest.sol\":5022:5069  baseIncomeShare * projects[_projectId].interest */\n      tag_299\n      swap2\n      swap1\n      tag_254\n      jump\t// in\n    tag_299:\n        /* \"contracts/Invest.sol\":5022:5075  baseIncomeShare * projects[_projectId].interest / 100 */\n      tag_300\n      swap2\n      swap1\n      tag_256\n      jump\t// in\n    tag_300:\n        /* \"contracts/Invest.sol\":4996:5075  uint256 interestPayment = baseIncomeShare * projects[_projectId].interest / 100 */\n      swap1\n      pop\n        /* \"contracts/Invest.sol\":5121:5136  interestPayment */\n      dup1\n        /* \"contracts/Invest.sol\":5092:5097  users */\n      0x06\n        /* \"contracts/Invest.sol\":5092:5109  users[msg.sender] */\n      0x00\n        /* \"contracts/Invest.sol\":5098:5108  msg.sender */\n      caller\n        /* \"contracts/Invest.sol\":5092:5109  users[msg.sender] */\n      0xffffffffffffffffffffffffffffffffffffffff\n      and\n      0xffffffffffffffffffffffffffffffffffffffff\n      and\n      dup2\n      mstore\n      0x20\n      add\n      swap1\n      dup2\n      mstore\n      0x20\n      add\n      0x00\n      keccak256\n        /* \"contracts/Invest.sol\":5092:5117  users[msg.sender].balance */\n      0x00\n      add\n      0x00\n        /* \"contracts/Invest.sol\":5092:5136  users[msg.sender].balance -= interestPayment */\n      dup3\n      dup3\n      sload\n      tag_301\n      swap2\n      swap1\n      tag_191\n      jump\t// in\n    tag_301:\n      swap3\n      pop\n      pop\n      dup2\n      swap1\n      sstore\n      pop\n        /* \"contracts/Invest.sol\":5178:5193  interestPayment */\n      dup1\n        /* \"contracts/Invest.sol\":5151:5156  users */\n      0x06\n        /* \"contracts/Invest.sol\":5151:5166  users[investor] */\n      0x00\n        /* \"contracts/Invest.sol\":5157:5165  investor */\n      dup9\n        /* \"contracts/Invest.sol\":5151:5166  users[investor] */\n      0xffffffffffffffffffffffffffffffffffffffff\n      and\n      0xffffffffffffffffffffffffffffffffffffffff\n      and\n      dup2\n      mstore\n      0x20\n      add\n      swap1\n      dup2\n      mstore\n      0x20\n      add\n      0x00\n      keccak256\n        /* \"contracts/Invest.sol\":5151:5174  users[investor].balance */\n      0x00\n      add\n      0x00\n        /* \"contracts/Invest.sol\":5151:5193  users[investor].balance += interestPayment */\n      dup3\n      dup3\n      sload\n      tag_302\n      swap2\n      swap1\n      tag_195\n      jump\t// in\n    tag_302:\n      swap3\n      pop\n      pop\n      dup2\n      swap1\n      sstore\n      pop\n        /* \"contracts/Invest.sol\":5208:5243  transfer(investor, interestPayment) */\n      tag_303\n        /* \"contracts/Invest.sol\":5217:5225  investor */\n      dup7\n        /* \"contracts/Invest.sol\":5227:5242  interestPayment */\n      dup3\n        /* \"contracts/Invest.sol\":5208:5216  transfer */\n      tag_107\n        /* \"contracts/Invest.sol\":5208:5243  transfer(investor, interestPayment) */\n      jump\t// in\n    tag_303:\n      pop\n        /* \"contracts/Invest.sol\":5302:5317  interestPayment */\n      dup1\n        /* \"contracts/Invest.sol\":5292:5299  _amount */\n      dup9\n        /* \"contracts/Invest.sol\":5292:5317  _amount - interestPayment */\n      tag_304\n      swap2\n      swap1\n      tag_191\n      jump\t// in\n    tag_304:\n        /* \"contracts/Invest.sol\":5260:5268  projects */\n      0x09\n        /* \"contracts/Invest.sol\":5260:5280  projects[_projectId] */\n      0x00\n        /* \"contracts/Invest.sol\":5269:5279  _projectId */\n      dup12\n        /* \"contracts/Invest.sol\":5260:5280  projects[_projectId] */\n      dup2\n      mstore\n      0x20\n      add\n      swap1\n      dup2\n      mstore\n      0x20\n      add\n      0x00\n      keccak256\n        /* \"contracts/Invest.sol\":5260:5288  projects[_projectId].balance */\n      0x00\n      add\n      0x00\n        /* \"contracts/Invest.sol\":5260:5317  projects[_projectId].balance += _amount - interestPayment */\n      dup3\n      dup3\n      sload\n      tag_305\n      swap2\n      swap1\n      tag_195\n      jump\t// in\n    tag_305:\n      swap3\n      pop\n      pop\n      dup2\n      swap1\n      sstore\n      pop\n        /* \"contracts/Invest.sol\":5332:5374  transfer(admin, _amount - interestPayment) */\n      tag_306\n        /* \"contracts/Invest.sol\":5341:5346  admin */\n      0x0b\n      0x00\n      swap1\n      sload\n      swap1\n      0x0100\n      exp\n      swap1\n      div\n      0xffffffffffffffffffffffffffffffffffffffff\n      and\n        /* \"contracts/Invest.sol\":5358:5373  interestPayment */\n      dup3\n        /* \"contracts/Invest.sol\":5348:5355  _amount */\n      dup11\n        /* \"contracts/Invest.sol\":5348:5373  _amount - interestPayment */\n      tag_307\n      swap2\n      swap1\n      tag_191\n      jump\t// in\n    tag_307:\n        /* \"contracts/Invest.sol\":5332:5340  transfer */\n      tag_107\n        /* \"contracts/Invest.sol\":5332:5374  transfer(admin, _amount - interestPayment) */\n      jump\t// in\n    tag_306:\n      pop\n        /* \"contracts/Invest.sol\":5427:5434  capital */\n      dup4\n        /* \"contracts/Invest.sol\":5395:5403  projects */\n      0x09\n        /* \"contracts/Invest.sol\":5395:5415  projects[_projectId] */\n      0x00\n        /* \"contracts/Invest.sol\":5404:5414  _projectId */\n      dup12\n        /* \"contracts/Invest.sol\":5395:5415  projects[_projectId] */\n      dup2\n      mstore\n      0x20\n      add\n      swap1\n      dup2\n      mstore\n      0x20\n      add\n      0x00\n      keccak256\n        /* \"contracts/Invest.sol\":5395:5423  projects[_projectId].balance */\n      0x00\n      add\n      sload\n        /* \"contracts/Invest.sol\":5395:5434  projects[_projectId].balance >= capital */\n      lt\n        /* \"contracts/Invest.sol\":5391:5518  if (projects[_projectId].balance >= capital) {... */\n      tag_308\n      jumpi\n        /* \"contracts/Invest.sol\":5485:5502  Status.Finilizing */\n      0x02\n        /* \"contracts/Invest.sol\":5455:5463  projects */\n      0x09\n        /* \"contracts/Invest.sol\":5455:5475  projects[_projectId] */\n      0x00\n        /* \"contracts/Invest.sol\":5464:5474  _projectId */\n      dup12\n        /* \"contracts/Invest.sol\":5455:5475  projects[_projectId] */\n      dup2\n      mstore\n      0x20\n      add\n      swap1\n      dup2\n      mstore\n      0x20\n      add\n      0x00\n      keccak256\n        /* \"contracts/Invest.sol\":5455:5482  projects[_projectId].status */\n      0x07\n      add\n      0x00\n        /* \"contracts/Invest.sol\":5455:5502  projects[_projectId].status = Status.Finilizing */\n      0x0100\n      exp\n      dup2\n      sload\n      dup2\n      0xff\n      mul\n      not\n      and\n      swap1\n      dup4\n      0x03\n      dup2\n      gt\n      iszero\n      tag_309\n      jumpi\n      tag_310\n      tag_138\n      jump\t// in\n    tag_310:\n    tag_309:\n      mul\n      or\n      swap1\n      sstore\n      pop\n        /* \"contracts/Invest.sol\":5391:5518  if (projects[_projectId].balance >= capital) {... */\n    tag_308:\n        /* \"contracts/Invest.sol\":4622:5529  {... */\n      pop\n      pop\n      pop\n      pop\n      pop\n      pop\n        /* \"contracts/Invest.sol\":4617:4620  i++ */\n      dup1\n      dup1\n      0x01\n      add\n      swap2\n      pop\n      pop\n        /* \"contracts/Invest.sol\":4556:5529  for (uint256 i = 0; i < projects[_projectId].investorsCount; i++) {... */\n      jump(tag_289)\n    tag_290:\n      pop\n        /* \"contracts/Invest.sol\":4157:5536  function payInvestors(uint256 _projectId, uint256 _amount) onlyUser public {... */\n      pop\n      pop\n      jump\t// out\n        /* \"contracts/ERC20.sol\":4117:4259  function allowance(address owner, address spender) public view virtual returns (uint256) {... */\n    tag_115:\n        /* \"contracts/ERC20.sol\":4197:4204  uint256 */\n      0x00\n        /* \"contracts/ERC20.sol\":4224:4235  _allowances */\n      0x01\n        /* \"contracts/ERC20.sol\":4224:4242  _allowances[owner] */\n      0x00\n        /* \"contracts/ERC20.sol\":4236:4241  owner */\n      dup5\n        /* \"contracts/ERC20.sol\":4224:4242  _allowances[owner] */\n      0xffffffffffffffffffffffffffffffffffffffff\n      and\n      0xffffffffffffffffffffffffffffffffffffffff\n      and\n      dup2\n      mstore\n      0x20\n      add\n      swap1\n      dup2\n      mstore\n      0x20\n      add\n      0x00\n      keccak256\n        /* \"contracts/ERC20.sol\":4224:4251  _allowances[owner][spender] */\n      0x00\n        /* \"contracts/ERC20.sol\":4243:4250  spender */\n      dup4\n        /* \"contracts/ERC20.sol\":4224:4251  _allowances[owner][spender] */\n      0xffffffffffffffffffffffffffffffffffffffff\n      and\n      0xffffffffffffffffffffffffffffffffffffffff\n      and\n      dup2\n      mstore\n      0x20\n      add\n      swap1\n      dup2\n      mstore\n      0x20\n      add\n      0x00\n      keccak256\n      sload\n        /* \"contracts/ERC20.sol\":4217:4251  return _allowances[owner][spender] */\n      swap1\n      pop\n        /* \"contracts/ERC20.sol\":4117:4259  function allowance(address owner, address spender) public view virtual returns (uint256) {... */\n      swap3\n      swap2\n      pop\n      pop\n      jump\t// out\n        /* \"contracts/Invest.sol\":1872:2107  function takeTokens(address _user, uint256 _amount) onlyAdmin public {... */\n    tag_119:\n        /* \"contracts/Invest.sol\":951:956  admin */\n      0x0b\n      0x00\n      swap1\n      sload\n      swap1\n      0x0100\n      exp\n      swap1\n      div\n      0xffffffffffffffffffffffffffffffffffffffff\n      and\n        /* \"contracts/Invest.sol\":937:956  msg.sender == admin */\n      0xffffffffffffffffffffffffffffffffffffffff\n      and\n        /* \"contracts/Invest.sol\":937:947  msg.sender */\n      caller\n        /* \"contracts/Invest.sol\":937:956  msg.sender == admin */\n      0xffffffffffffffffffffffffffffffffffffffff\n      and\n      eq\n        /* \"contracts/Invest.sol\":929:975  require(msg.sender == admin, \"Only for admin\") */\n      tag_313\n      jumpi\n      mload(0x40)\n      0x08c379a000000000000000000000000000000000000000000000000000000000\n      dup2\n      mstore\n      0x04\n      add\n      tag_314\n      swap1\n      tag_216\n      jump\t// in\n    tag_314:\n      mload(0x40)\n      dup1\n      swap2\n      sub\n      swap1\n      revert\n    tag_313:\n        /* \"contracts/Invest.sol\":1960:1971  isRegistred */\n      0x05\n        /* \"contracts/Invest.sol\":1960:1978  isRegistred[_user] */\n      0x00\n        /* \"contracts/Invest.sol\":1972:1977  _user */\n      dup4\n        /* \"contracts/Invest.sol\":1960:1978  isRegistred[_user] */\n      0xffffffffffffffffffffffffffffffffffffffff\n      and\n      0xffffffffffffffffffffffffffffffffffffffff\n      and\n      dup2\n      mstore\n      0x20\n      add\n      swap1\n      dup2\n      mstore\n      0x20\n      add\n      0x00\n      keccak256\n      0x00\n      swap1\n      sload\n      swap1\n      0x0100\n      exp\n      swap1\n      div\n      0xff\n      and\n        /* \"contracts/Invest.sol\":1952:2001  require(isRegistred[_user], \"User not registred\") */\n      tag_316\n      jumpi\n      mload(0x40)\n      0x08c379a000000000000000000000000000000000000000000000000000000000\n      dup2\n      mstore\n      0x04\n      add\n      tag_317\n      swap1\n      tag_131\n      jump\t// in\n    tag_317:\n      mload(0x40)\n      dup1\n      swap2\n      sub\n      swap1\n      revert\n    tag_316:\n        /* \"contracts/Invest.sol\":2022:2057  transferFrom(_user, admin, _amount) */\n      tag_318\n        /* \"contracts/Invest.sol\":2035:2040  _user */\n      dup3\n        /* \"contracts/Invest.sol\":2042:2047  admin */\n      0x0b\n      0x00\n      swap1\n      sload\n      swap1\n      0x0100\n      exp\n      swap1\n      div\n      0xffffffffffffffffffffffffffffffffffffffff\n      and\n        /* \"contracts/Invest.sol\":2049:2056  _amount */\n      dup4\n        /* \"contracts/Invest.sol\":2022:2034  transferFrom */\n      tag_63\n        /* \"contracts/Invest.sol\":2022:2057  transferFrom(_user, admin, _amount) */\n      jump\t// in\n    tag_318:\n      pop\n        /* \"contracts/Invest.sol\":2092:2099  _amount */\n      dup1\n        /* \"contracts/Invest.sol\":2068:2073  users */\n      0x06\n        /* \"contracts/Invest.sol\":2068:2080  users[_user] */\n      0x00\n        /* \"contracts/Invest.sol\":2074:2079  _user */\n      dup5\n        /* \"contracts/Invest.sol\":2068:2080  users[_user] */\n      0xffffffffffffffffffffffffffffffffffffffff\n      and\n      0xffffffffffffffffffffffffffffffffffffffff\n      and\n      dup2\n      mstore\n      0x20\n      add\n      swap1\n      dup2\n      mstore\n      0x20\n      add\n      0x00\n      keccak256\n        /* \"contracts/Invest.sol\":2068:2088  users[_user].balance */\n      0x00\n      add\n      0x00\n        /* \"contracts/Invest.sol\":2068:2099  users[_user].balance -= _amount */\n      dup3\n      dup3\n      sload\n      tag_319\n      swap2\n      swap1\n      tag_191\n      jump\t// in\n    tag_319:\n      swap3\n      pop\n      pop\n      dup2\n      swap1\n      sstore\n      pop\n        /* \"contracts/Invest.sol\":1872:2107  function takeTokens(address _user, uint256 _amount) onlyAdmin public {... */\n      pop\n      pop\n      jump\t// out\n        /* \"contracts/Invest.sol\":868:888  address public admin */\n    tag_121:\n      0x0b\n      0x00\n      swap1\n      sload\n      swap1\n      0x0100\n      exp\n      swap1\n      div\n      0xffffffffffffffffffffffffffffffffffffffff\n      and\n      dup2\n      jump\t// out\n        /* \"https://github.com/OpenZeppelin/openzeppelin-contracts/blob/809ded806fe1d952027026b056ff6623ff2e2dfc/contracts/utils/Context.sol\":656:752  function _msgSender() internal view virtual returns (address) {... */\n    tag_154:\n        /* \"https://github.com/OpenZeppelin/openzeppelin-contracts/blob/809ded806fe1d952027026b056ff6623ff2e2dfc/contracts/utils/Context.sol\":709:716  address */\n      0x00\n        /* \"https://github.com/OpenZeppelin/openzeppelin-contracts/blob/809ded806fe1d952027026b056ff6623ff2e2dfc/contracts/utils/Context.sol\":735:745  msg.sender */\n      caller\n        /* \"https://github.com/OpenZeppelin/openzeppelin-contracts/blob/809ded806fe1d952027026b056ff6623ff2e2dfc/contracts/utils/Context.sol\":728:745  return msg.sender */\n      swap1\n      pop\n        /* \"https://github.com/OpenZeppelin/openzeppelin-contracts/blob/809ded806fe1d952027026b056ff6623ff2e2dfc/contracts/utils/Context.sol\":656:752  function _msgSender() internal view virtual returns (address) {... */\n      swap1\n      jump\t// out\n        /* \"contracts/ERC20.sol\":9435:9565  function _approve(address owner, address spender, uint256 value) internal {... */\n    tag_156:\n        /* \"contracts/ERC20.sol\":9520:9557  _approve(owner, spender, value, true) */\n      tag_322\n        /* \"contracts/ERC20.sol\":9529:9534  owner */\n      dup4\n        /* \"contracts/ERC20.sol\":9536:9543  spender */\n      dup4\n        /* \"contracts/ERC20.sol\":9545:9550  value */\n      dup4\n        /* \"contracts/ERC20.sol\":9552:9556  true */\n      0x01\n        /* \"contracts/ERC20.sol\":9520:9528  _approve */\n      tag_323\n        /* \"contracts/ERC20.sol\":9520:9557  _approve(owner, spender, value, true) */\n      jump\t// in\n    tag_322:\n        /* \"contracts/ERC20.sol\":9435:9565  function _approve(address owner, address spender, uint256 value) internal {... */\n      pop\n      pop\n      pop\n      jump\t// out\n        /* \"contracts/ERC20.sol\":11167:11654  function _spendAllowance(address owner, address spender, uint256 value) internal virtual {... */\n    tag_163:\n        /* \"contracts/ERC20.sol\":11267:11291  uint256 currentAllowance */\n      0x00\n        /* \"contracts/ERC20.sol\":11294:11319  allowance(owner, spender) */\n      tag_325\n        /* \"contracts/ERC20.sol\":11304:11309  owner */\n      dup5\n        /* \"contracts/ERC20.sol\":11311:11318  spender */\n      dup5\n        /* \"contracts/ERC20.sol\":11294:11303  allowance */\n      tag_115\n        /* \"contracts/ERC20.sol\":11294:11319  allowance(owner, spender) */\n      jump\t// in\n    tag_325:\n        /* \"contracts/ERC20.sol\":11267:11319  uint256 currentAllowance = allowance(owner, spender) */\n      swap1\n      pop\n        /* \"contracts/ERC20.sol\":11354:11371  type(uint256).max */\n      0xffffffffffffffffffffffffffffffffffffffffffffffffffffffffffffffff\n        /* \"contracts/ERC20.sol\":11334:11350  currentAllowance */\n      dup2\n        /* \"contracts/ERC20.sol\":11334:11371  currentAllowance != type(uint256).max */\n      eq\n        /* \"contracts/ERC20.sol\":11330:11647  if (currentAllowance != type(uint256).max) {... */\n      tag_326\n      jumpi\n        /* \"contracts/ERC20.sol\":11411:11416  value */\n      dup2\n        /* \"contracts/ERC20.sol\":11392:11408  currentAllowance */\n      dup2\n        /* \"contracts/ERC20.sol\":11392:11416  currentAllowance < value */\n      lt\n        /* \"contracts/ERC20.sol\":11388:11520  if (currentAllowance < value) {... */\n      iszero\n      tag_327\n      jumpi\n        /* \"contracts/ERC20.sol\":11471:11478  spender */\n      dup3\n        /* \"contracts/ERC20.sol\":11480:11496  currentAllowance */\n      dup2\n        /* \"contracts/ERC20.sol\":11498:11503  value */\n      dup4\n        /* \"contracts/ERC20.sol\":11444:11504  ERC20InsufficientAllowance(spender, currentAllowance, value) */\n      mload(0x40)\n      0xfb8f41b200000000000000000000000000000000000000000000000000000000\n      dup2\n      mstore\n      0x04\n      add\n      tag_328\n      swap4\n      swap3\n      swap2\n      swap1\n      tag_329\n      jump\t// in\n    tag_328:\n      mload(0x40)\n      dup1\n      swap2\n      sub\n      swap1\n      revert\n        /* \"contracts/ERC20.sol\":11388:11520  if (currentAllowance < value) {... */\n    tag_327:\n        /* \"contracts/ERC20.sol\":11563:11620  _approve(owner, spender, currentAllowance - value, false) */\n      tag_330\n        /* \"contracts/ERC20.sol\":11572:11577  owner */\n      dup5\n        /* \"contracts/ERC20.sol\":11579:11586  spender */\n      dup5\n        /* \"contracts/ERC20.sol\":11607:11612  value */\n      dup5\n        /* \"contracts/ERC20.sol\":11588:11604  currentAllowance */\n      dup5\n        /* \"contracts/ERC20.sol\":11588:11612  currentAllowance - value */\n      sub\n        /* \"contracts/ERC20.sol\":11614:11619  false */\n      0x00\n        /* \"contracts/ERC20.sol\":11563:11571  _approve */\n      tag_323\n        /* \"contracts/ERC20.sol\":11563:11620  _approve(owner, spender, currentAllowance - value, false) */\n      jump\t// in\n    tag_330:\n        /* \"contracts/ERC20.sol\":11330:11647  if (currentAllowance != type(uint256).max) {... */\n    tag_326:\n        /* \"contracts/ERC20.sol\":11256:11654  {... */\n      pop\n        /* \"contracts/ERC20.sol\":11167:11654  function _spendAllowance(address owner, address spender, uint256 value) internal virtual {... */\n      pop\n      pop\n      pop\n      jump\t// out\n        /* \"contracts/ERC20.sol\":6012:6320  function _transfer(address from, address to, uint256 value) internal {... */\n    tag_165:\n        /* \"contracts/ERC20.sol\":6112:6113  0 */\n      0x00\n        /* \"contracts/ERC20.sol\":6096:6114  from == address(0) */\n      0xffffffffffffffffffffffffffffffffffffffff\n      and\n        /* \"contracts/ERC20.sol\":6096:6100  from */\n      dup4\n        /* \"contracts/ERC20.sol\":6096:6114  from == address(0) */\n      0xffffffffffffffffffffffffffffffffffffffff\n      and\n      sub\n        /* \"contracts/ERC20.sol\":6092:6180  if (from == address(0)) {... */\n      tag_332\n      jumpi\n        /* \"contracts/ERC20.sol\":6165:6166  0 */\n      0x00\n        /* \"contracts/ERC20.sol\":6138:6168  ERC20InvalidSender(address(0)) */\n      mload(0x40)\n      0x96c6fd1e00000000000000000000000000000000000000000000000000000000\n      dup2\n      mstore\n      0x04\n      add\n      tag_333\n      swap2\n      swap1\n      tag_123\n      jump\t// in\n    tag_333:\n      mload(0x40)\n      dup1\n      swap2\n      sub\n      swap1\n      revert\n        /* \"contracts/ERC20.sol\":6092:6180  if (from == address(0)) {... */\n    tag_332:\n        /* \"contracts/ERC20.sol\":6208:6209  0 */\n      0x00\n        /* \"contracts/ERC20.sol\":6194:6210  to == address(0) */\n      0xffffffffffffffffffffffffffffffffffffffff\n      and\n        /* \"contracts/ERC20.sol\":6194:6196  to */\n      dup3\n        /* \"contracts/ERC20.sol\":6194:6210  to == address(0) */\n      0xffffffffffffffffffffffffffffffffffffffff\n      and\n      sub\n        /* \"contracts/ERC20.sol\":6190:6278  if (to == address(0)) {... */\n      tag_334\n      jumpi\n        /* \"contracts/ERC20.sol\":6263:6264  0 */\n      0x00\n        /* \"contracts/ERC20.sol\":6234:6266  ERC20InvalidReceiver(address(0)) */\n      mload(0x40)\n      0xec442f0500000000000000000000000000000000000000000000000000000000\n      dup2\n      mstore\n      0x04\n      add\n      tag_335\n      swap2\n      swap1\n      tag_123\n      jump\t// in\n    tag_335:\n      mload(0x40)\n      dup1\n      swap2\n      sub\n      swap1\n      revert\n        /* \"contracts/ERC20.sol\":6190:6278  if (to == address(0)) {... */\n    tag_334:\n        /* \"contracts/ERC20.sol\":6288:6312  _update(from, to, value) */\n      tag_336\n        /* \"contracts/ERC20.sol\":6296:6300  from */\n      dup4\n        /* \"contracts/ERC20.sol\":6302:6304  to */\n      dup4\n        /* \"contracts/ERC20.sol\":6306:6311  value */\n      dup4\n        /* \"contracts/ERC20.sol\":6288:6295  _update */\n      tag_212\n        /* \"contracts/ERC20.sol\":6288:6312  _update(from, to, value) */\n      jump\t// in\n    tag_336:\n        /* \"contracts/ERC20.sol\":6012:6320  function _transfer(address from, address to, uint256 value) internal {... */\n      pop\n      pop\n      pop\n      jump\t// out\n        /* \"contracts/ERC20.sol\":6644:7779  function _update(address from, address to, uint256 value) internal virtual {... */\n    tag_212:\n        /* \"contracts/ERC20.sol\":6750:6751  0 */\n      0x00\n        /* \"contracts/ERC20.sol\":6734:6752  from == address(0) */\n      0xffffffffffffffffffffffffffffffffffffffff\n      and\n        /* \"contracts/ERC20.sol\":6734:6738  from */\n      dup4\n        /* \"contracts/ERC20.sol\":6734:6752  from == address(0) */\n      0xffffffffffffffffffffffffffffffffffffffff\n      and\n      sub\n        /* \"contracts/ERC20.sol\":6730:7282  if (from == address(0)) {... */\n      tag_338\n      jumpi\n        /* \"contracts/ERC20.sol\":6888:6893  value */\n      dup1\n        /* \"contracts/ERC20.sol\":6872:6884  _totalSupply */\n      0x02\n      0x00\n        /* \"contracts/ERC20.sol\":6872:6893  _totalSupply += value */\n      dup3\n      dup3\n      sload\n      tag_339\n      swap2\n      swap1\n      tag_195\n      jump\t// in\n    tag_339:\n      swap3\n      pop\n      pop\n      dup2\n      swap1\n      sstore\n      pop\n        /* \"contracts/ERC20.sol\":6730:7282  if (from == address(0)) {... */\n      jump(tag_340)\n    tag_338:\n        /* \"contracts/ERC20.sol\":6926:6945  uint256 fromBalance */\n      0x00\n        /* \"contracts/ERC20.sol\":6948:6957  _balances */\n      0x00\n        /* \"contracts/ERC20.sol\":6948:6963  _balances[from] */\n      0x00\n        /* \"contracts/ERC20.sol\":6958:6962  from */\n      dup6\n        /* \"contracts/ERC20.sol\":6948:6963  _balances[from] */\n      0xffffffffffffffffffffffffffffffffffffffff\n      and\n      0xffffffffffffffffffffffffffffffffffffffff\n      and\n      dup2\n      mstore\n      0x20\n      add\n      swap1\n      dup2\n      mstore\n      0x20\n      add\n      0x00\n      keccak256\n      sload\n        /* \"contracts/ERC20.sol\":6926:6963  uint256 fromBalance = _balances[from] */\n      swap1\n      pop\n        /* \"contracts/ERC20.sol\":6996:7001  value */\n      dup2\n        /* \"contracts/ERC20.sol\":6982:6993  fromBalance */\n      dup2\n        /* \"contracts/ERC20.sol\":6982:7001  fromBalance < value */\n      lt\n        /* \"contracts/ERC20.sol\":6978:7095  if (fromBalance < value) {... */\n      iszero\n      tag_341\n      jumpi\n        /* \"contracts/ERC20.sol\":7054:7058  from */\n      dup4\n        /* \"contracts/ERC20.sol\":7060:7071  fromBalance */\n      dup2\n        /* \"contracts/ERC20.sol\":7073:7078  value */\n      dup4\n        /* \"contracts/ERC20.sol\":7029:7079  ERC20InsufficientBalance(from, fromBalance, value) */\n      mload(0x40)\n      0xe450d38c00000000000000000000000000000000000000000000000000000000\n      dup2\n      mstore\n      0x04\n      add\n      tag_342\n      swap4\n      swap3\n      swap2\n      swap1\n      tag_329\n      jump\t// in\n    tag_342:\n      mload(0x40)\n      dup1\n      swap2\n      sub\n      swap1\n      revert\n        /* \"contracts/ERC20.sol\":6978:7095  if (fromBalance < value) {... */\n    tag_341:\n        /* \"contracts/ERC20.sol\":7250:7255  value */\n      dup2\n        /* \"contracts/ERC20.sol\":7236:7247  fromBalance */\n      dup2\n        /* \"contracts/ERC20.sol\":7236:7255  fromBalance - value */\n      sub\n        /* \"contracts/ERC20.sol\":7218:7227  _balances */\n      0x00\n        /* \"contracts/ERC20.sol\":7218:7233  _balances[from] */\n      0x00\n        /* \"contracts/ERC20.sol\":7228:7232  from */\n      dup7\n        /* \"contracts/ERC20.sol\":7218:7233  _balances[from] */\n      0xffffffffffffffffffffffffffffffffffffffff\n      and\n      0xffffffffffffffffffffffffffffffffffffffff\n      and\n      dup2\n      mstore\n      0x20\n      add\n      swap1\n      dup2\n      mstore\n      0x20\n      add\n      0x00\n      keccak256\n        /* \"contracts/ERC20.sol\":7218:7255  _balances[from] = fromBalance - value */\n      dup2\n      swap1\n      sstore\n      pop\n        /* \"contracts/ERC20.sol\":6911:7282  {... */\n      pop\n        /* \"contracts/ERC20.sol\":6730:7282  if (from == address(0)) {... */\n    tag_340:\n        /* \"contracts/ERC20.sol\":7312:7313  0 */\n      0x00\n        /* \"contracts/ERC20.sol\":7298:7314  to == address(0) */\n      0xffffffffffffffffffffffffffffffffffffffff\n      and\n        /* \"contracts/ERC20.sol\":7298:7300  to */\n      dup3\n        /* \"contracts/ERC20.sol\":7298:7314  to == address(0) */\n      0xffffffffffffffffffffffffffffffffffffffff\n      and\n      sub\n        /* \"contracts/ERC20.sol\":7294:7729  if (to == address(0)) {... */\n      tag_343\n      jumpi\n        /* \"contracts/ERC20.sol\":7480:7485  value */\n      dup1\n        /* \"contracts/ERC20.sol\":7464:7476  _totalSupply */\n      0x02\n      0x00\n        /* \"contracts/ERC20.sol\":7464:7485  _totalSupply -= value */\n      dup3\n      dup3\n      sload\n      sub\n      swap3\n      pop\n      pop\n      dup2\n      swap1\n      sstore\n      pop\n        /* \"contracts/ERC20.sol\":7294:7729  if (to == address(0)) {... */\n      jump(tag_344)\n    tag_343:\n        /* \"contracts/ERC20.sol\":7697:7702  value */\n      dup1\n        /* \"contracts/ERC20.sol\":7680:7689  _balances */\n      0x00\n        /* \"contracts/ERC20.sol\":7680:7693  _balances[to] */\n      0x00\n        /* \"contracts/ERC20.sol\":7690:7692  to */\n      dup5\n        /* \"contracts/ERC20.sol\":7680:7693  _balances[to] */\n      0xffffffffffffffffffffffffffffffffffffffff\n      and\n      0xffffffffffffffffffffffffffffffffffffffff\n      and\n      dup2\n      mstore\n      0x20\n      add\n      swap1\n      dup2\n      mstore\n      0x20\n      add\n      0x00\n      keccak256\n      0x00\n        /* \"contracts/ERC20.sol\":7680:7702  _balances[to] += value */\n      dup3\n      dup3\n      sload\n      add\n      swap3\n      pop\n      pop\n      dup2\n      swap1\n      sstore\n      pop\n        /* \"contracts/ERC20.sol\":7294:7729  if (to == address(0)) {... */\n    tag_344:\n        /* \"contracts/ERC20.sol\":7761:7763  to */\n      dup2\n        /* \"contracts/ERC20.sol\":7746:7771  Transfer(from, to, value) */\n      0xffffffffffffffffffffffffffffffffffffffff\n      and\n        /* \"contracts/ERC20.sol\":7755:7759  from */\n      dup4\n        /* \"contracts/ERC20.sol\":7746:7771  Transfer(from, to, value) */\n      0xffffffffffffffffffffffffffffffffffffffff\n      and\n      0xddf252ad1be2c89b69c2b068fc378daa952ba7f163c4a11628f55a4df523b3ef\n        /* \"contracts/ERC20.sol\":7765:7770  value */\n      dup4\n        /* \"contracts/ERC20.sol\":7746:7771  Transfer(from, to, value) */\n      mload(0x40)\n      tag_345\n      swap2\n      swap1\n      tag_35\n      jump\t// in\n    tag_345:\n      mload(0x40)\n      dup1\n      swap2\n      sub\n      swap1\n      log3\n        /* \"contracts/ERC20.sol\":6644:7779  function _update(address from, address to, uint256 value) internal virtual {... */\n      pop\n      pop\n      pop\n      jump\t// out\n        /* \"contracts/ERC20.sol\":10432:10875  function _approve(address owner, address spender, uint256 value, bool emitEvent) internal virtual {... */\n    tag_323:\n        /* \"contracts/ERC20.sol\":10562:10563  0 */\n      0x00\n        /* \"contracts/ERC20.sol\":10545:10564  owner == address(0) */\n      0xffffffffffffffffffffffffffffffffffffffff\n      and\n        /* \"contracts/ERC20.sol\":10545:10550  owner */\n      dup5\n        /* \"contracts/ERC20.sol\":10545:10564  owner == address(0) */\n      0xffffffffffffffffffffffffffffffffffffffff\n      and\n      sub\n        /* \"contracts/ERC20.sol\":10541:10632  if (owner == address(0)) {... */\n      tag_347\n      jumpi\n        /* \"contracts/ERC20.sol\":10617:10618  0 */\n      0x00\n        /* \"contracts/ERC20.sol\":10588:10620  ERC20InvalidApprover(address(0)) */\n      mload(0x40)\n      0xe602df0500000000000000000000000000000000000000000000000000000000\n      dup2\n      mstore\n      0x04\n      add\n      tag_348\n      swap2\n      swap1\n      tag_123\n      jump\t// in\n    tag_348:\n      mload(0x40)\n      dup1\n      swap2\n      sub\n      swap1\n      revert\n        /* \"contracts/ERC20.sol\":10541:10632  if (owner == address(0)) {... */\n    tag_347:\n        /* \"contracts/ERC20.sol\":10665:10666  0 */\n      0x00\n        /* \"contracts/ERC20.sol\":10646:10667  spender == address(0) */\n      0xffffffffffffffffffffffffffffffffffffffff\n      and\n        /* \"contracts/ERC20.sol\":10646:10653  spender */\n      dup4\n        /* \"contracts/ERC20.sol\":10646:10667  spender == address(0) */\n      0xffffffffffffffffffffffffffffffffffffffff\n      and\n      sub\n        /* \"contracts/ERC20.sol\":10642:10734  if (spender == address(0)) {... */\n      tag_349\n      jumpi\n        /* \"contracts/ERC20.sol\":10719:10720  0 */\n      0x00\n        /* \"contracts/ERC20.sol\":10691:10722  ERC20InvalidSpender(address(0)) */\n      mload(0x40)\n      0x94280d6200000000000000000000000000000000000000000000000000000000\n      dup2\n      mstore\n      0x04\n      add\n      tag_350\n      swap2\n      swap1\n      tag_123\n      jump\t// in\n    tag_350:\n      mload(0x40)\n      dup1\n      swap2\n      sub\n      swap1\n      revert\n        /* \"contracts/ERC20.sol\":10642:10734  if (spender == address(0)) {... */\n    tag_349:\n        /* \"contracts/ERC20.sol\":10774:10779  value */\n      dup2\n        /* \"contracts/ERC20.sol\":10744:10755  _allowances */\n      0x01\n        /* \"contracts/ERC20.sol\":10744:10762  _allowances[owner] */\n      0x00\n        /* \"contracts/ERC20.sol\":10756:10761  owner */\n      dup7\n        /* \"contracts/ERC20.sol\":10744:10762  _allowances[owner] */\n      0xffffffffffffffffffffffffffffffffffffffff\n      and\n      0xffffffffffffffffffffffffffffffffffffffff\n      and\n      dup2\n      mstore\n      0x20\n      add\n      swap1\n      dup2\n      mstore\n      0x20\n      add\n      0x00\n      keccak256\n        /* \"contracts/ERC20.sol\":10744:10771  _allowances[owner][spender] */\n      0x00\n        /* \"contracts/ERC20.sol\":10763:10770  spender */\n      dup6\n        /* \"contracts/ERC20.sol\":10744:10771  _allowances[owner][spender] */\n      0xffffffffffffffffffffffffffffffffffffffff\n      and\n      0xffffffffffffffffffffffffffffffffffffffff\n      and\n      dup2\n      mstore\n      0x20\n      add\n      swap1\n      dup2\n      mstore\n      0x20\n      add\n      0x00\n      keccak256\n        /* \"contracts/ERC20.sol\":10744:10779  _allowances[owner][spender] = value */\n      dup2\n      swap1\n      sstore\n      pop\n        /* \"contracts/ERC20.sol\":10794:10803  emitEvent */\n      dup1\n        /* \"contracts/ERC20.sol\":10790:10868  if (emitEvent) {... */\n      iszero\n      tag_351\n      jumpi\n        /* \"contracts/ERC20.sol\":10841:10848  spender */\n      dup3\n        /* \"contracts/ERC20.sol\":10825:10856  Approval(owner, spender, value) */\n      0xffffffffffffffffffffffffffffffffffffffff\n      and\n        /* \"contracts/ERC20.sol\":10834:10839  owner */\n      dup5\n        /* \"contracts/ERC20.sol\":10825:10856  Approval(owner, spender, value) */\n      0xffffffffffffffffffffffffffffffffffffffff\n      and\n      0x8c5be1e5ebec7d5bd14f71427d1e84f3dd0314c0f7b2291e5b200ac8c7c3b925\n        /* \"contracts/ERC20.sol\":10850:10855  value */\n      dup5\n        /* \"contracts/ERC20.sol\":10825:10856  Approval(owner, spender, value) */\n      mload(0x40)\n      tag_352\n      swap2\n      swap1\n      tag_35\n      jump\t// in\n    tag_352:\n      mload(0x40)\n      dup1\n      swap2\n      sub\n      swap1\n      log3\n        /* \"contracts/ERC20.sol\":10790:10868  if (emitEvent) {... */\n    tag_351:\n        /* \"contracts/ERC20.sol\":10432:10875  function _approve(address owner, address spender, uint256 value, bool emitEvent) internal virtual {... */\n      pop\n      pop\n      pop\n      pop\n      jump\t// out\n    tag_140:\n      dup3\n      dup1\n      sload\n      dup3\n      dup3\n      sstore\n      swap1\n      0x00\n      mstore\n      keccak256(0x00, 0x20)\n      swap1\n      dup2\n      add\n      swap3\n      dup3\n      iszero\n      tag_353\n      jumpi\n      swap2\n      0x20\n      mul\n      dup3\n      add\n    tag_354:\n      dup3\n      dup2\n      gt\n      iszero\n      tag_355\n      jumpi\n      dup3\n      mload\n      dup3\n      exp(0x0100, 0x00)\n      dup2\n      sload\n      dup2\n      0xffffffffffffffffffffffffffffffffffffffff\n      mul\n      not\n      and\n      swap1\n      dup4\n      0xffffffffffffffffffffffffffffffffffffffff\n      and\n      mul\n      or\n      swap1\n      sstore\n      pop\n      swap2\n      0x20\n      add\n      swap2\n      swap1\n      0x01\n      add\n      swap1\n      jump(tag_354)\n    tag_355:\n    tag_353:\n      pop\n      swap1\n      pop\n      tag_356\n      swap2\n      swap1\n      tag_357\n      jump\t// in\n    tag_356:\n      pop\n      swap1\n      jump\t// out\n    tag_357:\n    tag_358:\n      dup1\n      dup3\n      gt\n      iszero\n      tag_359\n      jumpi\n      0x00\n      dup2\n      0x00\n      swap1\n      sstore\n      pop\n      0x01\n      add\n      jump(tag_358)\n    tag_359:\n      pop\n      swap1\n      jump\t// out\n        /* \"#utility.yul\":88:205   */\n    tag_361:\n        /* \"#utility.yul\":197:198   */\n      0x00\n        /* \"#utility.yul\":194:195   */\n      0x00\n        /* \"#utility.yul\":187:199   */\n      revert\n        /* \"#utility.yul\":334:411   */\n    tag_363:\n        /* \"#utility.yul\":371:378   */\n      0x00\n        /* \"#utility.yul\":400:405   */\n      dup2\n        /* \"#utility.yul\":389:405   */\n      swap1\n      pop\n        /* \"#utility.yul\":334:411   */\n      swap2\n      swap1\n      pop\n      jump\t// out\n        /* \"#utility.yul\":417:539   */\n    tag_364:\n        /* \"#utility.yul\":490:514   */\n      tag_416\n        /* \"#utility.yul\":508:513   */\n      dup2\n        /* \"#utility.yul\":490:514   */\n      tag_363\n      jump\t// in\n    tag_416:\n        /* \"#utility.yul\":483:488   */\n      dup2\n        /* \"#utility.yul\":480:515   */\n      eq\n        /* \"#utility.yul\":470:533   */\n      tag_417\n      jumpi\n        /* \"#utility.yul\":529:530   */\n      0x00\n        /* \"#utility.yul\":526:527   */\n      0x00\n        /* \"#utility.yul\":519:531   */\n      revert\n        /* \"#utility.yul\":470:533   */\n    tag_417:\n        /* \"#utility.yul\":417:539   */\n      pop\n      jump\t// out\n        /* \"#utility.yul\":545:684   */\n    tag_365:\n        /* \"#utility.yul\":591:596   */\n      0x00\n        /* \"#utility.yul\":629:635   */\n      dup2\n        /* \"#utility.yul\":616:636   */\n      calldataload\n        /* \"#utility.yul\":607:636   */\n      swap1\n      pop\n        /* \"#utility.yul\":645:678   */\n      tag_419\n        /* \"#utility.yul\":672:677   */\n      dup2\n        /* \"#utility.yul\":645:678   */\n      tag_364\n      jump\t// in\n    tag_419:\n        /* \"#utility.yul\":545:684   */\n      swap3\n      swap2\n      pop\n      pop\n      jump\t// out\n        /* \"#utility.yul\":690:1164   */\n    tag_32:\n        /* \"#utility.yul\":758:764   */\n      0x00\n        /* \"#utility.yul\":766:772   */\n      0x00\n        /* \"#utility.yul\":815:817   */\n      0x40\n        /* \"#utility.yul\":803:812   */\n      dup4\n        /* \"#utility.yul\":794:801   */\n      dup6\n        /* \"#utility.yul\":790:813   */\n      sub\n        /* \"#utility.yul\":786:818   */\n      slt\n        /* \"#utility.yul\":783:902   */\n      iszero\n      tag_421\n      jumpi\n        /* \"#utility.yul\":821:900   */\n      tag_422\n      tag_361\n      jump\t// in\n    tag_422:\n        /* \"#utility.yul\":783:902   */\n    tag_421:\n        /* \"#utility.yul\":941:942   */\n      0x00\n        /* \"#utility.yul\":966:1019   */\n      tag_423\n        /* \"#utility.yul\":1011:1018   */\n      dup6\n        /* \"#utility.yul\":1002:1008   */\n      dup3\n        /* \"#utility.yul\":991:1000   */\n      dup7\n        /* \"#utility.yul\":987:1009   */\n      add\n        /* \"#utility.yul\":966:1019   */\n      tag_365\n      jump\t// in\n    tag_423:\n        /* \"#utility.yul\":956:1019   */\n      swap3\n      pop\n        /* \"#utility.yul\":912:1029   */\n      pop\n        /* \"#utility.yul\":1068:1070   */\n      0x20\n        /* \"#utility.yul\":1094:1147   */\n      tag_424\n        /* \"#utility.yul\":1139:1146   */\n      dup6\n        /* \"#utility.yul\":1130:1136   */\n      dup3\n        /* \"#utility.yul\":1119:1128   */\n      dup7\n        /* \"#utility.yul\":1115:1137   */\n      add\n        /* \"#utility.yul\":1094:1147   */\n      tag_365\n      jump\t// in\n    tag_424:\n        /* \"#utility.yul\":1084:1147   */\n      swap2\n      pop\n        /* \"#utility.yul\":1039:1157   */\n      pop\n        /* \"#utility.yul\":690:1164   */\n      swap3\n      pop\n      swap3\n      swap1\n      pop\n      jump\t// out\n        /* \"#utility.yul\":1170:1288   */\n    tag_366:\n        /* \"#utility.yul\":1257:1281   */\n      tag_426\n        /* \"#utility.yul\":1275:1280   */\n      dup2\n        /* \"#utility.yul\":1257:1281   */\n      tag_363\n      jump\t// in\n    tag_426:\n        /* \"#utility.yul\":1252:1255   */\n      dup3\n        /* \"#utility.yul\":1245:1282   */\n      mstore\n        /* \"#utility.yul\":1170:1288   */\n      pop\n      pop\n      jump\t// out\n        /* \"#utility.yul\":1294:1516   */\n    tag_35:\n        /* \"#utility.yul\":1387:1391   */\n      0x00\n        /* \"#utility.yul\":1425:1427   */\n      0x20\n        /* \"#utility.yul\":1414:1423   */\n      dup3\n        /* \"#utility.yul\":1410:1428   */\n      add\n        /* \"#utility.yul\":1402:1428   */\n      swap1\n      pop\n        /* \"#utility.yul\":1438:1509   */\n      tag_428\n        /* \"#utility.yul\":1506:1507   */\n      0x00\n        /* \"#utility.yul\":1495:1504   */\n      dup4\n        /* \"#utility.yul\":1491:1508   */\n      add\n        /* \"#utility.yul\":1482:1488   */\n      dup5\n        /* \"#utility.yul\":1438:1509   */\n      tag_366\n      jump\t// in\n    tag_428:\n        /* \"#utility.yul\":1294:1516   */\n      swap3\n      swap2\n      pop\n      pop\n      jump\t// out\n        /* \"#utility.yul\":1522:1621   */\n    tag_367:\n        /* \"#utility.yul\":1574:1580   */\n      0x00\n        /* \"#utility.yul\":1608:1613   */\n      dup2\n        /* \"#utility.yul\":1602:1614   */\n      mload\n        /* \"#utility.yul\":1592:1614   */\n      swap1\n      pop\n        /* \"#utility.yul\":1522:1621   */\n      swap2\n      swap1\n      pop\n      jump\t// out\n        /* \"#utility.yul\":1627:1796   */\n    tag_368:\n        /* \"#utility.yul\":1711:1722   */\n      0x00\n        /* \"#utility.yul\":1745:1751   */\n      dup3\n        /* \"#utility.yul\":1740:1743   */\n      dup3\n        /* \"#utility.yul\":1733:1752   */\n      mstore\n        /* \"#utility.yul\":1785:1789   */\n      0x20\n        /* \"#utility.yul\":1780:1783   */\n      dup3\n        /* \"#utility.yul\":1776:1790   */\n      add\n        /* \"#utility.yul\":1761:1790   */\n      swap1\n      pop\n        /* \"#utility.yul\":1627:1796   */\n      swap3\n      swap2\n      pop\n      pop\n      jump\t// out\n        /* \"#utility.yul\":1802:1941   */\n    tag_369:\n        /* \"#utility.yul\":1891:1897   */\n      dup3\n        /* \"#utility.yul\":1886:1889   */\n      dup2\n        /* \"#utility.yul\":1881:1884   */\n      dup4\n        /* \"#utility.yul\":1875:1898   */\n      mcopy\n        /* \"#utility.yul\":1932:1933   */\n      0x00\n        /* \"#utility.yul\":1923:1929   */\n      dup4\n        /* \"#utility.yul\":1918:1921   */\n      dup4\n        /* \"#utility.yul\":1914:1930   */\n      add\n        /* \"#utility.yul\":1907:1934   */\n      mstore\n        /* \"#utility.yul\":1802:1941   */\n      pop\n      pop\n      pop\n      jump\t// out\n        /* \"#utility.yul\":1947:2049   */\n    tag_370:\n        /* \"#utility.yul\":1988:1994   */\n      0x00\n        /* \"#utility.yul\":2039:2041   */\n      0x1f\n        /* \"#utility.yul\":2035:2042   */\n      not\n        /* \"#utility.yul\":2030:2032   */\n      0x1f\n        /* \"#utility.yul\":2023:2028   */\n      dup4\n        /* \"#utility.yul\":2019:2033   */\n      add\n        /* \"#utility.yul\":2015:2043   */\n      and\n        /* \"#utility.yul\":2005:2043   */\n      swap1\n      pop\n        /* \"#utility.yul\":1947:2049   */\n      swap2\n      swap1\n      pop\n      jump\t// out\n        /* \"#utility.yul\":2055:2432   */\n    tag_371:\n        /* \"#utility.yul\":2143:2146   */\n      0x00\n        /* \"#utility.yul\":2171:2210   */\n      tag_434\n        /* \"#utility.yul\":2204:2209   */\n      dup3\n        /* \"#utility.yul\":2171:2210   */\n      tag_367\n      jump\t// in\n    tag_434:\n        /* \"#utility.yul\":2226:2297   */\n      tag_435\n        /* \"#utility.yul\":2290:2296   */\n      dup2\n        /* \"#utility.yul\":2285:2288   */\n      dup6\n        /* \"#utility.yul\":2226:2297   */\n      tag_368\n      jump\t// in\n    tag_435:\n        /* \"#utility.yul\":2219:2297   */\n      swap4\n      pop\n        /* \"#utility.yul\":2306:2371   */\n      tag_436\n        /* \"#utility.yul\":2364:2370   */\n      dup2\n        /* \"#utility.yul\":2359:2362   */\n      dup6\n        /* \"#utility.yul\":2352:2356   */\n      0x20\n        /* \"#utility.yul\":2345:2350   */\n      dup7\n        /* \"#utility.yul\":2341:2357   */\n      add\n        /* \"#utility.yul\":2306:2371   */\n      tag_369\n      jump\t// in\n    tag_436:\n        /* \"#utility.yul\":2396:2425   */\n      tag_437\n        /* \"#utility.yul\":2418:2424   */\n      dup2\n        /* \"#utility.yul\":2396:2425   */\n      tag_370\n      jump\t// in\n    tag_437:\n        /* \"#utility.yul\":2391:2394   */\n      dup5\n        /* \"#utility.yul\":2387:2426   */\n      add\n        /* \"#utility.yul\":2380:2426   */\n      swap2\n      pop\n        /* \"#utility.yul\":2147:2432   */\n      pop\n        /* \"#utility.yul\":2055:2432   */\n      swap3\n      swap2\n      pop\n      pop\n      jump\t// out\n        /* \"#utility.yul\":2438:2751   */\n    tag_39:\n        /* \"#utility.yul\":2551:2555   */\n      0x00\n        /* \"#utility.yul\":2589:2591   */\n      0x20\n        /* \"#utility.yul\":2578:2587   */\n      dup3\n        /* \"#utility.yul\":2574:2592   */\n      add\n        /* \"#utility.yul\":2566:2592   */\n      swap1\n      pop\n        /* \"#utility.yul\":2638:2647   */\n      dup2\n        /* \"#utility.yul\":2632:2636   */\n      dup2\n        /* \"#utility.yul\":2628:2648   */\n      sub\n        /* \"#utility.yul\":2624:2625   */\n      0x00\n        /* \"#utility.yul\":2613:2622   */\n      dup4\n        /* \"#utility.yul\":2609:2626   */\n      add\n        /* \"#utility.yul\":2602:2649   */\n      mstore\n        /* \"#utility.yul\":2666:2744   */\n      tag_439\n        /* \"#utility.yul\":2739:2743   */\n      dup2\n        /* \"#utility.yul\":2730:2736   */\n      dup5\n        /* \"#utility.yul\":2666:2744   */\n      tag_371\n      jump\t// in\n    tag_439:\n        /* \"#utility.yul\":2658:2744   */\n      swap1\n      pop\n        /* \"#utility.yul\":2438:2751   */\n      swap3\n      swap2\n      pop\n      pop\n      jump\t// out\n        /* \"#utility.yul\":2757:2883   */\n    tag_372:\n        /* \"#utility.yul\":2794:2801   */\n      0x00\n        /* \"#utility.yul\":2834:2876   */\n      0xffffffffffffffffffffffffffffffffffffffff\n        /* \"#utility.yul\":2827:2832   */\n      dup3\n        /* \"#utility.yul\":2823:2877   */\n      and\n        /* \"#utility.yul\":2812:2877   */\n      swap1\n      pop\n        /* \"#utility.yul\":2757:2883   */\n      swap2\n      swap1\n      pop\n      jump\t// out\n        /* \"#utility.yul\":2889:2985   */\n    tag_373:\n        /* \"#utility.yul\":2926:2933   */\n      0x00\n        /* \"#utility.yul\":2955:2979   */\n      tag_442\n        /* \"#utility.yul\":2973:2978   */\n      dup3\n        /* \"#utility.yul\":2955:2979   */\n      tag_372\n      jump\t// in\n    tag_442:\n        /* \"#utility.yul\":2944:2979   */\n      swap1\n      pop\n        /* \"#utility.yul\":2889:2985   */\n      swap2\n      swap1\n      pop\n      jump\t// out\n        /* \"#utility.yul\":2991:3113   */\n    tag_374:\n        /* \"#utility.yul\":3064:3088   */\n      tag_444\n        /* \"#utility.yul\":3082:3087   */\n      dup2\n        /* \"#utility.yul\":3064:3088   */\n      tag_373\n      jump\t// in\n    tag_444:\n        /* \"#utility.yul\":3057:3062   */\n      dup2\n        /* \"#utility.yul\":3054:3089   */\n      eq\n        /* \"#utility.yul\":3044:3107   */\n      tag_445\n      jumpi\n        /* \"#utility.yul\":3103:3104   */\n      0x00\n        /* \"#utility.yul\":3100:3101   */\n      0x00\n        /* \"#utility.yul\":3093:3105   */\n      revert\n        /* \"#utility.yul\":3044:3107   */\n    tag_445:\n        /* \"#utility.yul\":2991:3113   */\n      pop\n      jump\t// out\n        /* \"#utility.yul\":3119:3258   */\n    tag_375:\n        /* \"#utility.yul\":3165:3170   */\n      0x00\n        /* \"#utility.yul\":3203:3209   */\n      dup2\n        /* \"#utility.yul\":3190:3210   */\n      calldataload\n        /* \"#utility.yul\":3181:3210   */\n      swap1\n      pop\n        /* \"#utility.yul\":3219:3252   */\n      tag_447\n        /* \"#utility.yul\":3246:3251   */\n      dup2\n        /* \"#utility.yul\":3219:3252   */\n      tag_374\n      jump\t// in\n    tag_447:\n        /* \"#utility.yul\":3119:3258   */\n      swap3\n      swap2\n      pop\n      pop\n      jump\t// out\n        /* \"#utility.yul\":3264:3738   */\n    tag_42:\n        /* \"#utility.yul\":3332:3338   */\n      0x00\n        /* \"#utility.yul\":3340:3346   */\n      0x00\n        /* \"#utility.yul\":3389:3391   */\n      0x40\n        /* \"#utility.yul\":3377:3386   */\n      dup4\n        /* \"#utility.yul\":3368:3375   */\n      dup6\n        /* \"#utility.yul\":3364:3387   */\n      sub\n        /* \"#utility.yul\":3360:3392   */\n      slt\n        /* \"#utility.yul\":3357:3476   */\n      iszero\n      tag_449\n      jumpi\n        /* \"#utility.yul\":3395:3474   */\n      tag_450\n      tag_361\n      jump\t// in\n    tag_450:\n        /* \"#utility.yul\":3357:3476   */\n    tag_449:\n        /* \"#utility.yul\":3515:3516   */\n      0x00\n        /* \"#utility.yul\":3540:3593   */\n      tag_451\n        /* \"#utility.yul\":3585:3592   */\n      dup6\n        /* \"#utility.yul\":3576:3582   */\n      dup3\n        /* \"#utility.yul\":3565:3574   */\n      dup7\n        /* \"#utility.yul\":3561:3583   */\n      add\n        /* \"#utility.yul\":3540:3593   */\n      tag_375\n      jump\t// in\n    tag_451:\n        /* \"#utility.yul\":3530:3593   */\n      swap3\n      pop\n        /* \"#utility.yul\":3486:3603   */\n      pop\n        /* \"#utility.yul\":3642:3644   */\n      0x20\n        /* \"#utility.yul\":3668:3721   */\n      tag_452\n        /* \"#utility.yul\":3713:3720   */\n      dup6\n        /* \"#utility.yul\":3704:3710   */\n      dup3\n        /* \"#utility.yul\":3693:3702   */\n      dup7\n        /* \"#utility.yul\":3689:3711   */\n      add\n        /* \"#utility.yul\":3668:3721   */\n      tag_365\n      jump\t// in\n    tag_452:\n        /* \"#utility.yul\":3658:3721   */\n      swap2\n      pop\n        /* \"#utility.yul\":3613:3731   */\n      pop\n        /* \"#utility.yul\":3264:3738   */\n      swap3\n      pop\n      swap3\n      swap1\n      pop\n      jump\t// out\n        /* \"#utility.yul\":3744:3834   */\n    tag_376:\n        /* \"#utility.yul\":3778:3785   */\n      0x00\n        /* \"#utility.yul\":3821:3826   */\n      dup2\n        /* \"#utility.yul\":3814:3827   */\n      iszero\n        /* \"#utility.yul\":3807:3828   */\n      iszero\n        /* \"#utility.yul\":3796:3828   */\n      swap1\n      pop\n        /* \"#utility.yul\":3744:3834   */\n      swap2\n      swap1\n      pop\n      jump\t// out\n        /* \"#utility.yul\":3840:3949   */\n    tag_377:\n        /* \"#utility.yul\":3921:3942   */\n      tag_455\n        /* \"#utility.yul\":3936:3941   */\n      dup2\n        /* \"#utility.yul\":3921:3942   */\n      tag_376\n      jump\t// in\n    tag_455:\n        /* \"#utility.yul\":3916:3919   */\n      dup3\n        /* \"#utility.yul\":3909:3943   */\n      mstore\n        /* \"#utility.yul\":3840:3949   */\n      pop\n      pop\n      jump\t// out\n        /* \"#utility.yul\":3955:4165   */\n    tag_45:\n        /* \"#utility.yul\":4042:4046   */\n      0x00\n        /* \"#utility.yul\":4080:4082   */\n      0x20\n        /* \"#utility.yul\":4069:4078   */\n      dup3\n        /* \"#utility.yul\":4065:4083   */\n      add\n        /* \"#utility.yul\":4057:4083   */\n      swap1\n      pop\n        /* \"#utility.yul\":4093:4158   */\n      tag_457\n        /* \"#utility.yul\":4155:4156   */\n      0x00\n        /* \"#utility.yul\":4144:4153   */\n      dup4\n        /* \"#utility.yul\":4140:4157   */\n      add\n        /* \"#utility.yul\":4131:4137   */\n      dup5\n        /* \"#utility.yul\":4093:4158   */\n      tag_377\n      jump\t// in\n    tag_457:\n        /* \"#utility.yul\":3955:4165   */\n      swap3\n      swap2\n      pop\n      pop\n      jump\t// out\n        /* \"#utility.yul\":4171:4500   */\n    tag_48:\n        /* \"#utility.yul\":4230:4236   */\n      0x00\n        /* \"#utility.yul\":4279:4281   */\n      0x20\n        /* \"#utility.yul\":4267:4276   */\n      dup3\n        /* \"#utility.yul\":4258:4265   */\n      dup5\n        /* \"#utility.yul\":4254:4277   */\n      sub\n        /* \"#utility.yul\":4250:4282   */\n      slt\n        /* \"#utility.yul\":4247:4366   */\n      iszero\n      tag_459\n      jumpi\n        /* \"#utility.yul\":4285:4364   */\n      tag_460\n      tag_361\n      jump\t// in\n    tag_460:\n        /* \"#utility.yul\":4247:4366   */\n    tag_459:\n        /* \"#utility.yul\":4405:4406   */\n      0x00\n        /* \"#utility.yul\":4430:4483   */\n      tag_461\n        /* \"#utility.yul\":4475:4482   */\n      dup5\n        /* \"#utility.yul\":4466:4472   */\n      dup3\n        /* \"#utility.yul\":4455:4464   */\n      dup6\n        /* \"#utility.yul\":4451:4473   */\n      add\n        /* \"#utility.yul\":4430:4483   */\n      tag_365\n      jump\t// in\n    tag_461:\n        /* \"#utility.yul\":4420:4483   */\n      swap2\n      pop\n        /* \"#utility.yul\":4376:4493   */\n      pop\n        /* \"#utility.yul\":4171:4500   */\n      swap3\n      swap2\n      pop\n      pop\n      jump\t// out\n        /* \"#utility.yul\":4506:4624   */\n    tag_378:\n        /* \"#utility.yul\":4593:4617   */\n      tag_463\n        /* \"#utility.yul\":4611:4616   */\n      dup2\n        /* \"#utility.yul\":4593:4617   */\n      tag_373\n      jump\t// in\n    tag_463:\n        /* \"#utility.yul\":4588:4591   */\n      dup3\n        /* \"#utility.yul\":4581:4618   */\n      mstore\n        /* \"#utility.yul\":4506:4624   */\n      pop\n      pop\n      jump\t// out\n        /* \"#utility.yul\":4630:4810   */\n    tag_138:\n        /* \"#utility.yul\":4678:4755   */\n      0x4e487b7100000000000000000000000000000000000000000000000000000000\n        /* \"#utility.yul\":4675:4676   */\n      0x00\n        /* \"#utility.yul\":4668:4756   */\n      mstore\n        /* \"#utility.yul\":4775:4779   */\n      0x21\n        /* \"#utility.yul\":4772:4773   */\n      0x04\n        /* \"#utility.yul\":4765:4780   */\n      mstore\n        /* \"#utility.yul\":4799:4803   */\n      0x24\n        /* \"#utility.yul\":4796:4797   */\n      0x00\n        /* \"#utility.yul\":4789:4804   */\n      revert\n        /* \"#utility.yul\":4816:4931   */\n    tag_379:\n        /* \"#utility.yul\":4899:4900   */\n      0x04\n        /* \"#utility.yul\":4892:4897   */\n      dup2\n        /* \"#utility.yul\":4889:4901   */\n      lt\n        /* \"#utility.yul\":4879:4925   */\n      tag_466\n      jumpi\n        /* \"#utility.yul\":4905:4923   */\n      tag_467\n      tag_138\n      jump\t// in\n    tag_467:\n        /* \"#utility.yul\":4879:4925   */\n    tag_466:\n        /* \"#utility.yul\":4816:4931   */\n      pop\n      jump\t// out\n        /* \"#utility.yul\":4937:5068   */\n    tag_380:\n        /* \"#utility.yul\":4984:4991   */\n      0x00\n        /* \"#utility.yul\":5013:5018   */\n      dup2\n        /* \"#utility.yul\":5002:5018   */\n      swap1\n      pop\n        /* \"#utility.yul\":5019:5062   */\n      tag_469\n        /* \"#utility.yul\":5056:5061   */\n      dup3\n        /* \"#utility.yul\":5019:5062   */\n      tag_379\n      jump\t// in\n    tag_469:\n        /* \"#utility.yul\":4937:5068   */\n      swap2\n      swap1\n      pop\n      jump\t// out\n        /* \"#utility.yul\":5074:5205   */\n    tag_381:\n        /* \"#utility.yul\":5132:5141   */\n      0x00\n        /* \"#utility.yul\":5165:5199   */\n      tag_471\n        /* \"#utility.yul\":5193:5198   */\n      dup3\n        /* \"#utility.yul\":5165:5199   */\n      tag_380\n      jump\t// in\n    tag_471:\n        /* \"#utility.yul\":5152:5199   */\n      swap1\n      pop\n        /* \"#utility.yul\":5074:5205   */\n      swap2\n      swap1\n      pop\n      jump\t// out\n        /* \"#utility.yul\":5211:5358   */\n    tag_382:\n        /* \"#utility.yul\":5306:5351   */\n      tag_473\n        /* \"#utility.yul\":5345:5350   */\n      dup2\n        /* \"#utility.yul\":5306:5351   */\n      tag_381\n      jump\t// in\n    tag_473:\n        /* \"#utility.yul\":5301:5304   */\n      dup3\n        /* \"#utility.yul\":5294:5352   */\n      mstore\n        /* \"#utility.yul\":5211:5358   */\n      pop\n      pop\n      jump\t// out\n        /* \"#utility.yul\":5364:6266   */\n    tag_51:\n        /* \"#utility.yul\":5633:5637   */\n      0x00\n        /* \"#utility.yul\":5671:5674   */\n      0xe0\n        /* \"#utility.yul\":5660:5669   */\n      dup3\n        /* \"#utility.yul\":5656:5675   */\n      add\n        /* \"#utility.yul\":5648:5675   */\n      swap1\n      pop\n        /* \"#utility.yul\":5685:5756   */\n      tag_475\n        /* \"#utility.yul\":5753:5754   */\n      0x00\n        /* \"#utility.yul\":5742:5751   */\n      dup4\n        /* \"#utility.yul\":5738:5755   */\n      add\n        /* \"#utility.yul\":5729:5735   */\n      dup11\n        /* \"#utility.yul\":5685:5756   */\n      tag_366\n      jump\t// in\n    tag_475:\n        /* \"#utility.yul\":5766:5838   */\n      tag_476\n        /* \"#utility.yul\":5834:5836   */\n      0x20\n        /* \"#utility.yul\":5823:5832   */\n      dup4\n        /* \"#utility.yul\":5819:5837   */\n      add\n        /* \"#utility.yul\":5810:5816   */\n      dup10\n        /* \"#utility.yul\":5766:5838   */\n      tag_366\n      jump\t// in\n    tag_476:\n        /* \"#utility.yul\":5848:5920   */\n      tag_477\n        /* \"#utility.yul\":5916:5918   */\n      0x40\n        /* \"#utility.yul\":5905:5914   */\n      dup4\n        /* \"#utility.yul\":5901:5919   */\n      add\n        /* \"#utility.yul\":5892:5898   */\n      dup9\n        /* \"#utility.yul\":5848:5920   */\n      tag_366\n      jump\t// in\n    tag_477:\n        /* \"#utility.yul\":5930:6002   */\n      tag_478\n        /* \"#utility.yul\":5998:6000   */\n      0x60\n        /* \"#utility.yul\":5987:5996   */\n      dup4\n        /* \"#utility.yul\":5983:6001   */\n      add\n        /* \"#utility.yul\":5974:5980   */\n      dup8\n        /* \"#utility.yul\":5930:6002   */\n      tag_366\n      jump\t// in\n    tag_478:\n        /* \"#utility.yul\":6012:6085   */\n      tag_479\n        /* \"#utility.yul\":6080:6083   */\n      0x80\n        /* \"#utility.yul\":6069:6078   */\n      dup4\n        /* \"#utility.yul\":6065:6084   */\n      add\n        /* \"#utility.yul\":6056:6062   */\n      dup7\n        /* \"#utility.yul\":6012:6085   */\n      tag_378\n      jump\t// in\n    tag_479:\n        /* \"#utility.yul\":6095:6168   */\n      tag_480\n        /* \"#utility.yul\":6163:6166   */\n      0xa0\n        /* \"#utility.yul\":6152:6161   */\n      dup4\n        /* \"#utility.yul\":6148:6167   */\n      add\n        /* \"#utility.yul\":6139:6145   */\n      dup6\n        /* \"#utility.yul\":6095:6168   */\n      tag_366\n      jump\t// in\n    tag_480:\n        /* \"#utility.yul\":6178:6259   */\n      tag_481\n        /* \"#utility.yul\":6254:6257   */\n      0xc0\n        /* \"#utility.yul\":6243:6252   */\n      dup4\n        /* \"#utility.yul\":6239:6258   */\n      add\n        /* \"#utility.yul\":6230:6236   */\n      dup5\n        /* \"#utility.yul\":6178:6259   */\n      tag_382\n      jump\t// in\n    tag_481:\n        /* \"#utility.yul\":5364:6266   */\n      swap9\n      swap8\n      pop\n      pop\n      pop\n      pop\n      pop\n      pop\n      pop\n      pop\n      jump\t// out\n        /* \"#utility.yul\":6272:6601   */\n    tag_57:\n        /* \"#utility.yul\":6331:6337   */\n      0x00\n        /* \"#utility.yul\":6380:6382   */\n      0x20\n        /* \"#utility.yul\":6368:6377   */\n      dup3\n        /* \"#utility.yul\":6359:6366   */\n      dup5\n        /* \"#utility.yul\":6355:6378   */\n      sub\n        /* \"#utility.yul\":6351:6383   */\n      slt\n        /* \"#utility.yul\":6348:6467   */\n      iszero\n      tag_483\n      jumpi\n        /* \"#utility.yul\":6386:6465   */\n      tag_484\n      tag_361\n      jump\t// in\n    tag_484:\n        /* \"#utility.yul\":6348:6467   */\n    tag_483:\n        /* \"#utility.yul\":6506:6507   */\n      0x00\n        /* \"#utility.yul\":6531:6584   */\n      tag_485\n        /* \"#utility.yul\":6576:6583   */\n      dup5\n        /* \"#utility.yul\":6567:6573   */\n      dup3\n        /* \"#utility.yul\":6556:6565   */\n      dup6\n        /* \"#utility.yul\":6552:6574   */\n      add\n        /* \"#utility.yul\":6531:6584   */\n      tag_375\n      jump\t// in\n    tag_485:\n        /* \"#utility.yul\":6521:6584   */\n      swap2\n      pop\n        /* \"#utility.yul\":6477:6594   */\n      pop\n        /* \"#utility.yul\":6272:6601   */\n      swap3\n      swap2\n      pop\n      pop\n      jump\t// out\n        /* \"#utility.yul\":6607:7226   */\n    tag_62:\n        /* \"#utility.yul\":6684:6690   */\n      0x00\n        /* \"#utility.yul\":6692:6698   */\n      0x00\n        /* \"#utility.yul\":6700:6706   */\n      0x00\n        /* \"#utility.yul\":6749:6751   */\n      0x60\n        /* \"#utility.yul\":6737:6746   */\n      dup5\n        /* \"#utility.yul\":6728:6735   */\n      dup7\n        /* \"#utility.yul\":6724:6747   */\n      sub\n        /* \"#utility.yul\":6720:6752   */\n      slt\n        /* \"#utility.yul\":6717:6836   */\n      iszero\n      tag_487\n      jumpi\n        /* \"#utility.yul\":6755:6834   */\n      tag_488\n      tag_361\n      jump\t// in\n    tag_488:\n        /* \"#utility.yul\":6717:6836   */\n    tag_487:\n        /* \"#utility.yul\":6875:6876   */\n      0x00\n        /* \"#utility.yul\":6900:6953   */\n      tag_489\n        /* \"#utility.yul\":6945:6952   */\n      dup7\n        /* \"#utility.yul\":6936:6942   */\n      dup3\n        /* \"#utility.yul\":6925:6934   */\n      dup8\n        /* \"#utility.yul\":6921:6943   */\n      add\n        /* \"#utility.yul\":6900:6953   */\n      tag_375\n      jump\t// in\n    tag_489:\n        /* \"#utility.yul\":6890:6953   */\n      swap4\n      pop\n        /* \"#utility.yul\":6846:6963   */\n      pop\n        /* \"#utility.yul\":7002:7004   */\n      0x20\n        /* \"#utility.yul\":7028:7081   */\n      tag_490\n        /* \"#utility.yul\":7073:7080   */\n      dup7\n        /* \"#utility.yul\":7064:7070   */\n      dup3\n        /* \"#utility.yul\":7053:7062   */\n      dup8\n        /* \"#utility.yul\":7049:7071   */\n      add\n        /* \"#utility.yul\":7028:7081   */\n      tag_375\n      jump\t// in\n    tag_490:\n        /* \"#utility.yul\":7018:7081   */\n      swap3\n      pop\n        /* \"#utility.yul\":6973:7091   */\n      pop\n        /* \"#utility.yul\":7130:7132   */\n      0x40\n        /* \"#utility.yul\":7156:7209   */\n      tag_491\n        /* \"#utility.yul\":7201:7208   */\n      dup7\n        /* \"#utility.yul\":7192:7198   */\n      dup3\n        /* \"#utility.yul\":7181:7190   */\n      dup8\n        /* \"#utility.yul\":7177:7199   */\n      add\n        /* \"#utility.yul\":7156:7209   */\n      tag_365\n      jump\t// in\n    tag_491:\n        /* \"#utility.yul\":7146:7209   */\n      swap2\n      pop\n        /* \"#utility.yul\":7101:7219   */\n      pop\n        /* \"#utility.yul\":6607:7226   */\n      swap3\n      pop\n      swap3\n      pop\n      swap3\n      jump\t// out\n        /* \"#utility.yul\":7232:7318   */\n    tag_383:\n        /* \"#utility.yul\":7267:7274   */\n      0x00\n        /* \"#utility.yul\":7307:7311   */\n      0xff\n        /* \"#utility.yul\":7300:7305   */\n      dup3\n        /* \"#utility.yul\":7296:7312   */\n      and\n        /* \"#utility.yul\":7285:7312   */\n      swap1\n      pop\n        /* \"#utility.yul\":7232:7318   */\n      swap2\n      swap1\n      pop\n      jump\t// out\n        /* \"#utility.yul\":7324:7436   */\n    tag_384:\n        /* \"#utility.yul\":7407:7429   */\n      tag_494\n        /* \"#utility.yul\":7423:7428   */\n      dup2\n        /* \"#utility.yul\":7407:7429   */\n      tag_383\n      jump\t// in\n    tag_494:\n        /* \"#utility.yul\":7402:7405   */\n      dup3\n        /* \"#utility.yul\":7395:7430   */\n      mstore\n        /* \"#utility.yul\":7324:7436   */\n      pop\n      pop\n      jump\t// out\n        /* \"#utility.yul\":7442:7656   */\n    tag_68:\n        /* \"#utility.yul\":7531:7535   */\n      0x00\n        /* \"#utility.yul\":7569:7571   */\n      0x20\n        /* \"#utility.yul\":7558:7567   */\n      dup3\n        /* \"#utility.yul\":7554:7572   */\n      add\n        /* \"#utility.yul\":7546:7572   */\n      swap1\n      pop\n        /* \"#utility.yul\":7582:7649   */\n      tag_496\n        /* \"#utility.yul\":7646:7647   */\n      0x00\n        /* \"#utility.yul\":7635:7644   */\n      dup4\n        /* \"#utility.yul\":7631:7648   */\n      add\n        /* \"#utility.yul\":7622:7628   */\n      dup5\n        /* \"#utility.yul\":7582:7649   */\n      tag_384\n      jump\t// in\n    tag_496:\n        /* \"#utility.yul\":7442:7656   */\n      swap3\n      swap2\n      pop\n      pop\n      jump\t// out\n        /* \"#utility.yul\":7662:8136   */\n    tag_88:\n        /* \"#utility.yul\":7730:7736   */\n      0x00\n        /* \"#utility.yul\":7738:7744   */\n      0x00\n        /* \"#utility.yul\":7787:7789   */\n      0x40\n        /* \"#utility.yul\":7775:7784   */\n      dup4\n        /* \"#utility.yul\":7766:7773   */\n      dup6\n        /* \"#utility.yul\":7762:7785   */\n      sub\n        /* \"#utility.yul\":7758:7790   */\n      slt\n        /* \"#utility.yul\":7755:7874   */\n      iszero\n      tag_498\n      jumpi\n        /* \"#utility.yul\":7793:7872   */\n      tag_499\n      tag_361\n      jump\t// in\n    tag_499:\n        /* \"#utility.yul\":7755:7874   */\n    tag_498:\n        /* \"#utility.yul\":7913:7914   */\n      0x00\n        /* \"#utility.yul\":7938:7991   */\n      tag_500\n        /* \"#utility.yul\":7983:7990   */\n      dup6\n        /* \"#utility.yul\":7974:7980   */\n      dup3\n        /* \"#utility.yul\":7963:7972   */\n      dup7\n        /* \"#utility.yul\":7959:7981   */\n      add\n        /* \"#utility.yul\":7938:7991   */\n      tag_365\n      jump\t// in\n    tag_500:\n        /* \"#utility.yul\":7928:7991   */\n      swap3\n      pop\n        /* \"#utility.yul\":7884:8001   */\n      pop\n        /* \"#utility.yul\":8040:8042   */\n      0x20\n        /* \"#utility.yul\":8066:8119   */\n      tag_501\n        /* \"#utility.yul\":8111:8118   */\n      dup6\n        /* \"#utility.yul\":8102:8108   */\n      dup3\n        /* \"#utility.yul\":8091:8100   */\n      dup7\n        /* \"#utility.yul\":8087:8109   */\n      add\n        /* \"#utility.yul\":8066:8119   */\n      tag_375\n      jump\t// in\n    tag_501:\n        /* \"#utility.yul\":8056:8119   */\n      swap2\n      pop\n        /* \"#utility.yul\":8011:8129   */\n      pop\n        /* \"#utility.yul\":7662:8136   */\n      swap3\n      pop\n      swap3\n      swap1\n      pop\n      jump\t// out\n        /* \"#utility.yul\":8142:8616   */\n    tag_114:\n        /* \"#utility.yul\":8210:8216   */\n      0x00\n        /* \"#utility.yul\":8218:8224   */\n      0x00\n        /* \"#utility.yul\":8267:8269   */\n      0x40\n        /* \"#utility.yul\":8255:8264   */\n      dup4\n        /* \"#utility.yul\":8246:8253   */\n      dup6\n        /* \"#utility.yul\":8242:8265   */\n      sub\n        /* \"#utility.yul\":8238:8270   */\n      slt\n        /* \"#utility.yul\":8235:8354   */\n      iszero\n      tag_503\n      jumpi\n        /* \"#utility.yul\":8273:8352   */\n      tag_504\n      tag_361\n      jump\t// in\n    tag_504:\n        /* \"#utility.yul\":8235:8354   */\n    tag_503:\n        /* \"#utility.yul\":8393:8394   */\n      0x00\n        /* \"#utility.yul\":8418:8471   */\n      tag_505\n        /* \"#utility.yul\":8463:8470   */\n      dup6\n        /* \"#utility.yul\":8454:8460   */\n      dup3\n        /* \"#utility.yul\":8443:8452   */\n      dup7\n        /* \"#utility.yul\":8439:8461   */\n      add\n        /* \"#utility.yul\":8418:8471   */\n      tag_375\n      jump\t// in\n    tag_505:\n        /* \"#utility.yul\":8408:8471   */\n      swap3\n      pop\n        /* \"#utility.yul\":8364:8481   */\n      pop\n        /* \"#utility.yul\":8520:8522   */\n      0x20\n        /* \"#utility.yul\":8546:8599   */\n      tag_506\n        /* \"#utility.yul\":8591:8598   */\n      dup6\n        /* \"#utility.yul\":8582:8588   */\n      dup3\n        /* \"#utility.yul\":8571:8580   */\n      dup7\n        /* \"#utility.yul\":8567:8589   */\n      add\n        /* \"#utility.yul\":8546:8599   */\n      tag_375\n      jump\t// in\n    tag_506:\n        /* \"#utility.yul\":8536:8599   */\n      swap2\n      pop\n        /* \"#utility.yul\":8491:8609   */\n      pop\n        /* \"#utility.yul\":8142:8616   */\n      swap3\n      pop\n      swap3\n      swap1\n      pop\n      jump\t// out\n        /* \"#utility.yul\":8622:8844   */\n    tag_123:\n        /* \"#utility.yul\":8715:8719   */\n      0x00\n        /* \"#utility.yul\":8753:8755   */\n      0x20\n        /* \"#utility.yul\":8742:8751   */\n      dup3\n        /* \"#utility.yul\":8738:8756   */\n      add\n        /* \"#utility.yul\":8730:8756   */\n      swap1\n      pop\n        /* \"#utility.yul\":8766:8837   */\n      tag_508\n        /* \"#utility.yul\":8834:8835   */\n      0x00\n        /* \"#utility.yul\":8823:8832   */\n      dup4\n        /* \"#utility.yul\":8819:8836   */\n      add\n        /* \"#utility.yul\":8810:8816   */\n      dup5\n        /* \"#utility.yul\":8766:8837   */\n      tag_378\n      jump\t// in\n    tag_508:\n        /* \"#utility.yul\":8622:8844   */\n      swap3\n      swap2\n      pop\n      pop\n      jump\t// out\n        /* \"#utility.yul\":8850:9021   */\n    tag_385:\n        /* \"#utility.yul\":8990:9013   */\n      0x41646d696e2063616e2774206265206120757365720000000000000000000000\n        /* \"#utility.yul\":8986:8987   */\n      0x00\n        /* \"#utility.yul\":8978:8984   */\n      dup3\n        /* \"#utility.yul\":8974:8988   */\n      add\n        /* \"#utility.yul\":8967:9014   */\n      mstore\n        /* \"#utility.yul\":8850:9021   */\n      pop\n      jump\t// out\n        /* \"#utility.yul\":9027:9393   */\n    tag_386:\n        /* \"#utility.yul\":9169:9172   */\n      0x00\n        /* \"#utility.yul\":9190:9257   */\n      tag_511\n        /* \"#utility.yul\":9254:9256   */\n      0x15\n        /* \"#utility.yul\":9249:9252   */\n      dup4\n        /* \"#utility.yul\":9190:9257   */\n      tag_368\n      jump\t// in\n    tag_511:\n        /* \"#utility.yul\":9183:9257   */\n      swap2\n      pop\n        /* \"#utility.yul\":9266:9359   */\n      tag_512\n        /* \"#utility.yul\":9355:9358   */\n      dup3\n        /* \"#utility.yul\":9266:9359   */\n      tag_385\n      jump\t// in\n    tag_512:\n        /* \"#utility.yul\":9384:9386   */\n      0x20\n        /* \"#utility.yul\":9379:9382   */\n      dup3\n        /* \"#utility.yul\":9375:9387   */\n      add\n        /* \"#utility.yul\":9368:9387   */\n      swap1\n      pop\n        /* \"#utility.yul\":9027:9393   */\n      swap2\n      swap1\n      pop\n      jump\t// out\n        /* \"#utility.yul\":9399:9818   */\n    tag_127:\n        /* \"#utility.yul\":9565:9569   */\n      0x00\n        /* \"#utility.yul\":9603:9605   */\n      0x20\n        /* \"#utility.yul\":9592:9601   */\n      dup3\n        /* \"#utility.yul\":9588:9606   */\n      add\n        /* \"#utility.yul\":9580:9606   */\n      swap1\n      pop\n        /* \"#utility.yul\":9652:9661   */\n      dup2\n        /* \"#utility.yul\":9646:9650   */\n      dup2\n        /* \"#utility.yul\":9642:9662   */\n      sub\n        /* \"#utility.yul\":9638:9639   */\n      0x00\n        /* \"#utility.yul\":9627:9636   */\n      dup4\n        /* \"#utility.yul\":9623:9640   */\n      add\n        /* \"#utility.yul\":9616:9663   */\n      mstore\n        /* \"#utility.yul\":9680:9811   */\n      tag_514\n        /* \"#utility.yul\":9806:9810   */\n      dup2\n        /* \"#utility.yul\":9680:9811   */\n      tag_386\n      jump\t// in\n    tag_514:\n        /* \"#utility.yul\":9672:9811   */\n      swap1\n      pop\n        /* \"#utility.yul\":9399:9818   */\n      swap2\n      swap1\n      pop\n      jump\t// out\n        /* \"#utility.yul\":9824:9992   */\n    tag_387:\n        /* \"#utility.yul\":9964:9984   */\n      0x55736572206e6f74207265676973747265640000000000000000000000000000\n        /* \"#utility.yul\":9960:9961   */\n      0x00\n        /* \"#utility.yul\":9952:9958   */\n      dup3\n        /* \"#utility.yul\":9948:9962   */\n      add\n        /* \"#utility.yul\":9941:9985   */\n      mstore\n        /* \"#utility.yul\":9824:9992   */\n      pop\n      jump\t// out\n        /* \"#utility.yul\":9998:10364   */\n    tag_388:\n        /* \"#utility.yul\":10140:10143   */\n      0x00\n        /* \"#utility.yul\":10161:10228   */\n      tag_517\n        /* \"#utility.yul\":10225:10227   */\n      0x12\n        /* \"#utility.yul\":10220:10223   */\n      dup4\n        /* \"#utility.yul\":10161:10228   */\n      tag_368\n      jump\t// in\n    tag_517:\n        /* \"#utility.yul\":10154:10228   */\n      swap2\n      pop\n        /* \"#utility.yul\":10237:10330   */\n      tag_518\n        /* \"#utility.yul\":10326:10329   */\n      dup3\n        /* \"#utility.yul\":10237:10330   */\n      tag_387\n      jump\t// in\n    tag_518:\n        /* \"#utility.yul\":10355:10357   */\n      0x20\n        /* \"#utility.yul\":10350:10353   */\n      dup3\n        /* \"#utility.yul\":10346:10358   */\n      add\n        /* \"#utility.yul\":10339:10358   */\n      swap1\n      pop\n        /* \"#utility.yul\":9998:10364   */\n      swap2\n      swap1\n      pop\n      jump\t// out\n        /* \"#utility.yul\":10370:10789   */\n    tag_131:\n        /* \"#utility.yul\":10536:10540   */\n      0x00\n        /* \"#utility.yul\":10574:10576   */\n      0x20\n        /* \"#utility.yul\":10563:10572   */\n      dup3\n        /* \"#utility.yul\":10559:10577   */\n      add\n        /* \"#utility.yul\":10551:10577   */\n      swap1\n      pop\n        /* \"#utility.yul\":10623:10632   */\n      dup2\n        /* \"#utility.yul\":10617:10621   */\n      dup2\n        /* \"#utility.yul\":10613:10633   */\n      sub\n        /* \"#utility.yul\":10609:10610   */\n      0x00\n        /* \"#utility.yul\":10598:10607   */\n      dup4\n        /* \"#utility.yul\":10594:10611   */\n      add\n        /* \"#utility.yul\":10587:10634   */\n      mstore\n        /* \"#utility.yul\":10651:10782   */\n      tag_520\n        /* \"#utility.yul\":10777:10781   */\n      dup2\n        /* \"#utility.yul\":10651:10782   */\n      tag_388\n      jump\t// in\n    tag_520:\n        /* \"#utility.yul\":10643:10782   */\n      swap1\n      pop\n        /* \"#utility.yul\":10370:10789   */\n      swap2\n      swap1\n      pop\n      jump\t// out\n        /* \"#utility.yul\":10795:10975   */\n    tag_134:\n        /* \"#utility.yul\":10843:10920   */\n      0x4e487b7100000000000000000000000000000000000000000000000000000000\n        /* \"#utility.yul\":10840:10841   */\n      0x00\n        /* \"#utility.yul\":10833:10921   */\n      mstore\n        /* \"#utility.yul\":10940:10944   */\n      0x41\n        /* \"#utility.yul\":10937:10938   */\n      0x04\n        /* \"#utility.yul\":10930:10945   */\n      mstore\n        /* \"#utility.yul\":10964:10968   */\n      0x24\n        /* \"#utility.yul\":10961:10962   */\n      0x00\n        /* \"#utility.yul\":10954:10969   */\n      revert\n        /* \"#utility.yul\":10981:11161   */\n    tag_389:\n        /* \"#utility.yul\":11029:11106   */\n      0x4e487b7100000000000000000000000000000000000000000000000000000000\n        /* \"#utility.yul\":11026:11027   */\n      0x00\n        /* \"#utility.yul\":11019:11107   */\n      mstore\n        /* \"#utility.yul\":11126:11130   */\n      0x11\n        /* \"#utility.yul\":11123:11124   */\n      0x04\n        /* \"#utility.yul\":11116:11131   */\n      mstore\n        /* \"#utility.yul\":11150:11154   */\n      0x24\n        /* \"#utility.yul\":11147:11148   */\n      0x00\n        /* \"#utility.yul\":11140:11155   */\n      revert\n        /* \"#utility.yul\":11167:11400   */\n    tag_144:\n        /* \"#utility.yul\":11206:11209   */\n      0x00\n        /* \"#utility.yul\":11229:11253   */\n      tag_524\n        /* \"#utility.yul\":11247:11252   */\n      dup3\n        /* \"#utility.yul\":11229:11253   */\n      tag_363\n      jump\t// in\n    tag_524:\n        /* \"#utility.yul\":11220:11253   */\n      swap2\n      pop\n        /* \"#utility.yul\":11275:11341   */\n      0xffffffffffffffffffffffffffffffffffffffffffffffffffffffffffffffff\n        /* \"#utility.yul\":11268:11273   */\n      dup3\n        /* \"#utility.yul\":11265:11342   */\n      sub\n        /* \"#utility.yul\":11262:11365   */\n      tag_525\n      jumpi\n        /* \"#utility.yul\":11345:11363   */\n      tag_526\n      tag_389\n      jump\t// in\n    tag_526:\n        /* \"#utility.yul\":11262:11365   */\n    tag_525:\n        /* \"#utility.yul\":11392:11393   */\n      0x01\n        /* \"#utility.yul\":11385:11390   */\n      dup3\n        /* \"#utility.yul\":11381:11394   */\n      add\n        /* \"#utility.yul\":11374:11394   */\n      swap1\n      pop\n        /* \"#utility.yul\":11167:11400   */\n      swap2\n      swap1\n      pop\n      jump\t// out\n        /* \"#utility.yul\":11406:11586   */\n    tag_390:\n        /* \"#utility.yul\":11454:11531   */\n      0x4e487b7100000000000000000000000000000000000000000000000000000000\n        /* \"#utility.yul\":11451:11452   */\n      0x00\n        /* \"#utility.yul\":11444:11532   */\n      mstore\n        /* \"#utility.yul\":11551:11555   */\n      0x22\n        /* \"#utility.yul\":11548:11549   */\n      0x04\n        /* \"#utility.yul\":11541:11556   */\n      mstore\n        /* \"#utility.yul\":11575:11579   */\n      0x24\n        /* \"#utility.yul\":11572:11573   */\n      0x00\n        /* \"#utility.yul\":11565:11580   */\n      revert\n        /* \"#utility.yul\":11592:11912   */\n    tag_147:\n        /* \"#utility.yul\":11636:11642   */\n      0x00\n        /* \"#utility.yul\":11673:11674   */\n      0x02\n        /* \"#utility.yul\":11667:11671   */\n      dup3\n        /* \"#utility.yul\":11663:11675   */\n      div\n        /* \"#utility.yul\":11653:11675   */\n      swap1\n      pop\n        /* \"#utility.yul\":11720:11721   */\n      0x01\n        /* \"#utility.yul\":11714:11718   */\n      dup3\n        /* \"#utility.yul\":11710:11722   */\n      and\n        /* \"#utility.yul\":11741:11759   */\n      dup1\n        /* \"#utility.yul\":11731:11812   */\n      tag_529\n      jumpi\n        /* \"#utility.yul\":11797:11801   */\n      0x7f\n        /* \"#utility.yul\":11789:11795   */\n      dup3\n        /* \"#utility.yul\":11785:11802   */\n      and\n        /* \"#utility.yul\":11775:11802   */\n      swap2\n      pop\n        /* \"#utility.yul\":11731:11812   */\n    tag_529:\n        /* \"#utility.yul\":11859:11861   */\n      0x20\n        /* \"#utility.yul\":11851:11857   */\n      dup3\n        /* \"#utility.yul\":11848:11862   */\n      lt\n        /* \"#utility.yul\":11828:11846   */\n      dup2\n        /* \"#utility.yul\":11825:11863   */\n      sub\n        /* \"#utility.yul\":11822:11906   */\n      tag_530\n      jumpi\n        /* \"#utility.yul\":11878:11896   */\n      tag_531\n      tag_390\n      jump\t// in\n    tag_531:\n        /* \"#utility.yul\":11822:11906   */\n    tag_530:\n        /* \"#utility.yul\":11643:11912   */\n      pop\n        /* \"#utility.yul\":11592:11912   */\n      swap2\n      swap1\n      pop\n      jump\t// out\n        /* \"#utility.yul\":11918:12093   */\n    tag_391:\n        /* \"#utility.yul\":12058:12085   */\n      0x5573657227732062616c616e636520697320746f6f206c6f7700000000000000\n        /* \"#utility.yul\":12054:12055   */\n      0x00\n        /* \"#utility.yul\":12046:12052   */\n      dup3\n        /* \"#utility.yul\":12042:12056   */\n      add\n        /* \"#utility.yul\":12035:12086   */\n      mstore\n        /* \"#utility.yul\":11918:12093   */\n      pop\n      jump\t// out\n        /* \"#utility.yul\":12099:12465   */\n    tag_392:\n        /* \"#utility.yul\":12241:12244   */\n      0x00\n        /* \"#utility.yul\":12262:12329   */\n      tag_534\n        /* \"#utility.yul\":12326:12328   */\n      0x19\n        /* \"#utility.yul\":12321:12324   */\n      dup4\n        /* \"#utility.yul\":12262:12329   */\n      tag_368\n      jump\t// in\n    tag_534:\n        /* \"#utility.yul\":12255:12329   */\n      swap2\n      pop\n        /* \"#utility.yul\":12338:12431   */\n      tag_535\n        /* \"#utility.yul\":12427:12430   */\n      dup3\n        /* \"#utility.yul\":12338:12431   */\n      tag_391\n      jump\t// in\n    tag_535:\n        /* \"#utility.yul\":12456:12458   */\n      0x20\n        /* \"#utility.yul\":12451:12454   */\n      dup3\n        /* \"#utility.yul\":12447:12459   */\n      add\n        /* \"#utility.yul\":12440:12459   */\n      swap1\n      pop\n        /* \"#utility.yul\":12099:12465   */\n      swap2\n      swap1\n      pop\n      jump\t// out\n        /* \"#utility.yul\":12471:12890   */\n    tag_175:\n        /* \"#utility.yul\":12637:12641   */\n      0x00\n        /* \"#utility.yul\":12675:12677   */\n      0x20\n        /* \"#utility.yul\":12664:12673   */\n      dup3\n        /* \"#utility.yul\":12660:12678   */\n      add\n        /* \"#utility.yul\":12652:12678   */\n      swap1\n      pop\n        /* \"#utility.yul\":12724:12733   */\n      dup2\n        /* \"#utility.yul\":12718:12722   */\n      dup2\n        /* \"#utility.yul\":12714:12734   */\n      sub\n        /* \"#utility.yul\":12710:12711   */\n      0x00\n        /* \"#utility.yul\":12699:12708   */\n      dup4\n        /* \"#utility.yul\":12695:12712   */\n      add\n        /* \"#utility.yul\":12688:12735   */\n      mstore\n        /* \"#utility.yul\":12752:12883   */\n      tag_537\n        /* \"#utility.yul\":12878:12882   */\n      dup2\n        /* \"#utility.yul\":12752:12883   */\n      tag_392\n      jump\t// in\n    tag_537:\n        /* \"#utility.yul\":12744:12883   */\n      swap1\n      pop\n        /* \"#utility.yul\":12471:12890   */\n      swap2\n      swap1\n      pop\n      jump\t// out\n        /* \"#utility.yul\":12896:13067   */\n    tag_393:\n        /* \"#utility.yul\":13036:13059   */\n      0x50726f6a65637420646f65736e27742065786973740000000000000000000000\n        /* \"#utility.yul\":13032:13033   */\n      0x00\n        /* \"#utility.yul\":13024:13030   */\n      dup3\n        /* \"#utility.yul\":13020:13034   */\n      add\n        /* \"#utility.yul\":13013:13060   */\n      mstore\n        /* \"#utility.yul\":12896:13067   */\n      pop\n      jump\t// out\n        /* \"#utility.yul\":13073:13439   */\n    tag_394:\n        /* \"#utility.yul\":13215:13218   */\n      0x00\n        /* \"#utility.yul\":13236:13303   */\n      tag_540\n        /* \"#utility.yul\":13300:13302   */\n      0x15\n        /* \"#utility.yul\":13295:13298   */\n      dup4\n        /* \"#utility.yul\":13236:13303   */\n      tag_368\n      jump\t// in\n    tag_540:\n        /* \"#utility.yul\":13229:13303   */\n      swap2\n      pop\n        /* \"#utility.yul\":13312:13405   */\n      tag_541\n        /* \"#utility.yul\":13401:13404   */\n      dup3\n        /* \"#utility.yul\":13312:13405   */\n      tag_393\n      jump\t// in\n    tag_541:\n        /* \"#utility.yul\":13430:13432   */\n      0x20\n        /* \"#utility.yul\":13425:13428   */\n      dup3\n        /* \"#utility.yul\":13421:13433   */\n      add\n        /* \"#utility.yul\":13414:13433   */\n      swap1\n      pop\n        /* \"#utility.yul\":13073:13439   */\n      swap2\n      swap1\n      pop\n      jump\t// out\n        /* \"#utility.yul\":13445:13864   */\n    tag_178:\n        /* \"#utility.yul\":13611:13615   */\n      0x00\n        /* \"#utility.yul\":13649:13651   */\n      0x20\n        /* \"#utility.yul\":13638:13647   */\n      dup3\n        /* \"#utility.yul\":13634:13652   */\n      add\n        /* \"#utility.yul\":13626:13652   */\n      swap1\n      pop\n        /* \"#utility.yul\":13698:13707   */\n      dup2\n        /* \"#utility.yul\":13692:13696   */\n      dup2\n        /* \"#utility.yul\":13688:13708   */\n      sub\n        /* \"#utility.yul\":13684:13685   */\n      0x00\n        /* \"#utility.yul\":13673:13682   */\n      dup4\n        /* \"#utility.yul\":13669:13686   */\n      add\n        /* \"#utility.yul\":13662:13709   */\n      mstore\n        /* \"#utility.yul\":13726:13857   */\n      tag_543\n        /* \"#utility.yul\":13852:13856   */\n      dup2\n        /* \"#utility.yul\":13726:13857   */\n      tag_394\n      jump\t// in\n    tag_543:\n        /* \"#utility.yul\":13718:13857   */\n      swap1\n      pop\n        /* \"#utility.yul\":13445:13864   */\n      swap2\n      swap1\n      pop\n      jump\t// out\n        /* \"#utility.yul\":13870:14099   */\n    tag_395:\n        /* \"#utility.yul\":14010:14044   */\n      0x50726f6a65637420646f65736e27742061636365707420696e766573746d656e\n        /* \"#utility.yul\":14006:14007   */\n      0x00\n        /* \"#utility.yul\":13998:14004   */\n      dup3\n        /* \"#utility.yul\":13994:14008   */\n      add\n        /* \"#utility.yul\":13987:14045   */\n      mstore\n        /* \"#utility.yul\":14079:14091   */\n      0x747320616e796d6f726500000000000000000000000000000000000000000000\n        /* \"#utility.yul\":14074:14076   */\n      0x20\n        /* \"#utility.yul\":14066:14072   */\n      dup3\n        /* \"#utility.yul\":14062:14077   */\n      add\n        /* \"#utility.yul\":14055:14092   */\n      mstore\n        /* \"#utility.yul\":13870:14099   */\n      pop\n      jump\t// out\n        /* \"#utility.yul\":14105:14471   */\n    tag_396:\n        /* \"#utility.yul\":14247:14250   */\n      0x00\n        /* \"#utility.yul\":14268:14335   */\n      tag_546\n        /* \"#utility.yul\":14332:14334   */\n      0x2a\n        /* \"#utility.yul\":14327:14330   */\n      dup4\n        /* \"#utility.yul\":14268:14335   */\n      tag_368\n      jump\t// in\n    tag_546:\n        /* \"#utility.yul\":14261:14335   */\n      swap2\n      pop\n        /* \"#utility.yul\":14344:14437   */\n      tag_547\n        /* \"#utility.yul\":14433:14436   */\n      dup3\n        /* \"#utility.yul\":14344:14437   */\n      tag_395\n      jump\t// in\n    tag_547:\n        /* \"#utility.yul\":14462:14464   */\n      0x40\n        /* \"#utility.yul\":14457:14460   */\n      dup3\n        /* \"#utility.yul\":14453:14465   */\n      add\n        /* \"#utility.yul\":14446:14465   */\n      swap1\n      pop\n        /* \"#utility.yul\":14105:14471   */\n      swap2\n      swap1\n      pop\n      jump\t// out\n        /* \"#utility.yul\":14477:14896   */\n    tag_185:\n        /* \"#utility.yul\":14643:14647   */\n      0x00\n        /* \"#utility.yul\":14681:14683   */\n      0x20\n        /* \"#utility.yul\":14670:14679   */\n      dup3\n        /* \"#utility.yul\":14666:14684   */\n      add\n        /* \"#utility.yul\":14658:14684   */\n      swap1\n      pop\n        /* \"#utility.yul\":14730:14739   */\n      dup2\n        /* \"#utility.yul\":14724:14728   */\n      dup2\n        /* \"#utility.yul\":14720:14740   */\n      sub\n        /* \"#utility.yul\":14716:14717   */\n      0x00\n        /* \"#utility.yul\":14705:14714   */\n      dup4\n        /* \"#utility.yul\":14701:14718   */\n      add\n        /* \"#utility.yul\":14694:14741   */\n      mstore\n        /* \"#utility.yul\":14758:14889   */\n      tag_549\n        /* \"#utility.yul\":14884:14888   */\n      dup2\n        /* \"#utility.yul\":14758:14889   */\n      tag_396\n      jump\t// in\n    tag_549:\n        /* \"#utility.yul\":14750:14889   */\n      swap1\n      pop\n        /* \"#utility.yul\":14477:14896   */\n      swap2\n      swap1\n      pop\n      jump\t// out\n        /* \"#utility.yul\":14902:15079   */\n    tag_397:\n        /* \"#utility.yul\":15042:15071   */\n      0x43616e277420696e7665737420696e206f776e2070726f6a6563740000000000\n        /* \"#utility.yul\":15038:15039   */\n      0x00\n        /* \"#utility.yul\":15030:15036   */\n      dup3\n        /* \"#utility.yul\":15026:15040   */\n      add\n        /* \"#utility.yul\":15019:15072   */\n      mstore\n        /* \"#utility.yul\":14902:15079   */\n      pop\n      jump\t// out\n        /* \"#utility.yul\":15085:15451   */\n    tag_398:\n        /* \"#utility.yul\":15227:15230   */\n      0x00\n        /* \"#utility.yul\":15248:15315   */\n      tag_552\n        /* \"#utility.yul\":15312:15314   */\n      0x1b\n        /* \"#utility.yul\":15307:15310   */\n      dup4\n        /* \"#utility.yul\":15248:15315   */\n      tag_368\n      jump\t// in\n    tag_552:\n        /* \"#utility.yul\":15241:15315   */\n      swap2\n      pop\n        /* \"#utility.yul\":15324:15417   */\n      tag_553\n        /* \"#utility.yul\":15413:15416   */\n      dup3\n        /* \"#utility.yul\":15324:15417   */\n      tag_397\n      jump\t// in\n    tag_553:\n        /* \"#utility.yul\":15442:15444   */\n      0x20\n        /* \"#utility.yul\":15437:15440   */\n      dup3\n        /* \"#utility.yul\":15433:15445   */\n      add\n        /* \"#utility.yul\":15426:15445   */\n      swap1\n      pop\n        /* \"#utility.yul\":15085:15451   */\n      swap2\n      swap1\n      pop\n      jump\t// out\n        /* \"#utility.yul\":15457:15876   */\n    tag_188:\n        /* \"#utility.yul\":15623:15627   */\n      0x00\n        /* \"#utility.yul\":15661:15663   */\n      0x20\n        /* \"#utility.yul\":15650:15659   */\n      dup3\n        /* \"#utility.yul\":15646:15664   */\n      add\n        /* \"#utility.yul\":15638:15664   */\n      swap1\n      pop\n        /* \"#utility.yul\":15710:15719   */\n      dup2\n        /* \"#utility.yul\":15704:15708   */\n      dup2\n        /* \"#utility.yul\":15700:15720   */\n      sub\n        /* \"#utility.yul\":15696:15697   */\n      0x00\n        /* \"#utility.yul\":15685:15694   */\n      dup4\n        /* \"#utility.yul\":15681:15698   */\n      add\n        /* \"#utility.yul\":15674:15721   */\n      mstore\n        /* \"#utility.yul\":15738:15869   */\n      tag_555\n        /* \"#utility.yul\":15864:15868   */\n      dup2\n        /* \"#utility.yul\":15738:15869   */\n      tag_398\n      jump\t// in\n    tag_555:\n        /* \"#utility.yul\":15730:15869   */\n      swap1\n      pop\n        /* \"#utility.yul\":15457:15876   */\n      swap2\n      swap1\n      pop\n      jump\t// out\n        /* \"#utility.yul\":15882:16076   */\n    tag_191:\n        /* \"#utility.yul\":15922:15926   */\n      0x00\n        /* \"#utility.yul\":15942:15962   */\n      tag_557\n        /* \"#utility.yul\":15960:15961   */\n      dup3\n        /* \"#utility.yul\":15942:15962   */\n      tag_363\n      jump\t// in\n    tag_557:\n        /* \"#utility.yul\":15937:15962   */\n      swap2\n      pop\n        /* \"#utility.yul\":15976:15996   */\n      tag_558\n        /* \"#utility.yul\":15994:15995   */\n      dup4\n        /* \"#utility.yul\":15976:15996   */\n      tag_363\n      jump\t// in\n    tag_558:\n        /* \"#utility.yul\":15971:15996   */\n      swap3\n      pop\n        /* \"#utility.yul\":16020:16021   */\n      dup3\n        /* \"#utility.yul\":16017:16018   */\n      dup3\n        /* \"#utility.yul\":16013:16022   */\n      sub\n        /* \"#utility.yul\":16005:16022   */\n      swap1\n      pop\n        /* \"#utility.yul\":16044:16045   */\n      dup2\n        /* \"#utility.yul\":16038:16042   */\n      dup2\n        /* \"#utility.yul\":16035:16046   */\n      gt\n        /* \"#utility.yul\":16032:16069   */\n      iszero\n      tag_559\n      jumpi\n        /* \"#utility.yul\":16049:16067   */\n      tag_560\n      tag_389\n      jump\t// in\n    tag_560:\n        /* \"#utility.yul\":16032:16069   */\n    tag_559:\n        /* \"#utility.yul\":15882:16076   */\n      swap3\n      swap2\n      pop\n      pop\n      jump\t// out\n        /* \"#utility.yul\":16082:16273   */\n    tag_195:\n        /* \"#utility.yul\":16122:16125   */\n      0x00\n        /* \"#utility.yul\":16141:16161   */\n      tag_562\n        /* \"#utility.yul\":16159:16160   */\n      dup3\n        /* \"#utility.yul\":16141:16161   */\n      tag_363\n      jump\t// in\n    tag_562:\n        /* \"#utility.yul\":16136:16161   */\n      swap2\n      pop\n        /* \"#utility.yul\":16175:16195   */\n      tag_563\n        /* \"#utility.yul\":16193:16194   */\n      dup4\n        /* \"#utility.yul\":16175:16195   */\n      tag_363\n      jump\t// in\n    tag_563:\n        /* \"#utility.yul\":16170:16195   */\n      swap3\n      pop\n        /* \"#utility.yul\":16218:16219   */\n      dup3\n        /* \"#utility.yul\":16215:16216   */\n      dup3\n        /* \"#utility.yul\":16211:16220   */\n      add\n        /* \"#utility.yul\":16204:16220   */\n      swap1\n      pop\n        /* \"#utility.yul\":16239:16242   */\n      dup1\n        /* \"#utility.yul\":16236:16237   */\n      dup3\n        /* \"#utility.yul\":16233:16243   */\n      gt\n        /* \"#utility.yul\":16230:16266   */\n      iszero\n      tag_564\n      jumpi\n        /* \"#utility.yul\":16246:16264   */\n      tag_565\n      tag_389\n      jump\t// in\n    tag_565:\n        /* \"#utility.yul\":16230:16266   */\n    tag_564:\n        /* \"#utility.yul\":16082:16273   */\n      swap3\n      swap2\n      pop\n      pop\n      jump\t// out\n        /* \"#utility.yul\":16279:16446   */\n    tag_399:\n        /* \"#utility.yul\":16419:16438   */\n      0x416c726561647920726567697374726564000000000000000000000000000000\n        /* \"#utility.yul\":16415:16416   */\n      0x00\n        /* \"#utility.yul\":16407:16413   */\n      dup3\n        /* \"#utility.yul\":16403:16417   */\n      add\n        /* \"#utility.yul\":16396:16439   */\n      mstore\n        /* \"#utility.yul\":16279:16446   */\n      pop\n      jump\t// out\n        /* \"#utility.yul\":16452:16818   */\n    tag_400:\n        /* \"#utility.yul\":16594:16597   */\n      0x00\n        /* \"#utility.yul\":16615:16682   */\n      tag_568\n        /* \"#utility.yul\":16679:16681   */\n      0x11\n        /* \"#utility.yul\":16674:16677   */\n      dup4\n        /* \"#utility.yul\":16615:16682   */\n      tag_368\n      jump\t// in\n    tag_568:\n        /* \"#utility.yul\":16608:16682   */\n      swap2\n      pop\n        /* \"#utility.yul\":16691:16784   */\n      tag_569\n        /* \"#utility.yul\":16780:16783   */\n      dup3\n        /* \"#utility.yul\":16691:16784   */\n      tag_399\n      jump\t// in\n    tag_569:\n        /* \"#utility.yul\":16809:16811   */\n      0x20\n        /* \"#utility.yul\":16804:16807   */\n      dup3\n        /* \"#utility.yul\":16800:16812   */\n      add\n        /* \"#utility.yul\":16793:16812   */\n      swap1\n      pop\n        /* \"#utility.yul\":16452:16818   */\n      swap2\n      swap1\n      pop\n      jump\t// out\n        /* \"#utility.yul\":16824:17243   */\n    tag_207:\n        /* \"#utility.yul\":16990:16994   */\n      0x00\n        /* \"#utility.yul\":17028:17030   */\n      0x20\n        /* \"#utility.yul\":17017:17026   */\n      dup3\n        /* \"#utility.yul\":17013:17031   */\n      add\n        /* \"#utility.yul\":17005:17031   */\n      swap1\n      pop\n        /* \"#utility.yul\":17077:17086   */\n      dup2\n        /* \"#utility.yul\":17071:17075   */\n      dup2\n        /* \"#utility.yul\":17067:17087   */\n      sub\n        /* \"#utility.yul\":17063:17064   */\n      0x00\n        /* \"#utility.yul\":17052:17061   */\n      dup4\n        /* \"#utility.yul\":17048:17065   */\n      add\n        /* \"#utility.yul\":17041:17088   */\n      mstore\n        /* \"#utility.yul\":17105:17236   */\n      tag_571\n        /* \"#utility.yul\":17231:17235   */\n      dup2\n        /* \"#utility.yul\":17105:17236   */\n      tag_400\n      jump\t// in\n    tag_571:\n        /* \"#utility.yul\":17097:17236   */\n      swap1\n      pop\n        /* \"#utility.yul\":16824:17243   */\n      swap2\n      swap1\n      pop\n      jump\t// out\n        /* \"#utility.yul\":17249:17413   */\n    tag_401:\n        /* \"#utility.yul\":17389:17405   */\n      0x4f6e6c7920666f722061646d696e000000000000000000000000000000000000\n        /* \"#utility.yul\":17385:17386   */\n      0x00\n        /* \"#utility.yul\":17377:17383   */\n      dup3\n        /* \"#utility.yul\":17373:17387   */\n      add\n        /* \"#utility.yul\":17366:17406   */\n      mstore\n        /* \"#utility.yul\":17249:17413   */\n      pop\n      jump\t// out\n        /* \"#utility.yul\":17419:17785   */\n    tag_402:\n        /* \"#utility.yul\":17561:17564   */\n      0x00\n        /* \"#utility.yul\":17582:17649   */\n      tag_574\n        /* \"#utility.yul\":17646:17648   */\n      0x0e\n        /* \"#utility.yul\":17641:17644   */\n      dup4\n        /* \"#utility.yul\":17582:17649   */\n      tag_368\n      jump\t// in\n    tag_574:\n        /* \"#utility.yul\":17575:17649   */\n      swap2\n      pop\n        /* \"#utility.yul\":17658:17751   */\n      tag_575\n        /* \"#utility.yul\":17747:17750   */\n      dup3\n        /* \"#utility.yul\":17658:17751   */\n      tag_401\n      jump\t// in\n    tag_575:\n        /* \"#utility.yul\":17776:17778   */\n      0x20\n        /* \"#utility.yul\":17771:17774   */\n      dup3\n        /* \"#utility.yul\":17767:17779   */\n      add\n        /* \"#utility.yul\":17760:17779   */\n      swap1\n      pop\n        /* \"#utility.yul\":17419:17785   */\n      swap2\n      swap1\n      pop\n      jump\t// out\n        /* \"#utility.yul\":17791:18210   */\n    tag_216:\n        /* \"#utility.yul\":17957:17961   */\n      0x00\n        /* \"#utility.yul\":17995:17997   */\n      0x20\n        /* \"#utility.yul\":17984:17993   */\n      dup3\n        /* \"#utility.yul\":17980:17998   */\n      add\n        /* \"#utility.yul\":17972:17998   */\n      swap1\n      pop\n        /* \"#utility.yul\":18044:18053   */\n      dup2\n        /* \"#utility.yul\":18038:18042   */\n      dup2\n        /* \"#utility.yul\":18034:18054   */\n      sub\n        /* \"#utility.yul\":18030:18031   */\n      0x00\n        /* \"#utility.yul\":18019:18028   */\n      dup4\n        /* \"#utility.yul\":18015:18032   */\n      add\n        /* \"#utility.yul\":18008:18055   */\n      mstore\n        /* \"#utility.yul\":18072:18203   */\n      tag_577\n        /* \"#utility.yul\":18198:18202   */\n      dup2\n        /* \"#utility.yul\":18072:18203   */\n      tag_402\n      jump\t// in\n    tag_577:\n        /* \"#utility.yul\":18064:18203   */\n      swap1\n      pop\n        /* \"#utility.yul\":17791:18210   */\n      swap2\n      swap1\n      pop\n      jump\t// out\n        /* \"#utility.yul\":18216:18398   */\n    tag_403:\n        /* \"#utility.yul\":18356:18390   */\n      0x50726f6a656374277320676f616c2069736e2774207265616368656420796574\n        /* \"#utility.yul\":18352:18353   */\n      0x00\n        /* \"#utility.yul\":18344:18350   */\n      dup3\n        /* \"#utility.yul\":18340:18354   */\n      add\n        /* \"#utility.yul\":18333:18391   */\n      mstore\n        /* \"#utility.yul\":18216:18398   */\n      pop\n      jump\t// out\n        /* \"#utility.yul\":18404:18770   */\n    tag_404:\n        /* \"#utility.yul\":18546:18549   */\n      0x00\n        /* \"#utility.yul\":18567:18634   */\n      tag_580\n        /* \"#utility.yul\":18631:18633   */\n      0x20\n        /* \"#utility.yul\":18626:18629   */\n      dup4\n        /* \"#utility.yul\":18567:18634   */\n      tag_368\n      jump\t// in\n    tag_580:\n        /* \"#utility.yul\":18560:18634   */\n      swap2\n      pop\n        /* \"#utility.yul\":18643:18736   */\n      tag_581\n        /* \"#utility.yul\":18732:18735   */\n      dup3\n        /* \"#utility.yul\":18643:18736   */\n      tag_403\n      jump\t// in\n    tag_581:\n        /* \"#utility.yul\":18761:18763   */\n      0x20\n        /* \"#utility.yul\":18756:18759   */\n      dup3\n        /* \"#utility.yul\":18752:18764   */\n      add\n        /* \"#utility.yul\":18745:18764   */\n      swap1\n      pop\n        /* \"#utility.yul\":18404:18770   */\n      swap2\n      swap1\n      pop\n      jump\t// out\n        /* \"#utility.yul\":18776:19195   */\n    tag_226:\n        /* \"#utility.yul\":18942:18946   */\n      0x00\n        /* \"#utility.yul\":18980:18982   */\n      0x20\n        /* \"#utility.yul\":18969:18978   */\n      dup3\n        /* \"#utility.yul\":18965:18983   */\n      add\n        /* \"#utility.yul\":18957:18983   */\n      swap1\n      pop\n        /* \"#utility.yul\":19029:19038   */\n      dup2\n        /* \"#utility.yul\":19023:19027   */\n      dup2\n        /* \"#utility.yul\":19019:19039   */\n      sub\n        /* \"#utility.yul\":19015:19016   */\n      0x00\n        /* \"#utility.yul\":19004:19013   */\n      dup4\n        /* \"#utility.yul\":19000:19017   */\n      add\n        /* \"#utility.yul\":18993:19040   */\n      mstore\n        /* \"#utility.yul\":19057:19188   */\n      tag_583\n        /* \"#utility.yul\":19183:19187   */\n      dup2\n        /* \"#utility.yul\":19057:19188   */\n      tag_404\n      jump\t// in\n    tag_583:\n        /* \"#utility.yul\":19049:19188   */\n      swap1\n      pop\n        /* \"#utility.yul\":18776:19195   */\n      swap2\n      swap1\n      pop\n      jump\t// out\n        /* \"#utility.yul\":19201:19379   */\n    tag_405:\n        /* \"#utility.yul\":19341:19371   */\n      0x50726f6a65637427732062616c616e636520697320746f6f206c6f7700000000\n        /* \"#utility.yul\":19337:19338   */\n      0x00\n        /* \"#utility.yul\":19329:19335   */\n      dup3\n        /* \"#utility.yul\":19325:19339   */\n      add\n        /* \"#utility.yul\":19318:19372   */\n      mstore\n        /* \"#utility.yul\":19201:19379   */\n      pop\n      jump\t// out\n        /* \"#utility.yul\":19385:19751   */\n    tag_406:\n        /* \"#utility.yul\":19527:19530   */\n      0x00\n        /* \"#utility.yul\":19548:19615   */\n      tag_586\n        /* \"#utility.yul\":19612:19614   */\n      0x1c\n        /* \"#utility.yul\":19607:19610   */\n      dup4\n        /* \"#utility.yul\":19548:19615   */\n      tag_368\n      jump\t// in\n    tag_586:\n        /* \"#utility.yul\":19541:19615   */\n      swap2\n      pop\n        /* \"#utility.yul\":19624:19717   */\n      tag_587\n        /* \"#utility.yul\":19713:19716   */\n      dup3\n        /* \"#utility.yul\":19624:19717   */\n      tag_405\n      jump\t// in\n    tag_587:\n        /* \"#utility.yul\":19742:19744   */\n      0x20\n        /* \"#utility.yul\":19737:19740   */\n      dup3\n        /* \"#utility.yul\":19733:19745   */\n      add\n        /* \"#utility.yul\":19726:19745   */\n      swap1\n      pop\n        /* \"#utility.yul\":19385:19751   */\n      swap2\n      swap1\n      pop\n      jump\t// out\n        /* \"#utility.yul\":19757:20176   */\n    tag_229:\n        /* \"#utility.yul\":19923:19927   */\n      0x00\n        /* \"#utility.yul\":19961:19963   */\n      0x20\n        /* \"#utility.yul\":19950:19959   */\n      dup3\n        /* \"#utility.yul\":19946:19964   */\n      add\n        /* \"#utility.yul\":19938:19964   */\n      swap1\n      pop\n        /* \"#utility.yul\":20010:20019   */\n      dup2\n        /* \"#utility.yul\":20004:20008   */\n      dup2\n        /* \"#utility.yul\":20000:20020   */\n      sub\n        /* \"#utility.yul\":19996:19997   */\n      0x00\n        /* \"#utility.yul\":19985:19994   */\n      dup4\n        /* \"#utility.yul\":19981:19998   */\n      add\n        /* \"#utility.yul\":19974:20021   */\n      mstore\n        /* \"#utility.yul\":20038:20169   */\n      tag_589\n        /* \"#utility.yul\":20164:20168   */\n      dup2\n        /* \"#utility.yul\":20038:20169   */\n      tag_406\n      jump\t// in\n    tag_589:\n        /* \"#utility.yul\":20030:20169   */\n      swap1\n      pop\n        /* \"#utility.yul\":19757:20176   */\n      swap2\n      swap1\n      pop\n      jump\t// out\n        /* \"#utility.yul\":20182:20362   */\n    tag_251:\n        /* \"#utility.yul\":20230:20307   */\n      0x4e487b7100000000000000000000000000000000000000000000000000000000\n        /* \"#utility.yul\":20227:20228   */\n      0x00\n        /* \"#utility.yul\":20220:20308   */\n      mstore\n        /* \"#utility.yul\":20327:20331   */\n      0x32\n        /* \"#utility.yul\":20324:20325   */\n      0x04\n        /* \"#utility.yul\":20317:20332   */\n      mstore\n        /* \"#utility.yul\":20351:20355   */\n      0x24\n        /* \"#utility.yul\":20348:20349   */\n      0x00\n        /* \"#utility.yul\":20341:20356   */\n      revert\n        /* \"#utility.yul\":20368:20778   */\n    tag_254:\n        /* \"#utility.yul\":20408:20415   */\n      0x00\n        /* \"#utility.yul\":20431:20451   */\n      tag_592\n        /* \"#utility.yul\":20449:20450   */\n      dup3\n        /* \"#utility.yul\":20431:20451   */\n      tag_363\n      jump\t// in\n    tag_592:\n        /* \"#utility.yul\":20426:20451   */\n      swap2\n      pop\n        /* \"#utility.yul\":20465:20485   */\n      tag_593\n        /* \"#utility.yul\":20483:20484   */\n      dup4\n        /* \"#utility.yul\":20465:20485   */\n      tag_363\n      jump\t// in\n    tag_593:\n        /* \"#utility.yul\":20460:20485   */\n      swap3\n      pop\n        /* \"#utility.yul\":20520:20521   */\n      dup3\n        /* \"#utility.yul\":20517:20518   */\n      dup3\n        /* \"#utility.yul\":20513:20522   */\n      mul\n        /* \"#utility.yul\":20542:20572   */\n      tag_594\n        /* \"#utility.yul\":20560:20571   */\n      dup2\n        /* \"#utility.yul\":20542:20572   */\n      tag_363\n      jump\t// in\n    tag_594:\n        /* \"#utility.yul\":20531:20572   */\n      swap2\n      pop\n        /* \"#utility.yul\":20721:20722   */\n      dup3\n        /* \"#utility.yul\":20712:20719   */\n      dup3\n        /* \"#utility.yul\":20708:20723   */\n      div\n        /* \"#utility.yul\":20705:20706   */\n      dup5\n        /* \"#utility.yul\":20702:20724   */\n      eq\n        /* \"#utility.yul\":20682:20683   */\n      dup4\n        /* \"#utility.yul\":20675:20684   */\n      iszero\n        /* \"#utility.yul\":20655:20738   */\n      or\n        /* \"#utility.yul\":20632:20771   */\n      tag_595\n      jumpi\n        /* \"#utility.yul\":20751:20769   */\n      tag_596\n      tag_389\n      jump\t// in\n    tag_596:\n        /* \"#utility.yul\":20632:20771   */\n    tag_595:\n        /* \"#utility.yul\":20416:20778   */\n      pop\n        /* \"#utility.yul\":20368:20778   */\n      swap3\n      swap2\n      pop\n      pop\n      jump\t// out\n        /* \"#utility.yul\":20784:20964   */\n    tag_407:\n        /* \"#utility.yul\":20832:20909   */\n      0x4e487b7100000000000000000000000000000000000000000000000000000000\n        /* \"#utility.yul\":20829:20830   */\n      0x00\n        /* \"#utility.yul\":20822:20910   */\n      mstore\n        /* \"#utility.yul\":20929:20933   */\n      0x12\n        /* \"#utility.yul\":20926:20927   */\n      0x04\n        /* \"#utility.yul\":20919:20934   */\n      mstore\n        /* \"#utility.yul\":20953:20957   */\n      0x24\n        /* \"#utility.yul\":20950:20951   */\n      0x00\n        /* \"#utility.yul\":20943:20958   */\n      revert\n        /* \"#utility.yul\":20970:21155   */\n    tag_256:\n        /* \"#utility.yul\":21010:21011   */\n      0x00\n        /* \"#utility.yul\":21027:21047   */\n      tag_599\n        /* \"#utility.yul\":21045:21046   */\n      dup3\n        /* \"#utility.yul\":21027:21047   */\n      tag_363\n      jump\t// in\n    tag_599:\n        /* \"#utility.yul\":21022:21047   */\n      swap2\n      pop\n        /* \"#utility.yul\":21061:21081   */\n      tag_600\n        /* \"#utility.yul\":21079:21080   */\n      dup4\n        /* \"#utility.yul\":21061:21081   */\n      tag_363\n      jump\t// in\n    tag_600:\n        /* \"#utility.yul\":21056:21081   */\n      swap3\n      pop\n        /* \"#utility.yul\":21100:21101   */\n      dup3\n        /* \"#utility.yul\":21090:21125   */\n      tag_601\n      jumpi\n        /* \"#utility.yul\":21105:21123   */\n      tag_602\n      tag_407\n      jump\t// in\n    tag_602:\n        /* \"#utility.yul\":21090:21125   */\n    tag_601:\n        /* \"#utility.yul\":21147:21148   */\n      dup3\n        /* \"#utility.yul\":21144:21145   */\n      dup3\n        /* \"#utility.yul\":21140:21149   */\n      div\n        /* \"#utility.yul\":21135:21149   */\n      swap1\n      pop\n        /* \"#utility.yul\":20970:21155   */\n      swap3\n      swap2\n      pop\n      pop\n      jump\t// out\n        /* \"#utility.yul\":21161:21338   */\n    tag_408:\n        /* \"#utility.yul\":21301:21330   */\n      0x50726f6a6563742069736e277420506179696e6720746f6b656e730000000000\n        /* \"#utility.yul\":21297:21298   */\n      0x00\n        /* \"#utility.yul\":21289:21295   */\n      dup3\n        /* \"#utility.yul\":21285:21299   */\n      add\n        /* \"#utility.yul\":21278:21331   */\n      mstore\n        /* \"#utility.yul\":21161:21338   */\n      pop\n      jump\t// out\n        /* \"#utility.yul\":21344:21710   */\n    tag_409:\n        /* \"#utility.yul\":21486:21489   */\n      0x00\n        /* \"#utility.yul\":21507:21574   */\n      tag_605\n        /* \"#utility.yul\":21571:21573   */\n      0x1b\n        /* \"#utility.yul\":21566:21569   */\n      dup4\n        /* \"#utility.yul\":21507:21574   */\n      tag_368\n      jump\t// in\n    tag_605:\n        /* \"#utility.yul\":21500:21574   */\n      swap2\n      pop\n        /* \"#utility.yul\":21583:21676   */\n      tag_606\n        /* \"#utility.yul\":21672:21675   */\n      dup3\n        /* \"#utility.yul\":21583:21676   */\n      tag_408\n      jump\t// in\n    tag_606:\n        /* \"#utility.yul\":21701:21703   */\n      0x20\n        /* \"#utility.yul\":21696:21699   */\n      dup3\n        /* \"#utility.yul\":21692:21704   */\n      add\n        /* \"#utility.yul\":21685:21704   */\n      swap1\n      pop\n        /* \"#utility.yul\":21344:21710   */\n      swap2\n      swap1\n      pop\n      jump\t// out\n        /* \"#utility.yul\":21716:22135   */\n    tag_288:\n        /* \"#utility.yul\":21882:21886   */\n      0x00\n        /* \"#utility.yul\":21920:21922   */\n      0x20\n        /* \"#utility.yul\":21909:21918   */\n      dup3\n        /* \"#utility.yul\":21905:21923   */\n      add\n        /* \"#utility.yul\":21897:21923   */\n      swap1\n      pop\n        /* \"#utility.yul\":21969:21978   */\n      dup2\n        /* \"#utility.yul\":21963:21967   */\n      dup2\n        /* \"#utility.yul\":21959:21979   */\n      sub\n        /* \"#utility.yul\":21955:21956   */\n      0x00\n        /* \"#utility.yul\":21944:21953   */\n      dup4\n        /* \"#utility.yul\":21940:21957   */\n      add\n        /* \"#utility.yul\":21933:21980   */\n      mstore\n        /* \"#utility.yul\":21997:22128   */\n      tag_608\n        /* \"#utility.yul\":22123:22127   */\n      dup2\n        /* \"#utility.yul\":21997:22128   */\n      tag_409\n      jump\t// in\n    tag_608:\n        /* \"#utility.yul\":21989:22128   */\n      swap1\n      pop\n        /* \"#utility.yul\":21716:22135   */\n      swap2\n      swap1\n      pop\n      jump\t// out\n        /* \"#utility.yul\":22141:22583   */\n    tag_329:\n        /* \"#utility.yul\":22290:22294   */\n      0x00\n        /* \"#utility.yul\":22328:22330   */\n      0x60\n        /* \"#utility.yul\":22317:22326   */\n      dup3\n        /* \"#utility.yul\":22313:22331   */\n      add\n        /* \"#utility.yul\":22305:22331   */\n      swap1\n      pop\n        /* \"#utility.yul\":22341:22412   */\n      tag_610\n        /* \"#utility.yul\":22409:22410   */\n      0x00\n        /* \"#utility.yul\":22398:22407   */\n      dup4\n        /* \"#utility.yul\":22394:22411   */\n      add\n        /* \"#utility.yul\":22385:22391   */\n      dup7\n        /* \"#utility.yul\":22341:22412   */\n      tag_378\n      jump\t// in\n    tag_610:\n        /* \"#utility.yul\":22422:22494   */\n      tag_611\n        /* \"#utility.yul\":22490:22492   */\n      0x20\n        /* \"#utility.yul\":22479:22488   */\n      dup4\n        /* \"#utility.yul\":22475:22493   */\n      add\n        /* \"#utility.yul\":22466:22472   */\n      dup6\n        /* \"#utility.yul\":22422:22494   */\n      tag_366\n      jump\t// in\n    tag_611:\n        /* \"#utility.yul\":22504:22576   */\n      tag_612\n        /* \"#utility.yul\":22572:22574   */\n      0x40\n        /* \"#utility.yul\":22561:22570   */\n      dup4\n        /* \"#utility.yul\":22557:22575   */\n      add\n        /* \"#utility.yul\":22548:22554   */\n      dup5\n        /* \"#utility.yul\":22504:22576   */\n      tag_366\n      jump\t// in\n    tag_612:\n        /* \"#utility.yul\":22141:22583   */\n      swap5\n      swap4\n      pop\n      pop\n      pop\n      pop\n      jump\t// out\n\n    auxdata: 0xa2646970667358221220a6997800a3905df71f12cfd2ad525236711cbfc66fef995f9e9e2aba6442cc1664736f6c634300081e0033\n}\n",
				"bytecode": {
					"linkReferences": {},
					"object": "60806040525f600755348015610013575f5ffd5b506040518060400160405280600481526020017f534f494e000000000000000000000000000000000000000000000000000000008152506040518060400160405280600281526020017f4e24000000000000000000000000000000000000000000000000000000000000815250816003908161008f91906105fd565b50806004908161009f91906105fd565b50505033600b5f6101000a81548173ffffffffffffffffffffffffffffffffffffffff021916908373ffffffffffffffffffffffffffffffffffffffff16021790555061011d600b5f9054906101000a900473ffffffffffffffffffffffffffffffffffffffff16690a968163f0a57b40000061012260201b60201c565b6107e1565b5f73ffffffffffffffffffffffffffffffffffffffff168273ffffffffffffffffffffffffffffffffffffffff1603610192575f6040517fec442f05000000000000000000000000000000000000000000000000000000008152600401610189919061070b565b60405180910390fd5b6101a35f83836101a760201b60201c565b5050565b5f73ffffffffffffffffffffffffffffffffffffffff168373ffffffffffffffffffffffffffffffffffffffff16036101f7578060025f8282546101eb9190610751565b925050819055506102c5565b5f5f5f8573ffffffffffffffffffffffffffffffffffffffff1673ffffffffffffffffffffffffffffffffffffffff1681526020019081526020015f2054905081811015610280578381836040517fe450d38c00000000000000000000000000000000000000000000000000000000815260040161027793929190610793565b60405180910390fd5b8181035f5f8673ffffffffffffffffffffffffffffffffffffffff1673ffffffffffffffffffffffffffffffffffffffff1681526020019081526020015f2081905550505b5f73ffffffffffffffffffffffffffffffffffffffff168273ffffffffffffffffffffffffffffffffffffffff160361030c578060025f8282540392505081905550610356565b805f5f8473ffffffffffffffffffffffffffffffffffffffff1673ffffffffffffffffffffffffffffffffffffffff1681526020019081526020015f205f82825401925050819055505b8173ffffffffffffffffffffffffffffffffffffffff168373ffffffffffffffffffffffffffffffffffffffff167fddf252ad1be2c89b69c2b068fc378daa952ba7f163c4a11628f55a4df523b3ef836040516103b391906107c8565b60405180910390a3505050565b5f81519050919050565b7f4e487b71000000000000000000000000000000000000000000000000000000005f52604160045260245ffd5b7f4e487b71000000000000000000000000000000000000000000000000000000005f52602260045260245ffd5b5f600282049050600182168061043b57607f821691505b60208210810361044e5761044d6103f7565b5b50919050565b5f819050815f5260205f209050919050565b5f6020601f8301049050919050565b5f82821b905092915050565b5f600883026104b07fffffffffffffffffffffffffffffffffffffffffffffffffffffffffffffffff82610475565b6104ba8683610475565b95508019841693508086168417925050509392505050565b5f819050919050565b5f819050919050565b5f6104fe6104f96104f4846104d2565b6104db565b6104d2565b9050919050565b5f819050919050565b610517836104e4565b61052b61052382610505565b848454610481565b825550505050565b5f5f905090565b610542610533565b61054d81848461050e565b505050565b5b81811015610570576105655f8261053a565b600181019050610553565b5050565b601f8211156105b55761058681610454565b61058f84610466565b8101602085101561059e578190505b6105b26105aa85610466565b830182610552565b50505b505050565b5f82821c905092915050565b5f6105d55f19846008026105ba565b1980831691505092915050565b5f6105ed83836105c6565b9150826002028217905092915050565b610606826103c0565b67ffffffffffffffff81111561061f5761061e6103ca565b5b6106298254610424565b610634828285610574565b5f60209050601f831160018114610665575f8415610653578287015190505b61065d85826105e2565b8655506106c4565b601f19841661067386610454565b5f5b8281101561069a57848901518255600182019150602085019450602081019050610675565b868310156106b757848901516106b3601f8916826105c6565b8355505b6001600288020188555050505b505050505050565b5f73ffffffffffffffffffffffffffffffffffffffff82169050919050565b5f6106f5826106cc565b9050919050565b610705816106eb565b82525050565b5f60208201905061071e5f8301846106fc565b92915050565b7f4e487b71000000000000000000000000000000000000000000000000000000005f52601160045260245ffd5b5f61075b826104d2565b9150610766836104d2565b925082820190508082111561077e5761077d610724565b5b92915050565b61078d816104d2565b82525050565b5f6060820190506107a65f8301866106fc565b6107b36020830185610784565b6107c06040830184610784565b949350505050565b5f6020820190506107db5f830184610784565b92915050565b613274806107ee5f395ff3fe608060405234801561000f575f5ffd5b5060043610610156575f3560e01c806354e35ba2116100c1578063a87430ba1161007a578063a87430ba146103dc578063a9059cbb1461040c578063c2c6640b1461043c578063dd62ed3e14610458578063e4ad9a1814610488578063f851a440146104a457610156565b806354e35ba21461030a57806368dc9528146103265780636f7330e11461034257806370a082311461037257806393dc12e6146103a257806395d89b41146103be57610156565b806323b872dd1161011357806323b872dd1461025c578063313ce5671461028c578063336f56dc146102aa57806336fbad26146102c65780634d3820eb146102e45780634e6ec247146102ee57610156565b806302da667b1461015a57806306fdde031461018a578063095ea7b3146101a8578063107046bd146101d857806318160ddd1461020e57806323b86fbe1461022c575b5f5ffd5b610174600480360381019061016f919061271d565b6104c2565b604051610181919061276a565b60405180910390f35b6101926107ab565b60405161019f91906127f3565b60405180910390f35b6101c260048036038101906101bd919061286d565b61083b565b6040516101cf91906128c5565b60405180910390f35b6101f260048036038101906101ed91906128de565b61085d565b604051610205979695949392919061298b565b60405180910390f35b6102166108c6565b604051610223919061276a565b60405180910390f35b610246600480360381019061024191906129f8565b6108cf565b604051610253919061276a565b60405180910390f35b61027660048036038101906102719190612a23565b6108e0565b60405161028391906128c5565b60405180910390f35b61029461090e565b6040516102a19190612a8e565b60405180910390f35b6102c460048036038101906102bf919061271d565b610916565b005b6102ce610eb7565b6040516102db919061276a565b60405180910390f35b6102ec610ebd565b005b6103086004803603810190610303919061286d565b611084565b005b610324600480360381019061031f919061271d565b611103565b005b610340600480360381019061033b919061286d565b6113bf565b005b61035c60048036038101906103579190612aa7565b61153b565b604051610369919061276a565b60405180910390f35b61038c600480360381019061038791906129f8565b61155b565b604051610399919061276a565b60405180910390f35b6103bc60048036038101906103b791906128de565b6115a0565b005b6103c6611856565b6040516103d391906127f3565b60405180910390f35b6103f660048036038101906103f191906129f8565b6118e6565b604051610403919061276a565b60405180910390f35b6104266004803603810190610421919061286d565b611900565b60405161043391906128c5565b60405180910390f35b6104566004803603810190610451919061271d565b611922565b005b610472600480360381019061046d9190612ae5565b611e7c565b60405161047f919061276a565b60405180910390f35b6104a2600480360381019061049d919061286d565b611efe565b005b6104ac61209c565b6040516104b99190612b23565b60405180910390f35b5f600b5f9054906101000a900473ffffffffffffffffffffffffffffffffffffffff1673ffffffffffffffffffffffffffffffffffffffff163373ffffffffffffffffffffffffffffffffffffffff1603610552576040517f08c379a000000000000000000000000000000000000000000000000000000000815260040161054990612b86565b60405180910390fd5b60055f3373ffffffffffffffffffffffffffffffffffffffff1673ffffffffffffffffffffffffffffffffffffffff1681526020019081526020015f205f9054906101000a900460ff166105db576040517f08c379a00000000000000000000000000000000000000000000000000000000081526004016105d290612bee565b60405180910390fd5b5f60075490506040518061010001604052805f81526020015f81526020018581526020018481526020013373ffffffffffffffffffffffffffffffffffffffff1681526020015f81526020015f67ffffffffffffffff81111561064157610640612c0c565b5b60405190808252806020026020018201604052801561066f5781602001602082028036833780820191505090505b5081526020015f600381111561068857610687612918565b5b81525060095f8381526020019081526020015f205f820151815f01556020820151816001015560408201518160020155606082015181600301556080820151816004015f6101000a81548173ffffffffffffffffffffffffffffffffffffffff021916908373ffffffffffffffffffffffffffffffffffffffff16021790555060a0820151816005015560c082015181600601908051906020019061072e929190612644565b5060e0820151816007015f6101000a81548160ff0219169083600381111561075957610758612918565b5b0217905550905050600160085f8381526020019081526020015f205f6101000a81548160ff02191690831515021790555060075f81548092919061079c90612c66565b91905055508091505092915050565b6060600380546107ba90612cda565b80601f01602080910402602001604051908101604052809291908181526020018280546107e690612cda565b80156108315780601f1061080857610100808354040283529160200191610831565b820191905f5260205f20905b81548152906001019060200180831161081457829003601f168201915b5050505050905090565b5f5f6108456120c1565b90506108528185856120c8565b600191505092915050565b6009602052805f5260405f205f91509050805f015490806001015490806002015490806003015490806004015f9054906101000a900473ffffffffffffffffffffffffffffffffffffffff1690806005015490806007015f9054906101000a900460ff16905087565b5f600254905090565b5f6108d98261155b565b9050919050565b5f5f6108ea6120c1565b90506108f78582856120da565b61090285858561216c565b60019150509392505050565b5f6012905090565b600b5f9054906101000a900473ffffffffffffffffffffffffffffffffffffffff1673ffffffffffffffffffffffffffffffffffffffff163373ffffffffffffffffffffffffffffffffffffffff16036109a5576040517f08c379a000000000000000000000000000000000000000000000000000000000815260040161099c90612b86565b60405180910390fd5b60055f3373ffffffffffffffffffffffffffffffffffffffff1673ffffffffffffffffffffffffffffffffffffffff1681526020019081526020015f205f9054906101000a900460ff16610a2e576040517f08c379a0000000000000000000000000000000000000000000000000000000008152600401610a2590612bee565b60405180910390fd5b8060065f3373ffffffffffffffffffffffffffffffffffffffff1673ffffffffffffffffffffffffffffffffffffffff1681526020019081526020015f205f01541015610ab0576040517f08c379a0000000000000000000000000000000000000000000000000000000008152600401610aa790612d54565b60405180910390fd5b60085f8381526020019081526020015f205f9054906101000a900460ff16610b0d576040517f08c379a0000000000000000000000000000000000000000000000000000000008152600401610b0490612dbc565b60405180910390fd5b5f6003811115610b2057610b1f612918565b5b60095f8481526020019081526020015f206007015f9054906101000a900460ff166003811115610b5357610b52612918565b5b14610b93576040517f08c379a0000000000000000000000000000000000000000000000000000000008152600401610b8a90612e4a565b60405180910390fd5b3373ffffffffffffffffffffffffffffffffffffffff1660095f8481526020019081526020015f206004015f9054906101000a900473ffffffffffffffffffffffffffffffffffffffff1673ffffffffffffffffffffffffffffffffffffffff1603610c34576040517f08c379a0000000000000000000000000000000000000000000000000000000008152600401610c2b90612eb2565b60405180910390fd5b610c5f600b5f9054906101000a900473ffffffffffffffffffffffffffffffffffffffff1682611900565b508060065f3373ffffffffffffffffffffffffffffffffffffffff1673ffffffffffffffffffffffffffffffffffffffff1681526020019081526020015f205f015f828254610cae9190612ed0565b925050819055505f600a5f8481526020019081526020015f205f3373ffffffffffffffffffffffffffffffffffffffff1673ffffffffffffffffffffffffffffffffffffffff1681526020019081526020015f205403610da65760095f8381526020019081526020015f2060060133908060018154018082558091505060019003905f5260205f20015f9091909190916101000a81548173ffffffffffffffffffffffffffffffffffffffff021916908373ffffffffffffffffffffffffffffffffffffffff160217905550600160095f8481526020019081526020015f206005015f828254610d9e9190612f03565b925050819055505b8060095f8481526020019081526020015f206001015f828254610dc99190612f03565b92505081905560095f8481526020019081526020015f205f018190555080600a5f8481526020019081526020015f205f3373ffffffffffffffffffffffffffffffffffffffff1673ffffffffffffffffffffffffffffffffffffffff1681526020019081526020015f205f828254610e419190612f03565b9250508190555060095f8381526020019081526020015f206002015460095f8481526020019081526020015f205f015410610eb357600160095f8481526020019081526020015f206007015f6101000a81548160ff02191690836003811115610ead57610eac612918565b5b02179055505b5050565b60075481565b600b5f9054906101000a900473ffffffffffffffffffffffffffffffffffffffff1673ffffffffffffffffffffffffffffffffffffffff163373ffffffffffffffffffffffffffffffffffffffff1603610f4c576040517f08c379a0000000000000000000000000000000000000000000000000000000008152600401610f4390612b86565b60405180910390fd5b60055f3373ffffffffffffffffffffffffffffffffffffffff1673ffffffffffffffffffffffffffffffffffffffff1681526020019081526020015f205f9054906101000a900460ff1615610fd6576040517f08c379a0000000000000000000000000000000000000000000000000000000008152600401610fcd90612f80565b60405180910390fd5b600160055f3373ffffffffffffffffffffffffffffffffffffffff1673ffffffffffffffffffffffffffffffffffffffff1681526020019081526020015f205f6101000a81548160ff02191690831515021790555060405180602001604052805f81525060065f3373ffffffffffffffffffffffffffffffffffffffff1673ffffffffffffffffffffffffffffffffffffffff1681526020019081526020015f205f820151815f0155905050565b5f73ffffffffffffffffffffffffffffffffffffffff168273ffffffffffffffffffffffffffffffffffffffff16036110f4575f6040517fec442f050000000000000000000000000000000000000000000000000000000081526004016110eb9190612b23565b60405180910390fd5b6110ff5f838361225c565b5050565b600b5f9054906101000a900473ffffffffffffffffffffffffffffffffffffffff1673ffffffffffffffffffffffffffffffffffffffff163373ffffffffffffffffffffffffffffffffffffffff1614611192576040517f08c379a000000000000000000000000000000000000000000000000000000000815260040161118990612fe8565b60405180910390fd5b60085f8381526020019081526020015f205f9054906101000a900460ff166111ef576040517f08c379a00000000000000000000000000000000000000000000000000000000081526004016111e690612dbc565b60405180910390fd5b6001600381111561120357611202612918565b5b60095f8481526020019081526020015f206007015f9054906101000a900460ff16600381111561123657611235612918565b5b14611276576040517f08c379a000000000000000000000000000000000000000000000000000000000815260040161126d90613050565b60405180910390fd5b8060095f8481526020019081526020015f205f015410156112cc576040517f08c379a00000000000000000000000000000000000000000000000000000000081526004016112c3906130b8565b60405180910390fd5b61130960095f8481526020019081526020015f206004015f9054906101000a900473ffffffffffffffffffffffffffffffffffffffff1682611900565b508060065f60095f8681526020019081526020015f206004015f9054906101000a900473ffffffffffffffffffffffffffffffffffffffff1673ffffffffffffffffffffffffffffffffffffffff1673ffffffffffffffffffffffffffffffffffffffff1681526020019081526020015f205f015f82825461138b9190612f03565b925050819055508060095f8481526020019081526020015f205f015f8282546113b49190612ed0565b925050819055505050565b600b5f9054906101000a900473ffffffffffffffffffffffffffffffffffffffff1673ffffffffffffffffffffffffffffffffffffffff163373ffffffffffffffffffffffffffffffffffffffff161461144e576040517f08c379a000000000000000000000000000000000000000000000000000000000815260040161144590612fe8565b60405180910390fd5b60055f8373ffffffffffffffffffffffffffffffffffffffff1673ffffffffffffffffffffffffffffffffffffffff1681526020019081526020015f205f9054906101000a900460ff166114d7576040517f08c379a00000000000000000000000000000000000000000000000000000000081526004016114ce90612bee565b60405180910390fd5b6114e18282611900565b508060065f8473ffffffffffffffffffffffffffffffffffffffff1673ffffffffffffffffffffffffffffffffffffffff1681526020019081526020015f205f015f8282546115309190612f03565b925050819055505050565b600a602052815f5260405f20602052805f5260405f205f91509150505481565b5f5f5f8373ffffffffffffffffffffffffffffffffffffffff1673ffffffffffffffffffffffffffffffffffffffff1681526020019081526020015f20549050919050565b600b5f9054906101000a900473ffffffffffffffffffffffffffffffffffffffff1673ffffffffffffffffffffffffffffffffffffffff163373ffffffffffffffffffffffffffffffffffffffff161461162f576040517f08c379a000000000000000000000000000000000000000000000000000000000815260040161162690612fe8565b60405180910390fd5b5f5f90505b60095f8381526020019081526020015f20600501548110156117c5575f60095f8481526020019081526020015f206006018281548110611677576116766130d6565b5b905f5260205f20015f9054906101000a900473ffffffffffffffffffffffffffffffffffffffff1690505f600a5f8581526020019081526020015f205f8373ffffffffffffffffffffffffffffffffffffffff1673ffffffffffffffffffffffffffffffffffffffff1681526020019081526020015f205490505f60095f8681526020019081526020015f206001015490505f81670de0b6b3a76400008461171f9190613103565b6117299190613171565b90508060095f8881526020019081526020015f205f015f82825461174d9190612ed0565b925050819055508060065f8673ffffffffffffffffffffffffffffffffffffffff1673ffffffffffffffffffffffffffffffffffffffff1681526020019081526020015f205f015f8282546117a29190612f03565b925050819055506117b38482611900565b50505050508080600101915050611634565b5061181660095f8381526020019081526020015f206004015f9054906101000a900473ffffffffffffffffffffffffffffffffffffffff1660095f8481526020019081526020015f205f0154611900565b50600360095f8381526020019081526020015f206007015f6101000a81548160ff0219169083600381111561184e5761184d612918565b5b021790555050565b60606004805461186590612cda565b80601f016020809104026020016040519081016040528092919081815260200182805461189190612cda565b80156118dc5780601f106118b3576101008083540402835291602001916118dc565b820191905f5260205f20905b8154815290600101906020018083116118bf57829003601f168201915b5050505050905090565b6006602052805f5260405f205f91509050805f0154905081565b5f5f61190a6120c1565b905061191781858561216c565b600191505092915050565b600b5f9054906101000a900473ffffffffffffffffffffffffffffffffffffffff1673ffffffffffffffffffffffffffffffffffffffff163373ffffffffffffffffffffffffffffffffffffffff16036119b1576040517f08c379a00000000000000000000000000000000000000000000000000000000081526004016119a890612b86565b60405180910390fd5b60055f3373ffffffffffffffffffffffffffffffffffffffff1673ffffffffffffffffffffffffffffffffffffffff1681526020019081526020015f205f9054906101000a900460ff16611a3a576040517f08c379a0000000000000000000000000000000000000000000000000000000008152600401611a3190612bee565b60405180910390fd5b8060065f3373ffffffffffffffffffffffffffffffffffffffff1673ffffffffffffffffffffffffffffffffffffffff1681526020019081526020015f205f01541015611abc576040517f08c379a0000000000000000000000000000000000000000000000000000000008152600401611ab390612d54565b60405180910390fd5b60085f8381526020019081526020015f205f9054906101000a900460ff16611b19576040517f08c379a0000000000000000000000000000000000000000000000000000000008152600401611b1090612dbc565b60405180910390fd5b60016003811115611b2d57611b2c612918565b5b60095f8481526020019081526020015f206007015f9054906101000a900460ff166003811115611b6057611b5f612918565b5b14611ba0576040517f08c379a0000000000000000000000000000000000000000000000000000000008152600401611b97906131eb565b60405180910390fd5b5f5f90505b60095f8481526020019081526020015f2060050154811015611e77575f60095f8581526020019081526020015f206006018281548110611be857611be76130d6565b5b905f5260205f20015f9054906101000a900473ffffffffffffffffffffffffffffffffffffffff1690505f600a5f8681526020019081526020015f205f8373ffffffffffffffffffffffffffffffffffffffff1673ffffffffffffffffffffffffffffffffffffffff1681526020019081526020015f205490505f60095f8781526020019081526020015f206001015490505f81670de0b6b3a764000084611c909190613103565b611c9a9190613171565b90505f670de0b6b3a76400008783611cb29190613103565b611cbc9190613171565b90505f606460095f8b81526020019081526020015f206003015483611ce19190613103565b611ceb9190613171565b90508060065f3373ffffffffffffffffffffffffffffffffffffffff1673ffffffffffffffffffffffffffffffffffffffff1681526020019081526020015f205f015f828254611d3b9190612ed0565b925050819055508060065f8873ffffffffffffffffffffffffffffffffffffffff1673ffffffffffffffffffffffffffffffffffffffff1681526020019081526020015f205f015f828254611d909190612f03565b92505081905550611da18682611900565b508088611dae9190612ed0565b60095f8b81526020019081526020015f205f015f828254611dcf9190612f03565b92505081905550611e0c600b5f9054906101000a900473ffffffffffffffffffffffffffffffffffffffff16828a611e079190612ed0565b611900565b508360095f8b81526020019081526020015f205f015410611e6457600260095f8b81526020019081526020015f206007015f6101000a81548160ff02191690836003811115611e5e57611e5d612918565b5b02179055505b5050505050508080600101915050611ba5565b505050565b5f60015f8473ffffffffffffffffffffffffffffffffffffffff1673ffffffffffffffffffffffffffffffffffffffff1681526020019081526020015f205f8373ffffffffffffffffffffffffffffffffffffffff1673ffffffffffffffffffffffffffffffffffffffff1681526020019081526020015f2054905092915050565b600b5f9054906101000a900473ffffffffffffffffffffffffffffffffffffffff1673ffffffffffffffffffffffffffffffffffffffff163373ffffffffffffffffffffffffffffffffffffffff1614611f8d576040517f08c379a0000000000000000000000000000000000000000000000000000000008152600401611f8490612fe8565b60405180910390fd5b60055f8373ffffffffffffffffffffffffffffffffffffffff1673ffffffffffffffffffffffffffffffffffffffff1681526020019081526020015f205f9054906101000a900460ff16612016576040517f08c379a000000000000000000000000000000000000000000000000000000000815260040161200d90612bee565b60405180910390fd5b61204282600b5f9054906101000a900473ffffffffffffffffffffffffffffffffffffffff16836108e0565b508060065f8473ffffffffffffffffffffffffffffffffffffffff1673ffffffffffffffffffffffffffffffffffffffff1681526020019081526020015f205f015f8282546120919190612ed0565b925050819055505050565b600b5f9054906101000a900473ffffffffffffffffffffffffffffffffffffffff1681565b5f33905090565b6120d58383836001612475565b505050565b5f6120e58484611e7c565b90507fffffffffffffffffffffffffffffffffffffffffffffffffffffffffffffffff81146121665781811015612157578281836040517ffb8f41b200000000000000000000000000000000000000000000000000000000815260040161214e93929190613209565b60405180910390fd5b61216584848484035f612475565b5b50505050565b5f73ffffffffffffffffffffffffffffffffffffffff168373ffffffffffffffffffffffffffffffffffffffff16036121dc575f6040517f96c6fd1e0000000000000000000000000000000000000000000000000000000081526004016121d39190612b23565b60405180910390fd5b5f73ffffffffffffffffffffffffffffffffffffffff168273ffffffffffffffffffffffffffffffffffffffff160361224c575f6040517fec442f050000000000000000000000000000000000000000000000000000000081526004016122439190612b23565b60405180910390fd5b61225783838361225c565b505050565b5f73ffffffffffffffffffffffffffffffffffffffff168373ffffffffffffffffffffffffffffffffffffffff16036122ac578060025f8282546122a09190612f03565b9250508190555061237a565b5f5f5f8573ffffffffffffffffffffffffffffffffffffffff1673ffffffffffffffffffffffffffffffffffffffff1681526020019081526020015f2054905081811015612335578381836040517fe450d38c00000000000000000000000000000000000000000000000000000000815260040161232c93929190613209565b60405180910390fd5b8181035f5f8673ffffffffffffffffffffffffffffffffffffffff1673ffffffffffffffffffffffffffffffffffffffff1681526020019081526020015f2081905550505b5f73ffffffffffffffffffffffffffffffffffffffff168273ffffffffffffffffffffffffffffffffffffffff16036123c1578060025f828254039250508190555061240b565b805f5f8473ffffffffffffffffffffffffffffffffffffffff1673ffffffffffffffffffffffffffffffffffffffff1681526020019081526020015f205f82825401925050819055505b8173ffffffffffffffffffffffffffffffffffffffff168373ffffffffffffffffffffffffffffffffffffffff167fddf252ad1be2c89b69c2b068fc378daa952ba7f163c4a11628f55a4df523b3ef83604051612468919061276a565b60405180910390a3505050565b5f73ffffffffffffffffffffffffffffffffffffffff168473ffffffffffffffffffffffffffffffffffffffff16036124e5575f6040517fe602df050000000000000000000000000000000000000000000000000000000081526004016124dc9190612b23565b60405180910390fd5b5f73ffffffffffffffffffffffffffffffffffffffff168373ffffffffffffffffffffffffffffffffffffffff1603612555575f6040517f94280d6200000000000000000000000000000000000000000000000000000000815260040161254c9190612b23565b60405180910390fd5b8160015f8673ffffffffffffffffffffffffffffffffffffffff1673ffffffffffffffffffffffffffffffffffffffff1681526020019081526020015f205f8573ffffffffffffffffffffffffffffffffffffffff1673ffffffffffffffffffffffffffffffffffffffff1681526020019081526020015f2081905550801561263e578273ffffffffffffffffffffffffffffffffffffffff168473ffffffffffffffffffffffffffffffffffffffff167f8c5be1e5ebec7d5bd14f71427d1e84f3dd0314c0f7b2291e5b200ac8c7c3b92584604051612635919061276a565b60405180910390a35b50505050565b828054828255905f5260205f209081019282156126ba579160200282015b828111156126b9578251825f6101000a81548173ffffffffffffffffffffffffffffffffffffffff021916908373ffffffffffffffffffffffffffffffffffffffff16021790555091602001919060010190612662565b5b5090506126c791906126cb565b5090565b5b808211156126e2575f815f9055506001016126cc565b5090565b5f5ffd5b5f819050919050565b6126fc816126ea565b8114612706575f5ffd5b50565b5f81359050612717816126f3565b92915050565b5f5f60408385031215612733576127326126e6565b5b5f61274085828601612709565b925050602061275185828601612709565b9150509250929050565b612764816126ea565b82525050565b5f60208201905061277d5f83018461275b565b92915050565b5f81519050919050565b5f82825260208201905092915050565b8281835e5f83830152505050565b5f601f19601f8301169050919050565b5f6127c582612783565b6127cf818561278d565b93506127df81856020860161279d565b6127e8816127ab565b840191505092915050565b5f6020820190508181035f83015261280b81846127bb565b905092915050565b5f73ffffffffffffffffffffffffffffffffffffffff82169050919050565b5f61283c82612813565b9050919050565b61284c81612832565b8114612856575f5ffd5b50565b5f8135905061286781612843565b92915050565b5f5f60408385031215612883576128826126e6565b5b5f61289085828601612859565b92505060206128a185828601612709565b9150509250929050565b5f8115159050919050565b6128bf816128ab565b82525050565b5f6020820190506128d85f8301846128b6565b92915050565b5f602082840312156128f3576128f26126e6565b5b5f61290084828501612709565b91505092915050565b61291281612832565b82525050565b7f4e487b71000000000000000000000000000000000000000000000000000000005f52602160045260245ffd5b6004811061295657612955612918565b5b50565b5f81905061296682612945565b919050565b5f61297582612959565b9050919050565b6129858161296b565b82525050565b5f60e08201905061299e5f83018a61275b565b6129ab602083018961275b565b6129b8604083018861275b565b6129c5606083018761275b565b6129d26080830186612909565b6129df60a083018561275b565b6129ec60c083018461297c565b98975050505050505050565b5f60208284031215612a0d57612a0c6126e6565b5b5f612a1a84828501612859565b91505092915050565b5f5f5f60608486031215612a3a57612a396126e6565b5b5f612a4786828701612859565b9350506020612a5886828701612859565b9250506040612a6986828701612709565b9150509250925092565b5f60ff82169050919050565b612a8881612a73565b82525050565b5f602082019050612aa15f830184612a7f565b92915050565b5f5f60408385031215612abd57612abc6126e6565b5b5f612aca85828601612709565b9250506020612adb85828601612859565b9150509250929050565b5f5f60408385031215612afb57612afa6126e6565b5b5f612b0885828601612859565b9250506020612b1985828601612859565b9150509250929050565b5f602082019050612b365f830184612909565b92915050565b7f41646d696e2063616e27742062652061207573657200000000000000000000005f82015250565b5f612b7060158361278d565b9150612b7b82612b3c565b602082019050919050565b5f6020820190508181035f830152612b9d81612b64565b9050919050565b7f55736572206e6f742072656769737472656400000000000000000000000000005f82015250565b5f612bd860128361278d565b9150612be382612ba4565b602082019050919050565b5f6020820190508181035f830152612c0581612bcc565b9050919050565b7f4e487b71000000000000000000000000000000000000000000000000000000005f52604160045260245ffd5b7f4e487b71000000000000000000000000000000000000000000000000000000005f52601160045260245ffd5b5f612c70826126ea565b91507fffffffffffffffffffffffffffffffffffffffffffffffffffffffffffffffff8203612ca257612ca1612c39565b5b600182019050919050565b7f4e487b71000000000000000000000000000000000000000000000000000000005f52602260045260245ffd5b5f6002820490506001821680612cf157607f821691505b602082108103612d0457612d03612cad565b5b50919050565b7f5573657227732062616c616e636520697320746f6f206c6f77000000000000005f82015250565b5f612d3e60198361278d565b9150612d4982612d0a565b602082019050919050565b5f6020820190508181035f830152612d6b81612d32565b9050919050565b7f50726f6a65637420646f65736e277420657869737400000000000000000000005f82015250565b5f612da660158361278d565b9150612db182612d72565b602082019050919050565b5f6020820190508181035f830152612dd381612d9a565b9050919050565b7f50726f6a65637420646f65736e27742061636365707420696e766573746d656e5f8201527f747320616e796d6f726500000000000000000000000000000000000000000000602082015250565b5f612e34602a8361278d565b9150612e3f82612dda565b604082019050919050565b5f6020820190508181035f830152612e6181612e28565b9050919050565b7f43616e277420696e7665737420696e206f776e2070726f6a65637400000000005f82015250565b5f612e9c601b8361278d565b9150612ea782612e68565b602082019050919050565b5f6020820190508181035f830152612ec981612e90565b9050919050565b5f612eda826126ea565b9150612ee5836126ea565b9250828203905081811115612efd57612efc612c39565b5b92915050565b5f612f0d826126ea565b9150612f18836126ea565b9250828201905080821115612f3057612f2f612c39565b5b92915050565b7f416c7265616479207265676973747265640000000000000000000000000000005f82015250565b5f612f6a60118361278d565b9150612f7582612f36565b602082019050919050565b5f6020820190508181035f830152612f9781612f5e565b9050919050565b7f4f6e6c7920666f722061646d696e0000000000000000000000000000000000005f82015250565b5f612fd2600e8361278d565b9150612fdd82612f9e565b602082019050919050565b5f6020820190508181035f830152612fff81612fc6565b9050919050565b7f50726f6a656374277320676f616c2069736e27742072656163686564207965745f82015250565b5f61303a60208361278d565b915061304582613006565b602082019050919050565b5f6020820190508181035f8301526130678161302e565b9050919050565b7f50726f6a65637427732062616c616e636520697320746f6f206c6f77000000005f82015250565b5f6130a2601c8361278d565b91506130ad8261306e565b602082019050919050565b5f6020820190508181035f8301526130cf81613096565b9050919050565b7f4e487b71000000000000000000000000000000000000000000000000000000005f52603260045260245ffd5b5f61310d826126ea565b9150613118836126ea565b9250828202613126816126ea565b9150828204841483151761313d5761313c612c39565b5b5092915050565b7f4e487b71000000000000000000000000000000000000000000000000000000005f52601260045260245ffd5b5f61317b826126ea565b9150613186836126ea565b92508261319657613195613144565b5b828204905092915050565b7f50726f6a6563742069736e277420506179696e6720746f6b656e7300000000005f82015250565b5f6131d5601b8361278d565b91506131e0826131a1565b602082019050919050565b5f6020820190508181035f830152613202816131c9565b9050919050565b5f60608201905061321c5f830186612909565b613229602083018561275b565b613236604083018461275b565b94935050505056fea2646970667358221220a6997800a3905df71f12cfd2ad525236711cbfc66fef995f9e9e2aba6442cc1664736f6c634300081e0033",
					"opcodes": "PUSH1 0x80 PUSH1 0x40 MSTORE PUSH0 PUSH1 0x7 SSTORE CALLVALUE DUP1 ISZERO PUSH2 0x13 JUMPI PUSH0 PUSH0 REVERT JUMPDEST POP PUSH1 0x40 MLOAD DUP1 PUSH1 0x40 ADD PUSH1 0x40 MSTORE DUP1 PUSH1 0x4 DUP2 MSTORE PUSH1 0x20 ADD PUSH32 0x534F494E00000000000000000000000000000000000000000000000000000000 DUP2 MSTORE POP PUSH1 0x40 MLOAD DUP1 PUSH1 0x40 ADD PUSH1 0x40 MSTORE DUP1 PUSH1 0x2 DUP2 MSTORE PUSH1 0x20 ADD PUSH32 0x4E24000000000000000000000000000000000000000000000000000000000000 DUP2 MSTORE POP DUP2 PUSH1 0x3 SWAP1 DUP2 PUSH2 0x8F SWAP2 SWAP1 PUSH2 0x5FD JUMP JUMPDEST POP DUP1 PUSH1 0x4 SWAP1 DUP2 PUSH2 0x9F SWAP2 SWAP1 PUSH2 0x5FD JUMP JUMPDEST POP POP POP CALLER PUSH1 0xB PUSH0 PUSH2 0x100 EXP DUP2 SLOAD DUP2 PUSH20 0xFFFFFFFFFFFFFFFFFFFFFFFFFFFFFFFFFFFFFFFF MUL NOT AND SWAP1 DUP4 PUSH20 0xFFFFFFFFFFFFFFFFFFFFFFFFFFFFFFFFFFFFFFFF AND MUL OR SWAP1 SSTORE POP PUSH2 0x11D PUSH1 0xB PUSH0 SWAP1 SLOAD SWAP1 PUSH2 0x100 EXP SWAP1 DIV PUSH20 0xFFFFFFFFFFFFFFFFFFFFFFFFFFFFFFFFFFFFFFFF AND PUSH10 0xA968163F0A57B400000 PUSH2 0x122 PUSH1 0x20 SHL PUSH1 0x20 SHR JUMP JUMPDEST PUSH2 0x7E1 JUMP JUMPDEST PUSH0 PUSH20 0xFFFFFFFFFFFFFFFFFFFFFFFFFFFFFFFFFFFFFFFF AND DUP3 PUSH20 0xFFFFFFFFFFFFFFFFFFFFFFFFFFFFFFFFFFFFFFFF AND SUB PUSH2 0x192 JUMPI PUSH0 PUSH1 0x40 MLOAD PUSH32 0xEC442F0500000000000000000000000000000000000000000000000000000000 DUP2 MSTORE PUSH1 0x4 ADD PUSH2 0x189 SWAP2 SWAP1 PUSH2 0x70B JUMP JUMPDEST PUSH1 0x40 MLOAD DUP1 SWAP2 SUB SWAP1 REVERT JUMPDEST PUSH2 0x1A3 PUSH0 DUP4 DUP4 PUSH2 0x1A7 PUSH1 0x20 SHL PUSH1 0x20 SHR JUMP JUMPDEST POP POP JUMP JUMPDEST PUSH0 PUSH20 0xFFFFFFFFFFFFFFFFFFFFFFFFFFFFFFFFFFFFFFFF AND DUP4 PUSH20 0xFFFFFFFFFFFFFFFFFFFFFFFFFFFFFFFFFFFFFFFF AND SUB PUSH2 0x1F7 JUMPI DUP1 PUSH1 0x2 PUSH0 DUP3 DUP3 SLOAD PUSH2 0x1EB SWAP2 SWAP1 PUSH2 0x751 JUMP JUMPDEST SWAP3 POP POP DUP2 SWAP1 SSTORE POP PUSH2 0x2C5 JUMP JUMPDEST PUSH0 PUSH0 PUSH0 DUP6 PUSH20 0xFFFFFFFFFFFFFFFFFFFFFFFFFFFFFFFFFFFFFFFF AND PUSH20 0xFFFFFFFFFFFFFFFFFFFFFFFFFFFFFFFFFFFFFFFF AND DUP2 MSTORE PUSH1 0x20 ADD SWAP1 DUP2 MSTORE PUSH1 0x20 ADD PUSH0 KECCAK256 SLOAD SWAP1 POP DUP2 DUP2 LT ISZERO PUSH2 0x280 JUMPI DUP4 DUP2 DUP4 PUSH1 0x40 MLOAD PUSH32 0xE450D38C00000000000000000000000000000000000000000000000000000000 DUP2 MSTORE PUSH1 0x4 ADD PUSH2 0x277 SWAP4 SWAP3 SWAP2 SWAP1 PUSH2 0x793 JUMP JUMPDEST PUSH1 0x40 MLOAD DUP1 SWAP2 SUB SWAP1 REVERT JUMPDEST DUP2 DUP2 SUB PUSH0 PUSH0 DUP7 PUSH20 0xFFFFFFFFFFFFFFFFFFFFFFFFFFFFFFFFFFFFFFFF AND PUSH20 0xFFFFFFFFFFFFFFFFFFFFFFFFFFFFFFFFFFFFFFFF AND DUP2 MSTORE PUSH1 0x20 ADD SWAP1 DUP2 MSTORE PUSH1 0x20 ADD PUSH0 KECCAK256 DUP2 SWAP1 SSTORE POP POP JUMPDEST PUSH0 PUSH20 0xFFFFFFFFFFFFFFFFFFFFFFFFFFFFFFFFFFFFFFFF AND DUP3 PUSH20 0xFFFFFFFFFFFFFFFFFFFFFFFFFFFFFFFFFFFFFFFF AND SUB PUSH2 0x30C JUMPI DUP1 PUSH1 0x2 PUSH0 DUP3 DUP3 SLOAD SUB SWAP3 POP POP DUP2 SWAP1 SSTORE POP PUSH2 0x356 JUMP JUMPDEST DUP1 PUSH0 PUSH0 DUP5 PUSH20 0xFFFFFFFFFFFFFFFFFFFFFFFFFFFFFFFFFFFFFFFF AND PUSH20 0xFFFFFFFFFFFFFFFFFFFFFFFFFFFFFFFFFFFFFFFF AND DUP2 MSTORE PUSH1 0x20 ADD SWAP1 DUP2 MSTORE PUSH1 0x20 ADD PUSH0 KECCAK256 PUSH0 DUP3 DUP3 SLOAD ADD SWAP3 POP POP DUP2 SWAP1 SSTORE POP JUMPDEST DUP2 PUSH20 0xFFFFFFFFFFFFFFFFFFFFFFFFFFFFFFFFFFFFFFFF AND DUP4 PUSH20 0xFFFFFFFFFFFFFFFFFFFFFFFFFFFFFFFFFFFFFFFF AND PUSH32 0xDDF252AD1BE2C89B69C2B068FC378DAA952BA7F163C4A11628F55A4DF523B3EF DUP4 PUSH1 0x40 MLOAD PUSH2 0x3B3 SWAP2 SWAP1 PUSH2 0x7C8 JUMP JUMPDEST PUSH1 0x40 MLOAD DUP1 SWAP2 SUB SWAP1 LOG3 POP POP POP JUMP JUMPDEST PUSH0 DUP2 MLOAD SWAP1 POP SWAP2 SWAP1 POP JUMP JUMPDEST PUSH32 0x4E487B7100000000000000000000000000000000000000000000000000000000 PUSH0 MSTORE PUSH1 0x41 PUSH1 0x4 MSTORE PUSH1 0x24 PUSH0 REVERT JUMPDEST PUSH32 0x4E487B7100000000000000000000000000000000000000000000000000000000 PUSH0 MSTORE PUSH1 0x22 PUSH1 0x4 MSTORE PUSH1 0x24 PUSH0 REVERT JUMPDEST PUSH0 PUSH1 0x2 DUP3 DIV SWAP1 POP PUSH1 0x1 DUP3 AND DUP1 PUSH2 0x43B JUMPI PUSH1 0x7F DUP3 AND SWAP2 POP JUMPDEST PUSH1 0x20 DUP3 LT DUP2 SUB PUSH2 0x44E JUMPI PUSH2 0x44D PUSH2 0x3F7 JUMP JUMPDEST JUMPDEST POP SWAP2 SWAP1 POP JUMP JUMPDEST PUSH0 DUP2 SWAP1 POP DUP2 PUSH0 MSTORE PUSH1 0x20 PUSH0 KECCAK256 SWAP1 POP SWAP2 SWAP1 POP JUMP JUMPDEST PUSH0 PUSH1 0x20 PUSH1 0x1F DUP4 ADD DIV SWAP1 POP SWAP2 SWAP1 POP JUMP JUMPDEST PUSH0 DUP3 DUP3 SHL SWAP1 POP SWAP3 SWAP2 POP POP JUMP JUMPDEST PUSH0 PUSH1 0x8 DUP4 MUL PUSH2 0x4B0 PUSH32 0xFFFFFFFFFFFFFFFFFFFFFFFFFFFFFFFFFFFFFFFFFFFFFFFFFFFFFFFFFFFFFFFF DUP3 PUSH2 0x475 JUMP JUMPDEST PUSH2 0x4BA DUP7 DUP4 PUSH2 0x475 JUMP JUMPDEST SWAP6 POP DUP1 NOT DUP5 AND SWAP4 POP DUP1 DUP7 AND DUP5 OR SWAP3 POP POP POP SWAP4 SWAP3 POP POP POP JUMP JUMPDEST PUSH0 DUP2 SWAP1 POP SWAP2 SWAP1 POP JUMP JUMPDEST PUSH0 DUP2 SWAP1 POP SWAP2 SWAP1 POP JUMP JUMPDEST PUSH0 PUSH2 0x4FE PUSH2 0x4F9 PUSH2 0x4F4 DUP5 PUSH2 0x4D2 JUMP JUMPDEST PUSH2 0x4DB JUMP JUMPDEST PUSH2 0x4D2 JUMP JUMPDEST SWAP1 POP SWAP2 SWAP1 POP JUMP JUMPDEST PUSH0 DUP2 SWAP1 POP SWAP2 SWAP1 POP JUMP JUMPDEST PUSH2 0x517 DUP4 PUSH2 0x4E4 JUMP JUMPDEST PUSH2 0x52B PUSH2 0x523 DUP3 PUSH2 0x505 JUMP JUMPDEST DUP5 DUP5 SLOAD PUSH2 0x481 JUMP JUMPDEST DUP3 SSTORE POP POP POP POP JUMP JUMPDEST PUSH0 PUSH0 SWAP1 POP SWAP1 JUMP JUMPDEST PUSH2 0x542 PUSH2 0x533 JUMP JUMPDEST PUSH2 0x54D DUP2 DUP5 DUP5 PUSH2 0x50E JUMP JUMPDEST POP POP POP JUMP JUMPDEST JUMPDEST DUP2 DUP2 LT ISZERO PUSH2 0x570 JUMPI PUSH2 0x565 PUSH0 DUP3 PUSH2 0x53A JUMP JUMPDEST PUSH1 0x1 DUP2 ADD SWAP1 POP PUSH2 0x553 JUMP JUMPDEST POP POP JUMP JUMPDEST PUSH1 0x1F DUP3 GT ISZERO PUSH2 0x5B5 JUMPI PUSH2 0x586 DUP2 PUSH2 0x454 JUMP JUMPDEST PUSH2 0x58F DUP5 PUSH2 0x466 JUMP JUMPDEST DUP2 ADD PUSH1 0x20 DUP6 LT ISZERO PUSH2 0x59E JUMPI DUP2 SWAP1 POP JUMPDEST PUSH2 0x5B2 PUSH2 0x5AA DUP6 PUSH2 0x466 JUMP JUMPDEST DUP4 ADD DUP3 PUSH2 0x552 JUMP JUMPDEST POP POP JUMPDEST POP POP POP JUMP JUMPDEST PUSH0 DUP3 DUP3 SHR SWAP1 POP SWAP3 SWAP2 POP POP JUMP JUMPDEST PUSH0 PUSH2 0x5D5 PUSH0 NOT DUP5 PUSH1 0x8 MUL PUSH2 0x5BA JUMP JUMPDEST NOT DUP1 DUP4 AND SWAP2 POP POP SWAP3 SWAP2 POP POP JUMP JUMPDEST PUSH0 PUSH2 0x5ED DUP4 DUP4 PUSH2 0x5C6 JUMP JUMPDEST SWAP2 POP DUP3 PUSH1 0x2 MUL DUP3 OR SWAP1 POP SWAP3 SWAP2 POP POP JUMP JUMPDEST PUSH2 0x606 DUP3 PUSH2 0x3C0 JUMP JUMPDEST PUSH8 0xFFFFFFFFFFFFFFFF DUP2 GT ISZERO PUSH2 0x61F JUMPI PUSH2 0x61E PUSH2 0x3CA JUMP JUMPDEST JUMPDEST PUSH2 0x629 DUP3 SLOAD PUSH2 0x424 JUMP JUMPDEST PUSH2 0x634 DUP3 DUP3 DUP6 PUSH2 0x574 JUMP JUMPDEST PUSH0 PUSH1 0x20 SWAP1 POP PUSH1 0x1F DUP4 GT PUSH1 0x1 DUP2 EQ PUSH2 0x665 JUMPI PUSH0 DUP5 ISZERO PUSH2 0x653 JUMPI DUP3 DUP8 ADD MLOAD SWAP1 POP JUMPDEST PUSH2 0x65D DUP6 DUP3 PUSH2 0x5E2 JUMP JUMPDEST DUP7 SSTORE POP PUSH2 0x6C4 JUMP JUMPDEST PUSH1 0x1F NOT DUP5 AND PUSH2 0x673 DUP7 PUSH2 0x454 JUMP JUMPDEST PUSH0 JUMPDEST DUP3 DUP2 LT ISZERO PUSH2 0x69A JUMPI DUP5 DUP10 ADD MLOAD DUP3 SSTORE PUSH1 0x1 DUP3 ADD SWAP2 POP PUSH1 0x20 DUP6 ADD SWAP5 POP PUSH1 0x20 DUP2 ADD SWAP1 POP PUSH2 0x675 JUMP JUMPDEST DUP7 DUP4 LT ISZERO PUSH2 0x6B7 JUMPI DUP5 DUP10 ADD MLOAD PUSH2 0x6B3 PUSH1 0x1F DUP10 AND DUP3 PUSH2 0x5C6 JUMP JUMPDEST DUP4 SSTORE POP JUMPDEST PUSH1 0x1 PUSH1 0x2 DUP9 MUL ADD DUP9 SSTORE POP POP POP JUMPDEST POP POP POP POP POP POP JUMP JUMPDEST PUSH0 PUSH20 0xFFFFFFFFFFFFFFFFFFFFFFFFFFFFFFFFFFFFFFFF DUP3 AND SWAP1 POP SWAP2 SWAP1 POP JUMP JUMPDEST PUSH0 PUSH2 0x6F5 DUP3 PUSH2 0x6CC JUMP JUMPDEST SWAP1 POP SWAP2 SWAP1 POP JUMP JUMPDEST PUSH2 0x705 DUP2 PUSH2 0x6EB JUMP JUMPDEST DUP3 MSTORE POP POP JUMP JUMPDEST PUSH0 PUSH1 0x20 DUP3 ADD SWAP1 POP PUSH2 0x71E PUSH0 DUP4 ADD DUP5 PUSH2 0x6FC JUMP JUMPDEST SWAP3 SWAP2 POP POP JUMP JUMPDEST PUSH32 0x4E487B7100000000000000000000000000000000000000000000000000000000 PUSH0 MSTORE PUSH1 0x11 PUSH1 0x4 MSTORE PUSH1 0x24 PUSH0 REVERT JUMPDEST PUSH0 PUSH2 0x75B DUP3 PUSH2 0x4D2 JUMP JUMPDEST SWAP2 POP PUSH2 0x766 DUP4 PUSH2 0x4D2 JUMP JUMPDEST SWAP3 POP DUP3 DUP3 ADD SWAP1 POP DUP1 DUP3 GT ISZERO PUSH2 0x77E JUMPI PUSH2 0x77D PUSH2 0x724 JUMP JUMPDEST JUMPDEST SWAP3 SWAP2 POP POP JUMP JUMPDEST PUSH2 0x78D DUP2 PUSH2 0x4D2 JUMP JUMPDEST DUP3 MSTORE POP POP JUMP JUMPDEST PUSH0 PUSH1 0x60 DUP3 ADD SWAP1 POP PUSH2 0x7A6 PUSH0 DUP4 ADD DUP7 PUSH2 0x6FC JUMP JUMPDEST PUSH2 0x7B3 PUSH1 0x20 DUP4 ADD DUP6 PUSH2 0x784 JUMP JUMPDEST PUSH2 0x7C0 PUSH1 0x40 DUP4 ADD DUP5 PUSH2 0x784 JUMP JUMPDEST SWAP5 SWAP4 POP POP POP POP JUMP JUMPDEST PUSH0 PUSH1 0x20 DUP3 ADD SWAP1 POP PUSH2 0x7DB PUSH0 DUP4 ADD DUP5 PUSH2 0x784 JUMP JUMPDEST SWAP3 SWAP2 POP POP JUMP JUMPDEST PUSH2 0x3274 DUP1 PUSH2 0x7EE PUSH0 CODECOPY PUSH0 RETURN INVALID PUSH1 0x80 PUSH1 0x40 MSTORE CALLVALUE DUP1 ISZERO PUSH2 0xF JUMPI PUSH0 PUSH0 REVERT JUMPDEST POP PUSH1 0x4 CALLDATASIZE LT PUSH2 0x156 JUMPI PUSH0 CALLDATALOAD PUSH1 0xE0 SHR DUP1 PUSH4 0x54E35BA2 GT PUSH2 0xC1 JUMPI DUP1 PUSH4 0xA87430BA GT PUSH2 0x7A JUMPI DUP1 PUSH4 0xA87430BA EQ PUSH2 0x3DC JUMPI DUP1 PUSH4 0xA9059CBB EQ PUSH2 0x40C JUMPI DUP1 PUSH4 0xC2C6640B EQ PUSH2 0x43C JUMPI DUP1 PUSH4 0xDD62ED3E EQ PUSH2 0x458 JUMPI DUP1 PUSH4 0xE4AD9A18 EQ PUSH2 0x488 JUMPI DUP1 PUSH4 0xF851A440 EQ PUSH2 0x4A4 JUMPI PUSH2 0x156 JUMP JUMPDEST DUP1 PUSH4 0x54E35BA2 EQ PUSH2 0x30A JUMPI DUP1 PUSH4 0x68DC9528 EQ PUSH2 0x326 JUMPI DUP1 PUSH4 0x6F7330E1 EQ PUSH2 0x342 JUMPI DUP1 PUSH4 0x70A08231 EQ PUSH2 0x372 JUMPI DUP1 PUSH4 0x93DC12E6 EQ PUSH2 0x3A2 JUMPI DUP1 PUSH4 0x95D89B41 EQ PUSH2 0x3BE JUMPI PUSH2 0x156 JUMP JUMPDEST DUP1 PUSH4 0x23B872DD GT PUSH2 0x113 JUMPI DUP1 PUSH4 0x23B872DD EQ PUSH2 0x25C JUMPI DUP1 PUSH4 0x313CE567 EQ PUSH2 0x28C JUMPI DUP1 PUSH4 0x336F56DC EQ PUSH2 0x2AA JUMPI DUP1 PUSH4 0x36FBAD26 EQ PUSH2 0x2C6 JUMPI DUP1 PUSH4 0x4D3820EB EQ PUSH2 0x2E4 JUMPI DUP1 PUSH4 0x4E6EC247 EQ PUSH2 0x2EE JUMPI PUSH2 0x156 JUMP JUMPDEST DUP1 PUSH4 0x2DA667B EQ PUSH2 0x15A JUMPI DUP1 PUSH4 0x6FDDE03 EQ PUSH2 0x18A JUMPI DUP1 PUSH4 0x95EA7B3 EQ PUSH2 0x1A8 JUMPI DUP1 PUSH4 0x107046BD EQ PUSH2 0x1D8 JUMPI DUP1 PUSH4 0x18160DDD EQ PUSH2 0x20E JUMPI DUP1 PUSH4 0x23B86FBE EQ PUSH2 0x22C JUMPI JUMPDEST PUSH0 PUSH0 REVERT JUMPDEST PUSH2 0x174 PUSH1 0x4 DUP1 CALLDATASIZE SUB DUP2 ADD SWAP1 PUSH2 0x16F SWAP2 SWAP1 PUSH2 0x271D JUMP JUMPDEST PUSH2 0x4C2 JUMP JUMPDEST PUSH1 0x40 MLOAD PUSH2 0x181 SWAP2 SWAP1 PUSH2 0x276A JUMP JUMPDEST PUSH1 0x40 MLOAD DUP1 SWAP2 SUB SWAP1 RETURN JUMPDEST PUSH2 0x192 PUSH2 0x7AB JUMP JUMPDEST PUSH1 0x40 MLOAD PUSH2 0x19F SWAP2 SWAP1 PUSH2 0x27F3 JUMP JUMPDEST PUSH1 0x40 MLOAD DUP1 SWAP2 SUB SWAP1 RETURN JUMPDEST PUSH2 0x1C2 PUSH1 0x4 DUP1 CALLDATASIZE SUB DUP2 ADD SWAP1 PUSH2 0x1BD SWAP2 SWAP1 PUSH2 0x286D JUMP JUMPDEST PUSH2 0x83B JUMP JUMPDEST PUSH1 0x40 MLOAD PUSH2 0x1CF SWAP2 SWAP1 PUSH2 0x28C5 JUMP JUMPDEST PUSH1 0x40 MLOAD DUP1 SWAP2 SUB SWAP1 RETURN JUMPDEST PUSH2 0x1F2 PUSH1 0x4 DUP1 CALLDATASIZE SUB DUP2 ADD SWAP1 PUSH2 0x1ED SWAP2 SWAP1 PUSH2 0x28DE JUMP JUMPDEST PUSH2 0x85D JUMP JUMPDEST PUSH1 0x40 MLOAD PUSH2 0x205 SWAP8 SWAP7 SWAP6 SWAP5 SWAP4 SWAP3 SWAP2 SWAP1 PUSH2 0x298B JUMP JUMPDEST PUSH1 0x40 MLOAD DUP1 SWAP2 SUB SWAP1 RETURN JUMPDEST PUSH2 0x216 PUSH2 0x8C6 JUMP JUMPDEST PUSH1 0x40 MLOAD PUSH2 0x223 SWAP2 SWAP1 PUSH2 0x276A JUMP JUMPDEST PUSH1 0x40 MLOAD DUP1 SWAP2 SUB SWAP1 RETURN JUMPDEST PUSH2 0x246 PUSH1 0x4 DUP1 CALLDATASIZE SUB DUP2 ADD SWAP1 PUSH2 0x241 SWAP2 SWAP1 PUSH2 0x29F8 JUMP JUMPDEST PUSH2 0x8CF JUMP JUMPDEST PUSH1 0x40 MLOAD PUSH2 0x253 SWAP2 SWAP1 PUSH2 0x276A JUMP JUMPDEST PUSH1 0x40 MLOAD DUP1 SWAP2 SUB SWAP1 RETURN JUMPDEST PUSH2 0x276 PUSH1 0x4 DUP1 CALLDATASIZE SUB DUP2 ADD SWAP1 PUSH2 0x271 SWAP2 SWAP1 PUSH2 0x2A23 JUMP JUMPDEST PUSH2 0x8E0 JUMP JUMPDEST PUSH1 0x40 MLOAD PUSH2 0x283 SWAP2 SWAP1 PUSH2 0x28C5 JUMP JUMPDEST PUSH1 0x40 MLOAD DUP1 SWAP2 SUB SWAP1 RETURN JUMPDEST PUSH2 0x294 PUSH2 0x90E JUMP JUMPDEST PUSH1 0x40 MLOAD PUSH2 0x2A1 SWAP2 SWAP1 PUSH2 0x2A8E JUMP JUMPDEST PUSH1 0x40 MLOAD DUP1 SWAP2 SUB SWAP1 RETURN JUMPDEST PUSH2 0x2C4 PUSH1 0x4 DUP1 CALLDATASIZE SUB DUP2 ADD SWAP1 PUSH2 0x2BF SWAP2 SWAP1 PUSH2 0x271D JUMP JUMPDEST PUSH2 0x916 JUMP JUMPDEST STOP JUMPDEST PUSH2 0x2CE PUSH2 0xEB7 JUMP JUMPDEST PUSH1 0x40 MLOAD PUSH2 0x2DB SWAP2 SWAP1 PUSH2 0x276A JUMP JUMPDEST PUSH1 0x40 MLOAD DUP1 SWAP2 SUB SWAP1 RETURN JUMPDEST PUSH2 0x2EC PUSH2 0xEBD JUMP JUMPDEST STOP JUMPDEST PUSH2 0x308 PUSH1 0x4 DUP1 CALLDATASIZE SUB DUP2 ADD SWAP1 PUSH2 0x303 SWAP2 SWAP1 PUSH2 0x286D JUMP JUMPDEST PUSH2 0x1084 JUMP JUMPDEST STOP JUMPDEST PUSH2 0x324 PUSH1 0x4 DUP1 CALLDATASIZE SUB DUP2 ADD SWAP1 PUSH2 0x31F SWAP2 SWAP1 PUSH2 0x271D JUMP JUMPDEST PUSH2 0x1103 JUMP JUMPDEST STOP JUMPDEST PUSH2 0x340 PUSH1 0x4 DUP1 CALLDATASIZE SUB DUP2 ADD SWAP1 PUSH2 0x33B SWAP2 SWAP1 PUSH2 0x286D JUMP JUMPDEST PUSH2 0x13BF JUMP JUMPDEST STOP JUMPDEST PUSH2 0x35C PUSH1 0x4 DUP1 CALLDATASIZE SUB DUP2 ADD SWAP1 PUSH2 0x357 SWAP2 SWAP1 PUSH2 0x2AA7 JUMP JUMPDEST PUSH2 0x153B JUMP JUMPDEST PUSH1 0x40 MLOAD PUSH2 0x369 SWAP2 SWAP1 PUSH2 0x276A JUMP JUMPDEST PUSH1 0x40 MLOAD DUP1 SWAP2 SUB SWAP1 RETURN JUMPDEST PUSH2 0x38C PUSH1 0x4 DUP1 CALLDATASIZE SUB DUP2 ADD SWAP1 PUSH2 0x387 SWAP2 SWAP1 PUSH2 0x29F8 JUMP JUMPDEST PUSH2 0x155B JUMP JUMPDEST PUSH1 0x40 MLOAD PUSH2 0x399 SWAP2 SWAP1 PUSH2 0x276A JUMP JUMPDEST PUSH1 0x40 MLOAD DUP1 SWAP2 SUB SWAP1 RETURN JUMPDEST PUSH2 0x3BC PUSH1 0x4 DUP1 CALLDATASIZE SUB DUP2 ADD SWAP1 PUSH2 0x3B7 SWAP2 SWAP1 PUSH2 0x28DE JUMP JUMPDEST PUSH2 0x15A0 JUMP JUMPDEST STOP JUMPDEST PUSH2 0x3C6 PUSH2 0x1856 JUMP JUMPDEST PUSH1 0x40 MLOAD PUSH2 0x3D3 SWAP2 SWAP1 PUSH2 0x27F3 JUMP JUMPDEST PUSH1 0x40 MLOAD DUP1 SWAP2 SUB SWAP1 RETURN JUMPDEST PUSH2 0x3F6 PUSH1 0x4 DUP1 CALLDATASIZE SUB DUP2 ADD SWAP1 PUSH2 0x3F1 SWAP2 SWAP1 PUSH2 0x29F8 JUMP JUMPDEST PUSH2 0x18E6 JUMP JUMPDEST PUSH1 0x40 MLOAD PUSH2 0x403 SWAP2 SWAP1 PUSH2 0x276A JUMP JUMPDEST PUSH1 0x40 MLOAD DUP1 SWAP2 SUB SWAP1 RETURN JUMPDEST PUSH2 0x426 PUSH1 0x4 DUP1 CALLDATASIZE SUB DUP2 ADD SWAP1 PUSH2 0x421 SWAP2 SWAP1 PUSH2 0x286D JUMP JUMPDEST PUSH2 0x1900 JUMP JUMPDEST PUSH1 0x40 MLOAD PUSH2 0x433 SWAP2 SWAP1 PUSH2 0x28C5 JUMP JUMPDEST PUSH1 0x40 MLOAD DUP1 SWAP2 SUB SWAP1 RETURN JUMPDEST PUSH2 0x456 PUSH1 0x4 DUP1 CALLDATASIZE SUB DUP2 ADD SWAP1 PUSH2 0x451 SWAP2 SWAP1 PUSH2 0x271D JUMP JUMPDEST PUSH2 0x1922 JUMP JUMPDEST STOP JUMPDEST PUSH2 0x472 PUSH1 0x4 DUP1 CALLDATASIZE SUB DUP2 ADD SWAP1 PUSH2 0x46D SWAP2 SWAP1 PUSH2 0x2AE5 JUMP JUMPDEST PUSH2 0x1E7C JUMP JUMPDEST PUSH1 0x40 MLOAD PUSH2 0x47F SWAP2 SWAP1 PUSH2 0x276A JUMP JUMPDEST PUSH1 0x40 MLOAD DUP1 SWAP2 SUB SWAP1 RETURN JUMPDEST PUSH2 0x4A2 PUSH1 0x4 DUP1 CALLDATASIZE SUB DUP2 ADD SWAP1 PUSH2 0x49D SWAP2 SWAP1 PUSH2 0x286D JUMP JUMPDEST PUSH2 0x1EFE JUMP JUMPDEST STOP JUMPDEST PUSH2 0x4AC PUSH2 0x209C JUMP JUMPDEST PUSH1 0x40 MLOAD PUSH2 0x4B9 SWAP2 SWAP1 PUSH2 0x2B23 JUMP JUMPDEST PUSH1 0x40 MLOAD DUP1 SWAP2 SUB SWAP1 RETURN JUMPDEST PUSH0 PUSH1 0xB PUSH0 SWAP1 SLOAD SWAP1 PUSH2 0x100 EXP SWAP1 DIV PUSH20 0xFFFFFFFFFFFFFFFFFFFFFFFFFFFFFFFFFFFFFFFF AND PUSH20 0xFFFFFFFFFFFFFFFFFFFFFFFFFFFFFFFFFFFFFFFF AND CALLER PUSH20 0xFFFFFFFFFFFFFFFFFFFFFFFFFFFFFFFFFFFFFFFF AND SUB PUSH2 0x552 JUMPI PUSH1 0x40 MLOAD PUSH32 0x8C379A000000000000000000000000000000000000000000000000000000000 DUP2 MSTORE PUSH1 0x4 ADD PUSH2 0x549 SWAP1 PUSH2 0x2B86 JUMP JUMPDEST PUSH1 0x40 MLOAD DUP1 SWAP2 SUB SWAP1 REVERT JUMPDEST PUSH1 0x5 PUSH0 CALLER PUSH20 0xFFFFFFFFFFFFFFFFFFFFFFFFFFFFFFFFFFFFFFFF AND PUSH20 0xFFFFFFFFFFFFFFFFFFFFFFFFFFFFFFFFFFFFFFFF AND DUP2 MSTORE PUSH1 0x20 ADD SWAP1 DUP2 MSTORE PUSH1 0x20 ADD PUSH0 KECCAK256 PUSH0 SWAP1 SLOAD SWAP1 PUSH2 0x100 EXP SWAP1 DIV PUSH1 0xFF AND PUSH2 0x5DB JUMPI PUSH1 0x40 MLOAD PUSH32 0x8C379A000000000000000000000000000000000000000000000000000000000 DUP2 MSTORE PUSH1 0x4 ADD PUSH2 0x5D2 SWAP1 PUSH2 0x2BEE JUMP JUMPDEST PUSH1 0x40 MLOAD DUP1 SWAP2 SUB SWAP1 REVERT JUMPDEST PUSH0 PUSH1 0x7 SLOAD SWAP1 POP PUSH1 0x40 MLOAD DUP1 PUSH2 0x100 ADD PUSH1 0x40 MSTORE DUP1 PUSH0 DUP2 MSTORE PUSH1 0x20 ADD PUSH0 DUP2 MSTORE PUSH1 0x20 ADD DUP6 DUP2 MSTORE PUSH1 0x20 ADD DUP5 DUP2 MSTORE PUSH1 0x20 ADD CALLER PUSH20 0xFFFFFFFFFFFFFFFFFFFFFFFFFFFFFFFFFFFFFFFF AND DUP2 MSTORE PUSH1 0x20 ADD PUSH0 DUP2 MSTORE PUSH1 0x20 ADD PUSH0 PUSH8 0xFFFFFFFFFFFFFFFF DUP2 GT ISZERO PUSH2 0x641 JUMPI PUSH2 0x640 PUSH2 0x2C0C JUMP JUMPDEST JUMPDEST PUSH1 0x40 MLOAD SWAP1 DUP1 DUP3 MSTORE DUP1 PUSH1 0x20 MUL PUSH1 0x20 ADD DUP3 ADD PUSH1 0x40 MSTORE DUP1 ISZERO PUSH2 0x66F JUMPI DUP2 PUSH1 0x20 ADD PUSH1 0x20 DUP3 MUL DUP1 CALLDATASIZE DUP4 CALLDATACOPY DUP1 DUP3 ADD SWAP2 POP POP SWAP1 POP JUMPDEST POP DUP2 MSTORE PUSH1 0x20 ADD PUSH0 PUSH1 0x3 DUP2 GT ISZERO PUSH2 0x688 JUMPI PUSH2 0x687 PUSH2 0x2918 JUMP JUMPDEST JUMPDEST DUP2 MSTORE POP PUSH1 0x9 PUSH0 DUP4 DUP2 MSTORE PUSH1 0x20 ADD SWAP1 DUP2 MSTORE PUSH1 0x20 ADD PUSH0 KECCAK256 PUSH0 DUP3 ADD MLOAD DUP2 PUSH0 ADD SSTORE PUSH1 0x20 DUP3 ADD MLOAD DUP2 PUSH1 0x1 ADD SSTORE PUSH1 0x40 DUP3 ADD MLOAD DUP2 PUSH1 0x2 ADD SSTORE PUSH1 0x60 DUP3 ADD MLOAD DUP2 PUSH1 0x3 ADD SSTORE PUSH1 0x80 DUP3 ADD MLOAD DUP2 PUSH1 0x4 ADD PUSH0 PUSH2 0x100 EXP DUP2 SLOAD DUP2 PUSH20 0xFFFFFFFFFFFFFFFFFFFFFFFFFFFFFFFFFFFFFFFF MUL NOT AND SWAP1 DUP4 PUSH20 0xFFFFFFFFFFFFFFFFFFFFFFFFFFFFFFFFFFFFFFFF AND MUL OR SWAP1 SSTORE POP PUSH1 0xA0 DUP3 ADD MLOAD DUP2 PUSH1 0x5 ADD SSTORE PUSH1 0xC0 DUP3 ADD MLOAD DUP2 PUSH1 0x6 ADD SWAP1 DUP1 MLOAD SWAP1 PUSH1 0x20 ADD SWAP1 PUSH2 0x72E SWAP3 SWAP2 SWAP1 PUSH2 0x2644 JUMP JUMPDEST POP PUSH1 0xE0 DUP3 ADD MLOAD DUP2 PUSH1 0x7 ADD PUSH0 PUSH2 0x100 EXP DUP2 SLOAD DUP2 PUSH1 0xFF MUL NOT AND SWAP1 DUP4 PUSH1 0x3 DUP2 GT ISZERO PUSH2 0x759 JUMPI PUSH2 0x758 PUSH2 0x2918 JUMP JUMPDEST JUMPDEST MUL OR SWAP1 SSTORE POP SWAP1 POP POP PUSH1 0x1 PUSH1 0x8 PUSH0 DUP4 DUP2 MSTORE PUSH1 0x20 ADD SWAP1 DUP2 MSTORE PUSH1 0x20 ADD PUSH0 KECCAK256 PUSH0 PUSH2 0x100 EXP DUP2 SLOAD DUP2 PUSH1 0xFF MUL NOT AND SWAP1 DUP4 ISZERO ISZERO MUL OR SWAP1 SSTORE POP PUSH1 0x7 PUSH0 DUP2 SLOAD DUP1 SWAP3 SWAP2 SWAP1 PUSH2 0x79C SWAP1 PUSH2 0x2C66 JUMP JUMPDEST SWAP2 SWAP1 POP SSTORE POP DUP1 SWAP2 POP POP SWAP3 SWAP2 POP POP JUMP JUMPDEST PUSH1 0x60 PUSH1 0x3 DUP1 SLOAD PUSH2 0x7BA SWAP1 PUSH2 0x2CDA JUMP JUMPDEST DUP1 PUSH1 0x1F ADD PUSH1 0x20 DUP1 SWAP2 DIV MUL PUSH1 0x20 ADD PUSH1 0x40 MLOAD SWAP1 DUP2 ADD PUSH1 0x40 MSTORE DUP1 SWAP3 SWAP2 SWAP1 DUP2 DUP2 MSTORE PUSH1 0x20 ADD DUP3 DUP1 SLOAD PUSH2 0x7E6 SWAP1 PUSH2 0x2CDA JUMP JUMPDEST DUP1 ISZERO PUSH2 0x831 JUMPI DUP1 PUSH1 0x1F LT PUSH2 0x808 JUMPI PUSH2 0x100 DUP1 DUP4 SLOAD DIV MUL DUP4 MSTORE SWAP2 PUSH1 0x20 ADD SWAP2 PUSH2 0x831 JUMP JUMPDEST DUP3 ADD SWAP2 SWAP1 PUSH0 MSTORE PUSH1 0x20 PUSH0 KECCAK256 SWAP1 JUMPDEST DUP2 SLOAD DUP2 MSTORE SWAP1 PUSH1 0x1 ADD SWAP1 PUSH1 0x20 ADD DUP1 DUP4 GT PUSH2 0x814 JUMPI DUP3 SWAP1 SUB PUSH1 0x1F AND DUP3 ADD SWAP2 JUMPDEST POP POP POP POP POP SWAP1 POP SWAP1 JUMP JUMPDEST PUSH0 PUSH0 PUSH2 0x845 PUSH2 0x20C1 JUMP JUMPDEST SWAP1 POP PUSH2 0x852 DUP2 DUP6 DUP6 PUSH2 0x20C8 JUMP JUMPDEST PUSH1 0x1 SWAP2 POP POP SWAP3 SWAP2 POP POP JUMP JUMPDEST PUSH1 0x9 PUSH1 0x20 MSTORE DUP1 PUSH0 MSTORE PUSH1 0x40 PUSH0 KECCAK256 PUSH0 SWAP2 POP SWAP1 POP DUP1 PUSH0 ADD SLOAD SWAP1 DUP1 PUSH1 0x1 ADD SLOAD SWAP1 DUP1 PUSH1 0x2 ADD SLOAD SWAP1 DUP1 PUSH1 0x3 ADD SLOAD SWAP1 DUP1 PUSH1 0x4 ADD PUSH0 SWAP1 SLOAD SWAP1 PUSH2 0x100 EXP SWAP1 DIV PUSH20 0xFFFFFFFFFFFFFFFFFFFFFFFFFFFFFFFFFFFFFFFF AND SWAP1 DUP1 PUSH1 0x5 ADD SLOAD SWAP1 DUP1 PUSH1 0x7 ADD PUSH0 SWAP1 SLOAD SWAP1 PUSH2 0x100 EXP SWAP1 DIV PUSH1 0xFF AND SWAP1 POP DUP8 JUMP JUMPDEST PUSH0 PUSH1 0x2 SLOAD SWAP1 POP SWAP1 JUMP JUMPDEST PUSH0 PUSH2 0x8D9 DUP3 PUSH2 0x155B JUMP JUMPDEST SWAP1 POP SWAP2 SWAP1 POP JUMP JUMPDEST PUSH0 PUSH0 PUSH2 0x8EA PUSH2 0x20C1 JUMP JUMPDEST SWAP1 POP PUSH2 0x8F7 DUP6 DUP3 DUP6 PUSH2 0x20DA JUMP JUMPDEST PUSH2 0x902 DUP6 DUP6 DUP6 PUSH2 0x216C JUMP JUMPDEST PUSH1 0x1 SWAP2 POP POP SWAP4 SWAP3 POP POP POP JUMP JUMPDEST PUSH0 PUSH1 0x12 SWAP1 POP SWAP1 JUMP JUMPDEST PUSH1 0xB PUSH0 SWAP1 SLOAD SWAP1 PUSH2 0x100 EXP SWAP1 DIV PUSH20 0xFFFFFFFFFFFFFFFFFFFFFFFFFFFFFFFFFFFFFFFF AND PUSH20 0xFFFFFFFFFFFFFFFFFFFFFFFFFFFFFFFFFFFFFFFF AND CALLER PUSH20 0xFFFFFFFFFFFFFFFFFFFFFFFFFFFFFFFFFFFFFFFF AND SUB PUSH2 0x9A5 JUMPI PUSH1 0x40 MLOAD PUSH32 0x8C379A000000000000000000000000000000000000000000000000000000000 DUP2 MSTORE PUSH1 0x4 ADD PUSH2 0x99C SWAP1 PUSH2 0x2B86 JUMP JUMPDEST PUSH1 0x40 MLOAD DUP1 SWAP2 SUB SWAP1 REVERT JUMPDEST PUSH1 0x5 PUSH0 CALLER PUSH20 0xFFFFFFFFFFFFFFFFFFFFFFFFFFFFFFFFFFFFFFFF AND PUSH20 0xFFFFFFFFFFFFFFFFFFFFFFFFFFFFFFFFFFFFFFFF AND DUP2 MSTORE PUSH1 0x20 ADD SWAP1 DUP2 MSTORE PUSH1 0x20 ADD PUSH0 KECCAK256 PUSH0 SWAP1 SLOAD SWAP1 PUSH2 0x100 EXP SWAP1 DIV PUSH1 0xFF AND PUSH2 0xA2E JUMPI PUSH1 0x40 MLOAD PUSH32 0x8C379A000000000000000000000000000000000000000000000000000000000 DUP2 MSTORE PUSH1 0x4 ADD PUSH2 0xA25 SWAP1 PUSH2 0x2BEE JUMP JUMPDEST PUSH1 0x40 MLOAD DUP1 SWAP2 SUB SWAP1 REVERT JUMPDEST DUP1 PUSH1 0x6 PUSH0 CALLER PUSH20 0xFFFFFFFFFFFFFFFFFFFFFFFFFFFFFFFFFFFFFFFF AND PUSH20 0xFFFFFFFFFFFFFFFFFFFFFFFFFFFFFFFFFFFFFFFF AND DUP2 MSTORE PUSH1 0x20 ADD SWAP1 DUP2 MSTORE PUSH1 0x20 ADD PUSH0 KECCAK256 PUSH0 ADD SLOAD LT ISZERO PUSH2 0xAB0 JUMPI PUSH1 0x40 MLOAD PUSH32 0x8C379A000000000000000000000000000000000000000000000000000000000 DUP2 MSTORE PUSH1 0x4 ADD PUSH2 0xAA7 SWAP1 PUSH2 0x2D54 JUMP JUMPDEST PUSH1 0x40 MLOAD DUP1 SWAP2 SUB SWAP1 REVERT JUMPDEST PUSH1 0x8 PUSH0 DUP4 DUP2 MSTORE PUSH1 0x20 ADD SWAP1 DUP2 MSTORE PUSH1 0x20 ADD PUSH0 KECCAK256 PUSH0 SWAP1 SLOAD SWAP1 PUSH2 0x100 EXP SWAP1 DIV PUSH1 0xFF AND PUSH2 0xB0D JUMPI PUSH1 0x40 MLOAD PUSH32 0x8C379A000000000000000000000000000000000000000000000000000000000 DUP2 MSTORE PUSH1 0x4 ADD PUSH2 0xB04 SWAP1 PUSH2 0x2DBC JUMP JUMPDEST PUSH1 0x40 MLOAD DUP1 SWAP2 SUB SWAP1 REVERT JUMPDEST PUSH0 PUSH1 0x3 DUP2 GT ISZERO PUSH2 0xB20 JUMPI PUSH2 0xB1F PUSH2 0x2918 JUMP JUMPDEST JUMPDEST PUSH1 0x9 PUSH0 DUP5 DUP2 MSTORE PUSH1 0x20 ADD SWAP1 DUP2 MSTORE PUSH1 0x20 ADD PUSH0 KECCAK256 PUSH1 0x7 ADD PUSH0 SWAP1 SLOAD SWAP1 PUSH2 0x100 EXP SWAP1 DIV PUSH1 0xFF AND PUSH1 0x3 DUP2 GT ISZERO PUSH2 0xB53 JUMPI PUSH2 0xB52 PUSH2 0x2918 JUMP JUMPDEST JUMPDEST EQ PUSH2 0xB93 JUMPI PUSH1 0x40 MLOAD PUSH32 0x8C379A000000000000000000000000000000000000000000000000000000000 DUP2 MSTORE PUSH1 0x4 ADD PUSH2 0xB8A SWAP1 PUSH2 0x2E4A JUMP JUMPDEST PUSH1 0x40 MLOAD DUP1 SWAP2 SUB SWAP1 REVERT JUMPDEST CALLER PUSH20 0xFFFFFFFFFFFFFFFFFFFFFFFFFFFFFFFFFFFFFFFF AND PUSH1 0x9 PUSH0 DUP5 DUP2 MSTORE PUSH1 0x20 ADD SWAP1 DUP2 MSTORE PUSH1 0x20 ADD PUSH0 KECCAK256 PUSH1 0x4 ADD PUSH0 SWAP1 SLOAD SWAP1 PUSH2 0x100 EXP SWAP1 DIV PUSH20 0xFFFFFFFFFFFFFFFFFFFFFFFFFFFFFFFFFFFFFFFF AND PUSH20 0xFFFFFFFFFFFFFFFFFFFFFFFFFFFFFFFFFFFFFFFF AND SUB PUSH2 0xC34 JUMPI PUSH1 0x40 MLOAD PUSH32 0x8C379A000000000000000000000000000000000000000000000000000000000 DUP2 MSTORE PUSH1 0x4 ADD PUSH2 0xC2B SWAP1 PUSH2 0x2EB2 JUMP JUMPDEST PUSH1 0x40 MLOAD DUP1 SWAP2 SUB SWAP1 REVERT JUMPDEST PUSH2 0xC5F PUSH1 0xB PUSH0 SWAP1 SLOAD SWAP1 PUSH2 0x100 EXP SWAP1 DIV PUSH20 0xFFFFFFFFFFFFFFFFFFFFFFFFFFFFFFFFFFFFFFFF AND DUP3 PUSH2 0x1900 JUMP JUMPDEST POP DUP1 PUSH1 0x6 PUSH0 CALLER PUSH20 0xFFFFFFFFFFFFFFFFFFFFFFFFFFFFFFFFFFFFFFFF AND PUSH20 0xFFFFFFFFFFFFFFFFFFFFFFFFFFFFFFFFFFFFFFFF AND DUP2 MSTORE PUSH1 0x20 ADD SWAP1 DUP2 MSTORE PUSH1 0x20 ADD PUSH0 KECCAK256 PUSH0 ADD PUSH0 DUP3 DUP3 SLOAD PUSH2 0xCAE SWAP2 SWAP1 PUSH2 0x2ED0 JUMP JUMPDEST SWAP3 POP POP DUP2 SWAP1 SSTORE POP PUSH0 PUSH1 0xA PUSH0 DUP5 DUP2 MSTORE PUSH1 0x20 ADD SWAP1 DUP2 MSTORE PUSH1 0x20 ADD PUSH0 KECCAK256 PUSH0 CALLER PUSH20 0xFFFFFFFFFFFFFFFFFFFFFFFFFFFFFFFFFFFFFFFF AND PUSH20 0xFFFFFFFFFFFFFFFFFFFFFFFFFFFFFFFFFFFFFFFF AND DUP2 MSTORE PUSH1 0x20 ADD SWAP1 DUP2 MSTORE PUSH1 0x20 ADD PUSH0 KECCAK256 SLOAD SUB PUSH2 0xDA6 JUMPI PUSH1 0x9 PUSH0 DUP4 DUP2 MSTORE PUSH1 0x20 ADD SWAP1 DUP2 MSTORE PUSH1 0x20 ADD PUSH0 KECCAK256 PUSH1 0x6 ADD CALLER SWAP1 DUP1 PUSH1 0x1 DUP2 SLOAD ADD DUP1 DUP3 SSTORE DUP1 SWAP2 POP POP PUSH1 0x1 SWAP1 SUB SWAP1 PUSH0 MSTORE PUSH1 0x20 PUSH0 KECCAK256 ADD PUSH0 SWAP1 SWAP2 SWAP1 SWAP2 SWAP1 SWAP2 PUSH2 0x100 EXP DUP2 SLOAD DUP2 PUSH20 0xFFFFFFFFFFFFFFFFFFFFFFFFFFFFFFFFFFFFFFFF MUL NOT AND SWAP1 DUP4 PUSH20 0xFFFFFFFFFFFFFFFFFFFFFFFFFFFFFFFFFFFFFFFF AND MUL OR SWAP1 SSTORE POP PUSH1 0x1 PUSH1 0x9 PUSH0 DUP5 DUP2 MSTORE PUSH1 0x20 ADD SWAP1 DUP2 MSTORE PUSH1 0x20 ADD PUSH0 KECCAK256 PUSH1 0x5 ADD PUSH0 DUP3 DUP3 SLOAD PUSH2 0xD9E SWAP2 SWAP1 PUSH2 0x2F03 JUMP JUMPDEST SWAP3 POP POP DUP2 SWAP1 SSTORE POP JUMPDEST DUP1 PUSH1 0x9 PUSH0 DUP5 DUP2 MSTORE PUSH1 0x20 ADD SWAP1 DUP2 MSTORE PUSH1 0x20 ADD PUSH0 KECCAK256 PUSH1 0x1 ADD PUSH0 DUP3 DUP3 SLOAD PUSH2 0xDC9 SWAP2 SWAP1 PUSH2 0x2F03 JUMP JUMPDEST SWAP3 POP POP DUP2 SWAP1 SSTORE PUSH1 0x9 PUSH0 DUP5 DUP2 MSTORE PUSH1 0x20 ADD SWAP1 DUP2 MSTORE PUSH1 0x20 ADD PUSH0 KECCAK256 PUSH0 ADD DUP2 SWAP1 SSTORE POP DUP1 PUSH1 0xA PUSH0 DUP5 DUP2 MSTORE PUSH1 0x20 ADD SWAP1 DUP2 MSTORE PUSH1 0x20 ADD PUSH0 KECCAK256 PUSH0 CALLER PUSH20 0xFFFFFFFFFFFFFFFFFFFFFFFFFFFFFFFFFFFFFFFF AND PUSH20 0xFFFFFFFFFFFFFFFFFFFFFFFFFFFFFFFFFFFFFFFF AND DUP2 MSTORE PUSH1 0x20 ADD SWAP1 DUP2 MSTORE PUSH1 0x20 ADD PUSH0 KECCAK256 PUSH0 DUP3 DUP3 SLOAD PUSH2 0xE41 SWAP2 SWAP1 PUSH2 0x2F03 JUMP JUMPDEST SWAP3 POP POP DUP2 SWAP1 SSTORE POP PUSH1 0x9 PUSH0 DUP4 DUP2 MSTORE PUSH1 0x20 ADD SWAP1 DUP2 MSTORE PUSH1 0x20 ADD PUSH0 KECCAK256 PUSH1 0x2 ADD SLOAD PUSH1 0x9 PUSH0 DUP5 DUP2 MSTORE PUSH1 0x20 ADD SWAP1 DUP2 MSTORE PUSH1 0x20 ADD PUSH0 KECCAK256 PUSH0 ADD SLOAD LT PUSH2 0xEB3 JUMPI PUSH1 0x1 PUSH1 0x9 PUSH0 DUP5 DUP2 MSTORE PUSH1 0x20 ADD SWAP1 DUP2 MSTORE PUSH1 0x20 ADD PUSH0 KECCAK256 PUSH1 0x7 ADD PUSH0 PUSH2 0x100 EXP DUP2 SLOAD DUP2 PUSH1 0xFF MUL NOT AND SWAP1 DUP4 PUSH1 0x3 DUP2 GT ISZERO PUSH2 0xEAD JUMPI PUSH2 0xEAC PUSH2 0x2918 JUMP JUMPDEST JUMPDEST MUL OR SWAP1 SSTORE POP JUMPDEST POP POP JUMP JUMPDEST PUSH1 0x7 SLOAD DUP2 JUMP JUMPDEST PUSH1 0xB PUSH0 SWAP1 SLOAD SWAP1 PUSH2 0x100 EXP SWAP1 DIV PUSH20 0xFFFFFFFFFFFFFFFFFFFFFFFFFFFFFFFFFFFFFFFF AND PUSH20 0xFFFFFFFFFFFFFFFFFFFFFFFFFFFFFFFFFFFFFFFF AND CALLER PUSH20 0xFFFFFFFFFFFFFFFFFFFFFFFFFFFFFFFFFFFFFFFF AND SUB PUSH2 0xF4C JUMPI PUSH1 0x40 MLOAD PUSH32 0x8C379A000000000000000000000000000000000000000000000000000000000 DUP2 MSTORE PUSH1 0x4 ADD PUSH2 0xF43 SWAP1 PUSH2 0x2B86 JUMP JUMPDEST PUSH1 0x40 MLOAD DUP1 SWAP2 SUB SWAP1 REVERT JUMPDEST PUSH1 0x5 PUSH0 CALLER PUSH20 0xFFFFFFFFFFFFFFFFFFFFFFFFFFFFFFFFFFFFFFFF AND PUSH20 0xFFFFFFFFFFFFFFFFFFFFFFFFFFFFFFFFFFFFFFFF AND DUP2 MSTORE PUSH1 0x20 ADD SWAP1 DUP2 MSTORE PUSH1 0x20 ADD PUSH0 KECCAK256 PUSH0 SWAP1 SLOAD SWAP1 PUSH2 0x100 EXP SWAP1 DIV PUSH1 0xFF AND ISZERO PUSH2 0xFD6 JUMPI PUSH1 0x40 MLOAD PUSH32 0x8C379A000000000000000000000000000000000000000000000000000000000 DUP2 MSTORE PUSH1 0x4 ADD PUSH2 0xFCD SWAP1 PUSH2 0x2F80 JUMP JUMPDEST PUSH1 0x40 MLOAD DUP1 SWAP2 SUB SWAP1 REVERT JUMPDEST PUSH1 0x1 PUSH1 0x5 PUSH0 CALLER PUSH20 0xFFFFFFFFFFFFFFFFFFFFFFFFFFFFFFFFFFFFFFFF AND PUSH20 0xFFFFFFFFFFFFFFFFFFFFFFFFFFFFFFFFFFFFFFFF AND DUP2 MSTORE PUSH1 0x20 ADD SWAP1 DUP2 MSTORE PUSH1 0x20 ADD PUSH0 KECCAK256 PUSH0 PUSH2 0x100 EXP DUP2 SLOAD DUP2 PUSH1 0xFF MUL NOT AND SWAP1 DUP4 ISZERO ISZERO MUL OR SWAP1 SSTORE POP PUSH1 0x40 MLOAD DUP1 PUSH1 0x20 ADD PUSH1 0x40 MSTORE DUP1 PUSH0 DUP2 MSTORE POP PUSH1 0x6 PUSH0 CALLER PUSH20 0xFFFFFFFFFFFFFFFFFFFFFFFFFFFFFFFFFFFFFFFF AND PUSH20 0xFFFFFFFFFFFFFFFFFFFFFFFFFFFFFFFFFFFFFFFF AND DUP2 MSTORE PUSH1 0x20 ADD SWAP1 DUP2 MSTORE PUSH1 0x20 ADD PUSH0 KECCAK256 PUSH0 DUP3 ADD MLOAD DUP2 PUSH0 ADD SSTORE SWAP1 POP POP JUMP JUMPDEST PUSH0 PUSH20 0xFFFFFFFFFFFFFFFFFFFFFFFFFFFFFFFFFFFFFFFF AND DUP3 PUSH20 0xFFFFFFFFFFFFFFFFFFFFFFFFFFFFFFFFFFFFFFFF AND SUB PUSH2 0x10F4 JUMPI PUSH0 PUSH1 0x40 MLOAD PUSH32 0xEC442F0500000000000000000000000000000000000000000000000000000000 DUP2 MSTORE PUSH1 0x4 ADD PUSH2 0x10EB SWAP2 SWAP1 PUSH2 0x2B23 JUMP JUMPDEST PUSH1 0x40 MLOAD DUP1 SWAP2 SUB SWAP1 REVERT JUMPDEST PUSH2 0x10FF PUSH0 DUP4 DUP4 PUSH2 0x225C JUMP JUMPDEST POP POP JUMP JUMPDEST PUSH1 0xB PUSH0 SWAP1 SLOAD SWAP1 PUSH2 0x100 EXP SWAP1 DIV PUSH20 0xFFFFFFFFFFFFFFFFFFFFFFFFFFFFFFFFFFFFFFFF AND PUSH20 0xFFFFFFFFFFFFFFFFFFFFFFFFFFFFFFFFFFFFFFFF AND CALLER PUSH20 0xFFFFFFFFFFFFFFFFFFFFFFFFFFFFFFFFFFFFFFFF AND EQ PUSH2 0x1192 JUMPI PUSH1 0x40 MLOAD PUSH32 0x8C379A000000000000000000000000000000000000000000000000000000000 DUP2 MSTORE PUSH1 0x4 ADD PUSH2 0x1189 SWAP1 PUSH2 0x2FE8 JUMP JUMPDEST PUSH1 0x40 MLOAD DUP1 SWAP2 SUB SWAP1 REVERT JUMPDEST PUSH1 0x8 PUSH0 DUP4 DUP2 MSTORE PUSH1 0x20 ADD SWAP1 DUP2 MSTORE PUSH1 0x20 ADD PUSH0 KECCAK256 PUSH0 SWAP1 SLOAD SWAP1 PUSH2 0x100 EXP SWAP1 DIV PUSH1 0xFF AND PUSH2 0x11EF JUMPI PUSH1 0x40 MLOAD PUSH32 0x8C379A000000000000000000000000000000000000000000000000000000000 DUP2 MSTORE PUSH1 0x4 ADD PUSH2 0x11E6 SWAP1 PUSH2 0x2DBC JUMP JUMPDEST PUSH1 0x40 MLOAD DUP1 SWAP2 SUB SWAP1 REVERT JUMPDEST PUSH1 0x1 PUSH1 0x3 DUP2 GT ISZERO PUSH2 0x1203 JUMPI PUSH2 0x1202 PUSH2 0x2918 JUMP JUMPDEST JUMPDEST PUSH1 0x9 PUSH0 DUP5 DUP2 MSTORE PUSH1 0x20 ADD SWAP1 DUP2 MSTORE PUSH1 0x20 ADD PUSH0 KECCAK256 PUSH1 0x7 ADD PUSH0 SWAP1 SLOAD SWAP1 PUSH2 0x100 EXP SWAP1 DIV PUSH1 0xFF AND PUSH1 0x3 DUP2 GT ISZERO PUSH2 0x1236 JUMPI PUSH2 0x1235 PUSH2 0x2918 JUMP JUMPDEST JUMPDEST EQ PUSH2 0x1276 JUMPI PUSH1 0x40 MLOAD PUSH32 0x8C379A000000000000000000000000000000000000000000000000000000000 DUP2 MSTORE PUSH1 0x4 ADD PUSH2 0x126D SWAP1 PUSH2 0x3050 JUMP JUMPDEST PUSH1 0x40 MLOAD DUP1 SWAP2 SUB SWAP1 REVERT JUMPDEST DUP1 PUSH1 0x9 PUSH0 DUP5 DUP2 MSTORE PUSH1 0x20 ADD SWAP1 DUP2 MSTORE PUSH1 0x20 ADD PUSH0 KECCAK256 PUSH0 ADD SLOAD LT ISZERO PUSH2 0x12CC JUMPI PUSH1 0x40 MLOAD PUSH32 0x8C379A000000000000000000000000000000000000000000000000000000000 DUP2 MSTORE PUSH1 0x4 ADD PUSH2 0x12C3 SWAP1 PUSH2 0x30B8 JUMP JUMPDEST PUSH1 0x40 MLOAD DUP1 SWAP2 SUB SWAP1 REVERT JUMPDEST PUSH2 0x1309 PUSH1 0x9 PUSH0 DUP5 DUP2 MSTORE PUSH1 0x20 ADD SWAP1 DUP2 MSTORE PUSH1 0x20 ADD PUSH0 KECCAK256 PUSH1 0x4 ADD PUSH0 SWAP1 SLOAD SWAP1 PUSH2 0x100 EXP SWAP1 DIV PUSH20 0xFFFFFFFFFFFFFFFFFFFFFFFFFFFFFFFFFFFFFFFF AND DUP3 PUSH2 0x1900 JUMP JUMPDEST POP DUP1 PUSH1 0x6 PUSH0 PUSH1 0x9 PUSH0 DUP7 DUP2 MSTORE PUSH1 0x20 ADD SWAP1 DUP2 MSTORE PUSH1 0x20 ADD PUSH0 KECCAK256 PUSH1 0x4 ADD PUSH0 SWAP1 SLOAD SWAP1 PUSH2 0x100 EXP SWAP1 DIV PUSH20 0xFFFFFFFFFFFFFFFFFFFFFFFFFFFFFFFFFFFFFFFF AND PUSH20 0xFFFFFFFFFFFFFFFFFFFFFFFFFFFFFFFFFFFFFFFF AND PUSH20 0xFFFFFFFFFFFFFFFFFFFFFFFFFFFFFFFFFFFFFFFF AND DUP2 MSTORE PUSH1 0x20 ADD SWAP1 DUP2 MSTORE PUSH1 0x20 ADD PUSH0 KECCAK256 PUSH0 ADD PUSH0 DUP3 DUP3 SLOAD PUSH2 0x138B SWAP2 SWAP1 PUSH2 0x2F03 JUMP JUMPDEST SWAP3 POP POP DUP2 SWAP1 SSTORE POP DUP1 PUSH1 0x9 PUSH0 DUP5 DUP2 MSTORE PUSH1 0x20 ADD SWAP1 DUP2 MSTORE PUSH1 0x20 ADD PUSH0 KECCAK256 PUSH0 ADD PUSH0 DUP3 DUP3 SLOAD PUSH2 0x13B4 SWAP2 SWAP1 PUSH2 0x2ED0 JUMP JUMPDEST SWAP3 POP POP DUP2 SWAP1 SSTORE POP POP POP JUMP JUMPDEST PUSH1 0xB PUSH0 SWAP1 SLOAD SWAP1 PUSH2 0x100 EXP SWAP1 DIV PUSH20 0xFFFFFFFFFFFFFFFFFFFFFFFFFFFFFFFFFFFFFFFF AND PUSH20 0xFFFFFFFFFFFFFFFFFFFFFFFFFFFFFFFFFFFFFFFF AND CALLER PUSH20 0xFFFFFFFFFFFFFFFFFFFFFFFFFFFFFFFFFFFFFFFF AND EQ PUSH2 0x144E JUMPI PUSH1 0x40 MLOAD PUSH32 0x8C379A000000000000000000000000000000000000000000000000000000000 DUP2 MSTORE PUSH1 0x4 ADD PUSH2 0x1445 SWAP1 PUSH2 0x2FE8 JUMP JUMPDEST PUSH1 0x40 MLOAD DUP1 SWAP2 SUB SWAP1 REVERT JUMPDEST PUSH1 0x5 PUSH0 DUP4 PUSH20 0xFFFFFFFFFFFFFFFFFFFFFFFFFFFFFFFFFFFFFFFF AND PUSH20 0xFFFFFFFFFFFFFFFFFFFFFFFFFFFFFFFFFFFFFFFF AND DUP2 MSTORE PUSH1 0x20 ADD SWAP1 DUP2 MSTORE PUSH1 0x20 ADD PUSH0 KECCAK256 PUSH0 SWAP1 SLOAD SWAP1 PUSH2 0x100 EXP SWAP1 DIV PUSH1 0xFF AND PUSH2 0x14D7 JUMPI PUSH1 0x40 MLOAD PUSH32 0x8C379A000000000000000000000000000000000000000000000000000000000 DUP2 MSTORE PUSH1 0x4 ADD PUSH2 0x14CE SWAP1 PUSH2 0x2BEE JUMP JUMPDEST PUSH1 0x40 MLOAD DUP1 SWAP2 SUB SWAP1 REVERT JUMPDEST PUSH2 0x14E1 DUP3 DUP3 PUSH2 0x1900 JUMP JUMPDEST POP DUP1 PUSH1 0x6 PUSH0 DUP5 PUSH20 0xFFFFFFFFFFFFFFFFFFFFFFFFFFFFFFFFFFFFFFFF AND PUSH20 0xFFFFFFFFFFFFFFFFFFFFFFFFFFFFFFFFFFFFFFFF AND DUP2 MSTORE PUSH1 0x20 ADD SWAP1 DUP2 MSTORE PUSH1 0x20 ADD PUSH0 KECCAK256 PUSH0 ADD PUSH0 DUP3 DUP3 SLOAD PUSH2 0x1530 SWAP2 SWAP1 PUSH2 0x2F03 JUMP JUMPDEST SWAP3 POP POP DUP2 SWAP1 SSTORE POP POP POP JUMP JUMPDEST PUSH1 0xA PUSH1 0x20 MSTORE DUP2 PUSH0 MSTORE PUSH1 0x40 PUSH0 KECCAK256 PUSH1 0x20 MSTORE DUP1 PUSH0 MSTORE PUSH1 0x40 PUSH0 KECCAK256 PUSH0 SWAP2 POP SWAP2 POP POP SLOAD DUP2 JUMP JUMPDEST PUSH0 PUSH0 PUSH0 DUP4 PUSH20 0xFFFFFFFFFFFFFFFFFFFFFFFFFFFFFFFFFFFFFFFF AND PUSH20 0xFFFFFFFFFFFFFFFFFFFFFFFFFFFFFFFFFFFFFFFF AND DUP2 MSTORE PUSH1 0x20 ADD SWAP1 DUP2 MSTORE PUSH1 0x20 ADD PUSH0 KECCAK256 SLOAD SWAP1 POP SWAP2 SWAP1 POP JUMP JUMPDEST PUSH1 0xB PUSH0 SWAP1 SLOAD SWAP1 PUSH2 0x100 EXP SWAP1 DIV PUSH20 0xFFFFFFFFFFFFFFFFFFFFFFFFFFFFFFFFFFFFFFFF AND PUSH20 0xFFFFFFFFFFFFFFFFFFFFFFFFFFFFFFFFFFFFFFFF AND CALLER PUSH20 0xFFFFFFFFFFFFFFFFFFFFFFFFFFFFFFFFFFFFFFFF AND EQ PUSH2 0x162F JUMPI PUSH1 0x40 MLOAD PUSH32 0x8C379A000000000000000000000000000000000000000000000000000000000 DUP2 MSTORE PUSH1 0x4 ADD PUSH2 0x1626 SWAP1 PUSH2 0x2FE8 JUMP JUMPDEST PUSH1 0x40 MLOAD DUP1 SWAP2 SUB SWAP1 REVERT JUMPDEST PUSH0 PUSH0 SWAP1 POP JUMPDEST PUSH1 0x9 PUSH0 DUP4 DUP2 MSTORE PUSH1 0x20 ADD SWAP1 DUP2 MSTORE PUSH1 0x20 ADD PUSH0 KECCAK256 PUSH1 0x5 ADD SLOAD DUP2 LT ISZERO PUSH2 0x17C5 JUMPI PUSH0 PUSH1 0x9 PUSH0 DUP5 DUP2 MSTORE PUSH1 0x20 ADD SWAP1 DUP2 MSTORE PUSH1 0x20 ADD PUSH0 KECCAK256 PUSH1 0x6 ADD DUP3 DUP2 SLOAD DUP2 LT PUSH2 0x1677 JUMPI PUSH2 0x1676 PUSH2 0x30D6 JUMP JUMPDEST JUMPDEST SWAP1 PUSH0 MSTORE PUSH1 0x20 PUSH0 KECCAK256 ADD PUSH0 SWAP1 SLOAD SWAP1 PUSH2 0x100 EXP SWAP1 DIV PUSH20 0xFFFFFFFFFFFFFFFFFFFFFFFFFFFFFFFFFFFFFFFF AND SWAP1 POP PUSH0 PUSH1 0xA PUSH0 DUP6 DUP2 MSTORE PUSH1 0x20 ADD SWAP1 DUP2 MSTORE PUSH1 0x20 ADD PUSH0 KECCAK256 PUSH0 DUP4 PUSH20 0xFFFFFFFFFFFFFFFFFFFFFFFFFFFFFFFFFFFFFFFF AND PUSH20 0xFFFFFFFFFFFFFFFFFFFFFFFFFFFFFFFFFFFFFFFF AND DUP2 MSTORE PUSH1 0x20 ADD SWAP1 DUP2 MSTORE PUSH1 0x20 ADD PUSH0 KECCAK256 SLOAD SWAP1 POP PUSH0 PUSH1 0x9 PUSH0 DUP7 DUP2 MSTORE PUSH1 0x20 ADD SWAP1 DUP2 MSTORE PUSH1 0x20 ADD PUSH0 KECCAK256 PUSH1 0x1 ADD SLOAD SWAP1 POP PUSH0 DUP2 PUSH8 0xDE0B6B3A7640000 DUP5 PUSH2 0x171F SWAP2 SWAP1 PUSH2 0x3103 JUMP JUMPDEST PUSH2 0x1729 SWAP2 SWAP1 PUSH2 0x3171 JUMP JUMPDEST SWAP1 POP DUP1 PUSH1 0x9 PUSH0 DUP9 DUP2 MSTORE PUSH1 0x20 ADD SWAP1 DUP2 MSTORE PUSH1 0x20 ADD PUSH0 KECCAK256 PUSH0 ADD PUSH0 DUP3 DUP3 SLOAD PUSH2 0x174D SWAP2 SWAP1 PUSH2 0x2ED0 JUMP JUMPDEST SWAP3 POP POP DUP2 SWAP1 SSTORE POP DUP1 PUSH1 0x6 PUSH0 DUP7 PUSH20 0xFFFFFFFFFFFFFFFFFFFFFFFFFFFFFFFFFFFFFFFF AND PUSH20 0xFFFFFFFFFFFFFFFFFFFFFFFFFFFFFFFFFFFFFFFF AND DUP2 MSTORE PUSH1 0x20 ADD SWAP1 DUP2 MSTORE PUSH1 0x20 ADD PUSH0 KECCAK256 PUSH0 ADD PUSH0 DUP3 DUP3 SLOAD PUSH2 0x17A2 SWAP2 SWAP1 PUSH2 0x2F03 JUMP JUMPDEST SWAP3 POP POP DUP2 SWAP1 SSTORE POP PUSH2 0x17B3 DUP5 DUP3 PUSH2 0x1900 JUMP JUMPDEST POP POP POP POP POP DUP1 DUP1 PUSH1 0x1 ADD SWAP2 POP POP PUSH2 0x1634 JUMP JUMPDEST POP PUSH2 0x1816 PUSH1 0x9 PUSH0 DUP4 DUP2 MSTORE PUSH1 0x20 ADD SWAP1 DUP2 MSTORE PUSH1 0x20 ADD PUSH0 KECCAK256 PUSH1 0x4 ADD PUSH0 SWAP1 SLOAD SWAP1 PUSH2 0x100 EXP SWAP1 DIV PUSH20 0xFFFFFFFFFFFFFFFFFFFFFFFFFFFFFFFFFFFFFFFF AND PUSH1 0x9 PUSH0 DUP5 DUP2 MSTORE PUSH1 0x20 ADD SWAP1 DUP2 MSTORE PUSH1 0x20 ADD PUSH0 KECCAK256 PUSH0 ADD SLOAD PUSH2 0x1900 JUMP JUMPDEST POP PUSH1 0x3 PUSH1 0x9 PUSH0 DUP4 DUP2 MSTORE PUSH1 0x20 ADD SWAP1 DUP2 MSTORE PUSH1 0x20 ADD PUSH0 KECCAK256 PUSH1 0x7 ADD PUSH0 PUSH2 0x100 EXP DUP2 SLOAD DUP2 PUSH1 0xFF MUL NOT AND SWAP1 DUP4 PUSH1 0x3 DUP2 GT ISZERO PUSH2 0x184E JUMPI PUSH2 0x184D PUSH2 0x2918 JUMP JUMPDEST JUMPDEST MUL OR SWAP1 SSTORE POP POP JUMP JUMPDEST PUSH1 0x60 PUSH1 0x4 DUP1 SLOAD PUSH2 0x1865 SWAP1 PUSH2 0x2CDA JUMP JUMPDEST DUP1 PUSH1 0x1F ADD PUSH1 0x20 DUP1 SWAP2 DIV MUL PUSH1 0x20 ADD PUSH1 0x40 MLOAD SWAP1 DUP2 ADD PUSH1 0x40 MSTORE DUP1 SWAP3 SWAP2 SWAP1 DUP2 DUP2 MSTORE PUSH1 0x20 ADD DUP3 DUP1 SLOAD PUSH2 0x1891 SWAP1 PUSH2 0x2CDA JUMP JUMPDEST DUP1 ISZERO PUSH2 0x18DC JUMPI DUP1 PUSH1 0x1F LT PUSH2 0x18B3 JUMPI PUSH2 0x100 DUP1 DUP4 SLOAD DIV MUL DUP4 MSTORE SWAP2 PUSH1 0x20 ADD SWAP2 PUSH2 0x18DC JUMP JUMPDEST DUP3 ADD SWAP2 SWAP1 PUSH0 MSTORE PUSH1 0x20 PUSH0 KECCAK256 SWAP1 JUMPDEST DUP2 SLOAD DUP2 MSTORE SWAP1 PUSH1 0x1 ADD SWAP1 PUSH1 0x20 ADD DUP1 DUP4 GT PUSH2 0x18BF JUMPI DUP3 SWAP1 SUB PUSH1 0x1F AND DUP3 ADD SWAP2 JUMPDEST POP POP POP POP POP SWAP1 POP SWAP1 JUMP JUMPDEST PUSH1 0x6 PUSH1 0x20 MSTORE DUP1 PUSH0 MSTORE PUSH1 0x40 PUSH0 KECCAK256 PUSH0 SWAP2 POP SWAP1 POP DUP1 PUSH0 ADD SLOAD SWAP1 POP DUP2 JUMP JUMPDEST PUSH0 PUSH0 PUSH2 0x190A PUSH2 0x20C1 JUMP JUMPDEST SWAP1 POP PUSH2 0x1917 DUP2 DUP6 DUP6 PUSH2 0x216C JUMP JUMPDEST PUSH1 0x1 SWAP2 POP POP SWAP3 SWAP2 POP POP JUMP JUMPDEST PUSH1 0xB PUSH0 SWAP1 SLOAD SWAP1 PUSH2 0x100 EXP SWAP1 DIV PUSH20 0xFFFFFFFFFFFFFFFFFFFFFFFFFFFFFFFFFFFFFFFF AND PUSH20 0xFFFFFFFFFFFFFFFFFFFFFFFFFFFFFFFFFFFFFFFF AND CALLER PUSH20 0xFFFFFFFFFFFFFFFFFFFFFFFFFFFFFFFFFFFFFFFF AND SUB PUSH2 0x19B1 JUMPI PUSH1 0x40 MLOAD PUSH32 0x8C379A000000000000000000000000000000000000000000000000000000000 DUP2 MSTORE PUSH1 0x4 ADD PUSH2 0x19A8 SWAP1 PUSH2 0x2B86 JUMP JUMPDEST PUSH1 0x40 MLOAD DUP1 SWAP2 SUB SWAP1 REVERT JUMPDEST PUSH1 0x5 PUSH0 CALLER PUSH20 0xFFFFFFFFFFFFFFFFFFFFFFFFFFFFFFFFFFFFFFFF AND PUSH20 0xFFFFFFFFFFFFFFFFFFFFFFFFFFFFFFFFFFFFFFFF AND DUP2 MSTORE PUSH1 0x20 ADD SWAP1 DUP2 MSTORE PUSH1 0x20 ADD PUSH0 KECCAK256 PUSH0 SWAP1 SLOAD SWAP1 PUSH2 0x100 EXP SWAP1 DIV PUSH1 0xFF AND PUSH2 0x1A3A JUMPI PUSH1 0x40 MLOAD PUSH32 0x8C379A000000000000000000000000000000000000000000000000000000000 DUP2 MSTORE PUSH1 0x4 ADD PUSH2 0x1A31 SWAP1 PUSH2 0x2BEE JUMP JUMPDEST PUSH1 0x40 MLOAD DUP1 SWAP2 SUB SWAP1 REVERT JUMPDEST DUP1 PUSH1 0x6 PUSH0 CALLER PUSH20 0xFFFFFFFFFFFFFFFFFFFFFFFFFFFFFFFFFFFFFFFF AND PUSH20 0xFFFFFFFFFFFFFFFFFFFFFFFFFFFFFFFFFFFFFFFF AND DUP2 MSTORE PUSH1 0x20 ADD SWAP1 DUP2 MSTORE PUSH1 0x20 ADD PUSH0 KECCAK256 PUSH0 ADD SLOAD LT ISZERO PUSH2 0x1ABC JUMPI PUSH1 0x40 MLOAD PUSH32 0x8C379A000000000000000000000000000000000000000000000000000000000 DUP2 MSTORE PUSH1 0x4 ADD PUSH2 0x1AB3 SWAP1 PUSH2 0x2D54 JUMP JUMPDEST PUSH1 0x40 MLOAD DUP1 SWAP2 SUB SWAP1 REVERT JUMPDEST PUSH1 0x8 PUSH0 DUP4 DUP2 MSTORE PUSH1 0x20 ADD SWAP1 DUP2 MSTORE PUSH1 0x20 ADD PUSH0 KECCAK256 PUSH0 SWAP1 SLOAD SWAP1 PUSH2 0x100 EXP SWAP1 DIV PUSH1 0xFF AND PUSH2 0x1B19 JUMPI PUSH1 0x40 MLOAD PUSH32 0x8C379A000000000000000000000000000000000000000000000000000000000 DUP2 MSTORE PUSH1 0x4 ADD PUSH2 0x1B10 SWAP1 PUSH2 0x2DBC JUMP JUMPDEST PUSH1 0x40 MLOAD DUP1 SWAP2 SUB SWAP1 REVERT JUMPDEST PUSH1 0x1 PUSH1 0x3 DUP2 GT ISZERO PUSH2 0x1B2D JUMPI PUSH2 0x1B2C PUSH2 0x2918 JUMP JUMPDEST JUMPDEST PUSH1 0x9 PUSH0 DUP5 DUP2 MSTORE PUSH1 0x20 ADD SWAP1 DUP2 MSTORE PUSH1 0x20 ADD PUSH0 KECCAK256 PUSH1 0x7 ADD PUSH0 SWAP1 SLOAD SWAP1 PUSH2 0x100 EXP SWAP1 DIV PUSH1 0xFF AND PUSH1 0x3 DUP2 GT ISZERO PUSH2 0x1B60 JUMPI PUSH2 0x1B5F PUSH2 0x2918 JUMP JUMPDEST JUMPDEST EQ PUSH2 0x1BA0 JUMPI PUSH1 0x40 MLOAD PUSH32 0x8C379A000000000000000000000000000000000000000000000000000000000 DUP2 MSTORE PUSH1 0x4 ADD PUSH2 0x1B97 SWAP1 PUSH2 0x31EB JUMP JUMPDEST PUSH1 0x40 MLOAD DUP1 SWAP2 SUB SWAP1 REVERT JUMPDEST PUSH0 PUSH0 SWAP1 POP JUMPDEST PUSH1 0x9 PUSH0 DUP5 DUP2 MSTORE PUSH1 0x20 ADD SWAP1 DUP2 MSTORE PUSH1 0x20 ADD PUSH0 KECCAK256 PUSH1 0x5 ADD SLOAD DUP2 LT ISZERO PUSH2 0x1E77 JUMPI PUSH0 PUSH1 0x9 PUSH0 DUP6 DUP2 MSTORE PUSH1 0x20 ADD SWAP1 DUP2 MSTORE PUSH1 0x20 ADD PUSH0 KECCAK256 PUSH1 0x6 ADD DUP3 DUP2 SLOAD DUP2 LT PUSH2 0x1BE8 JUMPI PUSH2 0x1BE7 PUSH2 0x30D6 JUMP JUMPDEST JUMPDEST SWAP1 PUSH0 MSTORE PUSH1 0x20 PUSH0 KECCAK256 ADD PUSH0 SWAP1 SLOAD SWAP1 PUSH2 0x100 EXP SWAP1 DIV PUSH20 0xFFFFFFFFFFFFFFFFFFFFFFFFFFFFFFFFFFFFFFFF AND SWAP1 POP PUSH0 PUSH1 0xA PUSH0 DUP7 DUP2 MSTORE PUSH1 0x20 ADD SWAP1 DUP2 MSTORE PUSH1 0x20 ADD PUSH0 KECCAK256 PUSH0 DUP4 PUSH20 0xFFFFFFFFFFFFFFFFFFFFFFFFFFFFFFFFFFFFFFFF AND PUSH20 0xFFFFFFFFFFFFFFFFFFFFFFFFFFFFFFFFFFFFFFFF AND DUP2 MSTORE PUSH1 0x20 ADD SWAP1 DUP2 MSTORE PUSH1 0x20 ADD PUSH0 KECCAK256 SLOAD SWAP1 POP PUSH0 PUSH1 0x9 PUSH0 DUP8 DUP2 MSTORE PUSH1 0x20 ADD SWAP1 DUP2 MSTORE PUSH1 0x20 ADD PUSH0 KECCAK256 PUSH1 0x1 ADD SLOAD SWAP1 POP PUSH0 DUP2 PUSH8 0xDE0B6B3A7640000 DUP5 PUSH2 0x1C90 SWAP2 SWAP1 PUSH2 0x3103 JUMP JUMPDEST PUSH2 0x1C9A SWAP2 SWAP1 PUSH2 0x3171 JUMP JUMPDEST SWAP1 POP PUSH0 PUSH8 0xDE0B6B3A7640000 DUP8 DUP4 PUSH2 0x1CB2 SWAP2 SWAP1 PUSH2 0x3103 JUMP JUMPDEST PUSH2 0x1CBC SWAP2 SWAP1 PUSH2 0x3171 JUMP JUMPDEST SWAP1 POP PUSH0 PUSH1 0x64 PUSH1 0x9 PUSH0 DUP12 DUP2 MSTORE PUSH1 0x20 ADD SWAP1 DUP2 MSTORE PUSH1 0x20 ADD PUSH0 KECCAK256 PUSH1 0x3 ADD SLOAD DUP4 PUSH2 0x1CE1 SWAP2 SWAP1 PUSH2 0x3103 JUMP JUMPDEST PUSH2 0x1CEB SWAP2 SWAP1 PUSH2 0x3171 JUMP JUMPDEST SWAP1 POP DUP1 PUSH1 0x6 PUSH0 CALLER PUSH20 0xFFFFFFFFFFFFFFFFFFFFFFFFFFFFFFFFFFFFFFFF AND PUSH20 0xFFFFFFFFFFFFFFFFFFFFFFFFFFFFFFFFFFFFFFFF AND DUP2 MSTORE PUSH1 0x20 ADD SWAP1 DUP2 MSTORE PUSH1 0x20 ADD PUSH0 KECCAK256 PUSH0 ADD PUSH0 DUP3 DUP3 SLOAD PUSH2 0x1D3B SWAP2 SWAP1 PUSH2 0x2ED0 JUMP JUMPDEST SWAP3 POP POP DUP2 SWAP1 SSTORE POP DUP1 PUSH1 0x6 PUSH0 DUP9 PUSH20 0xFFFFFFFFFFFFFFFFFFFFFFFFFFFFFFFFFFFFFFFF AND PUSH20 0xFFFFFFFFFFFFFFFFFFFFFFFFFFFFFFFFFFFFFFFF AND DUP2 MSTORE PUSH1 0x20 ADD SWAP1 DUP2 MSTORE PUSH1 0x20 ADD PUSH0 KECCAK256 PUSH0 ADD PUSH0 DUP3 DUP3 SLOAD PUSH2 0x1D90 SWAP2 SWAP1 PUSH2 0x2F03 JUMP JUMPDEST SWAP3 POP POP DUP2 SWAP1 SSTORE POP PUSH2 0x1DA1 DUP7 DUP3 PUSH2 0x1900 JUMP JUMPDEST POP DUP1 DUP9 PUSH2 0x1DAE SWAP2 SWAP1 PUSH2 0x2ED0 JUMP JUMPDEST PUSH1 0x9 PUSH0 DUP12 DUP2 MSTORE PUSH1 0x20 ADD SWAP1 DUP2 MSTORE PUSH1 0x20 ADD PUSH0 KECCAK256 PUSH0 ADD PUSH0 DUP3 DUP3 SLOAD PUSH2 0x1DCF SWAP2 SWAP1 PUSH2 0x2F03 JUMP JUMPDEST SWAP3 POP POP DUP2 SWAP1 SSTORE POP PUSH2 0x1E0C PUSH1 0xB PUSH0 SWAP1 SLOAD SWAP1 PUSH2 0x100 EXP SWAP1 DIV PUSH20 0xFFFFFFFFFFFFFFFFFFFFFFFFFFFFFFFFFFFFFFFF AND DUP3 DUP11 PUSH2 0x1E07 SWAP2 SWAP1 PUSH2 0x2ED0 JUMP JUMPDEST PUSH2 0x1900 JUMP JUMPDEST POP DUP4 PUSH1 0x9 PUSH0 DUP12 DUP2 MSTORE PUSH1 0x20 ADD SWAP1 DUP2 MSTORE PUSH1 0x20 ADD PUSH0 KECCAK256 PUSH0 ADD SLOAD LT PUSH2 0x1E64 JUMPI PUSH1 0x2 PUSH1 0x9 PUSH0 DUP12 DUP2 MSTORE PUSH1 0x20 ADD SWAP1 DUP2 MSTORE PUSH1 0x20 ADD PUSH0 KECCAK256 PUSH1 0x7 ADD PUSH0 PUSH2 0x100 EXP DUP2 SLOAD DUP2 PUSH1 0xFF MUL NOT AND SWAP1 DUP4 PUSH1 0x3 DUP2 GT ISZERO PUSH2 0x1E5E JUMPI PUSH2 0x1E5D PUSH2 0x2918 JUMP JUMPDEST JUMPDEST MUL OR SWAP1 SSTORE POP JUMPDEST POP POP POP POP POP POP DUP1 DUP1 PUSH1 0x1 ADD SWAP2 POP POP PUSH2 0x1BA5 JUMP JUMPDEST POP POP POP JUMP JUMPDEST PUSH0 PUSH1 0x1 PUSH0 DUP5 PUSH20 0xFFFFFFFFFFFFFFFFFFFFFFFFFFFFFFFFFFFFFFFF AND PUSH20 0xFFFFFFFFFFFFFFFFFFFFFFFFFFFFFFFFFFFFFFFF AND DUP2 MSTORE PUSH1 0x20 ADD SWAP1 DUP2 MSTORE PUSH1 0x20 ADD PUSH0 KECCAK256 PUSH0 DUP4 PUSH20 0xFFFFFFFFFFFFFFFFFFFFFFFFFFFFFFFFFFFFFFFF AND PUSH20 0xFFFFFFFFFFFFFFFFFFFFFFFFFFFFFFFFFFFFFFFF AND DUP2 MSTORE PUSH1 0x20 ADD SWAP1 DUP2 MSTORE PUSH1 0x20 ADD PUSH0 KECCAK256 SLOAD SWAP1 POP SWAP3 SWAP2 POP POP JUMP JUMPDEST PUSH1 0xB PUSH0 SWAP1 SLOAD SWAP1 PUSH2 0x100 EXP SWAP1 DIV PUSH20 0xFFFFFFFFFFFFFFFFFFFFFFFFFFFFFFFFFFFFFFFF AND PUSH20 0xFFFFFFFFFFFFFFFFFFFFFFFFFFFFFFFFFFFFFFFF AND CALLER PUSH20 0xFFFFFFFFFFFFFFFFFFFFFFFFFFFFFFFFFFFFFFFF AND EQ PUSH2 0x1F8D JUMPI PUSH1 0x40 MLOAD PUSH32 0x8C379A000000000000000000000000000000000000000000000000000000000 DUP2 MSTORE PUSH1 0x4 ADD PUSH2 0x1F84 SWAP1 PUSH2 0x2FE8 JUMP JUMPDEST PUSH1 0x40 MLOAD DUP1 SWAP2 SUB SWAP1 REVERT JUMPDEST PUSH1 0x5 PUSH0 DUP4 PUSH20 0xFFFFFFFFFFFFFFFFFFFFFFFFFFFFFFFFFFFFFFFF AND PUSH20 0xFFFFFFFFFFFFFFFFFFFFFFFFFFFFFFFFFFFFFFFF AND DUP2 MSTORE PUSH1 0x20 ADD SWAP1 DUP2 MSTORE PUSH1 0x20 ADD PUSH0 KECCAK256 PUSH0 SWAP1 SLOAD SWAP1 PUSH2 0x100 EXP SWAP1 DIV PUSH1 0xFF AND PUSH2 0x2016 JUMPI PUSH1 0x40 MLOAD PUSH32 0x8C379A000000000000000000000000000000000000000000000000000000000 DUP2 MSTORE PUSH1 0x4 ADD PUSH2 0x200D SWAP1 PUSH2 0x2BEE JUMP JUMPDEST PUSH1 0x40 MLOAD DUP1 SWAP2 SUB SWAP1 REVERT JUMPDEST PUSH2 0x2042 DUP3 PUSH1 0xB PUSH0 SWAP1 SLOAD SWAP1 PUSH2 0x100 EXP SWAP1 DIV PUSH20 0xFFFFFFFFFFFFFFFFFFFFFFFFFFFFFFFFFFFFFFFF AND DUP4 PUSH2 0x8E0 JUMP JUMPDEST POP DUP1 PUSH1 0x6 PUSH0 DUP5 PUSH20 0xFFFFFFFFFFFFFFFFFFFFFFFFFFFFFFFFFFFFFFFF AND PUSH20 0xFFFFFFFFFFFFFFFFFFFFFFFFFFFFFFFFFFFFFFFF AND DUP2 MSTORE PUSH1 0x20 ADD SWAP1 DUP2 MSTORE PUSH1 0x20 ADD PUSH0 KECCAK256 PUSH0 ADD PUSH0 DUP3 DUP3 SLOAD PUSH2 0x2091 SWAP2 SWAP1 PUSH2 0x2ED0 JUMP JUMPDEST SWAP3 POP POP DUP2 SWAP1 SSTORE POP POP POP JUMP JUMPDEST PUSH1 0xB PUSH0 SWAP1 SLOAD SWAP1 PUSH2 0x100 EXP SWAP1 DIV PUSH20 0xFFFFFFFFFFFFFFFFFFFFFFFFFFFFFFFFFFFFFFFF AND DUP2 JUMP JUMPDEST PUSH0 CALLER SWAP1 POP SWAP1 JUMP JUMPDEST PUSH2 0x20D5 DUP4 DUP4 DUP4 PUSH1 0x1 PUSH2 0x2475 JUMP JUMPDEST POP POP POP JUMP JUMPDEST PUSH0 PUSH2 0x20E5 DUP5 DUP5 PUSH2 0x1E7C JUMP JUMPDEST SWAP1 POP PUSH32 0xFFFFFFFFFFFFFFFFFFFFFFFFFFFFFFFFFFFFFFFFFFFFFFFFFFFFFFFFFFFFFFFF DUP2 EQ PUSH2 0x2166 JUMPI DUP2 DUP2 LT ISZERO PUSH2 0x2157 JUMPI DUP3 DUP2 DUP4 PUSH1 0x40 MLOAD PUSH32 0xFB8F41B200000000000000000000000000000000000000000000000000000000 DUP2 MSTORE PUSH1 0x4 ADD PUSH2 0x214E SWAP4 SWAP3 SWAP2 SWAP1 PUSH2 0x3209 JUMP JUMPDEST PUSH1 0x40 MLOAD DUP1 SWAP2 SUB SWAP1 REVERT JUMPDEST PUSH2 0x2165 DUP5 DUP5 DUP5 DUP5 SUB PUSH0 PUSH2 0x2475 JUMP JUMPDEST JUMPDEST POP POP POP POP JUMP JUMPDEST PUSH0 PUSH20 0xFFFFFFFFFFFFFFFFFFFFFFFFFFFFFFFFFFFFFFFF AND DUP4 PUSH20 0xFFFFFFFFFFFFFFFFFFFFFFFFFFFFFFFFFFFFFFFF AND SUB PUSH2 0x21DC JUMPI PUSH0 PUSH1 0x40 MLOAD PUSH32 0x96C6FD1E00000000000000000000000000000000000000000000000000000000 DUP2 MSTORE PUSH1 0x4 ADD PUSH2 0x21D3 SWAP2 SWAP1 PUSH2 0x2B23 JUMP JUMPDEST PUSH1 0x40 MLOAD DUP1 SWAP2 SUB SWAP1 REVERT JUMPDEST PUSH0 PUSH20 0xFFFFFFFFFFFFFFFFFFFFFFFFFFFFFFFFFFFFFFFF AND DUP3 PUSH20 0xFFFFFFFFFFFFFFFFFFFFFFFFFFFFFFFFFFFFFFFF AND SUB PUSH2 0x224C JUMPI PUSH0 PUSH1 0x40 MLOAD PUSH32 0xEC442F0500000000000000000000000000000000000000000000000000000000 DUP2 MSTORE PUSH1 0x4 ADD PUSH2 0x2243 SWAP2 SWAP1 PUSH2 0x2B23 JUMP JUMPDEST PUSH1 0x40 MLOAD DUP1 SWAP2 SUB SWAP1 REVERT JUMPDEST PUSH2 0x2257 DUP4 DUP4 DUP4 PUSH2 0x225C JUMP JUMPDEST POP POP POP JUMP JUMPDEST PUSH0 PUSH20 0xFFFFFFFFFFFFFFFFFFFFFFFFFFFFFFFFFFFFFFFF AND DUP4 PUSH20 0xFFFFFFFFFFFFFFFFFFFFFFFFFFFFFFFFFFFFFFFF AND SUB PUSH2 0x22AC JUMPI DUP1 PUSH1 0x2 PUSH0 DUP3 DUP3 SLOAD PUSH2 0x22A0 SWAP2 SWAP1 PUSH2 0x2F03 JUMP JUMPDEST SWAP3 POP POP DUP2 SWAP1 SSTORE POP PUSH2 0x237A JUMP JUMPDEST PUSH0 PUSH0 PUSH0 DUP6 PUSH20 0xFFFFFFFFFFFFFFFFFFFFFFFFFFFFFFFFFFFFFFFF AND PUSH20 0xFFFFFFFFFFFFFFFFFFFFFFFFFFFFFFFFFFFFFFFF AND DUP2 MSTORE PUSH1 0x20 ADD SWAP1 DUP2 MSTORE PUSH1 0x20 ADD PUSH0 KECCAK256 SLOAD SWAP1 POP DUP2 DUP2 LT ISZERO PUSH2 0x2335 JUMPI DUP4 DUP2 DUP4 PUSH1 0x40 MLOAD PUSH32 0xE450D38C00000000000000000000000000000000000000000000000000000000 DUP2 MSTORE PUSH1 0x4 ADD PUSH2 0x232C SWAP4 SWAP3 SWAP2 SWAP1 PUSH2 0x3209 JUMP JUMPDEST PUSH1 0x40 MLOAD DUP1 SWAP2 SUB SWAP1 REVERT JUMPDEST DUP2 DUP2 SUB PUSH0 PUSH0 DUP7 PUSH20 0xFFFFFFFFFFFFFFFFFFFFFFFFFFFFFFFFFFFFFFFF AND PUSH20 0xFFFFFFFFFFFFFFFFFFFFFFFFFFFFFFFFFFFFFFFF AND DUP2 MSTORE PUSH1 0x20 ADD SWAP1 DUP2 MSTORE PUSH1 0x20 ADD PUSH0 KECCAK256 DUP2 SWAP1 SSTORE POP POP JUMPDEST PUSH0 PUSH20 0xFFFFFFFFFFFFFFFFFFFFFFFFFFFFFFFFFFFFFFFF AND DUP3 PUSH20 0xFFFFFFFFFFFFFFFFFFFFFFFFFFFFFFFFFFFFFFFF AND SUB PUSH2 0x23C1 JUMPI DUP1 PUSH1 0x2 PUSH0 DUP3 DUP3 SLOAD SUB SWAP3 POP POP DUP2 SWAP1 SSTORE POP PUSH2 0x240B JUMP JUMPDEST DUP1 PUSH0 PUSH0 DUP5 PUSH20 0xFFFFFFFFFFFFFFFFFFFFFFFFFFFFFFFFFFFFFFFF AND PUSH20 0xFFFFFFFFFFFFFFFFFFFFFFFFFFFFFFFFFFFFFFFF AND DUP2 MSTORE PUSH1 0x20 ADD SWAP1 DUP2 MSTORE PUSH1 0x20 ADD PUSH0 KECCAK256 PUSH0 DUP3 DUP3 SLOAD ADD SWAP3 POP POP DUP2 SWAP1 SSTORE POP JUMPDEST DUP2 PUSH20 0xFFFFFFFFFFFFFFFFFFFFFFFFFFFFFFFFFFFFFFFF AND DUP4 PUSH20 0xFFFFFFFFFFFFFFFFFFFFFFFFFFFFFFFFFFFFFFFF AND PUSH32 0xDDF252AD1BE2C89B69C2B068FC378DAA952BA7F163C4A11628F55A4DF523B3EF DUP4 PUSH1 0x40 MLOAD PUSH2 0x2468 SWAP2 SWAP1 PUSH2 0x276A JUMP JUMPDEST PUSH1 0x40 MLOAD DUP1 SWAP2 SUB SWAP1 LOG3 POP POP POP JUMP JUMPDEST PUSH0 PUSH20 0xFFFFFFFFFFFFFFFFFFFFFFFFFFFFFFFFFFFFFFFF AND DUP5 PUSH20 0xFFFFFFFFFFFFFFFFFFFFFFFFFFFFFFFFFFFFFFFF AND SUB PUSH2 0x24E5 JUMPI PUSH0 PUSH1 0x40 MLOAD PUSH32 0xE602DF0500000000000000000000000000000000000000000000000000000000 DUP2 MSTORE PUSH1 0x4 ADD PUSH2 0x24DC SWAP2 SWAP1 PUSH2 0x2B23 JUMP JUMPDEST PUSH1 0x40 MLOAD DUP1 SWAP2 SUB SWAP1 REVERT JUMPDEST PUSH0 PUSH20 0xFFFFFFFFFFFFFFFFFFFFFFFFFFFFFFFFFFFFFFFF AND DUP4 PUSH20 0xFFFFFFFFFFFFFFFFFFFFFFFFFFFFFFFFFFFFFFFF AND SUB PUSH2 0x2555 JUMPI PUSH0 PUSH1 0x40 MLOAD PUSH32 0x94280D6200000000000000000000000000000000000000000000000000000000 DUP2 MSTORE PUSH1 0x4 ADD PUSH2 0x254C SWAP2 SWAP1 PUSH2 0x2B23 JUMP JUMPDEST PUSH1 0x40 MLOAD DUP1 SWAP2 SUB SWAP1 REVERT JUMPDEST DUP2 PUSH1 0x1 PUSH0 DUP7 PUSH20 0xFFFFFFFFFFFFFFFFFFFFFFFFFFFFFFFFFFFFFFFF AND PUSH20 0xFFFFFFFFFFFFFFFFFFFFFFFFFFFFFFFFFFFFFFFF AND DUP2 MSTORE PUSH1 0x20 ADD SWAP1 DUP2 MSTORE PUSH1 0x20 ADD PUSH0 KECCAK256 PUSH0 DUP6 PUSH20 0xFFFFFFFFFFFFFFFFFFFFFFFFFFFFFFFFFFFFFFFF AND PUSH20 0xFFFFFFFFFFFFFFFFFFFFFFFFFFFFFFFFFFFFFFFF AND DUP2 MSTORE PUSH1 0x20 ADD SWAP1 DUP2 MSTORE PUSH1 0x20 ADD PUSH0 KECCAK256 DUP2 SWAP1 SSTORE POP DUP1 ISZERO PUSH2 0x263E JUMPI DUP3 PUSH20 0xFFFFFFFFFFFFFFFFFFFFFFFFFFFFFFFFFFFFFFFF AND DUP5 PUSH20 0xFFFFFFFFFFFFFFFFFFFFFFFFFFFFFFFFFFFFFFFF AND PUSH32 0x8C5BE1E5EBEC7D5BD14F71427D1E84F3DD0314C0F7B2291E5B200AC8C7C3B925 DUP5 PUSH1 0x40 MLOAD PUSH2 0x2635 SWAP2 SWAP1 PUSH2 0x276A JUMP JUMPDEST PUSH1 0x40 MLOAD DUP1 SWAP2 SUB SWAP1 LOG3 JUMPDEST POP POP POP POP JUMP JUMPDEST DUP3 DUP1 SLOAD DUP3 DUP3 SSTORE SWAP1 PUSH0 MSTORE PUSH1 0x20 PUSH0 KECCAK256 SWAP1 DUP2 ADD SWAP3 DUP3 ISZERO PUSH2 0x26BA JUMPI SWAP2 PUSH1 0x20 MUL DUP3 ADD JUMPDEST DUP3 DUP2 GT ISZERO PUSH2 0x26B9 JUMPI DUP3 MLOAD DUP3 PUSH0 PUSH2 0x100 EXP DUP2 SLOAD DUP2 PUSH20 0xFFFFFFFFFFFFFFFFFFFFFFFFFFFFFFFFFFFFFFFF MUL NOT AND SWAP1 DUP4 PUSH20 0xFFFFFFFFFFFFFFFFFFFFFFFFFFFFFFFFFFFFFFFF AND MUL OR SWAP1 SSTORE POP SWAP2 PUSH1 0x20 ADD SWAP2 SWAP1 PUSH1 0x1 ADD SWAP1 PUSH2 0x2662 JUMP JUMPDEST JUMPDEST POP SWAP1 POP PUSH2 0x26C7 SWAP2 SWAP1 PUSH2 0x26CB JUMP JUMPDEST POP SWAP1 JUMP JUMPDEST JUMPDEST DUP1 DUP3 GT ISZERO PUSH2 0x26E2 JUMPI PUSH0 DUP2 PUSH0 SWAP1 SSTORE POP PUSH1 0x1 ADD PUSH2 0x26CC JUMP JUMPDEST POP SWAP1 JUMP JUMPDEST PUSH0 PUSH0 REVERT JUMPDEST PUSH0 DUP2 SWAP1 POP SWAP2 SWAP1 POP JUMP JUMPDEST PUSH2 0x26FC DUP2 PUSH2 0x26EA JUMP JUMPDEST DUP2 EQ PUSH2 0x2706 JUMPI PUSH0 PUSH0 REVERT JUMPDEST POP JUMP JUMPDEST PUSH0 DUP2 CALLDATALOAD SWAP1 POP PUSH2 0x2717 DUP2 PUSH2 0x26F3 JUMP JUMPDEST SWAP3 SWAP2 POP POP JUMP JUMPDEST PUSH0 PUSH0 PUSH1 0x40 DUP4 DUP6 SUB SLT ISZERO PUSH2 0x2733 JUMPI PUSH2 0x2732 PUSH2 0x26E6 JUMP JUMPDEST JUMPDEST PUSH0 PUSH2 0x2740 DUP6 DUP3 DUP7 ADD PUSH2 0x2709 JUMP JUMPDEST SWAP3 POP POP PUSH1 0x20 PUSH2 0x2751 DUP6 DUP3 DUP7 ADD PUSH2 0x2709 JUMP JUMPDEST SWAP2 POP POP SWAP3 POP SWAP3 SWAP1 POP JUMP JUMPDEST PUSH2 0x2764 DUP2 PUSH2 0x26EA JUMP JUMPDEST DUP3 MSTORE POP POP JUMP JUMPDEST PUSH0 PUSH1 0x20 DUP3 ADD SWAP1 POP PUSH2 0x277D PUSH0 DUP4 ADD DUP5 PUSH2 0x275B JUMP JUMPDEST SWAP3 SWAP2 POP POP JUMP JUMPDEST PUSH0 DUP2 MLOAD SWAP1 POP SWAP2 SWAP1 POP JUMP JUMPDEST PUSH0 DUP3 DUP3 MSTORE PUSH1 0x20 DUP3 ADD SWAP1 POP SWAP3 SWAP2 POP POP JUMP JUMPDEST DUP3 DUP2 DUP4 MCOPY PUSH0 DUP4 DUP4 ADD MSTORE POP POP POP JUMP JUMPDEST PUSH0 PUSH1 0x1F NOT PUSH1 0x1F DUP4 ADD AND SWAP1 POP SWAP2 SWAP1 POP JUMP JUMPDEST PUSH0 PUSH2 0x27C5 DUP3 PUSH2 0x2783 JUMP JUMPDEST PUSH2 0x27CF DUP2 DUP6 PUSH2 0x278D JUMP JUMPDEST SWAP4 POP PUSH2 0x27DF DUP2 DUP6 PUSH1 0x20 DUP7 ADD PUSH2 0x279D JUMP JUMPDEST PUSH2 0x27E8 DUP2 PUSH2 0x27AB JUMP JUMPDEST DUP5 ADD SWAP2 POP POP SWAP3 SWAP2 POP POP JUMP JUMPDEST PUSH0 PUSH1 0x20 DUP3 ADD SWAP1 POP DUP2 DUP2 SUB PUSH0 DUP4 ADD MSTORE PUSH2 0x280B DUP2 DUP5 PUSH2 0x27BB JUMP JUMPDEST SWAP1 POP SWAP3 SWAP2 POP POP JUMP JUMPDEST PUSH0 PUSH20 0xFFFFFFFFFFFFFFFFFFFFFFFFFFFFFFFFFFFFFFFF DUP3 AND SWAP1 POP SWAP2 SWAP1 POP JUMP JUMPDEST PUSH0 PUSH2 0x283C DUP3 PUSH2 0x2813 JUMP JUMPDEST SWAP1 POP SWAP2 SWAP1 POP JUMP JUMPDEST PUSH2 0x284C DUP2 PUSH2 0x2832 JUMP JUMPDEST DUP2 EQ PUSH2 0x2856 JUMPI PUSH0 PUSH0 REVERT JUMPDEST POP JUMP JUMPDEST PUSH0 DUP2 CALLDATALOAD SWAP1 POP PUSH2 0x2867 DUP2 PUSH2 0x2843 JUMP JUMPDEST SWAP3 SWAP2 POP POP JUMP JUMPDEST PUSH0 PUSH0 PUSH1 0x40 DUP4 DUP6 SUB SLT ISZERO PUSH2 0x2883 JUMPI PUSH2 0x2882 PUSH2 0x26E6 JUMP JUMPDEST JUMPDEST PUSH0 PUSH2 0x2890 DUP6 DUP3 DUP7 ADD PUSH2 0x2859 JUMP JUMPDEST SWAP3 POP POP PUSH1 0x20 PUSH2 0x28A1 DUP6 DUP3 DUP7 ADD PUSH2 0x2709 JUMP JUMPDEST SWAP2 POP POP SWAP3 POP SWAP3 SWAP1 POP JUMP JUMPDEST PUSH0 DUP2 ISZERO ISZERO SWAP1 POP SWAP2 SWAP1 POP JUMP JUMPDEST PUSH2 0x28BF DUP2 PUSH2 0x28AB JUMP JUMPDEST DUP3 MSTORE POP POP JUMP JUMPDEST PUSH0 PUSH1 0x20 DUP3 ADD SWAP1 POP PUSH2 0x28D8 PUSH0 DUP4 ADD DUP5 PUSH2 0x28B6 JUMP JUMPDEST SWAP3 SWAP2 POP POP JUMP JUMPDEST PUSH0 PUSH1 0x20 DUP3 DUP5 SUB SLT ISZERO PUSH2 0x28F3 JUMPI PUSH2 0x28F2 PUSH2 0x26E6 JUMP JUMPDEST JUMPDEST PUSH0 PUSH2 0x2900 DUP5 DUP3 DUP6 ADD PUSH2 0x2709 JUMP JUMPDEST SWAP2 POP POP SWAP3 SWAP2 POP POP JUMP JUMPDEST PUSH2 0x2912 DUP2 PUSH2 0x2832 JUMP JUMPDEST DUP3 MSTORE POP POP JUMP JUMPDEST PUSH32 0x4E487B7100000000000000000000000000000000000000000000000000000000 PUSH0 MSTORE PUSH1 0x21 PUSH1 0x4 MSTORE PUSH1 0x24 PUSH0 REVERT JUMPDEST PUSH1 0x4 DUP2 LT PUSH2 0x2956 JUMPI PUSH2 0x2955 PUSH2 0x2918 JUMP JUMPDEST JUMPDEST POP JUMP JUMPDEST PUSH0 DUP2 SWAP1 POP PUSH2 0x2966 DUP3 PUSH2 0x2945 JUMP JUMPDEST SWAP2 SWAP1 POP JUMP JUMPDEST PUSH0 PUSH2 0x2975 DUP3 PUSH2 0x2959 JUMP JUMPDEST SWAP1 POP SWAP2 SWAP1 POP JUMP JUMPDEST PUSH2 0x2985 DUP2 PUSH2 0x296B JUMP JUMPDEST DUP3 MSTORE POP POP JUMP JUMPDEST PUSH0 PUSH1 0xE0 DUP3 ADD SWAP1 POP PUSH2 0x299E PUSH0 DUP4 ADD DUP11 PUSH2 0x275B JUMP JUMPDEST PUSH2 0x29AB PUSH1 0x20 DUP4 ADD DUP10 PUSH2 0x275B JUMP JUMPDEST PUSH2 0x29B8 PUSH1 0x40 DUP4 ADD DUP9 PUSH2 0x275B JUMP JUMPDEST PUSH2 0x29C5 PUSH1 0x60 DUP4 ADD DUP8 PUSH2 0x275B JUMP JUMPDEST PUSH2 0x29D2 PUSH1 0x80 DUP4 ADD DUP7 PUSH2 0x2909 JUMP JUMPDEST PUSH2 0x29DF PUSH1 0xA0 DUP4 ADD DUP6 PUSH2 0x275B JUMP JUMPDEST PUSH2 0x29EC PUSH1 0xC0 DUP4 ADD DUP5 PUSH2 0x297C JUMP JUMPDEST SWAP9 SWAP8 POP POP POP POP POP POP POP POP JUMP JUMPDEST PUSH0 PUSH1 0x20 DUP3 DUP5 SUB SLT ISZERO PUSH2 0x2A0D JUMPI PUSH2 0x2A0C PUSH2 0x26E6 JUMP JUMPDEST JUMPDEST PUSH0 PUSH2 0x2A1A DUP5 DUP3 DUP6 ADD PUSH2 0x2859 JUMP JUMPDEST SWAP2 POP POP SWAP3 SWAP2 POP POP JUMP JUMPDEST PUSH0 PUSH0 PUSH0 PUSH1 0x60 DUP5 DUP7 SUB SLT ISZERO PUSH2 0x2A3A JUMPI PUSH2 0x2A39 PUSH2 0x26E6 JUMP JUMPDEST JUMPDEST PUSH0 PUSH2 0x2A47 DUP7 DUP3 DUP8 ADD PUSH2 0x2859 JUMP JUMPDEST SWAP4 POP POP PUSH1 0x20 PUSH2 0x2A58 DUP7 DUP3 DUP8 ADD PUSH2 0x2859 JUMP JUMPDEST SWAP3 POP POP PUSH1 0x40 PUSH2 0x2A69 DUP7 DUP3 DUP8 ADD PUSH2 0x2709 JUMP JUMPDEST SWAP2 POP POP SWAP3 POP SWAP3 POP SWAP3 JUMP JUMPDEST PUSH0 PUSH1 0xFF DUP3 AND SWAP1 POP SWAP2 SWAP1 POP JUMP JUMPDEST PUSH2 0x2A88 DUP2 PUSH2 0x2A73 JUMP JUMPDEST DUP3 MSTORE POP POP JUMP JUMPDEST PUSH0 PUSH1 0x20 DUP3 ADD SWAP1 POP PUSH2 0x2AA1 PUSH0 DUP4 ADD DUP5 PUSH2 0x2A7F JUMP JUMPDEST SWAP3 SWAP2 POP POP JUMP JUMPDEST PUSH0 PUSH0 PUSH1 0x40 DUP4 DUP6 SUB SLT ISZERO PUSH2 0x2ABD JUMPI PUSH2 0x2ABC PUSH2 0x26E6 JUMP JUMPDEST JUMPDEST PUSH0 PUSH2 0x2ACA DUP6 DUP3 DUP7 ADD PUSH2 0x2709 JUMP JUMPDEST SWAP3 POP POP PUSH1 0x20 PUSH2 0x2ADB DUP6 DUP3 DUP7 ADD PUSH2 0x2859 JUMP JUMPDEST SWAP2 POP POP SWAP3 POP SWAP3 SWAP1 POP JUMP JUMPDEST PUSH0 PUSH0 PUSH1 0x40 DUP4 DUP6 SUB SLT ISZERO PUSH2 0x2AFB JUMPI PUSH2 0x2AFA PUSH2 0x26E6 JUMP JUMPDEST JUMPDEST PUSH0 PUSH2 0x2B08 DUP6 DUP3 DUP7 ADD PUSH2 0x2859 JUMP JUMPDEST SWAP3 POP POP PUSH1 0x20 PUSH2 0x2B19 DUP6 DUP3 DUP7 ADD PUSH2 0x2859 JUMP JUMPDEST SWAP2 POP POP SWAP3 POP SWAP3 SWAP1 POP JUMP JUMPDEST PUSH0 PUSH1 0x20 DUP3 ADD SWAP1 POP PUSH2 0x2B36 PUSH0 DUP4 ADD DUP5 PUSH2 0x2909 JUMP JUMPDEST SWAP3 SWAP2 POP POP JUMP JUMPDEST PUSH32 0x41646D696E2063616E2774206265206120757365720000000000000000000000 PUSH0 DUP3 ADD MSTORE POP JUMP JUMPDEST PUSH0 PUSH2 0x2B70 PUSH1 0x15 DUP4 PUSH2 0x278D JUMP JUMPDEST SWAP2 POP PUSH2 0x2B7B DUP3 PUSH2 0x2B3C JUMP JUMPDEST PUSH1 0x20 DUP3 ADD SWAP1 POP SWAP2 SWAP1 POP JUMP JUMPDEST PUSH0 PUSH1 0x20 DUP3 ADD SWAP1 POP DUP2 DUP2 SUB PUSH0 DUP4 ADD MSTORE PUSH2 0x2B9D DUP2 PUSH2 0x2B64 JUMP JUMPDEST SWAP1 POP SWAP2 SWAP1 POP JUMP JUMPDEST PUSH32 0x55736572206E6F74207265676973747265640000000000000000000000000000 PUSH0 DUP3 ADD MSTORE POP JUMP JUMPDEST PUSH0 PUSH2 0x2BD8 PUSH1 0x12 DUP4 PUSH2 0x278D JUMP JUMPDEST SWAP2 POP PUSH2 0x2BE3 DUP3 PUSH2 0x2BA4 JUMP JUMPDEST PUSH1 0x20 DUP3 ADD SWAP1 POP SWAP2 SWAP1 POP JUMP JUMPDEST PUSH0 PUSH1 0x20 DUP3 ADD SWAP1 POP DUP2 DUP2 SUB PUSH0 DUP4 ADD MSTORE PUSH2 0x2C05 DUP2 PUSH2 0x2BCC JUMP JUMPDEST SWAP1 POP SWAP2 SWAP1 POP JUMP JUMPDEST PUSH32 0x4E487B7100000000000000000000000000000000000000000000000000000000 PUSH0 MSTORE PUSH1 0x41 PUSH1 0x4 MSTORE PUSH1 0x24 PUSH0 REVERT JUMPDEST PUSH32 0x4E487B7100000000000000000000000000000000000000000000000000000000 PUSH0 MSTORE PUSH1 0x11 PUSH1 0x4 MSTORE PUSH1 0x24 PUSH0 REVERT JUMPDEST PUSH0 PUSH2 0x2C70 DUP3 PUSH2 0x26EA JUMP JUMPDEST SWAP2 POP PUSH32 0xFFFFFFFFFFFFFFFFFFFFFFFFFFFFFFFFFFFFFFFFFFFFFFFFFFFFFFFFFFFFFFFF DUP3 SUB PUSH2 0x2CA2 JUMPI PUSH2 0x2CA1 PUSH2 0x2C39 JUMP JUMPDEST JUMPDEST PUSH1 0x1 DUP3 ADD SWAP1 POP SWAP2 SWAP1 POP JUMP JUMPDEST PUSH32 0x4E487B7100000000000000000000000000000000000000000000000000000000 PUSH0 MSTORE PUSH1 0x22 PUSH1 0x4 MSTORE PUSH1 0x24 PUSH0 REVERT JUMPDEST PUSH0 PUSH1 0x2 DUP3 DIV SWAP1 POP PUSH1 0x1 DUP3 AND DUP1 PUSH2 0x2CF1 JUMPI PUSH1 0x7F DUP3 AND SWAP2 POP JUMPDEST PUSH1 0x20 DUP3 LT DUP2 SUB PUSH2 0x2D04 JUMPI PUSH2 0x2D03 PUSH2 0x2CAD JUMP JUMPDEST JUMPDEST POP SWAP2 SWAP1 POP JUMP JUMPDEST PUSH32 0x5573657227732062616C616E636520697320746F6F206C6F7700000000000000 PUSH0 DUP3 ADD MSTORE POP JUMP JUMPDEST PUSH0 PUSH2 0x2D3E PUSH1 0x19 DUP4 PUSH2 0x278D JUMP JUMPDEST SWAP2 POP PUSH2 0x2D49 DUP3 PUSH2 0x2D0A JUMP JUMPDEST PUSH1 0x20 DUP3 ADD SWAP1 POP SWAP2 SWAP1 POP JUMP JUMPDEST PUSH0 PUSH1 0x20 DUP3 ADD SWAP1 POP DUP2 DUP2 SUB PUSH0 DUP4 ADD MSTORE PUSH2 0x2D6B DUP2 PUSH2 0x2D32 JUMP JUMPDEST SWAP1 POP SWAP2 SWAP1 POP JUMP JUMPDEST PUSH32 0x50726F6A65637420646F65736E27742065786973740000000000000000000000 PUSH0 DUP3 ADD MSTORE POP JUMP JUMPDEST PUSH0 PUSH2 0x2DA6 PUSH1 0x15 DUP4 PUSH2 0x278D JUMP JUMPDEST SWAP2 POP PUSH2 0x2DB1 DUP3 PUSH2 0x2D72 JUMP JUMPDEST PUSH1 0x20 DUP3 ADD SWAP1 POP SWAP2 SWAP1 POP JUMP JUMPDEST PUSH0 PUSH1 0x20 DUP3 ADD SWAP1 POP DUP2 DUP2 SUB PUSH0 DUP4 ADD MSTORE PUSH2 0x2DD3 DUP2 PUSH2 0x2D9A JUMP JUMPDEST SWAP1 POP SWAP2 SWAP1 POP JUMP JUMPDEST PUSH32 0x50726F6A65637420646F65736E27742061636365707420696E766573746D656E PUSH0 DUP3 ADD MSTORE PUSH32 0x747320616E796D6F726500000000000000000000000000000000000000000000 PUSH1 0x20 DUP3 ADD MSTORE POP JUMP JUMPDEST PUSH0 PUSH2 0x2E34 PUSH1 0x2A DUP4 PUSH2 0x278D JUMP JUMPDEST SWAP2 POP PUSH2 0x2E3F DUP3 PUSH2 0x2DDA JUMP JUMPDEST PUSH1 0x40 DUP3 ADD SWAP1 POP SWAP2 SWAP1 POP JUMP JUMPDEST PUSH0 PUSH1 0x20 DUP3 ADD SWAP1 POP DUP2 DUP2 SUB PUSH0 DUP4 ADD MSTORE PUSH2 0x2E61 DUP2 PUSH2 0x2E28 JUMP JUMPDEST SWAP1 POP SWAP2 SWAP1 POP JUMP JUMPDEST PUSH32 0x43616E277420696E7665737420696E206F776E2070726F6A6563740000000000 PUSH0 DUP3 ADD MSTORE POP JUMP JUMPDEST PUSH0 PUSH2 0x2E9C PUSH1 0x1B DUP4 PUSH2 0x278D JUMP JUMPDEST SWAP2 POP PUSH2 0x2EA7 DUP3 PUSH2 0x2E68 JUMP JUMPDEST PUSH1 0x20 DUP3 ADD SWAP1 POP SWAP2 SWAP1 POP JUMP JUMPDEST PUSH0 PUSH1 0x20 DUP3 ADD SWAP1 POP DUP2 DUP2 SUB PUSH0 DUP4 ADD MSTORE PUSH2 0x2EC9 DUP2 PUSH2 0x2E90 JUMP JUMPDEST SWAP1 POP SWAP2 SWAP1 POP JUMP JUMPDEST PUSH0 PUSH2 0x2EDA DUP3 PUSH2 0x26EA JUMP JUMPDEST SWAP2 POP PUSH2 0x2EE5 DUP4 PUSH2 0x26EA JUMP JUMPDEST SWAP3 POP DUP3 DUP3 SUB SWAP1 POP DUP2 DUP2 GT ISZERO PUSH2 0x2EFD JUMPI PUSH2 0x2EFC PUSH2 0x2C39 JUMP JUMPDEST JUMPDEST SWAP3 SWAP2 POP POP JUMP JUMPDEST PUSH0 PUSH2 0x2F0D DUP3 PUSH2 0x26EA JUMP JUMPDEST SWAP2 POP PUSH2 0x2F18 DUP4 PUSH2 0x26EA JUMP JUMPDEST SWAP3 POP DUP3 DUP3 ADD SWAP1 POP DUP1 DUP3 GT ISZERO PUSH2 0x2F30 JUMPI PUSH2 0x2F2F PUSH2 0x2C39 JUMP JUMPDEST JUMPDEST SWAP3 SWAP2 POP POP JUMP JUMPDEST PUSH32 0x416C726561647920726567697374726564000000000000000000000000000000 PUSH0 DUP3 ADD MSTORE POP JUMP JUMPDEST PUSH0 PUSH2 0x2F6A PUSH1 0x11 DUP4 PUSH2 0x278D JUMP JUMPDEST SWAP2 POP PUSH2 0x2F75 DUP3 PUSH2 0x2F36 JUMP JUMPDEST PUSH1 0x20 DUP3 ADD SWAP1 POP SWAP2 SWAP1 POP JUMP JUMPDEST PUSH0 PUSH1 0x20 DUP3 ADD SWAP1 POP DUP2 DUP2 SUB PUSH0 DUP4 ADD MSTORE PUSH2 0x2F97 DUP2 PUSH2 0x2F5E JUMP JUMPDEST SWAP1 POP SWAP2 SWAP1 POP JUMP JUMPDEST PUSH32 0x4F6E6C7920666F722061646D696E000000000000000000000000000000000000 PUSH0 DUP3 ADD MSTORE POP JUMP JUMPDEST PUSH0 PUSH2 0x2FD2 PUSH1 0xE DUP4 PUSH2 0x278D JUMP JUMPDEST SWAP2 POP PUSH2 0x2FDD DUP3 PUSH2 0x2F9E JUMP JUMPDEST PUSH1 0x20 DUP3 ADD SWAP1 POP SWAP2 SWAP1 POP JUMP JUMPDEST PUSH0 PUSH1 0x20 DUP3 ADD SWAP1 POP DUP2 DUP2 SUB PUSH0 DUP4 ADD MSTORE PUSH2 0x2FFF DUP2 PUSH2 0x2FC6 JUMP JUMPDEST SWAP1 POP SWAP2 SWAP1 POP JUMP JUMPDEST PUSH32 0x50726F6A656374277320676F616C2069736E2774207265616368656420796574 PUSH0 DUP3 ADD MSTORE POP JUMP JUMPDEST PUSH0 PUSH2 0x303A PUSH1 0x20 DUP4 PUSH2 0x278D JUMP JUMPDEST SWAP2 POP PUSH2 0x3045 DUP3 PUSH2 0x3006 JUMP JUMPDEST PUSH1 0x20 DUP3 ADD SWAP1 POP SWAP2 SWAP1 POP JUMP JUMPDEST PUSH0 PUSH1 0x20 DUP3 ADD SWAP1 POP DUP2 DUP2 SUB PUSH0 DUP4 ADD MSTORE PUSH2 0x3067 DUP2 PUSH2 0x302E JUMP JUMPDEST SWAP1 POP SWAP2 SWAP1 POP JUMP JUMPDEST PUSH32 0x50726F6A65637427732062616C616E636520697320746F6F206C6F7700000000 PUSH0 DUP3 ADD MSTORE POP JUMP JUMPDEST PUSH0 PUSH2 0x30A2 PUSH1 0x1C DUP4 PUSH2 0x278D JUMP JUMPDEST SWAP2 POP PUSH2 0x30AD DUP3 PUSH2 0x306E JUMP JUMPDEST PUSH1 0x20 DUP3 ADD SWAP1 POP SWAP2 SWAP1 POP JUMP JUMPDEST PUSH0 PUSH1 0x20 DUP3 ADD SWAP1 POP DUP2 DUP2 SUB PUSH0 DUP4 ADD MSTORE PUSH2 0x30CF DUP2 PUSH2 0x3096 JUMP JUMPDEST SWAP1 POP SWAP2 SWAP1 POP JUMP JUMPDEST PUSH32 0x4E487B7100000000000000000000000000000000000000000000000000000000 PUSH0 MSTORE PUSH1 0x32 PUSH1 0x4 MSTORE PUSH1 0x24 PUSH0 REVERT JUMPDEST PUSH0 PUSH2 0x310D DUP3 PUSH2 0x26EA JUMP JUMPDEST SWAP2 POP PUSH2 0x3118 DUP4 PUSH2 0x26EA JUMP JUMPDEST SWAP3 POP DUP3 DUP3 MUL PUSH2 0x3126 DUP2 PUSH2 0x26EA JUMP JUMPDEST SWAP2 POP DUP3 DUP3 DIV DUP5 EQ DUP4 ISZERO OR PUSH2 0x313D JUMPI PUSH2 0x313C PUSH2 0x2C39 JUMP JUMPDEST JUMPDEST POP SWAP3 SWAP2 POP POP JUMP JUMPDEST PUSH32 0x4E487B7100000000000000000000000000000000000000000000000000000000 PUSH0 MSTORE PUSH1 0x12 PUSH1 0x4 MSTORE PUSH1 0x24 PUSH0 REVERT JUMPDEST PUSH0 PUSH2 0x317B DUP3 PUSH2 0x26EA JUMP JUMPDEST SWAP2 POP PUSH2 0x3186 DUP4 PUSH2 0x26EA JUMP JUMPDEST SWAP3 POP DUP3 PUSH2 0x3196 JUMPI PUSH2 0x3195 PUSH2 0x3144 JUMP JUMPDEST JUMPDEST DUP3 DUP3 DIV SWAP1 POP SWAP3 SWAP2 POP POP JUMP JUMPDEST PUSH32 0x50726F6A6563742069736E277420506179696E6720746F6B656E730000000000 PUSH0 DUP3 ADD MSTORE POP JUMP JUMPDEST PUSH0 PUSH2 0x31D5 PUSH1 0x1B DUP4 PUSH2 0x278D JUMP JUMPDEST SWAP2 POP PUSH2 0x31E0 DUP3 PUSH2 0x31A1 JUMP JUMPDEST PUSH1 0x20 DUP3 ADD SWAP1 POP SWAP2 SWAP1 POP JUMP JUMPDEST PUSH0 PUSH1 0x20 DUP3 ADD SWAP1 POP DUP2 DUP2 SUB PUSH0 DUP4 ADD MSTORE PUSH2 0x3202 DUP2 PUSH2 0x31C9 JUMP JUMPDEST SWAP1 POP SWAP2 SWAP1 POP JUMP JUMPDEST PUSH0 PUSH1 0x60 DUP3 ADD SWAP1 POP PUSH2 0x321C PUSH0 DUP4 ADD DUP7 PUSH2 0x2909 JUMP JUMPDEST PUSH2 0x3229 PUSH1 0x20 DUP4 ADD DUP6 PUSH2 0x275B JUMP JUMPDEST PUSH2 0x3236 PUSH1 0x40 DUP4 ADD DUP5 PUSH2 0x275B JUMP JUMPDEST SWAP5 SWAP4 POP POP POP POP JUMP INVALID LOG2 PUSH5 0x6970667358 0x22 SLT KECCAK256 0xA6 SWAP10 PUSH25 0xA3905DF71F12CFD2AD525236711CBFC66FEF995F9E9E2ABA PUSH5 0x42CC166473 PUSH16 0x6C634300081E00330000000000000000 "
				},
				"gasEstimates": {
					"creation": {
						"codeDepositCost": "2583200",
						"executionCost": "infinite",
						"totalCost": "infinite"
					},
					"external": {
						"_mint(address,uint256)": "infinite",
						"admin()": "2640",
						"allowance(address,address)": "infinite",
						"approve(address,uint256)": "infinite",
						"balanceOf(address)": "2917",
						"balanceOfWallet(address)": "3004",
						"closeProject(uint256)": "infinite",
						"createProject(uint256,uint256)": "infinite",
						"decimals()": "383",
						"giveTokens(address,uint256)": "infinite",
						"investInProject(uint256,uint256)": "infinite",
						"issueTokens(uint256,uint256)": "infinite",
						"name()": "infinite",
						"payInvestors(uint256,uint256)": "infinite",
						"projectCount()": "2514",
						"projects(uint256)": "infinite",
						"projectsInvestments(uint256,address)": "infinite",
						"registerUser()": "34174",
						"symbol()": "infinite",
						"takeTokens(address,uint256)": "infinite",
						"totalSupply()": "2544",
						"transfer(address,uint256)": "infinite",
						"transferFrom(address,address,uint256)": "infinite",
						"users(address)": "2837"
					}
				},
				"methodIdentifiers": {
					"_mint(address,uint256)": "4e6ec247",
					"admin()": "f851a440",
					"allowance(address,address)": "dd62ed3e",
					"approve(address,uint256)": "095ea7b3",
					"balanceOf(address)": "70a08231",
					"balanceOfWallet(address)": "23b86fbe",
					"closeProject(uint256)": "93dc12e6",
					"createProject(uint256,uint256)": "02da667b",
					"decimals()": "313ce567",
					"giveTokens(address,uint256)": "68dc9528",
					"investInProject(uint256,uint256)": "336f56dc",
					"issueTokens(uint256,uint256)": "54e35ba2",
					"name()": "06fdde03",
					"payInvestors(uint256,uint256)": "c2c6640b",
					"projectCount()": "36fbad26",
					"projects(uint256)": "107046bd",
					"projectsInvestments(uint256,address)": "6f7330e1",
					"registerUser()": "4d3820eb",
					"symbol()": "95d89b41",
					"takeTokens(address,uint256)": "e4ad9a18",
					"totalSupply()": "18160ddd",
					"transfer(address,uint256)": "a9059cbb",
					"transferFrom(address,address,uint256)": "23b872dd",
					"users(address)": "a87430ba"
				}
			},
			"storageLayout": {
				"storage": [
					{
						"astId": 22,
						"contract": "contracts/Invest.sol:Invest",
						"label": "_balances",
						"offset": 0,
						"slot": "0",
						"type": "t_mapping(t_address,t_uint256)"
					},
					{
						"astId": 28,
						"contract": "contracts/Invest.sol:Invest",
						"label": "_allowances",
						"offset": 0,
						"slot": "1",
						"type": "t_mapping(t_address,t_mapping(t_address,t_uint256))"
					},
					{
						"astId": 30,
						"contract": "contracts/Invest.sol:Invest",
						"label": "_totalSupply",
						"offset": 0,
						"slot": "2",
						"type": "t_uint256"
					},
					{
						"astId": 32,
						"contract": "contracts/Invest.sol:Invest",
						"label": "_name",
						"offset": 0,
						"slot": "3",
						"type": "t_string_storage"
					},
					{
						"astId": 34,
						"contract": "contracts/Invest.sol:Invest",
						"label": "_symbol",
						"offset": 0,
						"slot": "4",
						"type": "t_string_storage"
					},
					{
						"astId": 553,
						"contract": "contracts/Invest.sol:Invest",
						"label": "isRegistred",
						"offset": 0,
						"slot": "5",
						"type": "t_mapping(t_address,t_bool)"
					},
					{
						"astId": 558,
						"contract": "contracts/Invest.sol:Invest",
						"label": "users",
						"offset": 0,
						"slot": "6",
						"type": "t_mapping(t_address,t_struct(User)525_storage)"
					},
					{
						"astId": 561,
						"contract": "contracts/Invest.sol:Invest",
						"label": "projectCount",
						"offset": 0,
						"slot": "7",
						"type": "t_uint256"
					},
					{
						"astId": 565,
						"contract": "contracts/Invest.sol:Invest",
						"label": "doesExist",
						"offset": 0,
						"slot": "8",
						"type": "t_mapping(t_uint256,t_bool)"
					},
					{
						"astId": 570,
						"contract": "contracts/Invest.sol:Invest",
						"label": "projects",
						"offset": 0,
						"slot": "9",
						"type": "t_mapping(t_uint256,t_struct(Project)544_storage)"
					},
					{
						"astId": 576,
						"contract": "contracts/Invest.sol:Invest",
						"label": "projectsInvestments",
						"offset": 0,
						"slot": "10",
						"type": "t_mapping(t_uint256,t_mapping(t_address,t_uint256))"
					},
					{
						"astId": 578,
						"contract": "contracts/Invest.sol:Invest",
						"label": "admin",
						"offset": 0,
						"slot": "11",
						"type": "t_address"
					}
				],
				"types": {
					"t_address": {
						"encoding": "inplace",
						"label": "address",
						"numberOfBytes": "20"
					},
					"t_array(t_address)dyn_storage": {
						"base": "t_address",
						"encoding": "dynamic_array",
						"label": "address[]",
						"numberOfBytes": "32"
					},
					"t_bool": {
						"encoding": "inplace",
						"label": "bool",
						"numberOfBytes": "1"
					},
					"t_enum(Status)549": {
						"encoding": "inplace",
						"label": "enum Invest.Status",
						"numberOfBytes": "1"
					},
					"t_mapping(t_address,t_bool)": {
						"encoding": "mapping",
						"key": "t_address",
						"label": "mapping(address => bool)",
						"numberOfBytes": "32",
						"value": "t_bool"
					},
					"t_mapping(t_address,t_mapping(t_address,t_uint256))": {
						"encoding": "mapping",
						"key": "t_address",
						"label": "mapping(address => mapping(address => uint256))",
						"numberOfBytes": "32",
						"value": "t_mapping(t_address,t_uint256)"
					},
					"t_mapping(t_address,t_struct(User)525_storage)": {
						"encoding": "mapping",
						"key": "t_address",
						"label": "mapping(address => struct Invest.User)",
						"numberOfBytes": "32",
						"value": "t_struct(User)525_storage"
					},
					"t_mapping(t_address,t_uint256)": {
						"encoding": "mapping",
						"key": "t_address",
						"label": "mapping(address => uint256)",
						"numberOfBytes": "32",
						"value": "t_uint256"
					},
					"t_mapping(t_uint256,t_bool)": {
						"encoding": "mapping",
						"key": "t_uint256",
						"label": "mapping(uint256 => bool)",
						"numberOfBytes": "32",
						"value": "t_bool"
					},
					"t_mapping(t_uint256,t_mapping(t_address,t_uint256))": {
						"encoding": "mapping",
						"key": "t_uint256",
						"label": "mapping(uint256 => mapping(address => uint256))",
						"numberOfBytes": "32",
						"value": "t_mapping(t_address,t_uint256)"
					},
					"t_mapping(t_uint256,t_struct(Project)544_storage)": {
						"encoding": "mapping",
						"key": "t_uint256",
						"label": "mapping(uint256 => struct Invest.Project)",
						"numberOfBytes": "32",
						"value": "t_struct(Project)544_storage"
					},
					"t_string_storage": {
						"encoding": "bytes",
						"label": "string",
						"numberOfBytes": "32"
					},
					"t_struct(Project)544_storage": {
						"encoding": "inplace",
						"label": "struct Invest.Project",
						"members": [
							{
								"astId": 527,
								"contract": "contracts/Invest.sol:Invest",
								"label": "balance",
								"offset": 0,
								"slot": "0",
								"type": "t_uint256"
							},
							{
								"astId": 529,
								"contract": "contracts/Invest.sol:Invest",
								"label": "capital",
								"offset": 0,
								"slot": "1",
								"type": "t_uint256"
							},
							{
								"astId": 531,
								"contract": "contracts/Invest.sol:Invest",
								"label": "goal",
								"offset": 0,
								"slot": "2",
								"type": "t_uint256"
							},
							{
								"astId": 533,
								"contract": "contracts/Invest.sol:Invest",
								"label": "interest",
								"offset": 0,
								"slot": "3",
								"type": "t_uint256"
							},
							{
								"astId": 535,
								"contract": "contracts/Invest.sol:Invest",
								"label": "author",
								"offset": 0,
								"slot": "4",
								"type": "t_address"
							},
							{
								"astId": 537,
								"contract": "contracts/Invest.sol:Invest",
								"label": "investorsCount",
								"offset": 0,
								"slot": "5",
								"type": "t_uint256"
							},
							{
								"astId": 540,
								"contract": "contracts/Invest.sol:Invest",
								"label": "investors",
								"offset": 0,
								"slot": "6",
								"type": "t_array(t_address)dyn_storage"
							},
							{
								"astId": 543,
								"contract": "contracts/Invest.sol:Invest",
								"label": "status",
								"offset": 0,
								"slot": "7",
								"type": "t_enum(Status)549"
							}
						],
						"numberOfBytes": "256"
					},
					"t_struct(User)525_storage": {
						"encoding": "inplace",
						"label": "struct Invest.User",
						"members": [
							{
								"astId": 524,
								"contract": "contracts/Invest.sol:Invest",
								"label": "balance",
								"offset": 0,
								"slot": "0",
								"type": "t_uint256"
							}
						],
						"numberOfBytes": "32"
					},
					"t_uint256": {
						"encoding": "inplace",
						"label": "uint256",
						"numberOfBytes": "32"
					}
				}
			},
			"userdoc": {
				"kind": "user",
				"methods": {},
				"version": 1
			}
		}
	}
}